{
    "contractName": "Tenders",
    "abi": [
        {
            "inputs": [
                {
                    "internalType": "string",
                    "name": "name",
                    "type": "string"
                },
                {
                    "internalType": "string",
                    "name": "symbol",
                    "type": "string"
                }
            ],
            "stateMutability": "nonpayable",
            "type": "constructor"
        },
        {
            "anonymous": false,
            "inputs": [
                {
                    "indexed": true,
                    "internalType": "address",
                    "name": "owner",
                    "type": "address"
                },
                {
                    "indexed": true,
                    "internalType": "address",
                    "name": "approved",
                    "type": "address"
                },
                {
                    "indexed": true,
                    "internalType": "uint256",
                    "name": "tokenId",
                    "type": "uint256"
                }
            ],
            "name": "Approval",
            "type": "event"
        },
        {
            "anonymous": false,
            "inputs": [
                {
                    "indexed": true,
                    "internalType": "address",
                    "name": "owner",
                    "type": "address"
                },
                {
                    "indexed": true,
                    "internalType": "address",
                    "name": "operator",
                    "type": "address"
                },
                {
                    "indexed": false,
                    "internalType": "bool",
                    "name": "approved",
                    "type": "bool"
                }
            ],
            "name": "ApprovalForAll",
            "type": "event"
        },
        {
            "anonymous": false,
            "inputs": [
                {
                    "indexed": true,
                    "internalType": "bytes32",
                    "name": "role",
                    "type": "bytes32"
                },
                {
                    "indexed": true,
                    "internalType": "bytes32",
                    "name": "previousAdminRole",
                    "type": "bytes32"
                },
                {
                    "indexed": true,
                    "internalType": "bytes32",
                    "name": "newAdminRole",
                    "type": "bytes32"
                }
            ],
            "name": "RoleAdminChanged",
            "type": "event"
        },
        {
            "anonymous": false,
            "inputs": [
                {
                    "indexed": true,
                    "internalType": "bytes32",
                    "name": "role",
                    "type": "bytes32"
                },
                {
                    "indexed": true,
                    "internalType": "address",
                    "name": "account",
                    "type": "address"
                },
                {
                    "indexed": true,
                    "internalType": "address",
                    "name": "sender",
                    "type": "address"
                }
            ],
            "name": "RoleGranted",
            "type": "event"
        },
        {
            "anonymous": false,
            "inputs": [
                {
                    "indexed": true,
                    "internalType": "bytes32",
                    "name": "role",
                    "type": "bytes32"
                },
                {
                    "indexed": true,
                    "internalType": "address",
                    "name": "account",
                    "type": "address"
                },
                {
                    "indexed": true,
                    "internalType": "address",
                    "name": "sender",
                    "type": "address"
                }
            ],
            "name": "RoleRevoked",
            "type": "event"
        },
        {
            "anonymous": false,
            "inputs": [
                {
                    "indexed": true,
                    "internalType": "address",
                    "name": "from",
                    "type": "address"
                },
                {
                    "indexed": true,
                    "internalType": "address",
                    "name": "to",
                    "type": "address"
                },
                {
                    "indexed": true,
                    "internalType": "uint256",
                    "name": "tokenId",
                    "type": "uint256"
                }
            ],
            "name": "Transfer",
            "type": "event"
        },
        {
            "inputs": [],
            "name": "ADMIN",
            "outputs": [
                {
                    "internalType": "bytes32",
                    "name": "",
                    "type": "bytes32"
                }
            ],
            "stateMutability": "view",
            "type": "function"
        },
        {
            "inputs": [],
            "name": "DEFAULT_ADMIN_ROLE",
            "outputs": [
                {
                    "internalType": "bytes32",
                    "name": "",
                    "type": "bytes32"
                }
            ],
            "stateMutability": "view",
            "type": "function"
        },
        {
            "inputs": [
                {
                    "internalType": "address",
                    "name": "to",
                    "type": "address"
                },
                {
                    "internalType": "uint256",
                    "name": "tokenId",
                    "type": "uint256"
                }
            ],
            "name": "approve",
            "outputs": [],
            "stateMutability": "nonpayable",
            "type": "function"
        },
        {
            "inputs": [
                {
                    "internalType": "address",
                    "name": "winner",
                    "type": "address"
                },
                {
                    "internalType": "string",
                    "name": "tokenURI",
                    "type": "string"
                }
            ],
            "name": "assignTender",
            "outputs": [
                {
                    "internalType": "uint256",
                    "name": "",
                    "type": "uint256"
                }
            ],
            "stateMutability": "nonpayable",
            "type": "function"
        },
        {
            "inputs": [
                {
                    "internalType": "address",
                    "name": "owner",
                    "type": "address"
                }
            ],
            "name": "balanceOf",
            "outputs": [
                {
                    "internalType": "uint256",
                    "name": "",
                    "type": "uint256"
                }
            ],
            "stateMutability": "view",
            "type": "function"
        },
        {
            "inputs": [
                {
                    "internalType": "uint256",
                    "name": "tokenId",
                    "type": "uint256"
                }
            ],
            "name": "getApproved",
            "outputs": [
                {
                    "internalType": "address",
                    "name": "",
                    "type": "address"
                }
            ],
            "stateMutability": "view",
            "type": "function"
        },
        {
            "inputs": [],
            "name": "getOpenTender",
            "outputs": [],
            "stateMutability": "nonpayable",
            "type": "function"
        },
        {
            "inputs": [
                {
                    "internalType": "bytes32",
                    "name": "role",
                    "type": "bytes32"
                }
            ],
            "name": "getRoleAdmin",
            "outputs": [
                {
                    "internalType": "bytes32",
                    "name": "",
                    "type": "bytes32"
                }
            ],
            "stateMutability": "view",
            "type": "function"
        },
        {
            "inputs": [
                {
                    "internalType": "address",
                    "name": "newAdmin",
                    "type": "address"
                }
            ],
            "name": "give",
            "outputs": [],
            "stateMutability": "nonpayable",
            "type": "function"
        },
        {
            "inputs": [
                {
                    "internalType": "bytes32",
                    "name": "role",
                    "type": "bytes32"
                },
                {
                    "internalType": "address",
                    "name": "account",
                    "type": "address"
                }
            ],
            "name": "grantRole",
            "outputs": [],
            "stateMutability": "nonpayable",
            "type": "function"
        },
        {
            "inputs": [
                {
                    "internalType": "bytes32",
                    "name": "role",
                    "type": "bytes32"
                },
                {
                    "internalType": "address",
                    "name": "account",
                    "type": "address"
                }
            ],
            "name": "hasRole",
            "outputs": [
                {
                    "internalType": "bool",
                    "name": "",
                    "type": "bool"
                }
            ],
            "stateMutability": "view",
            "type": "function"
        },
        {
            "inputs": [
                {
                    "internalType": "address",
                    "name": "owner",
                    "type": "address"
                },
                {
                    "internalType": "address",
                    "name": "operator",
                    "type": "address"
                }
            ],
            "name": "isApprovedForAll",
            "outputs": [
                {
                    "internalType": "bool",
                    "name": "",
                    "type": "bool"
                }
            ],
            "stateMutability": "view",
            "type": "function"
        },
        {
            "inputs": [],
            "name": "name",
            "outputs": [
                {
                    "internalType": "string",
                    "name": "",
                    "type": "string"
                }
            ],
            "stateMutability": "view",
            "type": "function"
        },
        {
            "inputs": [
                {
                    "internalType": "address",
                    "name": "instance",
                    "type": "address"
                },
                {
                    "internalType": "string",
                    "name": "tokenURI",
                    "type": "string"
                }
            ],
            "name": "openTender",
            "outputs": [
                {
                    "internalType": "uint256",
                    "name": "",
                    "type": "uint256"
                }
            ],
            "stateMutability": "nonpayable",
            "type": "function"
        },
        {
            "inputs": [
                {
                    "internalType": "uint256",
                    "name": "tokenId",
                    "type": "uint256"
                }
            ],
            "name": "ownerOf",
            "outputs": [
                {
                    "internalType": "address",
                    "name": "",
                    "type": "address"
                }
            ],
            "stateMutability": "view",
            "type": "function"
        },
        {
            "inputs": [
                {
                    "internalType": "uint256",
                    "name": "tokenId",
                    "type": "uint256"
                },
                {
                    "internalType": "address",
                    "name": "participant",
                    "type": "address"
                },
                {
                    "internalType": "uint256",
                    "name": "newQuote",
                    "type": "uint256"
                }
            ],
            "name": "proposal",
            "outputs": [],
            "stateMutability": "nonpayable",
            "type": "function"
        },
        {
            "inputs": [
                {
                    "internalType": "bytes32",
                    "name": "role",
                    "type": "bytes32"
                },
                {
                    "internalType": "address",
                    "name": "account",
                    "type": "address"
                }
            ],
            "name": "renounceRole",
            "outputs": [],
            "stateMutability": "nonpayable",
            "type": "function"
        },
        {
            "inputs": [
                {
                    "internalType": "address",
                    "name": "oldAdmin",
                    "type": "address"
                }
            ],
            "name": "revoke",
            "outputs": [],
            "stateMutability": "nonpayable",
            "type": "function"
        },
        {
            "inputs": [
                {
                    "internalType": "bytes32",
                    "name": "role",
                    "type": "bytes32"
                },
                {
                    "internalType": "address",
                    "name": "account",
                    "type": "address"
                }
            ],
            "name": "revokeRole",
            "outputs": [],
            "stateMutability": "nonpayable",
            "type": "function"
        },
        {
            "inputs": [
                {
                    "internalType": "address",
                    "name": "from",
                    "type": "address"
                },
                {
                    "internalType": "address",
                    "name": "to",
                    "type": "address"
                },
                {
                    "internalType": "uint256",
                    "name": "tokenId",
                    "type": "uint256"
                }
            ],
            "name": "safeTransferFrom",
            "outputs": [],
            "stateMutability": "nonpayable",
            "type": "function"
        },
        {
            "inputs": [
                {
                    "internalType": "address",
                    "name": "from",
                    "type": "address"
                },
                {
                    "internalType": "address",
                    "name": "to",
                    "type": "address"
                },
                {
                    "internalType": "uint256",
                    "name": "tokenId",
                    "type": "uint256"
                },
                {
                    "internalType": "bytes",
                    "name": "data",
                    "type": "bytes"
                }
            ],
            "name": "safeTransferFrom",
            "outputs": [],
            "stateMutability": "nonpayable",
            "type": "function"
        },
        {
            "inputs": [
                {
                    "internalType": "address",
                    "name": "operator",
                    "type": "address"
                },
                {
                    "internalType": "bool",
                    "name": "approved",
                    "type": "bool"
                }
            ],
            "name": "setApprovalForAll",
            "outputs": [],
            "stateMutability": "nonpayable",
            "type": "function"
        },
        {
            "inputs": [
                {
                    "internalType": "bytes4",
                    "name": "interfaceId",
                    "type": "bytes4"
                }
            ],
            "name": "supportsInterface",
            "outputs": [
                {
                    "internalType": "bool",
                    "name": "",
                    "type": "bool"
                }
            ],
            "stateMutability": "view",
            "type": "function"
        },
        {
            "inputs": [],
            "name": "symbol",
            "outputs": [
                {
                    "internalType": "string",
                    "name": "",
                    "type": "string"
                }
            ],
            "stateMutability": "view",
            "type": "function"
        },
        {
            "inputs": [
                {
                    "internalType": "uint256",
                    "name": "tokenId",
                    "type": "uint256"
                }
            ],
            "name": "tokenURI",
            "outputs": [
                {
                    "internalType": "string",
                    "name": "",
                    "type": "string"
                }
            ],
            "stateMutability": "view",
            "type": "function"
        },
        {
            "inputs": [
                {
                    "internalType": "address",
                    "name": "from",
                    "type": "address"
                },
                {
                    "internalType": "address",
                    "name": "to",
                    "type": "address"
                },
                {
                    "internalType": "uint256",
                    "name": "tokenId",
                    "type": "uint256"
                }
            ],
            "name": "transferFrom",
            "outputs": [],
            "stateMutability": "nonpayable",
            "type": "function"
        }
    ],
    "bytecode": "60806040523480156200001157600080fd5b506040516200238e3803806200238e8339810160408190526200003491620001fa565b81816000620000448382620002f3565b506001620000538282620002f3565b505050620000887fdf8b4c520ffe197c5343c6f5aec59570151ef9a492f2c624fd45ddde6135ec42336200009060201b60201c565b5050620003bf565b60008281526007602090815260408083206001600160a01b038516845290915290205460ff16620001315760008281526007602090815260408083206001600160a01b03851684529091529020805460ff19166001179055620000f03390565b6001600160a01b0316816001600160a01b0316837f2f8788117e7eff1d82e926ec794901d17c78024a50270940304540a733656f0d60405160405180910390a45b5050565b634e487b7160e01b600052604160045260246000fd5b600082601f8301126200015d57600080fd5b81516001600160401b03808211156200017a576200017a62000135565b604051601f8301601f19908116603f01168101908282118183101715620001a557620001a562000135565b81604052838152602092508683858801011115620001c257600080fd5b600091505b83821015620001e65785820183015181830184015290820190620001c7565b600093810190920192909252949350505050565b600080604083850312156200020e57600080fd5b82516001600160401b03808211156200022657600080fd5b62000234868387016200014b565b935060208501519150808211156200024b57600080fd5b506200025a858286016200014b565b9150509250929050565b600181811c908216806200027957607f821691505b6020821081036200029a57634e487b7160e01b600052602260045260246000fd5b50919050565b601f821115620002ee57600081815260208120601f850160051c81016020861015620002c95750805b601f850160051c820191505b81811015620002ea57828155600101620002d5565b5050505b505050565b81516001600160401b038111156200030f576200030f62000135565b620003278162000320845462000264565b84620002a0565b602080601f8311600181146200035f5760008415620003465750858301515b600019600386901b1c1916600185901b178555620002ea565b600085815260208120601f198616915b8281101562000390578886015182559484019460019091019084016200036f565b5085821015620003af5787850151600019600388901b60f8161c191681555b5050505050600190811b01905550565b611fbf80620003cf6000396000f3fe608060405234801561001057600080fd5b506004361061018e5760003560e01c806374a8f103116100de578063a217fddf11610097578063bdf86a6611610071578063bdf86a661461035d578063c87b56dd14610370578063d547741f14610383578063e985e9c51461039657600080fd5b8063a217fddf1461032f578063a22cb46514610337578063b88d4fde1461034a57600080fd5b806374a8f103146102db578063814d1a77146102ee5780638b2375e61461030157806391d148541461031457806395d89b41146103275780639bcd9dd91461020e57600080fd5b80632a0acc6a1161014b57806342842e0e1161012557806342842e0e1461028f5780634a49cf00146102a25780636352211e146102b557806370a08231146102c857600080fd5b80632a0acc6a146102545780632f2ff15d1461026957806336568abe1461027c57600080fd5b806301ffc9a71461019357806306fdde03146101bb578063081812fc146101d0578063095ea7b3146101fb57806323b872dd14610210578063248a9ca314610223575b600080fd5b6101a66101a1366004611868565b6103d2565b60405190151581526020015b60405180910390f35b6101c36103e3565b6040516101b291906118d5565b6101e36101de3660046118e8565b610475565b6040516001600160a01b0390911681526020016101b2565b61020e61020936600461191d565b61049c565b005b61020e61021e366004611947565b6105b6565b6102466102313660046118e8565b60009081526007602052604090206001015490565b6040519081526020016101b2565b610246600080516020611f6a83398151915281565b61020e610277366004611983565b6105e7565b61020e61028a366004611983565b61060c565b61020e61029d366004611947565b61068a565b6102466102b0366004611a3b565b6106a5565b6101e36102c33660046118e8565b6106f6565b6102466102d6366004611a9d565b610756565b61020e6102e9366004611a9d565b6107dc565b61020e6102fc366004611ab8565b61080c565b61024661030f366004611a3b565b61089a565b6101a6610322366004611983565b6109b1565b6101c36109dc565b610246600081565b61020e610345366004611add565b6109eb565b61020e610358366004611b19565b6109f6565b61020e61036b366004611a9d565b610a2e565b6101c361037e3660046118e8565b610a5e565b61020e610391366004611983565b610b66565b6101a66103a4366004611b95565b6001600160a01b03918216600090815260056020908152604080832093909416825291909152205460ff1690565b60006103dd82610b8b565b92915050565b6060600080546103f290611bbf565b80601f016020809104026020016040519081016040528092919081815260200182805461041e90611bbf565b801561046b5780601f106104405761010080835404028352916020019161046b565b820191906000526020600020905b81548152906001019060200180831161044e57829003601f168201915b5050505050905090565b600061048082610bb0565b506000908152600460205260409020546001600160a01b031690565b60006104a7826106f6565b9050806001600160a01b0316836001600160a01b0316036105195760405162461bcd60e51b815260206004820152602160248201527f4552433732313a20617070726f76616c20746f2063757272656e74206f776e656044820152603960f91b60648201526084015b60405180910390fd5b336001600160a01b0382161480610535575061053581336103a4565b6105a75760405162461bcd60e51b815260206004820152603d60248201527f4552433732313a20617070726f76652063616c6c6572206973206e6f7420746f60448201527f6b656e206f776e6572206f7220617070726f76656420666f7220616c6c0000006064820152608401610510565b6105b18383610c12565b505050565b6105c03382610c80565b6105dc5760405162461bcd60e51b815260040161051090611bf9565b6105b1838383610cfe565b60008281526007602052604090206001015461060281610e6f565b6105b18383610e79565b6001600160a01b038116331461067c5760405162461bcd60e51b815260206004820152602f60248201527f416363657373436f6e74726f6c3a2063616e206f6e6c792072656e6f756e636560448201526e103937b632b9903337b91039b2b63360891b6064820152608401610510565b6106868282610eff565b5050565b6105b1838383604051806020016040528060008152506109f6565b6000600080516020611f6a8339815191526106bf81610e6f565b60006106ca60095490565b90506106d68582610f66565b6106e081856110ff565b6106ee600980546001019055565b949350505050565b6000818152600260205260408120546001600160a01b0316806103dd5760405162461bcd60e51b8152602060048201526018602482015277115490cdcc8c4e881a5b9d985b1a59081d1bdad95b88125160421b6044820152606401610510565b60006001600160a01b0382166107c05760405162461bcd60e51b815260206004820152602960248201527f4552433732313a2061646472657373207a65726f206973206e6f7420612076616044820152683634b21037bbb732b960b91b6064820152608401610510565b506001600160a01b031660009081526003602052604090205490565b600080516020611f6a8339815191526107f481610e6f565b610686600080516020611f6a83398151915283610b66565b6000838152600a60205260409081902054600c80546001600160a01b0319166001600160a01b039283169081179091559151631ce50e7160e21b8152908416600482015260248101839052819063739439c490604401600060405180830381600087803b15801561087c57600080fd5b505af1158015610890573d6000803e3d6000fd5b5050505050505050565b6000600080516020611f6a8339815191526108b481610e6f565b600c80546001600160a01b0319166001600160a01b038616179055600954600c60009054906101000a90046001600160a01b03166001600160a01b03166350627f8d6040518163ffffffff1660e01b8152600401600060405180830381600087803b15801561092257600080fd5b505af1158015610936573d6000803e3d6000fd5b505050506109443382610f66565b61094e81856110ff565b61095c600980546001019055565b61096a600880546001019055565b6000818152600a6020908152604080832080546001600160a01b038a166001600160a01b0319909116179055600b9091529020805460ff1916600117905591505092915050565b60009182526007602090815260408084206001600160a01b0393909316845291905290205460ff1690565b6060600180546103f290611bbf565b610686338383611192565b610a003383610c80565b610a1c5760405162461bcd60e51b815260040161051090611bf9565b610a2884848484611260565b50505050565b600080516020611f6a833981519152610a4681610e6f565b610686600080516020611f6a833981519152836105e7565b6060610a6982610bb0565b60008281526006602052604081208054610a8290611bbf565b80601f0160208091040260200160405190810160405280929190818152602001828054610aae90611bbf565b8015610afb5780601f10610ad057610100808354040283529160200191610afb565b820191906000526020600020905b815481529060010190602001808311610ade57829003601f168201915b505050505090506000610b1960408051602081019091526000815290565b90508051600003610b2b575092915050565b815115610b5d578082604051602001610b45929190611c46565b60405160208183030381529060405292505050919050565b6106ee84611293565b600082815260076020526040902060010154610b8181610e6f565b6105b18383610eff565b60006001600160e01b03198216637965db0b60e01b14806103dd57506103dd82611307565b6000818152600260205260409020546001600160a01b0316610c0f5760405162461bcd60e51b8152602060048201526018602482015277115490cdcc8c4e881a5b9d985b1a59081d1bdad95b88125160421b6044820152606401610510565b50565b600081815260046020526040902080546001600160a01b0319166001600160a01b0384169081179091558190610c47826106f6565b6001600160a01b03167f8c5be1e5ebec7d5bd14f71427d1e84f3dd0314c0f7b2291e5b200ac8c7c3b92560405160405180910390a45050565b600080610c8c836106f6565b9050806001600160a01b0316846001600160a01b03161480610cd357506001600160a01b0380821660009081526005602090815260408083209388168352929052205460ff165b806106ee5750836001600160a01b0316610cec84610475565b6001600160a01b031614949350505050565b826001600160a01b0316610d11826106f6565b6001600160a01b031614610d375760405162461bcd60e51b815260040161051090611c75565b6001600160a01b038216610d995760405162461bcd60e51b8152602060048201526024808201527f4552433732313a207472616e7366657220746f20746865207a65726f206164646044820152637265737360e01b6064820152608401610510565b610da68383836001611357565b826001600160a01b0316610db9826106f6565b6001600160a01b031614610ddf5760405162461bcd60e51b815260040161051090611c75565b600081815260046020908152604080832080546001600160a01b03199081169091556001600160a01b0387811680865260038552838620805460001901905590871680865283862080546001019055868652600290945282852080549092168417909155905184937fddf252ad1be2c89b69c2b068fc378daa952ba7f163c4a11628f55a4df523b3ef91a4505050565b610c0f81336113df565b610e8382826109b1565b6106865760008281526007602090815260408083206001600160a01b03851684529091529020805460ff19166001179055610ebb3390565b6001600160a01b0316816001600160a01b0316837f2f8788117e7eff1d82e926ec794901d17c78024a50270940304540a733656f0d60405160405180910390a45050565b610f0982826109b1565b156106865760008281526007602090815260408083206001600160a01b0385168085529252808320805460ff1916905551339285917ff6391f5c32d9c69d2a47ea670b442974b53935d1edc7fd64eb21e047a839171b9190a45050565b6001600160a01b038216610fbc5760405162461bcd60e51b815260206004820181905260248201527f4552433732313a206d696e7420746f20746865207a65726f20616464726573736044820152606401610510565b6000818152600260205260409020546001600160a01b0316156110215760405162461bcd60e51b815260206004820152601c60248201527f4552433732313a20746f6b656e20616c7265616479206d696e746564000000006044820152606401610510565b61102f600083836001611357565b6000818152600260205260409020546001600160a01b0316156110945760405162461bcd60e51b815260206004820152601c60248201527f4552433732313a20746f6b656e20616c7265616479206d696e746564000000006044820152606401610510565b6001600160a01b038216600081815260036020908152604080832080546001019055848352600290915280822080546001600160a01b0319168417905551839291907fddf252ad1be2c89b69c2b068fc378daa952ba7f163c4a11628f55a4df523b3ef908290a45050565b6000828152600260205260409020546001600160a01b031661117a5760405162461bcd60e51b815260206004820152602e60248201527f45524337323155524953746f726167653a2055524920736574206f66206e6f6e60448201526d32bc34b9ba32b73a103a37b5b2b760911b6064820152608401610510565b60008281526006602052604090206105b18282611d08565b816001600160a01b0316836001600160a01b0316036111f35760405162461bcd60e51b815260206004820152601960248201527f4552433732313a20617070726f766520746f2063616c6c6572000000000000006044820152606401610510565b6001600160a01b03838116600081815260056020908152604080832094871680845294825291829020805460ff191686151590811790915591519182527f17307eab39ab6107e8899845ad3d59bd9653f200f220920489ca2b5937696c31910160405180910390a3505050565b61126b848484610cfe565b61127784848484611438565b610a285760405162461bcd60e51b815260040161051090611dc8565b606061129e82610bb0565b60006112b560408051602081019091526000815290565b905060008151116112d55760405180602001604052806000815250611300565b806112df84611539565b6040516020016112f0929190611c46565b6040516020818303038152906040525b9392505050565b60006001600160e01b031982166380ac58cd60e01b148061133857506001600160e01b03198216635b5e139f60e01b145b806103dd57506301ffc9a760e01b6001600160e01b03198316146103dd565b6001811115610a28576001600160a01b0384161561139d576001600160a01b03841660009081526003602052604081208054839290611397908490611e30565b90915550505b6001600160a01b03831615610a28576001600160a01b038316600090815260036020526040812080548392906113d4908490611e43565b909155505050505050565b6113e982826109b1565b610686576113f6816115cc565b6114018360206115de565b604051602001611412929190611e56565b60408051601f198184030181529082905262461bcd60e51b8252610510916004016118d5565b60006001600160a01b0384163b1561152e57604051630a85bd0160e11b81526001600160a01b0385169063150b7a029061147c903390899088908890600401611ecb565b6020604051808303816000875af19250505080156114b7575060408051601f3d908101601f191682019092526114b491810190611f08565b60015b611514573d8080156114e5576040519150601f19603f3d011682016040523d82523d6000602084013e6114ea565b606091505b50805160000361150c5760405162461bcd60e51b815260040161051090611dc8565b805181602001fd5b6001600160e01b031916630a85bd0160e11b1490506106ee565b506001949350505050565b606060006115468361177a565b600101905060008167ffffffffffffffff811115611566576115666119af565b6040519080825280601f01601f191660200182016040528015611590576020820181803683370190505b5090508181016020015b600019016f181899199a1a9b1b9c1cb0b131b232b360811b600a86061a8153600a850494508461159a57509392505050565b60606103dd6001600160a01b03831660145b606060006115ed836002611f25565b6115f8906002611e43565b67ffffffffffffffff811115611610576116106119af565b6040519080825280601f01601f19166020018201604052801561163a576020820181803683370190505b509050600360fc1b8160008151811061165557611655611f3c565b60200101906001600160f81b031916908160001a905350600f60fb1b8160018151811061168457611684611f3c565b60200101906001600160f81b031916908160001a90535060006116a8846002611f25565b6116b3906001611e43565b90505b600181111561172b576f181899199a1a9b1b9c1cb0b131b232b360811b85600f16601081106116e7576116e7611f3c565b1a60f81b8282815181106116fd576116fd611f3c565b60200101906001600160f81b031916908160001a90535060049490941c9361172481611f52565b90506116b6565b5083156113005760405162461bcd60e51b815260206004820181905260248201527f537472696e67733a20686578206c656e67746820696e73756666696369656e746044820152606401610510565b60008072184f03e93ff9f4daa797ed6e38ed64bf6a1f0160401b83106117b95772184f03e93ff9f4daa797ed6e38ed64bf6a1f0160401b830492506040015b6d04ee2d6d415b85acef810000000083106117e5576d04ee2d6d415b85acef8100000000830492506020015b662386f26fc10000831061180357662386f26fc10000830492506010015b6305f5e100831061181b576305f5e100830492506008015b612710831061182f57612710830492506004015b60648310611841576064830492506002015b600a83106103dd5760010192915050565b6001600160e01b031981168114610c0f57600080fd5b60006020828403121561187a57600080fd5b813561130081611852565b60005b838110156118a0578181015183820152602001611888565b50506000910152565b600081518084526118c1816020860160208601611885565b601f01601f19169290920160200192915050565b60208152600061130060208301846118a9565b6000602082840312156118fa57600080fd5b5035919050565b80356001600160a01b038116811461191857600080fd5b919050565b6000806040838503121561193057600080fd5b61193983611901565b946020939093013593505050565b60008060006060848603121561195c57600080fd5b61196584611901565b925061197360208501611901565b9150604084013590509250925092565b6000806040838503121561199657600080fd5b823591506119a660208401611901565b90509250929050565b634e487b7160e01b600052604160045260246000fd5b600067ffffffffffffffff808411156119e0576119e06119af565b604051601f8501601f19908116603f01168101908282118183101715611a0857611a086119af565b81604052809350858152868686011115611a2157600080fd5b858560208301376000602087830101525050509392505050565b60008060408385031215611a4e57600080fd5b611a5783611901565b9150602083013567ffffffffffffffff811115611a7357600080fd5b8301601f81018513611a8457600080fd5b611a93858235602084016119c5565b9150509250929050565b600060208284031215611aaf57600080fd5b61130082611901565b600080600060608486031215611acd57600080fd5b8335925061197360208501611901565b60008060408385031215611af057600080fd5b611af983611901565b915060208301358015158114611b0e57600080fd5b809150509250929050565b60008060008060808587031215611b2f57600080fd5b611b3885611901565b9350611b4660208601611901565b925060408501359150606085013567ffffffffffffffff811115611b6957600080fd5b8501601f81018713611b7a57600080fd5b611b89878235602084016119c5565b91505092959194509250565b60008060408385031215611ba857600080fd5b611bb183611901565b91506119a660208401611901565b600181811c90821680611bd357607f821691505b602082108103611bf357634e487b7160e01b600052602260045260246000fd5b50919050565b6020808252602d908201527f4552433732313a2063616c6c6572206973206e6f7420746f6b656e206f776e6560408201526c1c881bdc88185c1c1c9bdd9959609a1b606082015260800190565b60008351611c58818460208801611885565b835190830190611c6c818360208801611885565b01949350505050565b60208082526025908201527f4552433732313a207472616e736665722066726f6d20696e636f72726563742060408201526437bbb732b960d91b606082015260800190565b601f8211156105b157600081815260208120601f850160051c81016020861015611ce15750805b601f850160051c820191505b81811015611d0057828155600101611ced565b505050505050565b815167ffffffffffffffff811115611d2257611d226119af565b611d3681611d308454611bbf565b84611cba565b602080601f831160018114611d6b5760008415611d535750858301515b600019600386901b1c1916600185901b178555611d00565b600085815260208120601f198616915b82811015611d9a57888601518255948401946001909101908401611d7b565b5085821015611db85787850151600019600388901b60f8161c191681555b5050505050600190811b01905550565b60208082526032908201527f4552433732313a207472616e7366657220746f206e6f6e20455243373231526560408201527131b2b4bb32b91034b6b83632b6b2b73a32b960711b606082015260800190565b634e487b7160e01b600052601160045260246000fd5b818103818111156103dd576103dd611e1a565b808201808211156103dd576103dd611e1a565b7f416363657373436f6e74726f6c3a206163636f756e7420000000000000000000815260008351611e8e816017850160208801611885565b7001034b99036b4b9b9b4b733903937b6329607d1b6017918401918201528351611ebf816028840160208801611885565b01602801949350505050565b6001600160a01b0385811682528416602082015260408101839052608060608201819052600090611efe908301846118a9565b9695505050505050565b600060208284031215611f1a57600080fd5b815161130081611852565b80820281158282048414176103dd576103dd611e1a565b634e487b7160e01b600052603260045260246000fd5b600081611f6157611f61611e1a565b50600019019056fedf8b4c520ffe197c5343c6f5aec59570151ef9a492f2c624fd45ddde6135ec42a2646970667358221220d425a373b3e7398f1306d0226ddda32cbf933284b31d2286716e0acc11d1806d64736f6c63430008110033",
    "sourcePath": "/home/daniele/Documenti/ProgettoSicurezzaGit/contracts/Tenders.sol",
    "compiler": {
        "name": "solc",
        "version": "0.8.17+commit.8df45f5f"
    },
    "functionHashes": {
        "ADMIN()": "2a0acc6a",
        "DEFAULT_ADMIN_ROLE()": "a217fddf",
        "approve(address,uint256)": "095ea7b3",
        "assignTender(address,string)": "4a49cf00",
        "balanceOf(address)": "70a08231",
        "getApproved(uint256)": "081812fc",
        "getOpenTender()": "9bcd9dd9",
        "getRoleAdmin(bytes32)": "248a9ca3",
        "give(address)": "bdf86a66",
        "grantRole(bytes32,address)": "2f2ff15d",
        "hasRole(bytes32,address)": "91d14854",
        "isApprovedForAll(address,address)": "e985e9c5",
        "name()": "06fdde03",
        "openTender(address,string)": "8b2375e6",
        "ownerOf(uint256)": "6352211e",
        "proposal(uint256,address,uint256)": "814d1a77",
        "renounceRole(bytes32,address)": "36568abe",
        "revoke(address)": "74a8f103",
        "revokeRole(bytes32,address)": "d547741f",
        "safeTransferFrom(address,address,uint256)": "42842e0e",
        "safeTransferFrom(address,address,uint256,bytes)": "b88d4fde",
        "setApprovalForAll(address,bool)": "a22cb465",
        "supportsInterface(bytes4)": "01ffc9a7",
        "symbol()": "95d89b41",
        "tokenURI(uint256)": "c87b56dd",
        "transferFrom(address,address,uint256)": "23b872dd"
    },
    "gasEstimates": {
        "creation": {
            "codeDepositCost": "1625400",
            "executionCost": "infinite",
            "totalCost": "infinite"
        },
        "external": {
            "ADMIN()": "infinite",
            "DEFAULT_ADMIN_ROLE()": "240",
            "approve(address,uint256)": "infinite",
            "assignTender(address,string)": "infinite",
            "balanceOf(address)": "2700",
            "getApproved(uint256)": "4792",
            "getOpenTender()": "253",
            "getRoleAdmin(bytes32)": "2578",
            "give(address)": "infinite",
            "grantRole(bytes32,address)": "infinite",
            "hasRole(bytes32,address)": "2743",
            "isApprovedForAll(address,address)": "infinite",
            "name()": "infinite",
            "openTender(address,string)": "infinite",
            "ownerOf(uint256)": "2627",
            "proposal(uint256,address,uint256)": "infinite",
            "renounceRole(bytes32,address)": "29091",
            "revoke(address)": "infinite",
            "revokeRole(bytes32,address)": "infinite",
            "safeTransferFrom(address,address,uint256)": "infinite",
            "safeTransferFrom(address,address,uint256,bytes)": "infinite",
            "setApprovalForAll(address,bool)": "26750",
            "supportsInterface(bytes4)": "infinite",
            "symbol()": "infinite",
            "tokenURI(uint256)": "infinite",
            "transferFrom(address,address,uint256)": "infinite"
        }
    }
}