{
  "contractName": "Factory",
  "abi": [
    {
      "inputs": [
        {
          "internalType": "string",
          "name": "name",
          "type": "string"
        },
        {
          "internalType": "string",
          "name": "symbol",
          "type": "string"
        }
      ],
      "stateMutability": "nonpayable",
      "type": "constructor"
    },
    {
      "anonymous": false,
      "inputs": [
        {
          "indexed": true,
          "internalType": "bytes32",
          "name": "role",
          "type": "bytes32"
        },
        {
          "indexed": true,
          "internalType": "bytes32",
          "name": "previousAdminRole",
          "type": "bytes32"
        },
        {
          "indexed": true,
          "internalType": "bytes32",
          "name": "newAdminRole",
          "type": "bytes32"
        }
      ],
      "name": "RoleAdminChanged",
      "type": "event"
    },
    {
      "anonymous": false,
      "inputs": [
        {
          "indexed": true,
          "internalType": "bytes32",
          "name": "role",
          "type": "bytes32"
        },
        {
          "indexed": true,
          "internalType": "address",
          "name": "account",
          "type": "address"
        },
        {
          "indexed": true,
          "internalType": "address",
          "name": "sender",
          "type": "address"
        }
      ],
      "name": "RoleGranted",
      "type": "event"
    },
    {
      "anonymous": false,
      "inputs": [
        {
          "indexed": true,
          "internalType": "bytes32",
          "name": "role",
          "type": "bytes32"
        },
        {
          "indexed": true,
          "internalType": "address",
          "name": "account",
          "type": "address"
        },
        {
          "indexed": true,
          "internalType": "address",
          "name": "sender",
          "type": "address"
        }
      ],
      "name": "RoleRevoked",
      "type": "event"
    },
    {
      "inputs": [],
      "name": "ADMIN",
      "outputs": [
        {
          "internalType": "bytes32",
          "name": "",
          "type": "bytes32"
        }
      ],
      "stateMutability": "view",
      "type": "function",
      "constant": true
    },
    {
      "inputs": [],
      "name": "DEFAULT_ADMIN_ROLE",
      "outputs": [
        {
          "internalType": "bytes32",
          "name": "",
          "type": "bytes32"
        }
      ],
      "stateMutability": "view",
      "type": "function",
      "constant": true
    },
    {
      "inputs": [
        {
          "internalType": "bytes32",
          "name": "role",
          "type": "bytes32"
        }
      ],
      "name": "getRoleAdmin",
      "outputs": [
        {
          "internalType": "bytes32",
          "name": "",
          "type": "bytes32"
        }
      ],
      "stateMutability": "view",
      "type": "function",
      "constant": true
    },
    {
      "inputs": [
        {
          "internalType": "bytes32",
          "name": "role",
          "type": "bytes32"
        },
        {
          "internalType": "address",
          "name": "account",
          "type": "address"
        }
      ],
      "name": "grantRole",
      "outputs": [],
      "stateMutability": "nonpayable",
      "type": "function"
    },
    {
      "inputs": [
        {
          "internalType": "bytes32",
          "name": "role",
          "type": "bytes32"
        },
        {
          "internalType": "address",
          "name": "account",
          "type": "address"
        }
      ],
      "name": "hasRole",
      "outputs": [
        {
          "internalType": "bool",
          "name": "",
          "type": "bool"
        }
      ],
      "stateMutability": "view",
      "type": "function",
      "constant": true
    },
    {
      "inputs": [
        {
          "internalType": "bytes32",
          "name": "role",
          "type": "bytes32"
        },
        {
          "internalType": "address",
          "name": "account",
          "type": "address"
        }
      ],
      "name": "renounceRole",
      "outputs": [],
      "stateMutability": "nonpayable",
      "type": "function"
    },
    {
      "inputs": [
        {
          "internalType": "bytes32",
          "name": "role",
          "type": "bytes32"
        },
        {
          "internalType": "address",
          "name": "account",
          "type": "address"
        }
      ],
      "name": "revokeRole",
      "outputs": [],
      "stateMutability": "nonpayable",
      "type": "function"
    },
    {
      "inputs": [
        {
          "internalType": "bytes4",
          "name": "interfaceId",
          "type": "bytes4"
        }
      ],
      "name": "supportsInterface",
      "outputs": [
        {
          "internalType": "bool",
          "name": "",
          "type": "bool"
        }
      ],
      "stateMutability": "view",
      "type": "function",
      "constant": true
    },
    {
      "inputs": [
        {
          "internalType": "string",
          "name": "tokenURI",
          "type": "string"
        }
      ],
      "name": "openNewTender",
      "outputs": [
        {
          "internalType": "uint256",
          "name": "",
          "type": "uint256"
        }
      ],
      "stateMutability": "nonpayable",
      "type": "function"
    },
    {
      "inputs": [
        {
          "internalType": "uint256",
          "name": "quote",
          "type": "uint256"
        },
        {
          "internalType": "uint256",
          "name": "num",
          "type": "uint256"
        }
      ],
      "name": "Proposal",
      "outputs": [],
      "stateMutability": "nonpayable",
      "type": "function"
    },
    {
      "inputs": [
        {
          "internalType": "uint256",
          "name": "num",
          "type": "uint256"
        }
      ],
      "name": "assignWinner",
      "outputs": [],
      "stateMutability": "nonpayable",
      "type": "function"
    },
    {
      "inputs": [],
      "name": "getTends",
      "outputs": [
        {
          "components": [
            {
              "internalType": "uint256",
              "name": "id",
              "type": "uint256"
            },
            {
              "internalType": "bool",
              "name": "stat",
              "type": "bool"
            },
            {
              "internalType": "string",
              "name": "URI",
              "type": "string"
            },
            {
              "internalType": "contract ProposalManagement",
              "name": "proposal",
              "type": "address"
            },
            {
              "internalType": "address",
              "name": "win",
              "type": "address"
            }
          ],
          "internalType": "struct Factory.Tend[]",
          "name": "",
          "type": "tuple[]"
        }
      ],
      "stateMutability": "view",
      "type": "function",
      "constant": true
    }
  ],
  "bytecode": "0x60806040523480156200001157600080fd5b5060405162007341380380620073418339818101604052810190620000379190620003f0565b818160405162000047906200024f565b62000054929190620004d2565b604051809103906000f08015801562000071573d6000803e3d6000fd5b50600360006101000a81548173ffffffffffffffffffffffffffffffffffffffff021916908373ffffffffffffffffffffffffffffffffffffffff160217905550620000e47fdf8b4c520ffe197c5343c6f5aec59570151ef9a492f2c624fd45ddde6135ec4233620000ec60201b60201c565b50506200050d565b620000fe8282620001dd60201b60201c565b620001d957600160008084815260200190815260200160002060000160008373ffffffffffffffffffffffffffffffffffffffff1673ffffffffffffffffffffffffffffffffffffffff16815260200190815260200160002060006101000a81548160ff0219169083151502179055506200017e6200024760201b60201c565b73ffffffffffffffffffffffffffffffffffffffff168173ffffffffffffffffffffffffffffffffffffffff16837f2f8788117e7eff1d82e926ec794901d17c78024a50270940304540a733656f0d60405160405180910390a45b5050565b600080600084815260200190815260200160002060000160008373ffffffffffffffffffffffffffffffffffffffff1673ffffffffffffffffffffffffffffffffffffffff16815260200190815260200160002060009054906101000a900460ff16905092915050565b600033905090565b61317c80620041c583390190565b6000604051905090565b600080fd5b600080fd5b600080fd5b600080fd5b6000601f19601f8301169050919050565b7f4e487b7100000000000000000000000000000000000000000000000000000000600052604160045260246000fd5b620002c6826200027b565b810181811067ffffffffffffffff82111715620002e857620002e76200028c565b5b80604052505050565b6000620002fd6200025d565b90506200030b8282620002bb565b919050565b600067ffffffffffffffff8211156200032e576200032d6200028c565b5b62000339826200027b565b9050602081019050919050565b60005b838110156200036657808201518184015260208101905062000349565b60008484015250505050565b600062000389620003838462000310565b620002f1565b905082815260208101848484011115620003a857620003a762000276565b5b620003b584828562000346565b509392505050565b600082601f830112620003d557620003d462000271565b5b8151620003e784826020860162000372565b91505092915050565b600080604083850312156200040a576200040962000267565b5b600083015167ffffffffffffffff8111156200042b576200042a6200026c565b5b6200043985828601620003bd565b925050602083015167ffffffffffffffff8111156200045d576200045c6200026c565b5b6200046b85828601620003bd565b9150509250929050565b600081519050919050565b600082825260208201905092915050565b60006200049e8262000475565b620004aa818562000480565b9350620004bc81856020860162000346565b620004c7816200027b565b840191505092915050565b60006040820190508181036000830152620004ee818562000491565b9050818103602083015262000504818462000491565b90509392505050565b613ca8806200051d6000396000f3fe60806040523480156200001157600080fd5b5060043610620000c45760003560e01c806365a11f21116200007b57806365a11f2114620001b957806391d1485414620001d9578063a1c50b5a146200020f578063a217fddf146200022f578063a83ee1d71462000251578063d547741f146200028757620000c4565b806301ffc9a714620000c957806305ddcdfa14620000ff578063248a9ca314620001215780632a0acc6a14620001575780632f2ff15d146200017957806336568abe1462000199575b600080fd5b620000e76004803603810190620000e191906200144e565b620002a7565b604051620000f691906200149d565b60405180910390f35b6200010962000324565b60405162000118919062001780565b60405180910390f35b6200013f6004803603810190620001399190620017df565b62000587565b6040516200014e919062001822565b60405180910390f35b62000161620005a6565b60405162000170919062001822565b60405180910390f35b62000197600480360381019062000191919062001870565b620005ca565b005b620001b76004803603810190620001b1919062001870565b620005f1565b005b620001d76004803603810190620001d19190620018e8565b6200067b565b005b620001f76004803603810190620001f1919062001870565b620009fc565b6040516200020691906200149d565b60405180910390f35b6200022d60048036038101906200022791906200191a565b62000a66565b005b6200023962000b63565b60405162000248919062001822565b60405180910390f35b6200026f600480360381019062000269919062001ab2565b62000b6a565b6040516200027e919062001b14565b60405180910390f35b620002a560048036038101906200029f919062001870565b62000db8565b005b60007f7965db0b000000000000000000000000000000000000000000000000000000007bffffffffffffffffffffffffffffffffffffffffffffffffffffffff1916827bffffffffffffffffffffffffffffffffffffffffffffffffffffffff191614806200031d57506200031c8262000ddf565b5b9050919050565b6060600062000334600262000e49565b67ffffffffffffffff81111562000350576200034f6200196b565b5b6040519080825280602002602001820160405280156200038d57816020015b6200037962001372565b8152602001906001900390816200036f5790505b50905060005b6200039f600262000e49565b8110156200057f57600060018281548110620003c057620003bf62001b31565b5b90600052602060002090600502019050806040518060a0016040529081600082015481526020016001820160009054906101000a900460ff16151515158152602001600282018054620004139062001b8f565b80601f0160208091040260200160405190810160405280929190818152602001828054620004419062001b8f565b8015620004925780601f10620004665761010080835404028352916020019162000492565b820191906000526020600020905b8154815290600101906020018083116200047457829003601f168201915b505050505081526020016003820160009054906101000a900473ffffffffffffffffffffffffffffffffffffffff1673ffffffffffffffffffffffffffffffffffffffff1673ffffffffffffffffffffffffffffffffffffffff1681526020016004820160009054906101000a900473ffffffffffffffffffffffffffffffffffffffff1673ffffffffffffffffffffffffffffffffffffffff1673ffffffffffffffffffffffffffffffffffffffff16815250508383815181106200055d576200055c62001b31565b5b6020026020010181905250508080620005769062001bf3565b91505062000393565b508091505090565b6000806000838152602001908152602001600020600101549050919050565b7fdf8b4c520ffe197c5343c6f5aec59570151ef9a492f2c624fd45ddde6135ec4281565b620005d58262000587565b620005e08162000e57565b620005ec838362000e6f565b505050565b620005fb62000f54565b73ffffffffffffffffffffffffffffffffffffffff168173ffffffffffffffffffffffffffffffffffffffff16146200066b576040517f08c379a0000000000000000000000000000000000000000000000000000000008152600401620006629062001cc7565b60405180910390fd5b62000677828262000f5c565b5050565b7fdf8b4c520ffe197c5343c6f5aec59570151ef9a492f2c624fd45ddde6135ec42620006a78162000e57565b60018281548110620006be57620006bd62001b31565b5b906000526020600020906005020160010160009054906101000a900460ff16620006e757600080fd5b60018281548110620006fe57620006fd62001b31565b5b906000526020600020906005020160030160009054906101000a900473ffffffffffffffffffffffffffffffffffffffff1673ffffffffffffffffffffffffffffffffffffffff1663a71f36416040518163ffffffff1660e01b8152600401600060405180830381600087803b1580156200077857600080fd5b505af11580156200078d573d6000803e3d6000fd5b50505050600060018381548110620007aa57620007a962001b31565b5b906000526020600020906005020160010160006101000a81548160ff02191690831515021790555060018281548110620007e957620007e862001b31565b5b906000526020600020906005020160030160009054906101000a900473ffffffffffffffffffffffffffffffffffffffff1673ffffffffffffffffffffffffffffffffffffffff166392f4eff36040518163ffffffff1660e01b81526004016020604051808303816000875af115801562000868573d6000803e3d6000fd5b505050506040513d601f19601f820116820180604052508101906200088e919062001d00565b60018381548110620008a557620008a462001b31565b5b906000526020600020906005020160040160006101000a81548173ffffffffffffffffffffffffffffffffffffffff021916908373ffffffffffffffffffffffffffffffffffffffff160217905550600360009054906101000a900473ffffffffffffffffffffffffffffffffffffffff1673ffffffffffffffffffffffffffffffffffffffff166385a66b916001848154811062000949576200094862001b31565b5b906000526020600020906005020160040160009054906101000a900473ffffffffffffffffffffffffffffffffffffffff16846001868154811062000993576200099262001b31565b5b90600052602060002090600502016002016040518463ffffffff1660e01b8152600401620009c49392919062001de8565b600060405180830381600087803b158015620009df57600080fd5b505af1158015620009f4573d6000803e3d6000fd5b505050505050565b600080600084815260200190815260200160002060000160008373ffffffffffffffffffffffffffffffffffffffff1673ffffffffffffffffffffffffffffffffffffffff16815260200190815260200160002060009054906101000a900460ff16905092915050565b6001818154811062000a7d5762000a7c62001b31565b5b906000526020600020906005020160010160009054906101000a900460ff1662000aa657600080fd5b6001818154811062000abd5762000abc62001b31565b5b906000526020600020906005020160030160009054906101000a900473ffffffffffffffffffffffffffffffffffffffff1673ffffffffffffffffffffffffffffffffffffffff1663739439c433846040518363ffffffff1660e01b815260040162000b2b92919062001e2c565b600060405180830381600087803b15801562000b4657600080fd5b505af115801562000b5b573d6000803e3d6000fd5b505050505050565b6000801b81565b60007fdf8b4c520ffe197c5343c6f5aec59570151ef9a492f2c624fd45ddde6135ec4262000b988162000e57565b600060405162000ba890620013cf565b604051809103906000f08015801562000bc5573d6000803e3d6000fd5b5090508073ffffffffffffffffffffffffffffffffffffffff166350627f8d6040518163ffffffff1660e01b8152600401600060405180830381600087803b15801562000c1157600080fd5b505af115801562000c26573d6000803e3d6000fd5b5050505060016040518060a0016040528062000c43600262000e49565b81526020016001151581526020018681526020018373ffffffffffffffffffffffffffffffffffffffff168152602001600073ffffffffffffffffffffffffffffffffffffffff1681525090806001815401808255809150506001900390600052602060002090600502016000909190919091506000820151816000015560208201518160010160006101000a81548160ff021916908315150217905550604082015181600201908162000cf891906200200c565b5060608201518160030160006101000a81548173ffffffffffffffffffffffffffffffffffffffff021916908373ffffffffffffffffffffffffffffffffffffffff16021790555060808201518160040160006101000a81548173ffffffffffffffffffffffffffffffffffffffff021916908373ffffffffffffffffffffffffffffffffffffffff160217905550505062000d95600262001042565b600162000da3600262000e49565b62000daf9190620020f3565b92505050919050565b62000dc38262000587565b62000dce8162000e57565b62000dda838362000f5c565b505050565b60007f01ffc9a7000000000000000000000000000000000000000000000000000000007bffffffffffffffffffffffffffffffffffffffffffffffffffffffff1916827bffffffffffffffffffffffffffffffffffffffffffffffffffffffff1916149050919050565b600081600001549050919050565b62000e6c8162000e6662000f54565b62001058565b50565b62000e7b8282620009fc565b62000f5057600160008084815260200190815260200160002060000160008373ffffffffffffffffffffffffffffffffffffffff1673ffffffffffffffffffffffffffffffffffffffff16815260200190815260200160002060006101000a81548160ff02191690831515021790555062000ef562000f54565b73ffffffffffffffffffffffffffffffffffffffff168173ffffffffffffffffffffffffffffffffffffffff16837f2f8788117e7eff1d82e926ec794901d17c78024a50270940304540a733656f0d60405160405180910390a45b5050565b600033905090565b62000f688282620009fc565b156200103e57600080600084815260200190815260200160002060000160008373ffffffffffffffffffffffffffffffffffffffff1673ffffffffffffffffffffffffffffffffffffffff16815260200190815260200160002060006101000a81548160ff02191690831515021790555062000fe362000f54565b73ffffffffffffffffffffffffffffffffffffffff168173ffffffffffffffffffffffffffffffffffffffff16837ff6391f5c32d9c69d2a47ea670b442974b53935d1edc7fd64eb21e047a839171b60405160405180910390a45b5050565b6001816000016000828254019250508190555050565b620010648282620009fc565b620010e4576200107481620010e8565b620010848360001c602062001117565b6040516020016200109792919062002210565b6040516020818303038152906040526040517f08c379a0000000000000000000000000000000000000000000000000000000008152600401620010db919062002293565b60405180910390fd5b5050565b6060620011108273ffffffffffffffffffffffffffffffffffffffff16601460ff1662001117565b9050919050565b6060600060028360026200112c9190620022b7565b62001138919062002302565b67ffffffffffffffff8111156200115457620011536200196b565b5b6040519080825280601f01601f191660200182016040528015620011875781602001600182028036833780820191505090505b5090507f300000000000000000000000000000000000000000000000000000000000000081600081518110620011c257620011c162001b31565b5b60200101907effffffffffffffffffffffffffffffffffffffffffffffffffffffffffffff1916908160001a9053507f78000000000000000000000000000000000000000000000000000000000000008160018151811062001229576200122862001b31565b5b60200101907effffffffffffffffffffffffffffffffffffffffffffffffffffffffffffff1916908160001a905350600060018460026200126b9190620022b7565b62001277919062002302565b90505b600181111562001321577f3031323334353637383961626364656600000000000000000000000000000000600f861660108110620012bd57620012bc62001b31565b5b1a60f81b828281518110620012d757620012d662001b31565b5b60200101907effffffffffffffffffffffffffffffffffffffffffffffffffffffffffffff1916908160001a905350600485901c94508062001319906200233d565b90506200127a565b506000841462001368576040517f08c379a00000000000000000000000000000000000000000000000000000000081526004016200135f90620023bb565b60405180910390fd5b8091505092915050565b6040518060a001604052806000815260200160001515815260200160608152602001600073ffffffffffffffffffffffffffffffffffffffff168152602001600073ffffffffffffffffffffffffffffffffffffffff1681525090565b61189580620023de83390190565b6000604051905090565b600080fd5b600080fd5b60007fffffffff0000000000000000000000000000000000000000000000000000000082169050919050565b6200142881620013f1565b81146200143457600080fd5b50565b60008135905062001448816200141d565b92915050565b600060208284031215620014675762001466620013e7565b5b6000620014778482850162001437565b91505092915050565b60008115159050919050565b620014978162001480565b82525050565b6000602082019050620014b460008301846200148c565b92915050565b600081519050919050565b600082825260208201905092915050565b6000819050602082019050919050565b6000819050919050565b620014fb81620014e6565b82525050565b6200150c8162001480565b82525050565b600081519050919050565b600082825260208201905092915050565b60005b838110156200154e57808201518184015260208101905062001531565b60008484015250505050565b6000601f19601f8301169050919050565b6000620015788262001512565b6200158481856200151d565b9350620015968185602086016200152e565b620015a1816200155a565b840191505092915050565b600073ffffffffffffffffffffffffffffffffffffffff82169050919050565b6000819050919050565b6000620015f7620015f1620015eb84620015ac565b620015cc565b620015ac565b9050919050565b60006200160b82620015d6565b9050919050565b60006200161f82620015fe565b9050919050565b620016318162001612565b82525050565b60006200164482620015ac565b9050919050565b620016568162001637565b82525050565b600060a083016000830151620016766000860182620014f0565b5060208301516200168b602086018262001501565b5060408301518482036040860152620016a582826200156b565b9150506060830151620016bc606086018262001626565b506080830151620016d160808601826200164b565b508091505092915050565b6000620016ea83836200165c565b905092915050565b6000602082019050919050565b60006200170c82620014ba565b620017188185620014c5565b9350836020820285016200172c85620014d6565b8060005b858110156200176e57848403895281516200174c8582620016dc565b94506200175983620016f2565b925060208a0199505060018101905062001730565b50829750879550505050505092915050565b600060208201905081810360008301526200179c8184620016ff565b905092915050565b6000819050919050565b620017b981620017a4565b8114620017c557600080fd5b50565b600081359050620017d981620017ae565b92915050565b600060208284031215620017f857620017f7620013e7565b5b60006200180884828501620017c8565b91505092915050565b6200181c81620017a4565b82525050565b600060208201905062001839600083018462001811565b92915050565b6200184a8162001637565b81146200185657600080fd5b50565b6000813590506200186a816200183f565b92915050565b600080604083850312156200188a5762001889620013e7565b5b60006200189a85828601620017c8565b9250506020620018ad8582860162001859565b9150509250929050565b620018c281620014e6565b8114620018ce57600080fd5b50565b600081359050620018e281620018b7565b92915050565b600060208284031215620019015762001900620013e7565b5b60006200191184828501620018d1565b91505092915050565b60008060408385031215620019345762001933620013e7565b5b60006200194485828601620018d1565b92505060206200195785828601620018d1565b9150509250929050565b600080fd5b600080fd5b7f4e487b7100000000000000000000000000000000000000000000000000000000600052604160045260246000fd5b620019a5826200155a565b810181811067ffffffffffffffff82111715620019c757620019c66200196b565b5b80604052505050565b6000620019dc620013dd565b9050620019ea82826200199a565b919050565b600067ffffffffffffffff82111562001a0d5762001a0c6200196b565b5b62001a18826200155a565b9050602081019050919050565b82818337600083830152505050565b600062001a4b62001a4584620019ef565b620019d0565b90508281526020810184848401111562001a6a5762001a6962001966565b5b62001a7784828562001a25565b509392505050565b600082601f83011262001a975762001a9662001961565b5b813562001aa984826020860162001a34565b91505092915050565b60006020828403121562001acb5762001aca620013e7565b5b600082013567ffffffffffffffff81111562001aec5762001aeb620013ec565b5b62001afa8482850162001a7f565b91505092915050565b62001b0e81620014e6565b82525050565b600060208201905062001b2b600083018462001b03565b92915050565b7f4e487b7100000000000000000000000000000000000000000000000000000000600052603260045260246000fd5b7f4e487b7100000000000000000000000000000000000000000000000000000000600052602260045260246000fd5b6000600282049050600182168062001ba857607f821691505b60208210810362001bbe5762001bbd62001b60565b5b50919050565b7f4e487b7100000000000000000000000000000000000000000000000000000000600052601160045260246000fd5b600062001c0082620014e6565b91507fffffffffffffffffffffffffffffffffffffffffffffffffffffffffffffffff820362001c355762001c3462001bc4565b5b600182019050919050565b600082825260208201905092915050565b7f416363657373436f6e74726f6c3a2063616e206f6e6c792072656e6f756e636560008201527f20726f6c657320666f722073656c660000000000000000000000000000000000602082015250565b600062001caf602f8362001c40565b915062001cbc8262001c51565b604082019050919050565b6000602082019050818103600083015262001ce28162001ca0565b9050919050565b60008151905062001cfa816200183f565b92915050565b60006020828403121562001d195762001d18620013e7565b5b600062001d298482850162001ce9565b91505092915050565b62001d3d8162001637565b82525050565b60008190508160005260206000209050919050565b6000815462001d678162001b8f565b62001d73818662001c40565b9450600182166000811462001d91576001811462001da85762001ddf565b60ff19831686528115156020028601935062001ddf565b62001db38562001d43565b60005b8381101562001dd75781548189015260018201915060208101905062001db6565b808801955050505b50505092915050565b600060608201905062001dff600083018662001d32565b62001e0e602083018562001b03565b818103604083015262001e22818462001d58565b9050949350505050565b600060408201905062001e43600083018562001d32565b62001e52602083018462001b03565b9392505050565b60006020601f8301049050919050565b600082821b905092915050565b60006008830262001ea87fffffffffffffffffffffffffffffffffffffffffffffffffffffffffffffffff8262001e69565b62001eb4868362001e69565b95508019841693508086168417925050509392505050565b600062001eed62001ee762001ee184620014e6565b620015cc565b620014e6565b9050919050565b6000819050919050565b62001f098362001ecc565b62001f2162001f188262001ef4565b84845462001e76565b825550505050565b600090565b62001f3862001f29565b62001f4581848462001efe565b505050565b5b8181101562001f6d5762001f6160008262001f2e565b60018101905062001f4b565b5050565b601f82111562001fbc5762001f868162001d43565b62001f918462001e59565b8101602085101562001fa1578190505b62001fb962001fb08562001e59565b83018262001f4a565b50505b505050565b600082821c905092915050565b600062001fe16000198460080262001fc1565b1980831691505092915050565b600062001ffc838362001fce565b9150826002028217905092915050565b620020178262001512565b67ffffffffffffffff8111156200203357620020326200196b565b5b6200203f825462001b8f565b6200204c82828562001f71565b600060209050601f8311600181146200208457600084156200206f578287015190505b6200207b858262001fee565b865550620020eb565b601f198416620020948662001d43565b60005b82811015620020be5784890151825560018201915060208501945060208101905062002097565b86831015620020de5784890151620020da601f89168262001fce565b8355505b6001600288020188555050505b505050505050565b60006200210082620014e6565b91506200210d83620014e6565b925082820390508181111562002128576200212762001bc4565b5b92915050565b600081905092915050565b7f416363657373436f6e74726f6c3a206163636f756e7420000000000000000000600082015250565b6000620021716017836200212e565b91506200217e8262002139565b601782019050919050565b6000620021968262001512565b620021a281856200212e565b9350620021b48185602086016200152e565b80840191505092915050565b7f206973206d697373696e6720726f6c6520000000000000000000000000000000600082015250565b6000620021f86011836200212e565b91506200220582620021c0565b601182019050919050565b60006200221d8262002162565b91506200222b828562002189565b91506200223882620021e9565b915062002246828462002189565b91508190509392505050565b60006200225f8262001512565b6200226b818562001c40565b93506200227d8185602086016200152e565b62002288816200155a565b840191505092915050565b60006020820190508181036000830152620022af818462002252565b905092915050565b6000620022c482620014e6565b9150620022d183620014e6565b9250828202620022e181620014e6565b91508282048414831517620022fb57620022fa62001bc4565b5b5092915050565b60006200230f82620014e6565b91506200231c83620014e6565b925082820190508082111562002337576200233662001bc4565b5b92915050565b60006200234a82620014e6565b91506000820362002360576200235f62001bc4565b5b600182039050919050565b7f537472696e67733a20686578206c656e67746820696e73756666696369656e74600082015250565b6000620023a360208362001c40565b9150620023b0826200236b565b602082019050919050565b60006020820190508181036000830152620023d68162002394565b905091905056fe60806040526000600560006101000a81548160ff02191690831515021790555034801561002b57600080fd5b5061005c7fdf8b4c520ffe197c5343c6f5aec59570151ef9a492f2c624fd45ddde6135ec423361006160201b60201c565b6101bf565b610071828261014d60201b60201c565b61014957600160008084815260200190815260200160002060000160008373ffffffffffffffffffffffffffffffffffffffff1673ffffffffffffffffffffffffffffffffffffffff16815260200190815260200160002060006101000a81548160ff0219169083151502179055506100ee6101b760201b60201c565b73ffffffffffffffffffffffffffffffffffffffff168173ffffffffffffffffffffffffffffffffffffffff16837f2f8788117e7eff1d82e926ec794901d17c78024a50270940304540a733656f0d60405160405180910390a45b5050565b600080600084815260200190815260200160002060000160008373ffffffffffffffffffffffffffffffffffffffff1673ffffffffffffffffffffffffffffffffffffffff16815260200190815260200160002060009054906101000a900460ff16905092915050565b600033905090565b6116c7806101ce6000396000f3fe608060405234801561001057600080fd5b50600436106100f55760003560e01c806350627f8d11610097578063a217fddf11610066578063a217fddf1461025e578063a3bf5b9a1461027c578063a71f364114610298578063d547741f146102a2576100f5565b806350627f8d146101ea578063739439c4146101f457806391d148541461021057806392f4eff314610240576100f5565b80632f2ff15d116100d35780632f2ff15d1461017857806336568abe146101945780633d391f70146101b05780634e69d560146101cc576100f5565b806301ffc9a7146100fa578063248a9ca31461012a5780632a0acc6a1461015a575b600080fd5b610114600480360381019061010f9190611004565b6102be565b604051610121919061104c565b60405180910390f35b610144600480360381019061013f919061109d565b610338565b60405161015191906110d9565b60405180910390f35b610162610357565b60405161016f91906110d9565b60405180910390f35b610192600480360381019061018d9190611152565b61037b565b005b6101ae60048036038101906101a99190611152565b61039c565b005b6101ca60048036038101906101c59190611192565b61041f565b005b6101d4610477565b6040516101e1919061104c565b60405180910390f35b6101f26104b9565b005b61020e600480360381019061020991906111f5565b610501565b005b61022a60048036038101906102259190611152565b61055f565b604051610237919061104c565b60405180910390f35b6102486105c9565b6040516102559190611244565b60405180910390f35b61026661070b565b60405161027391906110d9565b60405180910390f35b61029660048036038101906102919190611192565b610712565b005b6102a061076a565b005b6102bc60048036038101906102b79190611152565b6107b2565b005b60007f7965db0b000000000000000000000000000000000000000000000000000000007bffffffffffffffffffffffffffffffffffffffffffffffffffffffff1916827bffffffffffffffffffffffffffffffffffffffffffffffffffffffff191614806103315750610330826107d3565b5b9050919050565b6000806000838152602001908152602001600020600101549050919050565b7fdf8b4c520ffe197c5343c6f5aec59570151ef9a492f2c624fd45ddde6135ec4281565b61038482610338565b61038d8161083d565b6103978383610851565b505050565b6103a4610931565b73ffffffffffffffffffffffffffffffffffffffff168173ffffffffffffffffffffffffffffffffffffffff1614610411576040517f08c379a0000000000000000000000000000000000000000000000000000000008152600401610408906112e2565b60405180910390fd5b61041b8282610939565b5050565b7fdf8b4c520ffe197c5343c6f5aec59570151ef9a492f2c624fd45ddde6135ec426104498161083d565b6104737fdf8b4c520ffe197c5343c6f5aec59570151ef9a492f2c624fd45ddde6135ec428361037b565b5050565b60007fdf8b4c520ffe197c5343c6f5aec59570151ef9a492f2c624fd45ddde6135ec426104a38161083d565b600560009054906101000a900460ff1691505090565b7fdf8b4c520ffe197c5343c6f5aec59570151ef9a492f2c624fd45ddde6135ec426104e38161083d565b6001600560006101000a81548160ff02191690831515021790555050565b7fdf8b4c520ffe197c5343c6f5aec59570151ef9a492f2c624fd45ddde6135ec4261052b8161083d565b600560009054906101000a900460ff1661054457600080fd5b61055a83836001610a1a9092919063ffffffff16565b505050565b600080600084815260200190815260200160002060000160008373ffffffffffffffffffffffffffffffffffffffff1673ffffffffffffffffffffffffffffffffffffffff16815260200190815260200160002060009054906101000a900460ff16905092915050565b60007fdf8b4c520ffe197c5343c6f5aec59570151ef9a492f2c624fd45ddde6135ec426105f58161083d565b600560009054906101000a900460ff161561060f57600080fd5b600061063961062960006001610c1190919063ffffffff16565b6001610c5c90919063ffffffff16565b905060005b6106486001610ca8565b8110156106e0576000610665826001610c1190919063ffffffff16565b9050600061067d826001610c5c90919063ffffffff16565b90508381116106cb5780935081600560016101000a81548173ffffffffffffffffffffffffffffffffffffffff021916908373ffffffffffffffffffffffffffffffffffffffff1602179055505b505080806106d890611331565b91505061063e565b50600560019054906101000a900473ffffffffffffffffffffffffffffffffffffffff169250505090565b6000801b81565b7fdf8b4c520ffe197c5343c6f5aec59570151ef9a492f2c624fd45ddde6135ec4261073c8161083d565b6107667fdf8b4c520ffe197c5343c6f5aec59570151ef9a492f2c624fd45ddde6135ec42836107b2565b5050565b7fdf8b4c520ffe197c5343c6f5aec59570151ef9a492f2c624fd45ddde6135ec426107948161083d565b6000600560006101000a81548160ff02191690831515021790555050565b6107bb82610338565b6107c48161083d565b6107ce8383610939565b505050565b60007f01ffc9a7000000000000000000000000000000000000000000000000000000007bffffffffffffffffffffffffffffffffffffffffffffffffffffffff1916827bffffffffffffffffffffffffffffffffffffffffffffffffffffffff1916149050919050565b61084e81610849610931565b610cb9565b50565b61085b828261055f565b61092d57600160008084815260200190815260200160002060000160008373ffffffffffffffffffffffffffffffffffffffff1673ffffffffffffffffffffffffffffffffffffffff16815260200190815260200160002060006101000a81548160ff0219169083151502179055506108d2610931565b73ffffffffffffffffffffffffffffffffffffffff168173ffffffffffffffffffffffffffffffffffffffff16837f2f8788117e7eff1d82e926ec794901d17c78024a50270940304540a733656f0d60405160405180910390a45b5050565b600033905090565b610943828261055f565b15610a1657600080600084815260200190815260200160002060000160008373ffffffffffffffffffffffffffffffffffffffff1673ffffffffffffffffffffffffffffffffffffffff16815260200190815260200160002060006101000a81548160ff0219169083151502179055506109bb610931565b73ffffffffffffffffffffffffffffffffffffffff168173ffffffffffffffffffffffffffffffffffffffff16837ff6391f5c32d9c69d2a47ea670b442974b53935d1edc7fd64eb21e047a839171b60405160405180910390a45b5050565b8260030160008373ffffffffffffffffffffffffffffffffffffffff1673ffffffffffffffffffffffffffffffffffffffff16815260200190815260200160002060009054906101000a900460ff1615610ab957808360010160008473ffffffffffffffffffffffffffffffffffffffff1673ffffffffffffffffffffffffffffffffffffffff16815260200190815260200160002081905550610c0c565b60018360030160008473ffffffffffffffffffffffffffffffffffffffff1673ffffffffffffffffffffffffffffffffffffffff16815260200190815260200160002060006101000a81548160ff021916908315150217905550808360010160008473ffffffffffffffffffffffffffffffffffffffff1673ffffffffffffffffffffffffffffffffffffffff1681526020019081526020016000208190555082600001805490508360020160008473ffffffffffffffffffffffffffffffffffffffff1673ffffffffffffffffffffffffffffffffffffffff1681526020019081526020016000208190555082600001829080600181540180825580915050600190039060005260206000200160009091909190916101000a81548173ffffffffffffffffffffffffffffffffffffffff021916908373ffffffffffffffffffffffffffffffffffffffff1602179055505b505050565b6000826000018281548110610c2957610c28611379565b5b9060005260206000200160009054906101000a900473ffffffffffffffffffffffffffffffffffffffff16905092915050565b60008260010160008373ffffffffffffffffffffffffffffffffffffffff1673ffffffffffffffffffffffffffffffffffffffff16815260200190815260200160002054905092915050565b600081600001805490509050919050565b610cc3828261055f565b610d3a57610cd081610d3e565b610cde8360001c6020610d6b565b604051602001610cef9291906114b1565b6040516020818303038152906040526040517f08c379a0000000000000000000000000000000000000000000000000000000008152600401610d319190611535565b60405180910390fd5b5050565b6060610d648273ffffffffffffffffffffffffffffffffffffffff16601460ff16610d6b565b9050919050565b606060006002836002610d7e9190611557565b610d889190611599565b67ffffffffffffffff811115610da157610da06115cd565b5b6040519080825280601f01601f191660200182016040528015610dd35781602001600182028036833780820191505090505b5090507f300000000000000000000000000000000000000000000000000000000000000081600081518110610e0b57610e0a611379565b5b60200101907effffffffffffffffffffffffffffffffffffffffffffffffffffffffffffff1916908160001a9053507f780000000000000000000000000000000000000000000000000000000000000081600181518110610e6f57610e6e611379565b5b60200101907effffffffffffffffffffffffffffffffffffffffffffffffffffffffffffff1916908160001a90535060006001846002610eaf9190611557565b610eb99190611599565b90505b6001811115610f59577f3031323334353637383961626364656600000000000000000000000000000000600f861660108110610efb57610efa611379565b5b1a60f81b828281518110610f1257610f11611379565b5b60200101907effffffffffffffffffffffffffffffffffffffffffffffffffffffffffffff1916908160001a905350600485901c945080610f52906115fc565b9050610ebc565b5060008414610f9d576040517f08c379a0000000000000000000000000000000000000000000000000000000008152600401610f9490611671565b60405180910390fd5b8091505092915050565b600080fd5b60007fffffffff0000000000000000000000000000000000000000000000000000000082169050919050565b610fe181610fac565b8114610fec57600080fd5b50565b600081359050610ffe81610fd8565b92915050565b60006020828403121561101a57611019610fa7565b5b600061102884828501610fef565b91505092915050565b60008115159050919050565b61104681611031565b82525050565b6000602082019050611061600083018461103d565b92915050565b6000819050919050565b61107a81611067565b811461108557600080fd5b50565b60008135905061109781611071565b92915050565b6000602082840312156110b3576110b2610fa7565b5b60006110c184828501611088565b91505092915050565b6110d381611067565b82525050565b60006020820190506110ee60008301846110ca565b92915050565b600073ffffffffffffffffffffffffffffffffffffffff82169050919050565b600061111f826110f4565b9050919050565b61112f81611114565b811461113a57600080fd5b50565b60008135905061114c81611126565b92915050565b6000806040838503121561116957611168610fa7565b5b600061117785828601611088565b92505060206111888582860161113d565b9150509250929050565b6000602082840312156111a8576111a7610fa7565b5b60006111b68482850161113d565b91505092915050565b6000819050919050565b6111d2816111bf565b81146111dd57600080fd5b50565b6000813590506111ef816111c9565b92915050565b6000806040838503121561120c5761120b610fa7565b5b600061121a8582860161113d565b925050602061122b858286016111e0565b9150509250929050565b61123e81611114565b82525050565b60006020820190506112596000830184611235565b92915050565b600082825260208201905092915050565b7f416363657373436f6e74726f6c3a2063616e206f6e6c792072656e6f756e636560008201527f20726f6c657320666f722073656c660000000000000000000000000000000000602082015250565b60006112cc602f8361125f565b91506112d782611270565b604082019050919050565b600060208201905081810360008301526112fb816112bf565b9050919050565b7f4e487b7100000000000000000000000000000000000000000000000000000000600052601160045260246000fd5b600061133c826111bf565b91507fffffffffffffffffffffffffffffffffffffffffffffffffffffffffffffffff820361136e5761136d611302565b5b600182019050919050565b7f4e487b7100000000000000000000000000000000000000000000000000000000600052603260045260246000fd5b600081905092915050565b7f416363657373436f6e74726f6c3a206163636f756e7420000000000000000000600082015250565b60006113e96017836113a8565b91506113f4826113b3565b601782019050919050565b600081519050919050565b60005b8381101561142857808201518184015260208101905061140d565b60008484015250505050565b600061143f826113ff565b61144981856113a8565b935061145981856020860161140a565b80840191505092915050565b7f206973206d697373696e6720726f6c6520000000000000000000000000000000600082015250565b600061149b6011836113a8565b91506114a682611465565b601182019050919050565b60006114bc826113dc565b91506114c88285611434565b91506114d38261148e565b91506114df8284611434565b91508190509392505050565b6000601f19601f8301169050919050565b6000611507826113ff565b611511818561125f565b935061152181856020860161140a565b61152a816114eb565b840191505092915050565b6000602082019050818103600083015261154f81846114fc565b905092915050565b6000611562826111bf565b915061156d836111bf565b925082820261157b816111bf565b9150828204841483151761159257611591611302565b5b5092915050565b60006115a4826111bf565b91506115af836111bf565b92508282019050808211156115c7576115c6611302565b5b92915050565b7f4e487b7100000000000000000000000000000000000000000000000000000000600052604160045260246000fd5b6000611607826111bf565b91506000820361161a57611619611302565b5b600182039050919050565b7f537472696e67733a20686578206c656e67746820696e73756666696369656e74600082015250565b600061165b60208361125f565b915061166682611625565b602082019050919050565b6000602082019050818103600083015261168a8161164e565b905091905056fea2646970667358221220cb24c7d57b2d8f0a5d2d86910914756452f6a01d515af5095c166c13b0059f9064736f6c63430008110033a2646970667358221220d1fe36b9c6b046f602dc378d2e885448fc2e92b3110dfd252443d9bf75b5ae1d64736f6c6343000811003360806040523480156200001157600080fd5b506040516200317c3803806200317c8339818101604052810190620000379190620001fa565b818181600090816200004a9190620004ca565b5080600190816200005c9190620004ca565b5050505050620005b1565b6000604051905090565b600080fd5b600080fd5b600080fd5b600080fd5b6000601f19601f8301169050919050565b7f4e487b7100000000000000000000000000000000000000000000000000000000600052604160045260246000fd5b620000d08262000085565b810181811067ffffffffffffffff82111715620000f257620000f162000096565b5b80604052505050565b60006200010762000067565b9050620001158282620000c5565b919050565b600067ffffffffffffffff82111562000138576200013762000096565b5b620001438262000085565b9050602081019050919050565b60005b838110156200017057808201518184015260208101905062000153565b60008484015250505050565b6000620001936200018d846200011a565b620000fb565b905082815260208101848484011115620001b257620001b162000080565b5b620001bf84828562000150565b509392505050565b600082601f830112620001df57620001de6200007b565b5b8151620001f18482602086016200017c565b91505092915050565b6000806040838503121562000214576200021362000071565b5b600083015167ffffffffffffffff81111562000235576200023462000076565b5b6200024385828601620001c7565b925050602083015167ffffffffffffffff81111562000267576200026662000076565b5b6200027585828601620001c7565b9150509250929050565b600081519050919050565b7f4e487b7100000000000000000000000000000000000000000000000000000000600052602260045260246000fd5b60006002820490506001821680620002d257607f821691505b602082108103620002e857620002e76200028a565b5b50919050565b60008190508160005260206000209050919050565b60006020601f8301049050919050565b600082821b905092915050565b600060088302620003527fffffffffffffffffffffffffffffffffffffffffffffffffffffffffffffffff8262000313565b6200035e868362000313565b95508019841693508086168417925050509392505050565b6000819050919050565b6000819050919050565b6000620003ab620003a56200039f8462000376565b62000380565b62000376565b9050919050565b6000819050919050565b620003c7836200038a565b620003df620003d682620003b2565b84845462000320565b825550505050565b600090565b620003f6620003e7565b62000403818484620003bc565b505050565b5b818110156200042b576200041f600082620003ec565b60018101905062000409565b5050565b601f8211156200047a576200044481620002ee565b6200044f8462000303565b810160208510156200045f578190505b620004776200046e8562000303565b83018262000408565b50505b505050565b600082821c905092915050565b60006200049f600019846008026200047f565b1980831691505092915050565b6000620004ba83836200048c565b9150826002028217905092915050565b620004d5826200027f565b67ffffffffffffffff811115620004f157620004f062000096565b5b620004fd8254620002b9565b6200050a8282856200042f565b600060209050601f8311600181146200054257600084156200052d578287015190505b620005398582620004ac565b865550620005a9565b601f1984166200055286620002ee565b60005b828110156200057c5784890151825560018201915060208501945060208101905062000555565b868310156200059c578489015162000598601f8916826200048c565b8355505b6001600288020188555050505b505050505050565b612bbb80620005c16000396000f3fe608060405234801561001057600080fd5b50600436106100ea5760003560e01c806370a082311161008c578063a22cb46511610066578063a22cb4651461025b578063b88d4fde14610277578063c87b56dd14610293578063e985e9c5146102c3576100ea565b806370a08231146101f157806385a66b911461022157806395d89b411461023d576100ea565b8063095ea7b3116100c8578063095ea7b31461016d57806323b872dd1461018957806342842e0e146101a55780636352211e146101c1576100ea565b806301ffc9a7146100ef57806306fdde031461011f578063081812fc1461013d575b600080fd5b61010960048036038101906101049190611a00565b6102f3565b6040516101169190611a48565b60405180910390f35b6101276103d5565b6040516101349190611af3565b60405180910390f35b61015760048036038101906101529190611b4b565b610467565b6040516101649190611bb9565b60405180910390f35b61018760048036038101906101829190611c00565b6104ad565b005b6101a3600480360381019061019e9190611c40565b6105c4565b005b6101bf60048036038101906101ba9190611c40565b610624565b005b6101db60048036038101906101d69190611b4b565b610644565b6040516101e89190611bb9565b60405180910390f35b61020b60048036038101906102069190611c93565b6106ca565b6040516102189190611ccf565b60405180910390f35b61023b60048036038101906102369190611e1f565b610781565b005b61024561079a565b6040516102529190611af3565b60405180910390f35b61027560048036038101906102709190611eba565b61082c565b005b610291600480360381019061028c9190611f9b565b610842565b005b6102ad60048036038101906102a89190611b4b565b6108a4565b6040516102ba9190611af3565b60405180910390f35b6102dd60048036038101906102d8919061201e565b6109b6565b6040516102ea9190611a48565b60405180910390f35b60007f80ac58cd000000000000000000000000000000000000000000000000000000007bffffffffffffffffffffffffffffffffffffffffffffffffffffffff1916827bffffffffffffffffffffffffffffffffffffffffffffffffffffffff191614806103be57507f5b5e139f000000000000000000000000000000000000000000000000000000007bffffffffffffffffffffffffffffffffffffffffffffffffffffffff1916827bffffffffffffffffffffffffffffffffffffffffffffffffffffffff1916145b806103ce57506103cd82610a4a565b5b9050919050565b6060600080546103e49061208d565b80601f01602080910402602001604051908101604052809291908181526020018280546104109061208d565b801561045d5780601f106104325761010080835404028352916020019161045d565b820191906000526020600020905b81548152906001019060200180831161044057829003601f168201915b5050505050905090565b600061047282610ab4565b6004600083815260200190815260200160002060009054906101000a900473ffffffffffffffffffffffffffffffffffffffff169050919050565b60006104b882610644565b90508073ffffffffffffffffffffffffffffffffffffffff168373ffffffffffffffffffffffffffffffffffffffff1603610528576040517f08c379a000000000000000000000000000000000000000000000000000000000815260040161051f90612130565b60405180910390fd5b8073ffffffffffffffffffffffffffffffffffffffff16610547610aff565b73ffffffffffffffffffffffffffffffffffffffff161480610576575061057581610570610aff565b6109b6565b5b6105b5576040517f08c379a00000000000000000000000000000000000000000000000000000000081526004016105ac906121c2565b60405180910390fd5b6105bf8383610b07565b505050565b6105d56105cf610aff565b82610bc0565b610614576040517f08c379a000000000000000000000000000000000000000000000000000000000815260040161060b90612254565b60405180910390fd5b61061f838383610c55565b505050565b61063f83838360405180602001604052806000815250610842565b505050565b60008061065083610f4e565b9050600073ffffffffffffffffffffffffffffffffffffffff168173ffffffffffffffffffffffffffffffffffffffff16036106c1576040517f08c379a00000000000000000000000000000000000000000000000000000000081526004016106b8906122c0565b60405180910390fd5b80915050919050565b60008073ffffffffffffffffffffffffffffffffffffffff168273ffffffffffffffffffffffffffffffffffffffff160361073a576040517f08c379a000000000000000000000000000000000000000000000000000000000815260040161073190612352565b60405180910390fd5b600360008373ffffffffffffffffffffffffffffffffffffffff1673ffffffffffffffffffffffffffffffffffffffff168152602001908152602001600020549050919050565b61078b8383610f8b565b61079582826111a8565b505050565b6060600180546107a99061208d565b80601f01602080910402602001604051908101604052809291908181526020018280546107d59061208d565b80156108225780601f106107f757610100808354040283529160200191610822565b820191906000526020600020905b81548152906001019060200180831161080557829003601f168201915b5050505050905090565b61083e610837610aff565b8383611215565b5050565b61085361084d610aff565b83610bc0565b610892576040517f08c379a000000000000000000000000000000000000000000000000000000000815260040161088990612254565b60405180910390fd5b61089e84848484611381565b50505050565b60606108af82610ab4565b60006006600084815260200190815260200160002080546108cf9061208d565b80601f01602080910402602001604051908101604052809291908181526020018280546108fb9061208d565b80156109485780601f1061091d57610100808354040283529160200191610948565b820191906000526020600020905b81548152906001019060200180831161092b57829003601f168201915b5050505050905060006109596113dd565b9050600081510361096e5781925050506109b1565b6000825111156109a357808260405160200161098b9291906123ae565b604051602081830303815290604052925050506109b1565b6109ac846113f4565b925050505b919050565b6000600560008473ffffffffffffffffffffffffffffffffffffffff1673ffffffffffffffffffffffffffffffffffffffff16815260200190815260200160002060008373ffffffffffffffffffffffffffffffffffffffff1673ffffffffffffffffffffffffffffffffffffffff16815260200190815260200160002060009054906101000a900460ff16905092915050565b60007f01ffc9a7000000000000000000000000000000000000000000000000000000007bffffffffffffffffffffffffffffffffffffffffffffffffffffffff1916827bffffffffffffffffffffffffffffffffffffffffffffffffffffffff1916149050919050565b610abd8161145c565b610afc576040517f08c379a0000000000000000000000000000000000000000000000000000000008152600401610af3906122c0565b60405180910390fd5b50565b600033905090565b816004600083815260200190815260200160002060006101000a81548173ffffffffffffffffffffffffffffffffffffffff021916908373ffffffffffffffffffffffffffffffffffffffff160217905550808273ffffffffffffffffffffffffffffffffffffffff16610b7a83610644565b73ffffffffffffffffffffffffffffffffffffffff167f8c5be1e5ebec7d5bd14f71427d1e84f3dd0314c0f7b2291e5b200ac8c7c3b92560405160405180910390a45050565b600080610bcc83610644565b90508073ffffffffffffffffffffffffffffffffffffffff168473ffffffffffffffffffffffffffffffffffffffff161480610c0e5750610c0d81856109b6565b5b80610c4c57508373ffffffffffffffffffffffffffffffffffffffff16610c3484610467565b73ffffffffffffffffffffffffffffffffffffffff16145b91505092915050565b8273ffffffffffffffffffffffffffffffffffffffff16610c7582610644565b73ffffffffffffffffffffffffffffffffffffffff1614610ccb576040517f08c379a0000000000000000000000000000000000000000000000000000000008152600401610cc290612444565b60405180910390fd5b600073ffffffffffffffffffffffffffffffffffffffff168273ffffffffffffffffffffffffffffffffffffffff1603610d3a576040517f08c379a0000000000000000000000000000000000000000000000000000000008152600401610d31906124d6565b60405180910390fd5b610d47838383600161149d565b8273ffffffffffffffffffffffffffffffffffffffff16610d6782610644565b73ffffffffffffffffffffffffffffffffffffffff1614610dbd576040517f08c379a0000000000000000000000000000000000000000000000000000000008152600401610db490612444565b60405180910390fd5b6004600082815260200190815260200160002060006101000a81549073ffffffffffffffffffffffffffffffffffffffff02191690556001600360008573ffffffffffffffffffffffffffffffffffffffff1673ffffffffffffffffffffffffffffffffffffffff168152602001908152602001600020600082825403925050819055506001600360008473ffffffffffffffffffffffffffffffffffffffff1673ffffffffffffffffffffffffffffffffffffffff16815260200190815260200160002060008282540192505081905550816002600083815260200190815260200160002060006101000a81548173ffffffffffffffffffffffffffffffffffffffff021916908373ffffffffffffffffffffffffffffffffffffffff160217905550808273ffffffffffffffffffffffffffffffffffffffff168473ffffffffffffffffffffffffffffffffffffffff167fddf252ad1be2c89b69c2b068fc378daa952ba7f163c4a11628f55a4df523b3ef60405160405180910390a4610f4983838360016115c3565b505050565b60006002600083815260200190815260200160002060009054906101000a900473ffffffffffffffffffffffffffffffffffffffff169050919050565b600073ffffffffffffffffffffffffffffffffffffffff168273ffffffffffffffffffffffffffffffffffffffff1603610ffa576040517f08c379a0000000000000000000000000000000000000000000000000000000008152600401610ff190612542565b60405180910390fd5b6110038161145c565b15611043576040517f08c379a000000000000000000000000000000000000000000000000000000000815260040161103a906125ae565b60405180910390fd5b61105160008383600161149d565b61105a8161145c565b1561109a576040517f08c379a0000000000000000000000000000000000000000000000000000000008152600401611091906125ae565b60405180910390fd5b6001600360008473ffffffffffffffffffffffffffffffffffffffff1673ffffffffffffffffffffffffffffffffffffffff16815260200190815260200160002060008282540192505081905550816002600083815260200190815260200160002060006101000a81548173ffffffffffffffffffffffffffffffffffffffff021916908373ffffffffffffffffffffffffffffffffffffffff160217905550808273ffffffffffffffffffffffffffffffffffffffff16600073ffffffffffffffffffffffffffffffffffffffff167fddf252ad1be2c89b69c2b068fc378daa952ba7f163c4a11628f55a4df523b3ef60405160405180910390a46111a46000838360016115c3565b5050565b6111b18261145c565b6111f0576040517f08c379a00000000000000000000000000000000000000000000000000000000081526004016111e790612640565b60405180910390fd5b80600660008481526020019081526020016000209081611210919061280c565b505050565b8173ffffffffffffffffffffffffffffffffffffffff168373ffffffffffffffffffffffffffffffffffffffff1603611283576040517f08c379a000000000000000000000000000000000000000000000000000000000815260040161127a9061292a565b60405180910390fd5b80600560008573ffffffffffffffffffffffffffffffffffffffff1673ffffffffffffffffffffffffffffffffffffffff16815260200190815260200160002060008473ffffffffffffffffffffffffffffffffffffffff1673ffffffffffffffffffffffffffffffffffffffff16815260200190815260200160002060006101000a81548160ff0219169083151502179055508173ffffffffffffffffffffffffffffffffffffffff168373ffffffffffffffffffffffffffffffffffffffff167f17307eab39ab6107e8899845ad3d59bd9653f200f220920489ca2b5937696c31836040516113749190611a48565b60405180910390a3505050565b61138c848484610c55565b611398848484846115c9565b6113d7576040517f08c379a00000000000000000000000000000000000000000000000000000000081526004016113ce906129bc565b60405180910390fd5b50505050565b606060405180602001604052806000815250905090565b60606113ff82610ab4565b60006114096113dd565b905060008151116114295760405180602001604052806000815250611454565b8061143384611750565b6040516020016114449291906123ae565b6040516020818303038152906040525b915050919050565b60008073ffffffffffffffffffffffffffffffffffffffff1661147e83610f4e565b73ffffffffffffffffffffffffffffffffffffffff1614159050919050565b60018111156115bd57600073ffffffffffffffffffffffffffffffffffffffff168473ffffffffffffffffffffffffffffffffffffffff16146115315780600360008673ffffffffffffffffffffffffffffffffffffffff1673ffffffffffffffffffffffffffffffffffffffff16815260200190815260200160002060008282546115299190612a0b565b925050819055505b600073ffffffffffffffffffffffffffffffffffffffff168373ffffffffffffffffffffffffffffffffffffffff16146115bc5780600360008573ffffffffffffffffffffffffffffffffffffffff1673ffffffffffffffffffffffffffffffffffffffff16815260200190815260200160002060008282546115b49190612a3f565b925050819055505b5b50505050565b50505050565b60006115ea8473ffffffffffffffffffffffffffffffffffffffff1661181e565b15611743578373ffffffffffffffffffffffffffffffffffffffff1663150b7a02611613610aff565b8786866040518563ffffffff1660e01b81526004016116359493929190612ac8565b6020604051808303816000875af192505050801561167157506040513d601f19601f8201168201806040525081019061166e9190612b29565b60015b6116f3573d80600081146116a1576040519150601f19603f3d011682016040523d82523d6000602084013e6116a6565b606091505b5060008151036116eb576040517f08c379a00000000000000000000000000000000000000000000000000000000081526004016116e2906129bc565b60405180910390fd5b805181602001fd5b63150b7a0260e01b7bffffffffffffffffffffffffffffffffffffffffffffffffffffffff1916817bffffffffffffffffffffffffffffffffffffffffffffffffffffffff191614915050611748565b600190505b949350505050565b60606000600161175f84611841565b01905060008167ffffffffffffffff81111561177e5761177d611cf4565b5b6040519080825280601f01601f1916602001820160405280156117b05781602001600182028036833780820191505090505b509050600082602001820190505b600115611813578080600190039150507f3031323334353637383961626364656600000000000000000000000000000000600a86061a8153600a858161180757611806612b56565b5b049450600085036117be575b819350505050919050565b6000808273ffffffffffffffffffffffffffffffffffffffff163b119050919050565b600080600090507a184f03e93ff9f4daa797ed6e38ed64bf6a1f010000000000000000831061189f577a184f03e93ff9f4daa797ed6e38ed64bf6a1f010000000000000000838161189557611894612b56565b5b0492506040810190505b6d04ee2d6d415b85acef810000000083106118dc576d04ee2d6d415b85acef810000000083816118d2576118d1612b56565b5b0492506020810190505b662386f26fc10000831061190b57662386f26fc10000838161190157611900612b56565b5b0492506010810190505b6305f5e1008310611934576305f5e100838161192a57611929612b56565b5b0492506008810190505b612710831061195957612710838161194f5761194e612b56565b5b0492506004810190505b6064831061197c576064838161197257611971612b56565b5b0492506002810190505b600a831061198b576001810190505b80915050919050565b6000604051905090565b600080fd5b600080fd5b60007fffffffff0000000000000000000000000000000000000000000000000000000082169050919050565b6119dd816119a8565b81146119e857600080fd5b50565b6000813590506119fa816119d4565b92915050565b600060208284031215611a1657611a1561199e565b5b6000611a24848285016119eb565b91505092915050565b60008115159050919050565b611a4281611a2d565b82525050565b6000602082019050611a5d6000830184611a39565b92915050565b600081519050919050565b600082825260208201905092915050565b60005b83811015611a9d578082015181840152602081019050611a82565b60008484015250505050565b6000601f19601f8301169050919050565b6000611ac582611a63565b611acf8185611a6e565b9350611adf818560208601611a7f565b611ae881611aa9565b840191505092915050565b60006020820190508181036000830152611b0d8184611aba565b905092915050565b6000819050919050565b611b2881611b15565b8114611b3357600080fd5b50565b600081359050611b4581611b1f565b92915050565b600060208284031215611b6157611b6061199e565b5b6000611b6f84828501611b36565b91505092915050565b600073ffffffffffffffffffffffffffffffffffffffff82169050919050565b6000611ba382611b78565b9050919050565b611bb381611b98565b82525050565b6000602082019050611bce6000830184611baa565b92915050565b611bdd81611b98565b8114611be857600080fd5b50565b600081359050611bfa81611bd4565b92915050565b60008060408385031215611c1757611c1661199e565b5b6000611c2585828601611beb565b9250506020611c3685828601611b36565b9150509250929050565b600080600060608486031215611c5957611c5861199e565b5b6000611c6786828701611beb565b9350506020611c7886828701611beb565b9250506040611c8986828701611b36565b9150509250925092565b600060208284031215611ca957611ca861199e565b5b6000611cb784828501611beb565b91505092915050565b611cc981611b15565b82525050565b6000602082019050611ce46000830184611cc0565b92915050565b600080fd5b600080fd5b7f4e487b7100000000000000000000000000000000000000000000000000000000600052604160045260246000fd5b611d2c82611aa9565b810181811067ffffffffffffffff82111715611d4b57611d4a611cf4565b5b80604052505050565b6000611d5e611994565b9050611d6a8282611d23565b919050565b600067ffffffffffffffff821115611d8a57611d89611cf4565b5b611d9382611aa9565b9050602081019050919050565b82818337600083830152505050565b6000611dc2611dbd84611d6f565b611d54565b905082815260208101848484011115611dde57611ddd611cef565b5b611de9848285611da0565b509392505050565b600082601f830112611e0657611e05611cea565b5b8135611e16848260208601611daf565b91505092915050565b600080600060608486031215611e3857611e3761199e565b5b6000611e4686828701611beb565b9350506020611e5786828701611b36565b925050604084013567ffffffffffffffff811115611e7857611e776119a3565b5b611e8486828701611df1565b9150509250925092565b611e9781611a2d565b8114611ea257600080fd5b50565b600081359050611eb481611e8e565b92915050565b60008060408385031215611ed157611ed061199e565b5b6000611edf85828601611beb565b9250506020611ef085828601611ea5565b9150509250929050565b600067ffffffffffffffff821115611f1557611f14611cf4565b5b611f1e82611aa9565b9050602081019050919050565b6000611f3e611f3984611efa565b611d54565b905082815260208101848484011115611f5a57611f59611cef565b5b611f65848285611da0565b509392505050565b600082601f830112611f8257611f81611cea565b5b8135611f92848260208601611f2b565b91505092915050565b60008060008060808587031215611fb557611fb461199e565b5b6000611fc387828801611beb565b9450506020611fd487828801611beb565b9350506040611fe587828801611b36565b925050606085013567ffffffffffffffff811115612006576120056119a3565b5b61201287828801611f6d565b91505092959194509250565b600080604083850312156120355761203461199e565b5b600061204385828601611beb565b925050602061205485828601611beb565b9150509250929050565b7f4e487b7100000000000000000000000000000000000000000000000000000000600052602260045260246000fd5b600060028204905060018216806120a557607f821691505b6020821081036120b8576120b761205e565b5b50919050565b7f4552433732313a20617070726f76616c20746f2063757272656e74206f776e6560008201527f7200000000000000000000000000000000000000000000000000000000000000602082015250565b600061211a602183611a6e565b9150612125826120be565b604082019050919050565b600060208201905081810360008301526121498161210d565b9050919050565b7f4552433732313a20617070726f76652063616c6c6572206973206e6f7420746f60008201527f6b656e206f776e6572206f7220617070726f76656420666f7220616c6c000000602082015250565b60006121ac603d83611a6e565b91506121b782612150565b604082019050919050565b600060208201905081810360008301526121db8161219f565b9050919050565b7f4552433732313a2063616c6c6572206973206e6f7420746f6b656e206f776e6560008201527f72206f7220617070726f76656400000000000000000000000000000000000000602082015250565b600061223e602d83611a6e565b9150612249826121e2565b604082019050919050565b6000602082019050818103600083015261226d81612231565b9050919050565b7f4552433732313a20696e76616c696420746f6b656e2049440000000000000000600082015250565b60006122aa601883611a6e565b91506122b582612274565b602082019050919050565b600060208201905081810360008301526122d98161229d565b9050919050565b7f4552433732313a2061646472657373207a65726f206973206e6f74206120766160008201527f6c6964206f776e65720000000000000000000000000000000000000000000000602082015250565b600061233c602983611a6e565b9150612347826122e0565b604082019050919050565b6000602082019050818103600083015261236b8161232f565b9050919050565b600081905092915050565b600061238882611a63565b6123928185612372565b93506123a2818560208601611a7f565b80840191505092915050565b60006123ba828561237d565b91506123c6828461237d565b91508190509392505050565b7f4552433732313a207472616e736665722066726f6d20696e636f72726563742060008201527f6f776e6572000000000000000000000000000000000000000000000000000000602082015250565b600061242e602583611a6e565b9150612439826123d2565b604082019050919050565b6000602082019050818103600083015261245d81612421565b9050919050565b7f4552433732313a207472616e7366657220746f20746865207a65726f2061646460008201527f7265737300000000000000000000000000000000000000000000000000000000602082015250565b60006124c0602483611a6e565b91506124cb82612464565b604082019050919050565b600060208201905081810360008301526124ef816124b3565b9050919050565b7f4552433732313a206d696e7420746f20746865207a65726f2061646472657373600082015250565b600061252c602083611a6e565b9150612537826124f6565b602082019050919050565b6000602082019050818103600083015261255b8161251f565b9050919050565b7f4552433732313a20746f6b656e20616c7265616479206d696e74656400000000600082015250565b6000612598601c83611a6e565b91506125a382612562565b602082019050919050565b600060208201905081810360008301526125c78161258b565b9050919050565b7f45524337323155524953746f726167653a2055524920736574206f66206e6f6e60008201527f6578697374656e7420746f6b656e000000000000000000000000000000000000602082015250565b600061262a602e83611a6e565b9150612635826125ce565b604082019050919050565b600060208201905081810360008301526126598161261d565b9050919050565b60008190508160005260206000209050919050565b60006020601f8301049050919050565b600082821b905092915050565b6000600883026126c27fffffffffffffffffffffffffffffffffffffffffffffffffffffffffffffffff82612685565b6126cc8683612685565b95508019841693508086168417925050509392505050565b6000819050919050565b60006127096127046126ff84611b15565b6126e4565b611b15565b9050919050565b6000819050919050565b612723836126ee565b61273761272f82612710565b848454612692565b825550505050565b600090565b61274c61273f565b61275781848461271a565b505050565b5b8181101561277b57612770600082612744565b60018101905061275d565b5050565b601f8211156127c05761279181612660565b61279a84612675565b810160208510156127a9578190505b6127bd6127b585612675565b83018261275c565b50505b505050565b600082821c905092915050565b60006127e3600019846008026127c5565b1980831691505092915050565b60006127fc83836127d2565b9150826002028217905092915050565b61281582611a63565b67ffffffffffffffff81111561282e5761282d611cf4565b5b612838825461208d565b61284382828561277f565b600060209050601f8311600181146128765760008415612864578287015190505b61286e85826127f0565b8655506128d6565b601f19841661288486612660565b60005b828110156128ac57848901518255600182019150602085019450602081019050612887565b868310156128c957848901516128c5601f8916826127d2565b8355505b6001600288020188555050505b505050505050565b7f4552433732313a20617070726f766520746f2063616c6c657200000000000000600082015250565b6000612914601983611a6e565b915061291f826128de565b602082019050919050565b6000602082019050818103600083015261294381612907565b9050919050565b7f4552433732313a207472616e7366657220746f206e6f6e20455243373231526560008201527f63656976657220696d706c656d656e7465720000000000000000000000000000602082015250565b60006129a6603283611a6e565b91506129b18261294a565b604082019050919050565b600060208201905081810360008301526129d581612999565b9050919050565b7f4e487b7100000000000000000000000000000000000000000000000000000000600052601160045260246000fd5b6000612a1682611b15565b9150612a2183611b15565b9250828203905081811115612a3957612a386129dc565b5b92915050565b6000612a4a82611b15565b9150612a5583611b15565b9250828201905080821115612a6d57612a6c6129dc565b5b92915050565b600081519050919050565b600082825260208201905092915050565b6000612a9a82612a73565b612aa48185612a7e565b9350612ab4818560208601611a7f565b612abd81611aa9565b840191505092915050565b6000608082019050612add6000830187611baa565b612aea6020830186611baa565b612af76040830185611cc0565b8181036060830152612b098184612a8f565b905095945050505050565b600081519050612b23816119d4565b92915050565b600060208284031215612b3f57612b3e61199e565b5b6000612b4d84828501612b14565b91505092915050565b7f4e487b7100000000000000000000000000000000000000000000000000000000600052601260045260246000fdfea2646970667358221220c5a306550a436108cb81be8a94892bcd61831d75d99c66781d4181f91df5e9e464736f6c63430008110033",
  "immutableReferences": {},
  "source": "//SPDX-License-Identifier: MIT\npragma solidity >=0.5.16;\nimport \"@openzeppelin/contracts/utils/Counters.sol\";\nimport \"@openzeppelin/contracts/access/AccessControl.sol\";\nimport \"./ProposalManagement.sol\";\nimport \"./NFTColl.sol\";\ncontract Factory is AccessControl {\n    bytes32 public constant ADMIN = keccak256(\"ADMIN\");\n    using Counters for Counters.Counter;\n    struct Tend {\n        uint id;\n        bool stat;\n        string URI;\n        ProposalManagement proposal;\n        address win;\n    }\n    Tend[] private tends;\n    Counters.Counter private _numProp;\n    NFTColl private NFT;\n\n    constructor(string memory name, string memory symbol) {\n        NFT=new NFTColl(name,symbol);\n        _grantRole(ADMIN, msg.sender);\n    }\n\n    function openNewTender(string memory tokenURI)\n        public\n        onlyRole(ADMIN)\n        returns (uint)\n    {\n        ProposalManagement newProposal = new ProposalManagement();\n        newProposal.openTender();\n        tends.push(\n            Tend(_numProp.current(), true, tokenURI, newProposal, address(0))\n        );\n        _numProp.increment();\n        return _numProp.current() - 1;\n    }\n\n    function Proposal(uint quote, uint num) public {\n        require(tends[num].stat);\n        tends[num].proposal.sendProposal(msg.sender, quote);\n    }\n\n    function assignWinner(uint num) public onlyRole(ADMIN) {\n        require(tends[num].stat);\n        tends[num].proposal.closeTender();\n        tends[num].stat = false;\n        tends[num].win = tends[num].proposal.proposalEvaluation();\n        NFT.Mint(tends[num].win, num, tends[num].URI);\n    }\n\n    function getTends() public view returns (Tend[] memory) {\n        Tend[] memory output = new Tend[](_numProp.current());\n        for (uint i = 0; i < _numProp.current(); i++) {\n            Tend storage temp = tends[i];\n            output[i] = temp;\n        }\n        return output;\n    }\n}\n",
  "sourcePath": "/home/daniele/Documenti/truffleReact/truffle/contracts/Factory.sol",
  "compiler": {
    "name": "solc",
    "version": "0.8.17+commit.8df45f5f.Emscripten.clang"
  },
  "schemaVersion": "3.4.11",
  "updatedAt": "2023-01-23T17:18:59.332Z",
  "networkType": "ethereum",
  "devdoc": {
    "kind": "dev",
    "methods": {
      "getRoleAdmin(bytes32)": {
        "details": "Returns the admin role that controls `role`. See {grantRole} and {revokeRole}. To change a role's admin, use {_setRoleAdmin}."
      },
      "grantRole(bytes32,address)": {
        "details": "Grants `role` to `account`. If `account` had not been already granted `role`, emits a {RoleGranted} event. Requirements: - the caller must have ``role``'s admin role. May emit a {RoleGranted} event."
      },
      "hasRole(bytes32,address)": {
        "details": "Returns `true` if `account` has been granted `role`."
      },
      "renounceRole(bytes32,address)": {
        "details": "Revokes `role` from the calling account. Roles are often managed via {grantRole} and {revokeRole}: this function's purpose is to provide a mechanism for accounts to lose their privileges if they are compromised (such as when a trusted device is misplaced). If the calling account had been revoked `role`, emits a {RoleRevoked} event. Requirements: - the caller must be `account`. May emit a {RoleRevoked} event."
      },
      "revokeRole(bytes32,address)": {
        "details": "Revokes `role` from `account`. If `account` had been granted `role`, emits a {RoleRevoked} event. Requirements: - the caller must have ``role``'s admin role. May emit a {RoleRevoked} event."
      },
      "supportsInterface(bytes4)": {
        "details": "See {IERC165-supportsInterface}."
      }
    },
    "version": 1
  },
  "userdoc": {
    "kind": "user",
    "methods": {},
    "version": 1
  }
}