{
  "contractName": "Factory",
  "abi": [
    {
      "inputs": [
        {
          "internalType": "string",
          "name": "name",
          "type": "string"
        },
        {
          "internalType": "string",
          "name": "symbol",
          "type": "string"
        }
      ],
      "stateMutability": "nonpayable",
      "type": "constructor"
    },
    {
      "anonymous": false,
      "inputs": [
        {
          "indexed": true,
          "internalType": "address",
          "name": "owner",
          "type": "address"
        },
        {
          "indexed": true,
          "internalType": "address",
          "name": "approved",
          "type": "address"
        },
        {
          "indexed": true,
          "internalType": "uint256",
          "name": "tokenId",
          "type": "uint256"
        }
      ],
      "name": "Approval",
      "type": "event"
    },
    {
      "anonymous": false,
      "inputs": [
        {
          "indexed": true,
          "internalType": "address",
          "name": "owner",
          "type": "address"
        },
        {
          "indexed": true,
          "internalType": "address",
          "name": "operator",
          "type": "address"
        },
        {
          "indexed": false,
          "internalType": "bool",
          "name": "approved",
          "type": "bool"
        }
      ],
      "name": "ApprovalForAll",
      "type": "event"
    },
    {
      "anonymous": false,
      "inputs": [
        {
          "indexed": true,
          "internalType": "bytes32",
          "name": "role",
          "type": "bytes32"
        },
        {
          "indexed": true,
          "internalType": "bytes32",
          "name": "previousAdminRole",
          "type": "bytes32"
        },
        {
          "indexed": true,
          "internalType": "bytes32",
          "name": "newAdminRole",
          "type": "bytes32"
        }
      ],
      "name": "RoleAdminChanged",
      "type": "event"
    },
    {
      "anonymous": false,
      "inputs": [
        {
          "indexed": true,
          "internalType": "bytes32",
          "name": "role",
          "type": "bytes32"
        },
        {
          "indexed": true,
          "internalType": "address",
          "name": "account",
          "type": "address"
        },
        {
          "indexed": true,
          "internalType": "address",
          "name": "sender",
          "type": "address"
        }
      ],
      "name": "RoleGranted",
      "type": "event"
    },
    {
      "anonymous": false,
      "inputs": [
        {
          "indexed": true,
          "internalType": "bytes32",
          "name": "role",
          "type": "bytes32"
        },
        {
          "indexed": true,
          "internalType": "address",
          "name": "account",
          "type": "address"
        },
        {
          "indexed": true,
          "internalType": "address",
          "name": "sender",
          "type": "address"
        }
      ],
      "name": "RoleRevoked",
      "type": "event"
    },
    {
      "anonymous": false,
      "inputs": [
        {
          "indexed": true,
          "internalType": "address",
          "name": "from",
          "type": "address"
        },
        {
          "indexed": true,
          "internalType": "address",
          "name": "to",
          "type": "address"
        },
        {
          "indexed": true,
          "internalType": "uint256",
          "name": "tokenId",
          "type": "uint256"
        }
      ],
      "name": "Transfer",
      "type": "event"
    },
    {
      "inputs": [],
      "name": "ADMIN",
      "outputs": [
        {
          "internalType": "bytes32",
          "name": "",
          "type": "bytes32"
        }
      ],
      "stateMutability": "view",
      "type": "function",
      "constant": true
    },
    {
      "inputs": [],
      "name": "DEFAULT_ADMIN_ROLE",
      "outputs": [
        {
          "internalType": "bytes32",
          "name": "",
          "type": "bytes32"
        }
      ],
      "stateMutability": "view",
      "type": "function",
      "constant": true
    },
    {
      "inputs": [
        {
          "internalType": "address",
          "name": "to",
          "type": "address"
        },
        {
          "internalType": "uint256",
          "name": "tokenId",
          "type": "uint256"
        }
      ],
      "name": "approve",
      "outputs": [],
      "stateMutability": "nonpayable",
      "type": "function"
    },
    {
      "inputs": [
        {
          "internalType": "address",
          "name": "owner",
          "type": "address"
        }
      ],
      "name": "balanceOf",
      "outputs": [
        {
          "internalType": "uint256",
          "name": "",
          "type": "uint256"
        }
      ],
      "stateMutability": "view",
      "type": "function",
      "constant": true
    },
    {
      "inputs": [
        {
          "internalType": "uint256",
          "name": "tokenId",
          "type": "uint256"
        }
      ],
      "name": "getApproved",
      "outputs": [
        {
          "internalType": "address",
          "name": "",
          "type": "address"
        }
      ],
      "stateMutability": "view",
      "type": "function",
      "constant": true
    },
    {
      "inputs": [
        {
          "internalType": "bytes32",
          "name": "role",
          "type": "bytes32"
        }
      ],
      "name": "getRoleAdmin",
      "outputs": [
        {
          "internalType": "bytes32",
          "name": "",
          "type": "bytes32"
        }
      ],
      "stateMutability": "view",
      "type": "function",
      "constant": true
    },
    {
      "inputs": [
        {
          "internalType": "bytes32",
          "name": "role",
          "type": "bytes32"
        },
        {
          "internalType": "address",
          "name": "account",
          "type": "address"
        }
      ],
      "name": "grantRole",
      "outputs": [],
      "stateMutability": "nonpayable",
      "type": "function"
    },
    {
      "inputs": [
        {
          "internalType": "bytes32",
          "name": "role",
          "type": "bytes32"
        },
        {
          "internalType": "address",
          "name": "account",
          "type": "address"
        }
      ],
      "name": "hasRole",
      "outputs": [
        {
          "internalType": "bool",
          "name": "",
          "type": "bool"
        }
      ],
      "stateMutability": "view",
      "type": "function",
      "constant": true
    },
    {
      "inputs": [
        {
          "internalType": "address",
          "name": "owner",
          "type": "address"
        },
        {
          "internalType": "address",
          "name": "operator",
          "type": "address"
        }
      ],
      "name": "isApprovedForAll",
      "outputs": [
        {
          "internalType": "bool",
          "name": "",
          "type": "bool"
        }
      ],
      "stateMutability": "view",
      "type": "function",
      "constant": true
    },
    {
      "inputs": [],
      "name": "name",
      "outputs": [
        {
          "internalType": "string",
          "name": "",
          "type": "string"
        }
      ],
      "stateMutability": "view",
      "type": "function",
      "constant": true
    },
    {
      "inputs": [
        {
          "internalType": "uint256",
          "name": "tokenId",
          "type": "uint256"
        }
      ],
      "name": "ownerOf",
      "outputs": [
        {
          "internalType": "address",
          "name": "",
          "type": "address"
        }
      ],
      "stateMutability": "view",
      "type": "function",
      "constant": true
    },
    {
      "inputs": [
        {
          "internalType": "bytes32",
          "name": "role",
          "type": "bytes32"
        },
        {
          "internalType": "address",
          "name": "account",
          "type": "address"
        }
      ],
      "name": "renounceRole",
      "outputs": [],
      "stateMutability": "nonpayable",
      "type": "function"
    },
    {
      "inputs": [
        {
          "internalType": "bytes32",
          "name": "role",
          "type": "bytes32"
        },
        {
          "internalType": "address",
          "name": "account",
          "type": "address"
        }
      ],
      "name": "revokeRole",
      "outputs": [],
      "stateMutability": "nonpayable",
      "type": "function"
    },
    {
      "inputs": [
        {
          "internalType": "address",
          "name": "from",
          "type": "address"
        },
        {
          "internalType": "address",
          "name": "to",
          "type": "address"
        },
        {
          "internalType": "uint256",
          "name": "tokenId",
          "type": "uint256"
        }
      ],
      "name": "safeTransferFrom",
      "outputs": [],
      "stateMutability": "nonpayable",
      "type": "function"
    },
    {
      "inputs": [
        {
          "internalType": "address",
          "name": "from",
          "type": "address"
        },
        {
          "internalType": "address",
          "name": "to",
          "type": "address"
        },
        {
          "internalType": "uint256",
          "name": "tokenId",
          "type": "uint256"
        },
        {
          "internalType": "bytes",
          "name": "data",
          "type": "bytes"
        }
      ],
      "name": "safeTransferFrom",
      "outputs": [],
      "stateMutability": "nonpayable",
      "type": "function"
    },
    {
      "inputs": [
        {
          "internalType": "address",
          "name": "operator",
          "type": "address"
        },
        {
          "internalType": "bool",
          "name": "approved",
          "type": "bool"
        }
      ],
      "name": "setApprovalForAll",
      "outputs": [],
      "stateMutability": "nonpayable",
      "type": "function"
    },
    {
      "inputs": [],
      "name": "symbol",
      "outputs": [
        {
          "internalType": "string",
          "name": "",
          "type": "string"
        }
      ],
      "stateMutability": "view",
      "type": "function",
      "constant": true
    },
    {
      "inputs": [
        {
          "internalType": "uint256",
          "name": "tokenId",
          "type": "uint256"
        }
      ],
      "name": "tokenURI",
      "outputs": [
        {
          "internalType": "string",
          "name": "",
          "type": "string"
        }
      ],
      "stateMutability": "view",
      "type": "function",
      "constant": true
    },
    {
      "inputs": [
        {
          "internalType": "address",
          "name": "from",
          "type": "address"
        },
        {
          "internalType": "address",
          "name": "to",
          "type": "address"
        },
        {
          "internalType": "uint256",
          "name": "tokenId",
          "type": "uint256"
        }
      ],
      "name": "transferFrom",
      "outputs": [],
      "stateMutability": "nonpayable",
      "type": "function"
    },
    {
      "inputs": [
        {
          "internalType": "address",
          "name": "newAdmin",
          "type": "address"
        }
      ],
      "name": "givePermission",
      "outputs": [],
      "stateMutability": "nonpayable",
      "type": "function"
    },
    {
      "inputs": [
        {
          "internalType": "string",
          "name": "tokenURI",
          "type": "string"
        }
      ],
      "name": "openNewTender",
      "outputs": [
        {
          "internalType": "uint256",
          "name": "",
          "type": "uint256"
        }
      ],
      "stateMutability": "nonpayable",
      "type": "function"
    },
    {
      "inputs": [
        {
          "internalType": "uint256",
          "name": "quote",
          "type": "uint256"
        },
        {
          "internalType": "uint256",
          "name": "num",
          "type": "uint256"
        },
        {
          "internalType": "address",
          "name": "ind",
          "type": "address"
        }
      ],
      "name": "Proposal",
      "outputs": [],
      "stateMutability": "nonpayable",
      "type": "function"
    },
    {
      "inputs": [
        {
          "internalType": "uint256",
          "name": "num",
          "type": "uint256"
        }
      ],
      "name": "assignWinner",
      "outputs": [
        {
          "internalType": "address",
          "name": "",
          "type": "address"
        }
      ],
      "stateMutability": "nonpayable",
      "type": "function"
    },
    {
      "inputs": [],
      "name": "getTenders",
      "outputs": [
        {
          "components": [
            {
              "internalType": "uint256",
              "name": "id",
              "type": "uint256"
            },
            {
              "internalType": "bool",
              "name": "status",
              "type": "bool"
            },
            {
              "internalType": "string",
              "name": "URI",
              "type": "string"
            },
            {
              "internalType": "contract ProposalManagement",
              "name": "proposal",
              "type": "address"
            }
          ],
          "internalType": "struct Factory.Tender[]",
          "name": "",
          "type": "tuple[]"
        }
      ],
      "stateMutability": "view",
      "type": "function",
      "constant": true
    },
    {
      "inputs": [
        {
          "internalType": "bytes4",
          "name": "interfaceId",
          "type": "bytes4"
        }
      ],
      "name": "supportsInterface",
      "outputs": [
        {
          "internalType": "bool",
          "name": "",
          "type": "bool"
        }
      ],
      "stateMutability": "view",
      "type": "function",
      "constant": true
    }
  ],
  "bytecode": "0x60806040523480156200001157600080fd5b50604051620066f1380380620066f1833981810160405281019062000037919062000391565b818181600090816200004a919062000661565b5080600190816200005c919062000661565b505050620000917fdf8b4c520ffe197c5343c6f5aec59570151ef9a492f2c624fd45ddde6135ec42336200009960201b60201c565b505062000748565b620000ab82826200018b60201b60201c565b620001875760016007600084815260200190815260200160002060000160008373ffffffffffffffffffffffffffffffffffffffff1673ffffffffffffffffffffffffffffffffffffffff16815260200190815260200160002060006101000a81548160ff0219169083151502179055506200012c620001f660201b60201c565b73ffffffffffffffffffffffffffffffffffffffff168173ffffffffffffffffffffffffffffffffffffffff16837f2f8788117e7eff1d82e926ec794901d17c78024a50270940304540a733656f0d60405160405180910390a45b5050565b60006007600084815260200190815260200160002060000160008373ffffffffffffffffffffffffffffffffffffffff1673ffffffffffffffffffffffffffffffffffffffff16815260200190815260200160002060009054906101000a900460ff16905092915050565b600033905090565b6000604051905090565b600080fd5b600080fd5b600080fd5b600080fd5b6000601f19601f8301169050919050565b7f4e487b7100000000000000000000000000000000000000000000000000000000600052604160045260246000fd5b62000267826200021c565b810181811067ffffffffffffffff821117156200028957620002886200022d565b5b80604052505050565b60006200029e620001fe565b9050620002ac82826200025c565b919050565b600067ffffffffffffffff821115620002cf57620002ce6200022d565b5b620002da826200021c565b9050602081019050919050565b60005b8381101562000307578082015181840152602081019050620002ea565b60008484015250505050565b60006200032a6200032484620002b1565b62000292565b90508281526020810184848401111562000349576200034862000217565b5b62000356848285620002e7565b509392505050565b600082601f83011262000376576200037562000212565b5b81516200038884826020860162000313565b91505092915050565b60008060408385031215620003ab57620003aa62000208565b5b600083015167ffffffffffffffff811115620003cc57620003cb6200020d565b5b620003da858286016200035e565b925050602083015167ffffffffffffffff811115620003fe57620003fd6200020d565b5b6200040c858286016200035e565b9150509250929050565b600081519050919050565b7f4e487b7100000000000000000000000000000000000000000000000000000000600052602260045260246000fd5b600060028204905060018216806200046957607f821691505b6020821081036200047f576200047e62000421565b5b50919050565b60008190508160005260206000209050919050565b60006020601f8301049050919050565b600082821b905092915050565b600060088302620004e97fffffffffffffffffffffffffffffffffffffffffffffffffffffffffffffffff82620004aa565b620004f58683620004aa565b95508019841693508086168417925050509392505050565b6000819050919050565b6000819050919050565b6000620005426200053c62000536846200050d565b62000517565b6200050d565b9050919050565b6000819050919050565b6200055e8362000521565b620005766200056d8262000549565b848454620004b7565b825550505050565b600090565b6200058d6200057e565b6200059a81848462000553565b505050565b5b81811015620005c257620005b660008262000583565b600181019050620005a0565b5050565b601f8211156200061157620005db8162000485565b620005e6846200049a565b81016020851015620005f6578190505b6200060e62000605856200049a565b8301826200059f565b50505b505050565b600082821c905092915050565b6000620006366000198460080262000616565b1980831691505092915050565b600062000651838362000623565b9150826002028217905092915050565b6200066c8262000416565b67ffffffffffffffff8111156200068857620006876200022d565b5b62000694825462000450565b620006a1828285620005c6565b600060209050601f831160018114620006d95760008415620006c4578287015190505b620006d0858262000643565b86555062000740565b601f198416620006e98662000485565b60005b828110156200071357848901518255600182019150602085019450602081019050620006ec565b868310156200073357848901516200072f601f89168262000623565b8355505b6001600288020188555050505b505050505050565b615f9980620007586000396000f3fe60806040523480156200001157600080fd5b5060043610620001965760003560e01c80635b08de9511620000f3578063a217fddf11620000a5578063b88d4fde116200007b578063b88d4fde14620004f5578063c87b56dd1462000515578063d547741f146200054b578063e985e9c5146200056b5762000196565b8063a217fddf146200047d578063a22cb465146200049f578063a83ee1d714620004bf5762000196565b80635b08de9514620003635780636352211e146200038357806365a11f2114620003b957806370a0823114620003ef57806391d14854146200042557806395d89b41146200045b5762000196565b8063248a9ca3116200014d578063248a9ca3146200028b5780632a0acc6a14620002c15780632f2ff15d14620002e357806336568abe14620003035780633d391f70146200032357806342842e0e14620003435762000196565b806301ffc9a7146200019b57806306fdde0314620001d1578063081812fc14620001f3578063095ea7b3146200022957806312d0ec80146200024957806323b872dd146200026b575b600080fd5b620001b96004803603810190620001b3919062002d55565b620005a1565b604051620001c8919062002da4565b60405180910390f35b620001db620005b5565b604051620001ea919062002e5b565b60405180910390f35b6200021160048036038101906200020b919062002eba565b6200064f565b60405162000220919062002f31565b60405180910390f35b62000247600480360381019062000241919062002f7f565b62000697565b005b62000253620007bf565b604051620002629190620031e0565b60405180910390f35b62000289600480360381019062000283919062003204565b620009cc565b005b620002a96004803603810190620002a391906200329b565b62000a35565b604051620002b89190620032de565b60405180910390f35b620002cb62000a55565b604051620002da9190620032de565b60405180910390f35b620003016004803603810190620002fb9190620032fb565b62000a79565b005b6200032160048036038101906200031b9190620032fb565b62000aa0565b005b6200034160048036038101906200033b919062003342565b62000b2a565b005b6200036160048036038101906200035b919062003204565b62000b86565b005b6200038160048036038101906200037b919062003374565b62000ba8565b005b620003a160048036038101906200039b919062002eba565b62000ca6565b604051620003b0919062002f31565b60405180910390f35b620003d76004803603810190620003d1919062002eba565b62000d31565b604051620003e6919062002f31565b60405180910390f35b6200040d600480360381019062000407919062003342565b62001024565b6040516200041c9190620033e1565b60405180910390f35b6200044360048036038101906200043d9190620032fb565b620010de565b60405162000452919062002da4565b60405180910390f35b6200046562001149565b60405162000474919062002e5b565b60405180910390f35b62000487620011e3565b604051620004969190620032de565b60405180910390f35b620004bd6004803603810190620004b791906200342f565b620011ea565b005b620004dd6004803603810190620004d79190620035c7565b62001204565b604051620004ec9190620033e1565b60405180910390f35b6200051360048036038101906200050d9190620036cc565b620013ee565b005b6200053360048036038101906200052d919062002eba565b62001459565b60405162000542919062002e5b565b60405180910390f35b620005696004803603810190620005639190620032fb565b6200157f565b005b6200058960048036038101906200058391906200375d565b620015a6565b60405162000598919062002da4565b60405180910390f35b6000620005ae826200163a565b9050919050565b606060008054620005c690620037d3565b80601f0160208091040260200160405190810160405280929190818152602001828054620005f490620037d3565b8015620006455780601f10620006195761010080835404028352916020019162000645565b820191906000526020600020905b8154815290600101906020018083116200062757829003601f168201915b5050505050905090565b60006200065c82620016b7565b6004600083815260200190815260200160002060009054906101000a900473ffffffffffffffffffffffffffffffffffffffff169050919050565b6000620006a48262000ca6565b90508073ffffffffffffffffffffffffffffffffffffffff168373ffffffffffffffffffffffffffffffffffffffff160362000717576040517f08c379a00000000000000000000000000000000000000000000000000000000081526004016200070e906200387e565b60405180910390fd5b8073ffffffffffffffffffffffffffffffffffffffff166200073862001707565b73ffffffffffffffffffffffffffffffffffffffff1614806200076c57506200076b816200076562001707565b620015a6565b5b620007ae576040517f08c379a0000000000000000000000000000000000000000000000000000000008152600401620007a59062003916565b60405180910390fd5b620007ba83836200170f565b505050565b60606000620007cf6009620017ca565b67ffffffffffffffff811115620007eb57620007ea62003480565b5b6040519080825280602002602001820160405280156200082857816020015b6200081462002c96565b8152602001906001900390816200080a5790505b50905060005b6200083a6009620017ca565b811015620009c4576000600882815481106200085b576200085a62003938565b5b9060005260206000209060040201905080604051806080016040529081600082015481526020016001820160009054906101000a900460ff16151515158152602001600282018054620008ae90620037d3565b80601f0160208091040260200160405190810160405280929190818152602001828054620008dc90620037d3565b80156200092d5780601f1062000901576101008083540402835291602001916200092d565b820191906000526020600020905b8154815290600101906020018083116200090f57829003601f168201915b505050505081526020016003820160009054906101000a900473ffffffffffffffffffffffffffffffffffffffff1673ffffffffffffffffffffffffffffffffffffffff1673ffffffffffffffffffffffffffffffffffffffff1681525050838381518110620009a257620009a162003938565b5b6020026020010181905250508080620009bb9062003996565b9150506200082e565b508091505090565b620009e1620009da62001707565b82620017d8565b62000a23576040517f08c379a000000000000000000000000000000000000000000000000000000000815260040162000a1a9062003a59565b60405180910390fd5b62000a3083838362001875565b505050565b600060076000838152602001908152602001600020600101549050919050565b7fdf8b4c520ffe197c5343c6f5aec59570151ef9a492f2c624fd45ddde6135ec4281565b62000a848262000a35565b62000a8f8162001b7f565b62000a9b838362001b97565b505050565b62000aaa62001707565b73ffffffffffffffffffffffffffffffffffffffff168173ffffffffffffffffffffffffffffffffffffffff161462000b1a576040517f08c379a000000000000000000000000000000000000000000000000000000000815260040162000b119062003af1565b60405180910390fd5b62000b26828262001c7d565b5050565b7fdf8b4c520ffe197c5343c6f5aec59570151ef9a492f2c624fd45ddde6135ec4262000b568162001b7f565b62000b827fdf8b4c520ffe197c5343c6f5aec59570151ef9a492f2c624fd45ddde6135ec428362000a79565b5050565b62000ba383838360405180602001604052806000815250620013ee565b505050565b6008828154811062000bbf5762000bbe62003938565b5b906000526020600020906004020160010160009054906101000a900460ff1662000be857600080fd5b6008828154811062000bff5762000bfe62003938565b5b906000526020600020906004020160030160009054906101000a900473ffffffffffffffffffffffffffffffffffffffff1673ffffffffffffffffffffffffffffffffffffffff1663739439c482856040518363ffffffff1660e01b815260040162000c6d92919062003b13565b600060405180830381600087803b15801562000c8857600080fd5b505af115801562000c9d573d6000803e3d6000fd5b50505050505050565b60008062000cb48362001d64565b9050600073ffffffffffffffffffffffffffffffffffffffff168173ffffffffffffffffffffffffffffffffffffffff160362000d28576040517f08c379a000000000000000000000000000000000000000000000000000000000815260040162000d1f9062003b90565b60405180910390fd5b80915050919050565b60007fdf8b4c520ffe197c5343c6f5aec59570151ef9a492f2c624fd45ddde6135ec4262000d5f8162001b7f565b6008838154811062000d765762000d7562003938565b5b906000526020600020906004020160010160009054906101000a900460ff1662000d9f57600080fd5b6008838154811062000db65762000db562003938565b5b906000526020600020906004020160030160009054906101000a900473ffffffffffffffffffffffffffffffffffffffff1673ffffffffffffffffffffffffffffffffffffffff1663a71f36416040518163ffffffff1660e01b8152600401600060405180830381600087803b15801562000e3057600080fd5b505af115801562000e45573d6000803e3d6000fd5b5050505060006008848154811062000e625762000e6162003938565b5b906000526020600020906004020160010160006101000a81548160ff02191690831515021790555060006008848154811062000ea35762000ea262003938565b5b906000526020600020906004020160030160009054906101000a900473ffffffffffffffffffffffffffffffffffffffff1673ffffffffffffffffffffffffffffffffffffffff166392f4eff36040518163ffffffff1660e01b81526004016020604051808303816000875af115801562000f22573d6000803e3d6000fd5b505050506040513d601f19601f8201168201806040525081019062000f48919062003bc9565b905062000f56818562001da1565b6200101a846008868154811062000f725762000f7162003938565b5b9060005260206000209060040201600201805462000f9090620037d3565b80601f016020809104026020016040519081016040528092919081815260200182805462000fbe90620037d3565b80156200100f5780601f1062000fe3576101008083540402835291602001916200100f565b820191906000526020600020905b81548152906001019060200180831162000ff157829003601f168201915b505050505062001fcf565b8092505050919050565b60008073ffffffffffffffffffffffffffffffffffffffff168273ffffffffffffffffffffffffffffffffffffffff160362001097576040517f08c379a00000000000000000000000000000000000000000000000000000000081526004016200108e9062003c71565b60405180910390fd5b600360008373ffffffffffffffffffffffffffffffffffffffff1673ffffffffffffffffffffffffffffffffffffffff168152602001908152602001600020549050919050565b60006007600084815260200190815260200160002060000160008373ffffffffffffffffffffffffffffffffffffffff1673ffffffffffffffffffffffffffffffffffffffff16815260200190815260200160002060009054906101000a900460ff16905092915050565b6060600180546200115a90620037d3565b80601f01602080910402602001604051908101604052809291908181526020018280546200118890620037d3565b8015620011d95780601f10620011ad57610100808354040283529160200191620011d9565b820191906000526020600020905b815481529060010190602001808311620011bb57829003601f168201915b5050505050905090565b6000801b81565b62001200620011f862001707565b838362002043565b5050565b60007fdf8b4c520ffe197c5343c6f5aec59570151ef9a492f2c624fd45ddde6135ec42620012328162001b7f565b6000604051620012429062002cd6565b604051809103906000f0801580156200125f573d6000803e3d6000fd5b5090508073ffffffffffffffffffffffffffffffffffffffff166350627f8d6040518163ffffffff1660e01b8152600401600060405180830381600087803b158015620012ab57600080fd5b505af1158015620012c0573d6000803e3d6000fd5b5050505060086040518060800160405280620012dd6009620017ca565b81526020016001151581526020018681526020018373ffffffffffffffffffffffffffffffffffffffff1681525090806001815401808255809150506001900390600052602060002090600402016000909190919091506000820151816000015560208201518160010160006101000a81548160ff021916908315150217905550604082015181600201908162001375919062003e5b565b5060608201518160030160006101000a81548173ffffffffffffffffffffffffffffffffffffffff021916908373ffffffffffffffffffffffffffffffffffffffff1602179055505050620013cb6009620021b4565b6001620013d96009620017ca565b620013e5919062003f42565b92505050919050565b62001403620013fc62001707565b83620017d8565b62001445576040517f08c379a00000000000000000000000000000000000000000000000000000000081526004016200143c9062003a59565b60405180910390fd5b6200145384848484620021ca565b50505050565b60606200146682620016b7565b60006006600084815260200190815260200160002080546200148890620037d3565b80601f0160208091040260200160405190810160405280929190818152602001828054620014b690620037d3565b8015620015075780601f10620014db5761010080835404028352916020019162001507565b820191906000526020600020905b815481529060010190602001808311620014e957829003601f168201915b5050505050905060006200151a6200222d565b90506000815103620015315781925050506200157a565b6000825111156200156a5780826040516020016200155192919062003fbf565b604051602081830303815290604052925050506200157a565b620015758462002244565b925050505b919050565b6200158a8262000a35565b620015958162001b7f565b620015a1838362001c7d565b505050565b6000600560008473ffffffffffffffffffffffffffffffffffffffff1673ffffffffffffffffffffffffffffffffffffffff16815260200190815260200160002060008373ffffffffffffffffffffffffffffffffffffffff1673ffffffffffffffffffffffffffffffffffffffff16815260200190815260200160002060009054906101000a900460ff16905092915050565b60007f7965db0b000000000000000000000000000000000000000000000000000000007bffffffffffffffffffffffffffffffffffffffffffffffffffffffff1916827bffffffffffffffffffffffffffffffffffffffffffffffffffffffff19161480620016b05750620016af82620022b6565b5b9050919050565b620016c2816200239c565b62001704576040517f08c379a0000000000000000000000000000000000000000000000000000000008152600401620016fb9062003b90565b60405180910390fd5b50565b600033905090565b816004600083815260200190815260200160002060006101000a81548173ffffffffffffffffffffffffffffffffffffffff021916908373ffffffffffffffffffffffffffffffffffffffff160217905550808273ffffffffffffffffffffffffffffffffffffffff16620017848362000ca6565b73ffffffffffffffffffffffffffffffffffffffff167f8c5be1e5ebec7d5bd14f71427d1e84f3dd0314c0f7b2291e5b200ac8c7c3b92560405160405180910390a45050565b600081600001549050919050565b600080620017e68362000ca6565b90508073ffffffffffffffffffffffffffffffffffffffff168473ffffffffffffffffffffffffffffffffffffffff1614806200182b57506200182a8185620015a6565b5b806200186c57508373ffffffffffffffffffffffffffffffffffffffff1662001854846200064f565b73ffffffffffffffffffffffffffffffffffffffff16145b91505092915050565b8273ffffffffffffffffffffffffffffffffffffffff16620018978262000ca6565b73ffffffffffffffffffffffffffffffffffffffff1614620018f0576040517f08c379a0000000000000000000000000000000000000000000000000000000008152600401620018e7906200405d565b60405180910390fd5b600073ffffffffffffffffffffffffffffffffffffffff168273ffffffffffffffffffffffffffffffffffffffff160362001962576040517f08c379a00000000000000000000000000000000000000000000000000000000081526004016200195990620040f5565b60405180910390fd5b620019718383836001620023df565b8273ffffffffffffffffffffffffffffffffffffffff16620019938262000ca6565b73ffffffffffffffffffffffffffffffffffffffff1614620019ec576040517f08c379a0000000000000000000000000000000000000000000000000000000008152600401620019e3906200405d565b60405180910390fd5b6004600082815260200190815260200160002060006101000a81549073ffffffffffffffffffffffffffffffffffffffff02191690556001600360008573ffffffffffffffffffffffffffffffffffffffff1673ffffffffffffffffffffffffffffffffffffffff168152602001908152602001600020600082825403925050819055506001600360008473ffffffffffffffffffffffffffffffffffffffff1673ffffffffffffffffffffffffffffffffffffffff16815260200190815260200160002060008282540192505081905550816002600083815260200190815260200160002060006101000a81548173ffffffffffffffffffffffffffffffffffffffff021916908373ffffffffffffffffffffffffffffffffffffffff160217905550808273ffffffffffffffffffffffffffffffffffffffff168473ffffffffffffffffffffffffffffffffffffffff167fddf252ad1be2c89b69c2b068fc378daa952ba7f163c4a11628f55a4df523b3ef60405160405180910390a462001b7a83838360016200250c565b505050565b62001b948162001b8e62001707565b62002512565b50565b62001ba38282620010de565b62001c795760016007600084815260200190815260200160002060000160008373ffffffffffffffffffffffffffffffffffffffff1673ffffffffffffffffffffffffffffffffffffffff16815260200190815260200160002060006101000a81548160ff02191690831515021790555062001c1e62001707565b73ffffffffffffffffffffffffffffffffffffffff168173ffffffffffffffffffffffffffffffffffffffff16837f2f8788117e7eff1d82e926ec794901d17c78024a50270940304540a733656f0d60405160405180910390a45b5050565b62001c898282620010de565b1562001d605760006007600084815260200190815260200160002060000160008373ffffffffffffffffffffffffffffffffffffffff1673ffffffffffffffffffffffffffffffffffffffff16815260200190815260200160002060006101000a81548160ff02191690831515021790555062001d0562001707565b73ffffffffffffffffffffffffffffffffffffffff168173ffffffffffffffffffffffffffffffffffffffff16837ff6391f5c32d9c69d2a47ea670b442974b53935d1edc7fd64eb21e047a839171b60405160405180910390a45b5050565b60006002600083815260200190815260200160002060009054906101000a900473ffffffffffffffffffffffffffffffffffffffff169050919050565b600073ffffffffffffffffffffffffffffffffffffffff168273ffffffffffffffffffffffffffffffffffffffff160362001e13576040517f08c379a000000000000000000000000000000000000000000000000000000000815260040162001e0a9062004167565b60405180910390fd5b62001e1e816200239c565b1562001e61576040517f08c379a000000000000000000000000000000000000000000000000000000000815260040162001e5890620041d9565b60405180910390fd5b62001e71600083836001620023df565b62001e7c816200239c565b1562001ebf576040517f08c379a000000000000000000000000000000000000000000000000000000000815260040162001eb690620041d9565b60405180910390fd5b6001600360008473ffffffffffffffffffffffffffffffffffffffff1673ffffffffffffffffffffffffffffffffffffffff16815260200190815260200160002060008282540192505081905550816002600083815260200190815260200160002060006101000a81548173ffffffffffffffffffffffffffffffffffffffff021916908373ffffffffffffffffffffffffffffffffffffffff160217905550808273ffffffffffffffffffffffffffffffffffffffff16600073ffffffffffffffffffffffffffffffffffffffff167fddf252ad1be2c89b69c2b068fc378daa952ba7f163c4a11628f55a4df523b3ef60405160405180910390a462001fcb6000838360016200250c565b5050565b62001fda826200239c565b6200201c576040517f08c379a0000000000000000000000000000000000000000000000000000000008152600401620020139062004271565b60405180910390fd5b806006600084815260200190815260200160002090816200203e919062003e5b565b505050565b8173ffffffffffffffffffffffffffffffffffffffff168373ffffffffffffffffffffffffffffffffffffffff1603620020b4576040517f08c379a0000000000000000000000000000000000000000000000000000000008152600401620020ab90620042e3565b60405180910390fd5b80600560008573ffffffffffffffffffffffffffffffffffffffff1673ffffffffffffffffffffffffffffffffffffffff16815260200190815260200160002060008473ffffffffffffffffffffffffffffffffffffffff1673ffffffffffffffffffffffffffffffffffffffff16815260200190815260200160002060006101000a81548160ff0219169083151502179055508173ffffffffffffffffffffffffffffffffffffffff168373ffffffffffffffffffffffffffffffffffffffff167f17307eab39ab6107e8899845ad3d59bd9653f200f220920489ca2b5937696c3183604051620021a7919062002da4565b60405180910390a3505050565b6001816000016000828254019250508190555050565b620021d784848462001875565b620021e584848484620025a2565b62002227576040517f08c379a00000000000000000000000000000000000000000000000000000000081526004016200221e906200437b565b60405180910390fd5b50505050565b606060405180602001604052806000815250905090565b60606200225182620016b7565b60006200225d6200222d565b905060008151116200227f5760405180602001604052806000815250620022ae565b806200228b846200273a565b6040516020016200229e92919062003fbf565b6040516020818303038152906040525b915050919050565b60007f80ac58cd000000000000000000000000000000000000000000000000000000007bffffffffffffffffffffffffffffffffffffffffffffffffffffffff1916827bffffffffffffffffffffffffffffffffffffffffffffffffffffffff191614806200238257507f5b5e139f000000000000000000000000000000000000000000000000000000007bffffffffffffffffffffffffffffffffffffffffffffffffffffffff1916827bffffffffffffffffffffffffffffffffffffffffffffffffffffffff1916145b80620023955750620023948262002813565b5b9050919050565b60008073ffffffffffffffffffffffffffffffffffffffff16620023c08362001d64565b73ffffffffffffffffffffffffffffffffffffffff1614159050919050565b60018111156200250657600073ffffffffffffffffffffffffffffffffffffffff168473ffffffffffffffffffffffffffffffffffffffff1614620024775780600360008673ffffffffffffffffffffffffffffffffffffffff1673ffffffffffffffffffffffffffffffffffffffff16815260200190815260200160002060008282546200246f919062003f42565b925050819055505b600073ffffffffffffffffffffffffffffffffffffffff168373ffffffffffffffffffffffffffffffffffffffff1614620025055780600360008573ffffffffffffffffffffffffffffffffffffffff1673ffffffffffffffffffffffffffffffffffffffff1681526020019081526020016000206000828254620024fd91906200439d565b925050819055505b5b50505050565b50505050565b6200251e8282620010de565b6200259e576200252e816200287d565b6200253e8360001c6020620028ac565b6040516020016200255192919062004478565b6040516020818303038152906040526040517f08c379a000000000000000000000000000000000000000000000000000000000815260040162002595919062002e5b565b60405180910390fd5b5050565b6000620025c58473ffffffffffffffffffffffffffffffffffffffff1662002b07565b156200272d578373ffffffffffffffffffffffffffffffffffffffff1663150b7a02620025f162001707565b8786866040518563ffffffff1660e01b815260040162002615949392919062004517565b6020604051808303816000875af19250505080156200265457506040513d601f19601f8201168201806040525081019062002651919062004582565b60015b620026dc573d806000811462002687576040519150601f19603f3d011682016040523d82523d6000602084013e6200268c565b606091505b506000815103620026d4576040517f08c379a0000000000000000000000000000000000000000000000000000000008152600401620026cb906200437b565b60405180910390fd5b805181602001fd5b63150b7a0260e01b7bffffffffffffffffffffffffffffffffffffffffffffffffffffffff1916817bffffffffffffffffffffffffffffffffffffffffffffffffffffffff19161491505062002732565b600190505b949350505050565b6060600060016200274b8462002b2a565b01905060008167ffffffffffffffff8111156200276d576200276c62003480565b5b6040519080825280601f01601f191660200182016040528015620027a05781602001600182028036833780820191505090505b509050600082602001820190505b60011562002808578080600190039150507f3031323334353637383961626364656600000000000000000000000000000000600a86061a8153600a8581620027fb57620027fa620045b4565b5b04945060008503620027ae575b819350505050919050565b60007f01ffc9a7000000000000000000000000000000000000000000000000000000007bffffffffffffffffffffffffffffffffffffffffffffffffffffffff1916827bffffffffffffffffffffffffffffffffffffffffffffffffffffffff1916149050919050565b6060620028a58273ffffffffffffffffffffffffffffffffffffffff16601460ff16620028ac565b9050919050565b606060006002836002620028c19190620045e3565b620028cd91906200439d565b67ffffffffffffffff811115620028e957620028e862003480565b5b6040519080825280601f01601f1916602001820160405280156200291c5781602001600182028036833780820191505090505b5090507f30000000000000000000000000000000000000000000000000000000000000008160008151811062002957576200295662003938565b5b60200101907effffffffffffffffffffffffffffffffffffffffffffffffffffffffffffff1916908160001a9053507f780000000000000000000000000000000000000000000000000000000000000081600181518110620029be57620029bd62003938565b5b60200101907effffffffffffffffffffffffffffffffffffffffffffffffffffffffffffff1916908160001a9053506000600184600262002a009190620045e3565b62002a0c91906200439d565b90505b600181111562002ab6577f3031323334353637383961626364656600000000000000000000000000000000600f86166010811062002a525762002a5162003938565b5b1a60f81b82828151811062002a6c5762002a6b62003938565b5b60200101907effffffffffffffffffffffffffffffffffffffffffffffffffffffffffffff1916908160001a905350600485901c94508062002aae906200462e565b905062002a0f565b506000841462002afd576040517f08c379a000000000000000000000000000000000000000000000000000000000815260040162002af490620046ac565b60405180910390fd5b8091505092915050565b6000808273ffffffffffffffffffffffffffffffffffffffff163b119050919050565b600080600090507a184f03e93ff9f4daa797ed6e38ed64bf6a1f010000000000000000831062002b8c577a184f03e93ff9f4daa797ed6e38ed64bf6a1f010000000000000000838162002b825762002b81620045b4565b5b0492506040810190505b6d04ee2d6d415b85acef8100000000831062002bcd576d04ee2d6d415b85acef8100000000838162002bc35762002bc2620045b4565b5b0492506020810190505b662386f26fc10000831062002c0057662386f26fc10000838162002bf65762002bf5620045b4565b5b0492506010810190505b6305f5e100831062002c2d576305f5e100838162002c235762002c22620045b4565b5b0492506008810190505b612710831062002c5657612710838162002c4c5762002c4b620045b4565b5b0492506004810190505b6064831062002c7d576064838162002c735762002c72620045b4565b5b0492506002810190505b600a831062002c8d576001810190505b80915050919050565b60405180608001604052806000815260200160001515815260200160608152602001600073ffffffffffffffffffffffffffffffffffffffff1681525090565b61189580620046cf83390190565b6000604051905090565b600080fd5b600080fd5b60007fffffffff0000000000000000000000000000000000000000000000000000000082169050919050565b62002d2f8162002cf8565b811462002d3b57600080fd5b50565b60008135905062002d4f8162002d24565b92915050565b60006020828403121562002d6e5762002d6d62002cee565b5b600062002d7e8482850162002d3e565b91505092915050565b60008115159050919050565b62002d9e8162002d87565b82525050565b600060208201905062002dbb600083018462002d93565b92915050565b600081519050919050565b600082825260208201905092915050565b60005b8381101562002dfd57808201518184015260208101905062002de0565b60008484015250505050565b6000601f19601f8301169050919050565b600062002e278262002dc1565b62002e33818562002dcc565b935062002e4581856020860162002ddd565b62002e508162002e09565b840191505092915050565b6000602082019050818103600083015262002e77818462002e1a565b905092915050565b6000819050919050565b62002e948162002e7f565b811462002ea057600080fd5b50565b60008135905062002eb48162002e89565b92915050565b60006020828403121562002ed35762002ed262002cee565b5b600062002ee38482850162002ea3565b91505092915050565b600073ffffffffffffffffffffffffffffffffffffffff82169050919050565b600062002f198262002eec565b9050919050565b62002f2b8162002f0c565b82525050565b600060208201905062002f48600083018462002f20565b92915050565b62002f598162002f0c565b811462002f6557600080fd5b50565b60008135905062002f798162002f4e565b92915050565b6000806040838503121562002f995762002f9862002cee565b5b600062002fa98582860162002f68565b925050602062002fbc8582860162002ea3565b9150509250929050565b600081519050919050565b600082825260208201905092915050565b6000819050602082019050919050565b62002ffd8162002e7f565b82525050565b6200300e8162002d87565b82525050565b600082825260208201905092915050565b6000620030328262002dc1565b6200303e818562003014565b93506200305081856020860162002ddd565b6200305b8162002e09565b840191505092915050565b6000819050919050565b6000620030916200308b620030858462002eec565b62003066565b62002eec565b9050919050565b6000620030a58262003070565b9050919050565b6000620030b98262003098565b9050919050565b620030cb81620030ac565b82525050565b6000608083016000830151620030eb600086018262002ff2565b50602083015162003100602086018262003003565b50604083015184820360408601526200311a828262003025565b9150506060830151620031316060860182620030c0565b508091505092915050565b60006200314a8383620030d1565b905092915050565b6000602082019050919050565b60006200316c8262002fc6565b62003178818562002fd1565b9350836020820285016200318c8562002fe2565b8060005b85811015620031ce5784840389528151620031ac85826200313c565b9450620031b98362003152565b925060208a0199505060018101905062003190565b50829750879550505050505092915050565b60006020820190508181036000830152620031fc81846200315f565b905092915050565b60008060006060848603121562003220576200321f62002cee565b5b6000620032308682870162002f68565b9350506020620032438682870162002f68565b9250506040620032568682870162002ea3565b9150509250925092565b6000819050919050565b620032758162003260565b81146200328157600080fd5b50565b60008135905062003295816200326a565b92915050565b600060208284031215620032b457620032b362002cee565b5b6000620032c48482850162003284565b91505092915050565b620032d88162003260565b82525050565b6000602082019050620032f56000830184620032cd565b92915050565b6000806040838503121562003315576200331462002cee565b5b6000620033258582860162003284565b9250506020620033388582860162002f68565b9150509250929050565b6000602082840312156200335b576200335a62002cee565b5b60006200336b8482850162002f68565b91505092915050565b60008060006060848603121562003390576200338f62002cee565b5b6000620033a08682870162002ea3565b9350506020620033b38682870162002ea3565b9250506040620033c68682870162002f68565b9150509250925092565b620033db8162002e7f565b82525050565b6000602082019050620033f86000830184620033d0565b92915050565b620034098162002d87565b81146200341557600080fd5b50565b6000813590506200342981620033fe565b92915050565b6000806040838503121562003449576200344862002cee565b5b6000620034598582860162002f68565b92505060206200346c8582860162003418565b9150509250929050565b600080fd5b600080fd5b7f4e487b7100000000000000000000000000000000000000000000000000000000600052604160045260246000fd5b620034ba8262002e09565b810181811067ffffffffffffffff82111715620034dc57620034db62003480565b5b80604052505050565b6000620034f162002ce4565b9050620034ff8282620034af565b919050565b600067ffffffffffffffff82111562003522576200352162003480565b5b6200352d8262002e09565b9050602081019050919050565b82818337600083830152505050565b6000620035606200355a8462003504565b620034e5565b9050828152602081018484840111156200357f576200357e6200347b565b5b6200358c8482856200353a565b509392505050565b600082601f830112620035ac57620035ab62003476565b5b8135620035be84826020860162003549565b91505092915050565b600060208284031215620035e057620035df62002cee565b5b600082013567ffffffffffffffff81111562003601576200360062002cf3565b5b6200360f8482850162003594565b91505092915050565b600067ffffffffffffffff82111562003636576200363562003480565b5b620036418262002e09565b9050602081019050919050565b6000620036656200365f8462003618565b620034e5565b9050828152602081018484840111156200368457620036836200347b565b5b620036918482856200353a565b509392505050565b600082601f830112620036b157620036b062003476565b5b8135620036c38482602086016200364e565b91505092915050565b60008060008060808587031215620036e957620036e862002cee565b5b6000620036f98782880162002f68565b94505060206200370c8782880162002f68565b93505060406200371f8782880162002ea3565b925050606085013567ffffffffffffffff81111562003743576200374262002cf3565b5b620037518782880162003699565b91505092959194509250565b6000806040838503121562003777576200377662002cee565b5b6000620037878582860162002f68565b92505060206200379a8582860162002f68565b9150509250929050565b7f4e487b7100000000000000000000000000000000000000000000000000000000600052602260045260246000fd5b60006002820490506001821680620037ec57607f821691505b602082108103620038025762003801620037a4565b5b50919050565b7f4552433732313a20617070726f76616c20746f2063757272656e74206f776e6560008201527f7200000000000000000000000000000000000000000000000000000000000000602082015250565b60006200386660218362002dcc565b9150620038738262003808565b604082019050919050565b60006020820190508181036000830152620038998162003857565b9050919050565b7f4552433732313a20617070726f76652063616c6c6572206973206e6f7420746f60008201527f6b656e206f776e6572206f7220617070726f76656420666f7220616c6c000000602082015250565b6000620038fe603d8362002dcc565b91506200390b82620038a0565b604082019050919050565b600060208201905081810360008301526200393181620038ef565b9050919050565b7f4e487b7100000000000000000000000000000000000000000000000000000000600052603260045260246000fd5b7f4e487b7100000000000000000000000000000000000000000000000000000000600052601160045260246000fd5b6000620039a38262002e7f565b91507fffffffffffffffffffffffffffffffffffffffffffffffffffffffffffffffff8203620039d857620039d762003967565b5b600182019050919050565b7f4552433732313a2063616c6c6572206973206e6f7420746f6b656e206f776e6560008201527f72206f7220617070726f76656400000000000000000000000000000000000000602082015250565b600062003a41602d8362002dcc565b915062003a4e82620039e3565b604082019050919050565b6000602082019050818103600083015262003a748162003a32565b9050919050565b7f416363657373436f6e74726f6c3a2063616e206f6e6c792072656e6f756e636560008201527f20726f6c657320666f722073656c660000000000000000000000000000000000602082015250565b600062003ad9602f8362002dcc565b915062003ae68262003a7b565b604082019050919050565b6000602082019050818103600083015262003b0c8162003aca565b9050919050565b600060408201905062003b2a600083018562002f20565b62003b396020830184620033d0565b9392505050565b7f4552433732313a20696e76616c696420746f6b656e2049440000000000000000600082015250565b600062003b7860188362002dcc565b915062003b858262003b40565b602082019050919050565b6000602082019050818103600083015262003bab8162003b69565b9050919050565b60008151905062003bc38162002f4e565b92915050565b60006020828403121562003be25762003be162002cee565b5b600062003bf28482850162003bb2565b91505092915050565b7f4552433732313a2061646472657373207a65726f206973206e6f74206120766160008201527f6c6964206f776e65720000000000000000000000000000000000000000000000602082015250565b600062003c5960298362002dcc565b915062003c668262003bfb565b604082019050919050565b6000602082019050818103600083015262003c8c8162003c4a565b9050919050565b60008190508160005260206000209050919050565b60006020601f8301049050919050565b600082821b905092915050565b60006008830262003cf77fffffffffffffffffffffffffffffffffffffffffffffffffffffffffffffffff8262003cb8565b62003d03868362003cb8565b95508019841693508086168417925050509392505050565b600062003d3c62003d3662003d308462002e7f565b62003066565b62002e7f565b9050919050565b6000819050919050565b62003d588362003d1b565b62003d7062003d678262003d43565b84845462003cc5565b825550505050565b600090565b62003d8762003d78565b62003d9481848462003d4d565b505050565b5b8181101562003dbc5762003db060008262003d7d565b60018101905062003d9a565b5050565b601f82111562003e0b5762003dd58162003c93565b62003de08462003ca8565b8101602085101562003df0578190505b62003e0862003dff8562003ca8565b83018262003d99565b50505b505050565b600082821c905092915050565b600062003e306000198460080262003e10565b1980831691505092915050565b600062003e4b838362003e1d565b9150826002028217905092915050565b62003e668262002dc1565b67ffffffffffffffff81111562003e825762003e8162003480565b5b62003e8e8254620037d3565b62003e9b82828562003dc0565b600060209050601f83116001811462003ed3576000841562003ebe578287015190505b62003eca858262003e3d565b86555062003f3a565b601f19841662003ee38662003c93565b60005b8281101562003f0d5784890151825560018201915060208501945060208101905062003ee6565b8683101562003f2d578489015162003f29601f89168262003e1d565b8355505b6001600288020188555050505b505050505050565b600062003f4f8262002e7f565b915062003f5c8362002e7f565b925082820390508181111562003f775762003f7662003967565b5b92915050565b600081905092915050565b600062003f958262002dc1565b62003fa1818562003f7d565b935062003fb381856020860162002ddd565b80840191505092915050565b600062003fcd828562003f88565b915062003fdb828462003f88565b91508190509392505050565b7f4552433732313a207472616e736665722066726f6d20696e636f72726563742060008201527f6f776e6572000000000000000000000000000000000000000000000000000000602082015250565b60006200404560258362002dcc565b9150620040528262003fe7565b604082019050919050565b60006020820190508181036000830152620040788162004036565b9050919050565b7f4552433732313a207472616e7366657220746f20746865207a65726f2061646460008201527f7265737300000000000000000000000000000000000000000000000000000000602082015250565b6000620040dd60248362002dcc565b9150620040ea826200407f565b604082019050919050565b600060208201905081810360008301526200411081620040ce565b9050919050565b7f4552433732313a206d696e7420746f20746865207a65726f2061646472657373600082015250565b60006200414f60208362002dcc565b91506200415c8262004117565b602082019050919050565b60006020820190508181036000830152620041828162004140565b9050919050565b7f4552433732313a20746f6b656e20616c7265616479206d696e74656400000000600082015250565b6000620041c1601c8362002dcc565b9150620041ce8262004189565b602082019050919050565b60006020820190508181036000830152620041f481620041b2565b9050919050565b7f45524337323155524953746f726167653a2055524920736574206f66206e6f6e60008201527f6578697374656e7420746f6b656e000000000000000000000000000000000000602082015250565b600062004259602e8362002dcc565b91506200426682620041fb565b604082019050919050565b600060208201905081810360008301526200428c816200424a565b9050919050565b7f4552433732313a20617070726f766520746f2063616c6c657200000000000000600082015250565b6000620042cb60198362002dcc565b9150620042d88262004293565b602082019050919050565b60006020820190508181036000830152620042fe81620042bc565b9050919050565b7f4552433732313a207472616e7366657220746f206e6f6e20455243373231526560008201527f63656976657220696d706c656d656e7465720000000000000000000000000000602082015250565b60006200436360328362002dcc565b9150620043708262004305565b604082019050919050565b60006020820190508181036000830152620043968162004354565b9050919050565b6000620043aa8262002e7f565b9150620043b78362002e7f565b9250828201905080821115620043d257620043d162003967565b5b92915050565b7f416363657373436f6e74726f6c3a206163636f756e7420000000000000000000600082015250565b60006200441060178362003f7d565b91506200441d82620043d8565b601782019050919050565b7f206973206d697373696e6720726f6c6520000000000000000000000000000000600082015250565b60006200446060118362003f7d565b91506200446d8262004428565b601182019050919050565b6000620044858262004401565b915062004493828562003f88565b9150620044a08262004451565b9150620044ae828462003f88565b91508190509392505050565b600081519050919050565b600082825260208201905092915050565b6000620044e382620044ba565b620044ef8185620044c5565b93506200450181856020860162002ddd565b6200450c8162002e09565b840191505092915050565b60006080820190506200452e600083018762002f20565b6200453d602083018662002f20565b6200454c6040830185620033d0565b8181036060830152620045608184620044d6565b905095945050505050565b6000815190506200457c8162002d24565b92915050565b6000602082840312156200459b576200459a62002cee565b5b6000620045ab848285016200456b565b91505092915050565b7f4e487b7100000000000000000000000000000000000000000000000000000000600052601260045260246000fd5b6000620045f08262002e7f565b9150620045fd8362002e7f565b92508282026200460d8162002e7f565b9150828204841483151762004627576200462662003967565b5b5092915050565b60006200463b8262002e7f565b91506000820362004651576200465062003967565b5b600182039050919050565b7f537472696e67733a20686578206c656e67746820696e73756666696369656e74600082015250565b60006200469460208362002dcc565b9150620046a1826200465c565b602082019050919050565b60006020820190508181036000830152620046c78162004685565b905091905056fe60806040526000600560006101000a81548160ff02191690831515021790555034801561002b57600080fd5b5061005c7fdf8b4c520ffe197c5343c6f5aec59570151ef9a492f2c624fd45ddde6135ec423361006160201b60201c565b6101bf565b610071828261014d60201b60201c565b61014957600160008084815260200190815260200160002060000160008373ffffffffffffffffffffffffffffffffffffffff1673ffffffffffffffffffffffffffffffffffffffff16815260200190815260200160002060006101000a81548160ff0219169083151502179055506100ee6101b760201b60201c565b73ffffffffffffffffffffffffffffffffffffffff168173ffffffffffffffffffffffffffffffffffffffff16837f2f8788117e7eff1d82e926ec794901d17c78024a50270940304540a733656f0d60405160405180910390a45b5050565b600080600084815260200190815260200160002060000160008373ffffffffffffffffffffffffffffffffffffffff1673ffffffffffffffffffffffffffffffffffffffff16815260200190815260200160002060009054906101000a900460ff16905092915050565b600033905090565b6116c7806101ce6000396000f3fe608060405234801561001057600080fd5b50600436106100f55760003560e01c806350627f8d11610097578063a217fddf11610066578063a217fddf1461025e578063a3bf5b9a1461027c578063a71f364114610298578063d547741f146102a2576100f5565b806350627f8d146101ea578063739439c4146101f457806391d148541461021057806392f4eff314610240576100f5565b80632f2ff15d116100d35780632f2ff15d1461017857806336568abe146101945780633d391f70146101b05780634e69d560146101cc576100f5565b806301ffc9a7146100fa578063248a9ca31461012a5780632a0acc6a1461015a575b600080fd5b610114600480360381019061010f9190611004565b6102be565b604051610121919061104c565b60405180910390f35b610144600480360381019061013f919061109d565b610338565b60405161015191906110d9565b60405180910390f35b610162610357565b60405161016f91906110d9565b60405180910390f35b610192600480360381019061018d9190611152565b61037b565b005b6101ae60048036038101906101a99190611152565b61039c565b005b6101ca60048036038101906101c59190611192565b61041f565b005b6101d4610477565b6040516101e1919061104c565b60405180910390f35b6101f26104b9565b005b61020e600480360381019061020991906111f5565b610501565b005b61022a60048036038101906102259190611152565b61055f565b604051610237919061104c565b60405180910390f35b6102486105c9565b6040516102559190611244565b60405180910390f35b61026661070b565b60405161027391906110d9565b60405180910390f35b61029660048036038101906102919190611192565b610712565b005b6102a061076a565b005b6102bc60048036038101906102b79190611152565b6107b2565b005b60007f7965db0b000000000000000000000000000000000000000000000000000000007bffffffffffffffffffffffffffffffffffffffffffffffffffffffff1916827bffffffffffffffffffffffffffffffffffffffffffffffffffffffff191614806103315750610330826107d3565b5b9050919050565b6000806000838152602001908152602001600020600101549050919050565b7fdf8b4c520ffe197c5343c6f5aec59570151ef9a492f2c624fd45ddde6135ec4281565b61038482610338565b61038d8161083d565b6103978383610851565b505050565b6103a4610931565b73ffffffffffffffffffffffffffffffffffffffff168173ffffffffffffffffffffffffffffffffffffffff1614610411576040517f08c379a0000000000000000000000000000000000000000000000000000000008152600401610408906112e2565b60405180910390fd5b61041b8282610939565b5050565b7fdf8b4c520ffe197c5343c6f5aec59570151ef9a492f2c624fd45ddde6135ec426104498161083d565b6104737fdf8b4c520ffe197c5343c6f5aec59570151ef9a492f2c624fd45ddde6135ec428361037b565b5050565b60007fdf8b4c520ffe197c5343c6f5aec59570151ef9a492f2c624fd45ddde6135ec426104a38161083d565b600560009054906101000a900460ff1691505090565b7fdf8b4c520ffe197c5343c6f5aec59570151ef9a492f2c624fd45ddde6135ec426104e38161083d565b6001600560006101000a81548160ff02191690831515021790555050565b7fdf8b4c520ffe197c5343c6f5aec59570151ef9a492f2c624fd45ddde6135ec4261052b8161083d565b600560009054906101000a900460ff1661054457600080fd5b61055a83836001610a1a9092919063ffffffff16565b505050565b600080600084815260200190815260200160002060000160008373ffffffffffffffffffffffffffffffffffffffff1673ffffffffffffffffffffffffffffffffffffffff16815260200190815260200160002060009054906101000a900460ff16905092915050565b60007fdf8b4c520ffe197c5343c6f5aec59570151ef9a492f2c624fd45ddde6135ec426105f58161083d565b600560009054906101000a900460ff161561060f57600080fd5b600061063961062960006001610c1190919063ffffffff16565b6001610c5c90919063ffffffff16565b905060005b6106486001610ca8565b8110156106e0576000610665826001610c1190919063ffffffff16565b9050600061067d826001610c5c90919063ffffffff16565b90508381116106cb5780935081600560016101000a81548173ffffffffffffffffffffffffffffffffffffffff021916908373ffffffffffffffffffffffffffffffffffffffff1602179055505b505080806106d890611331565b91505061063e565b50600560019054906101000a900473ffffffffffffffffffffffffffffffffffffffff169250505090565b6000801b81565b7fdf8b4c520ffe197c5343c6f5aec59570151ef9a492f2c624fd45ddde6135ec4261073c8161083d565b6107667fdf8b4c520ffe197c5343c6f5aec59570151ef9a492f2c624fd45ddde6135ec42836107b2565b5050565b7fdf8b4c520ffe197c5343c6f5aec59570151ef9a492f2c624fd45ddde6135ec426107948161083d565b6000600560006101000a81548160ff02191690831515021790555050565b6107bb82610338565b6107c48161083d565b6107ce8383610939565b505050565b60007f01ffc9a7000000000000000000000000000000000000000000000000000000007bffffffffffffffffffffffffffffffffffffffffffffffffffffffff1916827bffffffffffffffffffffffffffffffffffffffffffffffffffffffff1916149050919050565b61084e81610849610931565b610cb9565b50565b61085b828261055f565b61092d57600160008084815260200190815260200160002060000160008373ffffffffffffffffffffffffffffffffffffffff1673ffffffffffffffffffffffffffffffffffffffff16815260200190815260200160002060006101000a81548160ff0219169083151502179055506108d2610931565b73ffffffffffffffffffffffffffffffffffffffff168173ffffffffffffffffffffffffffffffffffffffff16837f2f8788117e7eff1d82e926ec794901d17c78024a50270940304540a733656f0d60405160405180910390a45b5050565b600033905090565b610943828261055f565b15610a1657600080600084815260200190815260200160002060000160008373ffffffffffffffffffffffffffffffffffffffff1673ffffffffffffffffffffffffffffffffffffffff16815260200190815260200160002060006101000a81548160ff0219169083151502179055506109bb610931565b73ffffffffffffffffffffffffffffffffffffffff168173ffffffffffffffffffffffffffffffffffffffff16837ff6391f5c32d9c69d2a47ea670b442974b53935d1edc7fd64eb21e047a839171b60405160405180910390a45b5050565b8260030160008373ffffffffffffffffffffffffffffffffffffffff1673ffffffffffffffffffffffffffffffffffffffff16815260200190815260200160002060009054906101000a900460ff1615610ab957808360010160008473ffffffffffffffffffffffffffffffffffffffff1673ffffffffffffffffffffffffffffffffffffffff16815260200190815260200160002081905550610c0c565b60018360030160008473ffffffffffffffffffffffffffffffffffffffff1673ffffffffffffffffffffffffffffffffffffffff16815260200190815260200160002060006101000a81548160ff021916908315150217905550808360010160008473ffffffffffffffffffffffffffffffffffffffff1673ffffffffffffffffffffffffffffffffffffffff1681526020019081526020016000208190555082600001805490508360020160008473ffffffffffffffffffffffffffffffffffffffff1673ffffffffffffffffffffffffffffffffffffffff1681526020019081526020016000208190555082600001829080600181540180825580915050600190039060005260206000200160009091909190916101000a81548173ffffffffffffffffffffffffffffffffffffffff021916908373ffffffffffffffffffffffffffffffffffffffff1602179055505b505050565b6000826000018281548110610c2957610c28611379565b5b9060005260206000200160009054906101000a900473ffffffffffffffffffffffffffffffffffffffff16905092915050565b60008260010160008373ffffffffffffffffffffffffffffffffffffffff1673ffffffffffffffffffffffffffffffffffffffff16815260200190815260200160002054905092915050565b600081600001805490509050919050565b610cc3828261055f565b610d3a57610cd081610d3e565b610cde8360001c6020610d6b565b604051602001610cef9291906114b1565b6040516020818303038152906040526040517f08c379a0000000000000000000000000000000000000000000000000000000008152600401610d319190611535565b60405180910390fd5b5050565b6060610d648273ffffffffffffffffffffffffffffffffffffffff16601460ff16610d6b565b9050919050565b606060006002836002610d7e9190611557565b610d889190611599565b67ffffffffffffffff811115610da157610da06115cd565b5b6040519080825280601f01601f191660200182016040528015610dd35781602001600182028036833780820191505090505b5090507f300000000000000000000000000000000000000000000000000000000000000081600081518110610e0b57610e0a611379565b5b60200101907effffffffffffffffffffffffffffffffffffffffffffffffffffffffffffff1916908160001a9053507f780000000000000000000000000000000000000000000000000000000000000081600181518110610e6f57610e6e611379565b5b60200101907effffffffffffffffffffffffffffffffffffffffffffffffffffffffffffff1916908160001a90535060006001846002610eaf9190611557565b610eb99190611599565b90505b6001811115610f59577f3031323334353637383961626364656600000000000000000000000000000000600f861660108110610efb57610efa611379565b5b1a60f81b828281518110610f1257610f11611379565b5b60200101907effffffffffffffffffffffffffffffffffffffffffffffffffffffffffffff1916908160001a905350600485901c945080610f52906115fc565b9050610ebc565b5060008414610f9d576040517f08c379a0000000000000000000000000000000000000000000000000000000008152600401610f9490611671565b60405180910390fd5b8091505092915050565b600080fd5b60007fffffffff0000000000000000000000000000000000000000000000000000000082169050919050565b610fe181610fac565b8114610fec57600080fd5b50565b600081359050610ffe81610fd8565b92915050565b60006020828403121561101a57611019610fa7565b5b600061102884828501610fef565b91505092915050565b60008115159050919050565b61104681611031565b82525050565b6000602082019050611061600083018461103d565b92915050565b6000819050919050565b61107a81611067565b811461108557600080fd5b50565b60008135905061109781611071565b92915050565b6000602082840312156110b3576110b2610fa7565b5b60006110c184828501611088565b91505092915050565b6110d381611067565b82525050565b60006020820190506110ee60008301846110ca565b92915050565b600073ffffffffffffffffffffffffffffffffffffffff82169050919050565b600061111f826110f4565b9050919050565b61112f81611114565b811461113a57600080fd5b50565b60008135905061114c81611126565b92915050565b6000806040838503121561116957611168610fa7565b5b600061117785828601611088565b92505060206111888582860161113d565b9150509250929050565b6000602082840312156111a8576111a7610fa7565b5b60006111b68482850161113d565b91505092915050565b6000819050919050565b6111d2816111bf565b81146111dd57600080fd5b50565b6000813590506111ef816111c9565b92915050565b6000806040838503121561120c5761120b610fa7565b5b600061121a8582860161113d565b925050602061122b858286016111e0565b9150509250929050565b61123e81611114565b82525050565b60006020820190506112596000830184611235565b92915050565b600082825260208201905092915050565b7f416363657373436f6e74726f6c3a2063616e206f6e6c792072656e6f756e636560008201527f20726f6c657320666f722073656c660000000000000000000000000000000000602082015250565b60006112cc602f8361125f565b91506112d782611270565b604082019050919050565b600060208201905081810360008301526112fb816112bf565b9050919050565b7f4e487b7100000000000000000000000000000000000000000000000000000000600052601160045260246000fd5b600061133c826111bf565b91507fffffffffffffffffffffffffffffffffffffffffffffffffffffffffffffffff820361136e5761136d611302565b5b600182019050919050565b7f4e487b7100000000000000000000000000000000000000000000000000000000600052603260045260246000fd5b600081905092915050565b7f416363657373436f6e74726f6c3a206163636f756e7420000000000000000000600082015250565b60006113e96017836113a8565b91506113f4826113b3565b601782019050919050565b600081519050919050565b60005b8381101561142857808201518184015260208101905061140d565b60008484015250505050565b600061143f826113ff565b61144981856113a8565b935061145981856020860161140a565b80840191505092915050565b7f206973206d697373696e6720726f6c6520000000000000000000000000000000600082015250565b600061149b6011836113a8565b91506114a682611465565b601182019050919050565b60006114bc826113dc565b91506114c88285611434565b91506114d38261148e565b91506114df8284611434565b91508190509392505050565b6000601f19601f8301169050919050565b6000611507826113ff565b611511818561125f565b935061152181856020860161140a565b61152a816114eb565b840191505092915050565b6000602082019050818103600083015261154f81846114fc565b905092915050565b6000611562826111bf565b915061156d836111bf565b925082820261157b816111bf565b9150828204841483151761159257611591611302565b5b5092915050565b60006115a4826111bf565b91506115af836111bf565b92508282019050808211156115c7576115c6611302565b5b92915050565b7f4e487b7100000000000000000000000000000000000000000000000000000000600052604160045260246000fd5b6000611607826111bf565b91506000820361161a57611619611302565b5b600182039050919050565b7f537472696e67733a20686578206c656e67746820696e73756666696369656e74600082015250565b600061165b60208361125f565b915061166682611625565b602082019050919050565b6000602082019050818103600083015261168a8161164e565b905091905056fea2646970667358221220cb24c7d57b2d8f0a5d2d86910914756452f6a01d515af5095c166c13b0059f9064736f6c63430008110033a26469706673582212201028a6d241c9f28f77a7196127a9a1bae007df4f4040672210df8f8307800dbd64736f6c63430008110033",
  "immutableReferences": {},
  "source": "//SPDX-License-Identifier: MIT\npragma solidity >=0.5.16;\n\nimport \"@openzeppelin/contracts/utils/Counters.sol\";\nimport \"@openzeppelin/contracts/token/ERC721/extensions/ERC721URIStorage.sol\";\nimport \"@openzeppelin/contracts/access/AccessControl.sol\";\nimport \"./ProposalManagement.sol\";\n\n\ncontract Factory is ERC721URIStorage, AccessControl{\n\n    bytes32 public constant ADMIN = keccak256(\"ADMIN\");\n    using Counters for Counters.Counter;\n    struct Tender{\n        uint256 id;\n        bool status;\n        string URI;\n        ProposalManagement proposal;\n    }\n\n    Tender[] private tenders;\n    Counters.Counter private _numOfProposal;\n    \n    constructor(string memory name, string memory symbol) ERC721(name, symbol) {\n        _grantRole(ADMIN, msg.sender);\n    }\n\n    function givePermission (address newAdmin) public onlyRole(ADMIN){\n        grantRole(ADMIN, newAdmin);\n    }\n\n    /*function revokePermission (address oldAdmin) public onlyRole(ADMIN) {\n        revokeRole(ADMIN, oldAdmin);\n    }*/\n     \n    function openNewTender(string memory tokenURI) public onlyRole(ADMIN) returns(uint){\n\n        ProposalManagement newProposal = new ProposalManagement();\n        newProposal.openTender();\n        tenders.push(Tender(_numOfProposal.current(),true,tokenURI,newProposal));\n        _numOfProposal.increment();\n\n        return _numOfProposal.current()-1;\n    }\n\n    function Proposal(uint256 quote, uint num, address ind) public {\n\n        require(tenders[num].status);\n        tenders[num].proposal.sendProposal(ind,quote);\n\n    }\n\n    function assignWinner(uint256 num) public onlyRole(ADMIN) returns(address){\n        \n        require(tenders[num].status);\n        tenders[num].proposal.closeTender();\n        tenders[num].status=false;\n        address winner = tenders[num].proposal.proposalEvaluation();\n        _mint(winner, num);\n        _setTokenURI(num, tenders[num].URI);\n\n        return winner;\n    }\n\n    function getTenders() public view returns (Tender[] memory) {\n        Tender[] memory output= new Tender[](_numOfProposal.current());\n        for(uint i = 0; i < _numOfProposal.current(); i++){\n            Tender storage temp = tenders[i];\n            output[i]=temp;\n        }\n\n        return output;\n    }\n\n    function supportsInterface(bytes4 interfaceId) public view virtual override(ERC721, AccessControl) returns (bool) {\n        return super.supportsInterface(interfaceId);\n    }\n\n}",
  "sourcePath": "/home/daniele/Documenti/truffleReact/truffle/contracts/Factory.sol",
  "compiler": {
    "name": "solc",
    "version": "0.8.17+commit.8df45f5f.Emscripten.clang"
  },
  "schemaVersion": "3.4.11",
  "updatedAt": "2023-01-18T20:04:55.015Z",
  "networkType": "ethereum",
  "devdoc": {
    "kind": "dev",
    "methods": {
      "approve(address,uint256)": {
        "details": "See {IERC721-approve}."
      },
      "balanceOf(address)": {
        "details": "See {IERC721-balanceOf}."
      },
      "getApproved(uint256)": {
        "details": "See {IERC721-getApproved}."
      },
      "getRoleAdmin(bytes32)": {
        "details": "Returns the admin role that controls `role`. See {grantRole} and {revokeRole}. To change a role's admin, use {_setRoleAdmin}."
      },
      "grantRole(bytes32,address)": {
        "details": "Grants `role` to `account`. If `account` had not been already granted `role`, emits a {RoleGranted} event. Requirements: - the caller must have ``role``'s admin role. May emit a {RoleGranted} event."
      },
      "hasRole(bytes32,address)": {
        "details": "Returns `true` if `account` has been granted `role`."
      },
      "isApprovedForAll(address,address)": {
        "details": "See {IERC721-isApprovedForAll}."
      },
      "name()": {
        "details": "See {IERC721Metadata-name}."
      },
      "ownerOf(uint256)": {
        "details": "See {IERC721-ownerOf}."
      },
      "renounceRole(bytes32,address)": {
        "details": "Revokes `role` from the calling account. Roles are often managed via {grantRole} and {revokeRole}: this function's purpose is to provide a mechanism for accounts to lose their privileges if they are compromised (such as when a trusted device is misplaced). If the calling account had been revoked `role`, emits a {RoleRevoked} event. Requirements: - the caller must be `account`. May emit a {RoleRevoked} event."
      },
      "revokeRole(bytes32,address)": {
        "details": "Revokes `role` from `account`. If `account` had been granted `role`, emits a {RoleRevoked} event. Requirements: - the caller must have ``role``'s admin role. May emit a {RoleRevoked} event."
      },
      "safeTransferFrom(address,address,uint256)": {
        "details": "See {IERC721-safeTransferFrom}."
      },
      "safeTransferFrom(address,address,uint256,bytes)": {
        "details": "See {IERC721-safeTransferFrom}."
      },
      "setApprovalForAll(address,bool)": {
        "details": "See {IERC721-setApprovalForAll}."
      },
      "symbol()": {
        "details": "See {IERC721Metadata-symbol}."
      },
      "tokenURI(uint256)": {
        "details": "See {IERC721Metadata-tokenURI}."
      },
      "transferFrom(address,address,uint256)": {
        "details": "See {IERC721-transferFrom}."
      }
    },
    "version": 1
  },
  "userdoc": {
    "kind": "user",
    "methods": {},
    "version": 1
  }
}