{
  "contractName": "Factory",
  "abi": [
    {
      "inputs": [
        {
          "internalType": "string",
          "name": "name",
          "type": "string"
        },
        {
          "internalType": "string",
          "name": "symbol",
          "type": "string"
        }
      ],
      "stateMutability": "nonpayable",
      "type": "constructor"
    },
    {
      "anonymous": false,
      "inputs": [
        {
          "indexed": true,
          "internalType": "address",
          "name": "owner",
          "type": "address"
        },
        {
          "indexed": true,
          "internalType": "address",
          "name": "approved",
          "type": "address"
        },
        {
          "indexed": true,
          "internalType": "uint256",
          "name": "tokenId",
          "type": "uint256"
        }
      ],
      "name": "Approval",
      "type": "event"
    },
    {
      "anonymous": false,
      "inputs": [
        {
          "indexed": true,
          "internalType": "address",
          "name": "owner",
          "type": "address"
        },
        {
          "indexed": true,
          "internalType": "address",
          "name": "operator",
          "type": "address"
        },
        {
          "indexed": false,
          "internalType": "bool",
          "name": "approved",
          "type": "bool"
        }
      ],
      "name": "ApprovalForAll",
      "type": "event"
    },
    {
      "anonymous": false,
      "inputs": [
        {
          "indexed": true,
          "internalType": "bytes32",
          "name": "role",
          "type": "bytes32"
        },
        {
          "indexed": true,
          "internalType": "bytes32",
          "name": "previousAdminRole",
          "type": "bytes32"
        },
        {
          "indexed": true,
          "internalType": "bytes32",
          "name": "newAdminRole",
          "type": "bytes32"
        }
      ],
      "name": "RoleAdminChanged",
      "type": "event"
    },
    {
      "anonymous": false,
      "inputs": [
        {
          "indexed": true,
          "internalType": "bytes32",
          "name": "role",
          "type": "bytes32"
        },
        {
          "indexed": true,
          "internalType": "address",
          "name": "account",
          "type": "address"
        },
        {
          "indexed": true,
          "internalType": "address",
          "name": "sender",
          "type": "address"
        }
      ],
      "name": "RoleGranted",
      "type": "event"
    },
    {
      "anonymous": false,
      "inputs": [
        {
          "indexed": true,
          "internalType": "bytes32",
          "name": "role",
          "type": "bytes32"
        },
        {
          "indexed": true,
          "internalType": "address",
          "name": "account",
          "type": "address"
        },
        {
          "indexed": true,
          "internalType": "address",
          "name": "sender",
          "type": "address"
        }
      ],
      "name": "RoleRevoked",
      "type": "event"
    },
    {
      "anonymous": false,
      "inputs": [
        {
          "indexed": true,
          "internalType": "address",
          "name": "from",
          "type": "address"
        },
        {
          "indexed": true,
          "internalType": "address",
          "name": "to",
          "type": "address"
        },
        {
          "indexed": true,
          "internalType": "uint256",
          "name": "tokenId",
          "type": "uint256"
        }
      ],
      "name": "Transfer",
      "type": "event"
    },
    {
      "inputs": [],
      "name": "ADMIN",
      "outputs": [
        {
          "internalType": "bytes32",
          "name": "",
          "type": "bytes32"
        }
      ],
      "stateMutability": "view",
      "type": "function",
      "constant": true
    },
    {
      "inputs": [],
      "name": "DEFAULT_ADMIN_ROLE",
      "outputs": [
        {
          "internalType": "bytes32",
          "name": "",
          "type": "bytes32"
        }
      ],
      "stateMutability": "view",
      "type": "function",
      "constant": true
    },
    {
      "inputs": [
        {
          "internalType": "address",
          "name": "to",
          "type": "address"
        },
        {
          "internalType": "uint256",
          "name": "tokenId",
          "type": "uint256"
        }
      ],
      "name": "approve",
      "outputs": [],
      "stateMutability": "nonpayable",
      "type": "function"
    },
    {
      "inputs": [
        {
          "internalType": "address",
          "name": "owner",
          "type": "address"
        }
      ],
      "name": "balanceOf",
      "outputs": [
        {
          "internalType": "uint256",
          "name": "",
          "type": "uint256"
        }
      ],
      "stateMutability": "view",
      "type": "function",
      "constant": true
    },
    {
      "inputs": [
        {
          "internalType": "uint256",
          "name": "tokenId",
          "type": "uint256"
        }
      ],
      "name": "getApproved",
      "outputs": [
        {
          "internalType": "address",
          "name": "",
          "type": "address"
        }
      ],
      "stateMutability": "view",
      "type": "function",
      "constant": true
    },
    {
      "inputs": [
        {
          "internalType": "bytes32",
          "name": "role",
          "type": "bytes32"
        }
      ],
      "name": "getRoleAdmin",
      "outputs": [
        {
          "internalType": "bytes32",
          "name": "",
          "type": "bytes32"
        }
      ],
      "stateMutability": "view",
      "type": "function",
      "constant": true
    },
    {
      "inputs": [
        {
          "internalType": "bytes32",
          "name": "role",
          "type": "bytes32"
        },
        {
          "internalType": "address",
          "name": "account",
          "type": "address"
        }
      ],
      "name": "grantRole",
      "outputs": [],
      "stateMutability": "nonpayable",
      "type": "function"
    },
    {
      "inputs": [
        {
          "internalType": "bytes32",
          "name": "role",
          "type": "bytes32"
        },
        {
          "internalType": "address",
          "name": "account",
          "type": "address"
        }
      ],
      "name": "hasRole",
      "outputs": [
        {
          "internalType": "bool",
          "name": "",
          "type": "bool"
        }
      ],
      "stateMutability": "view",
      "type": "function",
      "constant": true
    },
    {
      "inputs": [
        {
          "internalType": "address",
          "name": "owner",
          "type": "address"
        },
        {
          "internalType": "address",
          "name": "operator",
          "type": "address"
        }
      ],
      "name": "isApprovedForAll",
      "outputs": [
        {
          "internalType": "bool",
          "name": "",
          "type": "bool"
        }
      ],
      "stateMutability": "view",
      "type": "function",
      "constant": true
    },
    {
      "inputs": [],
      "name": "name",
      "outputs": [
        {
          "internalType": "string",
          "name": "",
          "type": "string"
        }
      ],
      "stateMutability": "view",
      "type": "function",
      "constant": true
    },
    {
      "inputs": [
        {
          "internalType": "uint256",
          "name": "tokenId",
          "type": "uint256"
        }
      ],
      "name": "ownerOf",
      "outputs": [
        {
          "internalType": "address",
          "name": "",
          "type": "address"
        }
      ],
      "stateMutability": "view",
      "type": "function",
      "constant": true
    },
    {
      "inputs": [
        {
          "internalType": "bytes32",
          "name": "role",
          "type": "bytes32"
        },
        {
          "internalType": "address",
          "name": "account",
          "type": "address"
        }
      ],
      "name": "renounceRole",
      "outputs": [],
      "stateMutability": "nonpayable",
      "type": "function"
    },
    {
      "inputs": [
        {
          "internalType": "bytes32",
          "name": "role",
          "type": "bytes32"
        },
        {
          "internalType": "address",
          "name": "account",
          "type": "address"
        }
      ],
      "name": "revokeRole",
      "outputs": [],
      "stateMutability": "nonpayable",
      "type": "function"
    },
    {
      "inputs": [
        {
          "internalType": "address",
          "name": "from",
          "type": "address"
        },
        {
          "internalType": "address",
          "name": "to",
          "type": "address"
        },
        {
          "internalType": "uint256",
          "name": "tokenId",
          "type": "uint256"
        }
      ],
      "name": "safeTransferFrom",
      "outputs": [],
      "stateMutability": "nonpayable",
      "type": "function"
    },
    {
      "inputs": [
        {
          "internalType": "address",
          "name": "from",
          "type": "address"
        },
        {
          "internalType": "address",
          "name": "to",
          "type": "address"
        },
        {
          "internalType": "uint256",
          "name": "tokenId",
          "type": "uint256"
        },
        {
          "internalType": "bytes",
          "name": "data",
          "type": "bytes"
        }
      ],
      "name": "safeTransferFrom",
      "outputs": [],
      "stateMutability": "nonpayable",
      "type": "function"
    },
    {
      "inputs": [
        {
          "internalType": "address",
          "name": "operator",
          "type": "address"
        },
        {
          "internalType": "bool",
          "name": "approved",
          "type": "bool"
        }
      ],
      "name": "setApprovalForAll",
      "outputs": [],
      "stateMutability": "nonpayable",
      "type": "function"
    },
    {
      "inputs": [],
      "name": "symbol",
      "outputs": [
        {
          "internalType": "string",
          "name": "",
          "type": "string"
        }
      ],
      "stateMutability": "view",
      "type": "function",
      "constant": true
    },
    {
      "inputs": [
        {
          "internalType": "uint256",
          "name": "tokenId",
          "type": "uint256"
        }
      ],
      "name": "tokenURI",
      "outputs": [
        {
          "internalType": "string",
          "name": "",
          "type": "string"
        }
      ],
      "stateMutability": "view",
      "type": "function",
      "constant": true
    },
    {
      "inputs": [
        {
          "internalType": "address",
          "name": "from",
          "type": "address"
        },
        {
          "internalType": "address",
          "name": "to",
          "type": "address"
        },
        {
          "internalType": "uint256",
          "name": "tokenId",
          "type": "uint256"
        }
      ],
      "name": "transferFrom",
      "outputs": [],
      "stateMutability": "nonpayable",
      "type": "function"
    },
    {
      "inputs": [
        {
          "internalType": "address",
          "name": "newAdmin",
          "type": "address"
        }
      ],
      "name": "givePermission",
      "outputs": [],
      "stateMutability": "nonpayable",
      "type": "function"
    },
    {
      "inputs": [
        {
          "internalType": "string",
          "name": "tokenURI",
          "type": "string"
        }
      ],
      "name": "openNewTender",
      "outputs": [
        {
          "internalType": "uint256",
          "name": "",
          "type": "uint256"
        }
      ],
      "stateMutability": "nonpayable",
      "type": "function"
    },
    {
      "inputs": [
        {
          "internalType": "uint256",
          "name": "quote",
          "type": "uint256"
        },
        {
          "internalType": "uint256",
          "name": "num",
          "type": "uint256"
        }
      ],
      "name": "Proposal",
      "outputs": [],
      "stateMutability": "nonpayable",
      "type": "function"
    },
    {
      "inputs": [
        {
          "internalType": "uint256",
          "name": "num",
          "type": "uint256"
        }
      ],
      "name": "assignWinner",
      "outputs": [],
      "stateMutability": "nonpayable",
      "type": "function"
    },
    {
      "inputs": [],
      "name": "getTenders",
      "outputs": [
        {
          "components": [
            {
              "internalType": "uint256",
              "name": "id",
              "type": "uint256"
            },
            {
              "internalType": "bool",
              "name": "status",
              "type": "bool"
            },
            {
              "internalType": "string",
              "name": "URI",
              "type": "string"
            },
            {
              "internalType": "contract ProposalManagement",
              "name": "proposal",
              "type": "address"
            }
          ],
          "internalType": "struct Factory.Tender[]",
          "name": "",
          "type": "tuple[]"
        }
      ],
      "stateMutability": "view",
      "type": "function",
      "constant": true
    },
    {
      "inputs": [
        {
          "internalType": "bytes4",
          "name": "interfaceId",
          "type": "bytes4"
        }
      ],
      "name": "supportsInterface",
      "outputs": [
        {
          "internalType": "bool",
          "name": "",
          "type": "bool"
        }
      ],
      "stateMutability": "view",
      "type": "function",
      "constant": true
    }
  ],
  "bytecode": "0x60806040523480156200001157600080fd5b50604051620066be380380620066be833981810160405281019062000037919062000391565b818181600090816200004a919062000661565b5080600190816200005c919062000661565b505050620000917fdf8b4c520ffe197c5343c6f5aec59570151ef9a492f2c624fd45ddde6135ec42336200009960201b60201c565b505062000748565b620000ab82826200018b60201b60201c565b620001875760016007600084815260200190815260200160002060000160008373ffffffffffffffffffffffffffffffffffffffff1673ffffffffffffffffffffffffffffffffffffffff16815260200190815260200160002060006101000a81548160ff0219169083151502179055506200012c620001f660201b60201c565b73ffffffffffffffffffffffffffffffffffffffff168173ffffffffffffffffffffffffffffffffffffffff16837f2f8788117e7eff1d82e926ec794901d17c78024a50270940304540a733656f0d60405160405180910390a45b5050565b60006007600084815260200190815260200160002060000160008373ffffffffffffffffffffffffffffffffffffffff1673ffffffffffffffffffffffffffffffffffffffff16815260200190815260200160002060009054906101000a900460ff16905092915050565b600033905090565b6000604051905090565b600080fd5b600080fd5b600080fd5b600080fd5b6000601f19601f8301169050919050565b7f4e487b7100000000000000000000000000000000000000000000000000000000600052604160045260246000fd5b62000267826200021c565b810181811067ffffffffffffffff821117156200028957620002886200022d565b5b80604052505050565b60006200029e620001fe565b9050620002ac82826200025c565b919050565b600067ffffffffffffffff821115620002cf57620002ce6200022d565b5b620002da826200021c565b9050602081019050919050565b60005b8381101562000307578082015181840152602081019050620002ea565b60008484015250505050565b60006200032a6200032484620002b1565b62000292565b90508281526020810184848401111562000349576200034862000217565b5b62000356848285620002e7565b509392505050565b600082601f83011262000376576200037562000212565b5b81516200038884826020860162000313565b91505092915050565b60008060408385031215620003ab57620003aa62000208565b5b600083015167ffffffffffffffff811115620003cc57620003cb6200020d565b5b620003da858286016200035e565b925050602083015167ffffffffffffffff811115620003fe57620003fd6200020d565b5b6200040c858286016200035e565b9150509250929050565b600081519050919050565b7f4e487b7100000000000000000000000000000000000000000000000000000000600052602260045260246000fd5b600060028204905060018216806200046957607f821691505b6020821081036200047f576200047e62000421565b5b50919050565b60008190508160005260206000209050919050565b60006020601f8301049050919050565b600082821b905092915050565b600060088302620004e97fffffffffffffffffffffffffffffffffffffffffffffffffffffffffffffffff82620004aa565b620004f58683620004aa565b95508019841693508086168417925050509392505050565b6000819050919050565b6000819050919050565b6000620005426200053c62000536846200050d565b62000517565b6200050d565b9050919050565b6000819050919050565b6200055e8362000521565b620005766200056d8262000549565b848454620004b7565b825550505050565b600090565b6200058d6200057e565b6200059a81848462000553565b505050565b5b81811015620005c257620005b660008262000583565b600181019050620005a0565b5050565b601f8211156200061157620005db8162000485565b620005e6846200049a565b81016020851015620005f6578190505b6200060e62000605856200049a565b8301826200059f565b50505b505050565b600082821c905092915050565b6000620006366000198460080262000616565b1980831691505092915050565b600062000651838362000623565b9150826002028217905092915050565b6200066c8262000416565b67ffffffffffffffff8111156200068857620006876200022d565b5b62000694825462000450565b620006a1828285620005c6565b600060209050601f831160018114620006d95760008415620006c4578287015190505b620006d0858262000643565b86555062000740565b601f198416620006e98662000485565b60005b828110156200071357848901518255600182019150602085019450602081019050620006ec565b868310156200073357848901516200072f601f89168262000623565b8355505b6001600288020188555050505b505050505050565b615f6680620007586000396000f3fe60806040523480156200001157600080fd5b5060043610620001965760003560e01c80636352211e11620000f3578063a217fddf11620000a5578063b88d4fde116200007b578063b88d4fde14620004df578063c87b56dd14620004ff578063d547741f1462000535578063e985e9c514620005555762000196565b8063a217fddf1462000467578063a22cb4651462000489578063a83ee1d714620004a95762000196565b80636352211e146200036357806365a11f21146200039957806370a0823114620003b957806391d1485414620003ef57806395d89b411462000425578063a1c50b5a14620004475762000196565b8063248a9ca3116200014d578063248a9ca3146200028b5780632a0acc6a14620002c15780632f2ff15d14620002e357806336568abe14620003035780633d391f70146200032357806342842e0e14620003435762000196565b806301ffc9a7146200019b57806306fdde0314620001d1578063081812fc14620001f3578063095ea7b3146200022957806312d0ec80146200024957806323b872dd146200026b575b600080fd5b620001b96004803603810190620001b3919062002d37565b6200058b565b604051620001c8919062002d86565b60405180910390f35b620001db6200059f565b604051620001ea919062002e3d565b60405180910390f35b6200021160048036038101906200020b919062002e9c565b62000639565b60405162000220919062002f13565b60405180910390f35b62000247600480360381019062000241919062002f61565b62000681565b005b62000253620007a9565b604051620002629190620031c2565b60405180910390f35b620002896004803603810190620002839190620031e6565b620009b6565b005b620002a96004803603810190620002a391906200327d565b62000a1f565b604051620002b89190620032c0565b60405180910390f35b620002cb62000a3f565b604051620002da9190620032c0565b60405180910390f35b620003016004803603810190620002fb9190620032dd565b62000a63565b005b6200032160048036038101906200031b9190620032dd565b62000a8a565b005b6200034160048036038101906200033b919062003324565b62000b14565b005b6200036160048036038101906200035b9190620031e6565b62000b70565b005b6200038160048036038101906200037b919062002e9c565b62000b92565b60405162000390919062002f13565b60405180910390f35b620003b76004803603810190620003b1919062002e9c565b62000c1d565b005b620003d76004803603810190620003d1919062003324565b62000f09565b604051620003e6919062003367565b60405180910390f35b6200040d6004803603810190620004079190620032dd565b62000fc3565b6040516200041c919062002d86565b60405180910390f35b6200042f6200102e565b6040516200043e919062002e3d565b60405180910390f35b6200046560048036038101906200045f919062003384565b620010c8565b005b62000471620011c5565b604051620004809190620032c0565b60405180910390f35b620004a76004803603810190620004a19190620033fc565b620011cc565b005b620004c76004803603810190620004c1919062003594565b620011e6565b604051620004d6919062003367565b60405180910390f35b620004fd6004803603810190620004f7919062003699565b620013d0565b005b6200051d600480360381019062000517919062002e9c565b6200143b565b6040516200052c919062002e3d565b60405180910390f35b6200055360048036038101906200054d9190620032dd565b62001561565b005b6200057360048036038101906200056d91906200372a565b62001588565b60405162000582919062002d86565b60405180910390f35b600062000598826200161c565b9050919050565b606060008054620005b090620037a0565b80601f0160208091040260200160405190810160405280929190818152602001828054620005de90620037a0565b80156200062f5780601f1062000603576101008083540402835291602001916200062f565b820191906000526020600020905b8154815290600101906020018083116200061157829003601f168201915b5050505050905090565b6000620006468262001699565b6004600083815260200190815260200160002060009054906101000a900473ffffffffffffffffffffffffffffffffffffffff169050919050565b60006200068e8262000b92565b90508073ffffffffffffffffffffffffffffffffffffffff168373ffffffffffffffffffffffffffffffffffffffff160362000701576040517f08c379a0000000000000000000000000000000000000000000000000000000008152600401620006f8906200384b565b60405180910390fd5b8073ffffffffffffffffffffffffffffffffffffffff1662000722620016e9565b73ffffffffffffffffffffffffffffffffffffffff16148062000756575062000755816200074f620016e9565b62001588565b5b62000798576040517f08c379a00000000000000000000000000000000000000000000000000000000081526004016200078f90620038e3565b60405180910390fd5b620007a48383620016f1565b505050565b60606000620007b96009620017ac565b67ffffffffffffffff811115620007d557620007d46200344d565b5b6040519080825280602002602001820160405280156200081257816020015b620007fe62002c78565b815260200190600190039081620007f45790505b50905060005b620008246009620017ac565b811015620009ae5760006008828154811062000845576200084462003905565b5b9060005260206000209060040201905080604051806080016040529081600082015481526020016001820160009054906101000a900460ff161515151581526020016002820180546200089890620037a0565b80601f0160208091040260200160405190810160405280929190818152602001828054620008c690620037a0565b8015620009175780601f10620008eb5761010080835404028352916020019162000917565b820191906000526020600020905b815481529060010190602001808311620008f957829003601f168201915b505050505081526020016003820160009054906101000a900473ffffffffffffffffffffffffffffffffffffffff1673ffffffffffffffffffffffffffffffffffffffff1673ffffffffffffffffffffffffffffffffffffffff16815250508383815181106200098c576200098b62003905565b5b6020026020010181905250508080620009a59062003963565b91505062000818565b508091505090565b620009cb620009c4620016e9565b82620017ba565b62000a0d576040517f08c379a000000000000000000000000000000000000000000000000000000000815260040162000a049062003a26565b60405180910390fd5b62000a1a83838362001857565b505050565b600060076000838152602001908152602001600020600101549050919050565b7fdf8b4c520ffe197c5343c6f5aec59570151ef9a492f2c624fd45ddde6135ec4281565b62000a6e8262000a1f565b62000a798162001b61565b62000a85838362001b79565b505050565b62000a94620016e9565b73ffffffffffffffffffffffffffffffffffffffff168173ffffffffffffffffffffffffffffffffffffffff161462000b04576040517f08c379a000000000000000000000000000000000000000000000000000000000815260040162000afb9062003abe565b60405180910390fd5b62000b10828262001c5f565b5050565b7fdf8b4c520ffe197c5343c6f5aec59570151ef9a492f2c624fd45ddde6135ec4262000b408162001b61565b62000b6c7fdf8b4c520ffe197c5343c6f5aec59570151ef9a492f2c624fd45ddde6135ec428362000a63565b5050565b62000b8d83838360405180602001604052806000815250620013d0565b505050565b60008062000ba08362001d46565b9050600073ffffffffffffffffffffffffffffffffffffffff168173ffffffffffffffffffffffffffffffffffffffff160362000c14576040517f08c379a000000000000000000000000000000000000000000000000000000000815260040162000c0b9062003b30565b60405180910390fd5b80915050919050565b7fdf8b4c520ffe197c5343c6f5aec59570151ef9a492f2c624fd45ddde6135ec4262000c498162001b61565b6008828154811062000c605762000c5f62003905565b5b906000526020600020906004020160010160009054906101000a900460ff1662000c8957600080fd5b6008828154811062000ca05762000c9f62003905565b5b906000526020600020906004020160030160009054906101000a900473ffffffffffffffffffffffffffffffffffffffff1673ffffffffffffffffffffffffffffffffffffffff1663a71f36416040518163ffffffff1660e01b8152600401600060405180830381600087803b15801562000d1a57600080fd5b505af115801562000d2f573d6000803e3d6000fd5b5050505060006008838154811062000d4c5762000d4b62003905565b5b906000526020600020906004020160010160006101000a81548160ff02191690831515021790555060006008838154811062000d8d5762000d8c62003905565b5b906000526020600020906004020160030160009054906101000a900473ffffffffffffffffffffffffffffffffffffffff1673ffffffffffffffffffffffffffffffffffffffff166392f4eff36040518163ffffffff1660e01b81526004016020604051808303816000875af115801562000e0c573d6000803e3d6000fd5b505050506040513d601f19601f8201168201806040525081019062000e32919062003b69565b905062000e40818462001d83565b62000f04836008858154811062000e5c5762000e5b62003905565b5b9060005260206000209060040201600201805462000e7a90620037a0565b80601f016020809104026020016040519081016040528092919081815260200182805462000ea890620037a0565b801562000ef95780601f1062000ecd5761010080835404028352916020019162000ef9565b820191906000526020600020905b81548152906001019060200180831162000edb57829003601f168201915b505050505062001fb1565b505050565b60008073ffffffffffffffffffffffffffffffffffffffff168273ffffffffffffffffffffffffffffffffffffffff160362000f7c576040517f08c379a000000000000000000000000000000000000000000000000000000000815260040162000f739062003c11565b60405180910390fd5b600360008373ffffffffffffffffffffffffffffffffffffffff1673ffffffffffffffffffffffffffffffffffffffff168152602001908152602001600020549050919050565b60006007600084815260200190815260200160002060000160008373ffffffffffffffffffffffffffffffffffffffff1673ffffffffffffffffffffffffffffffffffffffff16815260200190815260200160002060009054906101000a900460ff16905092915050565b6060600180546200103f90620037a0565b80601f01602080910402602001604051908101604052809291908181526020018280546200106d90620037a0565b8015620010be5780601f106200109257610100808354040283529160200191620010be565b820191906000526020600020905b815481529060010190602001808311620010a057829003601f168201915b5050505050905090565b60088181548110620010df57620010de62003905565b5b906000526020600020906004020160010160009054906101000a900460ff166200110857600080fd5b600881815481106200111f576200111e62003905565b5b906000526020600020906004020160030160009054906101000a900473ffffffffffffffffffffffffffffffffffffffff1673ffffffffffffffffffffffffffffffffffffffff1663739439c433846040518363ffffffff1660e01b81526004016200118d92919062003c33565b600060405180830381600087803b158015620011a857600080fd5b505af1158015620011bd573d6000803e3d6000fd5b505050505050565b6000801b81565b620011e2620011da620016e9565b838362002025565b5050565b60007fdf8b4c520ffe197c5343c6f5aec59570151ef9a492f2c624fd45ddde6135ec42620012148162001b61565b6000604051620012249062002cb8565b604051809103906000f08015801562001241573d6000803e3d6000fd5b5090508073ffffffffffffffffffffffffffffffffffffffff166350627f8d6040518163ffffffff1660e01b8152600401600060405180830381600087803b1580156200128d57600080fd5b505af1158015620012a2573d6000803e3d6000fd5b5050505060086040518060800160405280620012bf6009620017ac565b81526020016001151581526020018681526020018373ffffffffffffffffffffffffffffffffffffffff1681525090806001815401808255809150506001900390600052602060002090600402016000909190919091506000820151816000015560208201518160010160006101000a81548160ff021916908315150217905550604082015181600201908162001357919062003e28565b5060608201518160030160006101000a81548173ffffffffffffffffffffffffffffffffffffffff021916908373ffffffffffffffffffffffffffffffffffffffff1602179055505050620013ad600962002196565b6001620013bb6009620017ac565b620013c7919062003f0f565b92505050919050565b620013e5620013de620016e9565b83620017ba565b62001427576040517f08c379a00000000000000000000000000000000000000000000000000000000081526004016200141e9062003a26565b60405180910390fd5b6200143584848484620021ac565b50505050565b6060620014488262001699565b60006006600084815260200190815260200160002080546200146a90620037a0565b80601f01602080910402602001604051908101604052809291908181526020018280546200149890620037a0565b8015620014e95780601f10620014bd57610100808354040283529160200191620014e9565b820191906000526020600020905b815481529060010190602001808311620014cb57829003601f168201915b505050505090506000620014fc6200220f565b90506000815103620015135781925050506200155c565b6000825111156200154c5780826040516020016200153392919062003f8c565b604051602081830303815290604052925050506200155c565b620015578462002226565b925050505b919050565b6200156c8262000a1f565b620015778162001b61565b62001583838362001c5f565b505050565b6000600560008473ffffffffffffffffffffffffffffffffffffffff1673ffffffffffffffffffffffffffffffffffffffff16815260200190815260200160002060008373ffffffffffffffffffffffffffffffffffffffff1673ffffffffffffffffffffffffffffffffffffffff16815260200190815260200160002060009054906101000a900460ff16905092915050565b60007f7965db0b000000000000000000000000000000000000000000000000000000007bffffffffffffffffffffffffffffffffffffffffffffffffffffffff1916827bffffffffffffffffffffffffffffffffffffffffffffffffffffffff19161480620016925750620016918262002298565b5b9050919050565b620016a4816200237e565b620016e6576040517f08c379a0000000000000000000000000000000000000000000000000000000008152600401620016dd9062003b30565b60405180910390fd5b50565b600033905090565b816004600083815260200190815260200160002060006101000a81548173ffffffffffffffffffffffffffffffffffffffff021916908373ffffffffffffffffffffffffffffffffffffffff160217905550808273ffffffffffffffffffffffffffffffffffffffff16620017668362000b92565b73ffffffffffffffffffffffffffffffffffffffff167f8c5be1e5ebec7d5bd14f71427d1e84f3dd0314c0f7b2291e5b200ac8c7c3b92560405160405180910390a45050565b600081600001549050919050565b600080620017c88362000b92565b90508073ffffffffffffffffffffffffffffffffffffffff168473ffffffffffffffffffffffffffffffffffffffff1614806200180d57506200180c818562001588565b5b806200184e57508373ffffffffffffffffffffffffffffffffffffffff16620018368462000639565b73ffffffffffffffffffffffffffffffffffffffff16145b91505092915050565b8273ffffffffffffffffffffffffffffffffffffffff16620018798262000b92565b73ffffffffffffffffffffffffffffffffffffffff1614620018d2576040517f08c379a0000000000000000000000000000000000000000000000000000000008152600401620018c9906200402a565b60405180910390fd5b600073ffffffffffffffffffffffffffffffffffffffff168273ffffffffffffffffffffffffffffffffffffffff160362001944576040517f08c379a00000000000000000000000000000000000000000000000000000000081526004016200193b90620040c2565b60405180910390fd5b620019538383836001620023c1565b8273ffffffffffffffffffffffffffffffffffffffff16620019758262000b92565b73ffffffffffffffffffffffffffffffffffffffff1614620019ce576040517f08c379a0000000000000000000000000000000000000000000000000000000008152600401620019c5906200402a565b60405180910390fd5b6004600082815260200190815260200160002060006101000a81549073ffffffffffffffffffffffffffffffffffffffff02191690556001600360008573ffffffffffffffffffffffffffffffffffffffff1673ffffffffffffffffffffffffffffffffffffffff168152602001908152602001600020600082825403925050819055506001600360008473ffffffffffffffffffffffffffffffffffffffff1673ffffffffffffffffffffffffffffffffffffffff16815260200190815260200160002060008282540192505081905550816002600083815260200190815260200160002060006101000a81548173ffffffffffffffffffffffffffffffffffffffff021916908373ffffffffffffffffffffffffffffffffffffffff160217905550808273ffffffffffffffffffffffffffffffffffffffff168473ffffffffffffffffffffffffffffffffffffffff167fddf252ad1be2c89b69c2b068fc378daa952ba7f163c4a11628f55a4df523b3ef60405160405180910390a462001b5c8383836001620024ee565b505050565b62001b768162001b70620016e9565b620024f4565b50565b62001b85828262000fc3565b62001c5b5760016007600084815260200190815260200160002060000160008373ffffffffffffffffffffffffffffffffffffffff1673ffffffffffffffffffffffffffffffffffffffff16815260200190815260200160002060006101000a81548160ff02191690831515021790555062001c00620016e9565b73ffffffffffffffffffffffffffffffffffffffff168173ffffffffffffffffffffffffffffffffffffffff16837f2f8788117e7eff1d82e926ec794901d17c78024a50270940304540a733656f0d60405160405180910390a45b5050565b62001c6b828262000fc3565b1562001d425760006007600084815260200190815260200160002060000160008373ffffffffffffffffffffffffffffffffffffffff1673ffffffffffffffffffffffffffffffffffffffff16815260200190815260200160002060006101000a81548160ff02191690831515021790555062001ce7620016e9565b73ffffffffffffffffffffffffffffffffffffffff168173ffffffffffffffffffffffffffffffffffffffff16837ff6391f5c32d9c69d2a47ea670b442974b53935d1edc7fd64eb21e047a839171b60405160405180910390a45b5050565b60006002600083815260200190815260200160002060009054906101000a900473ffffffffffffffffffffffffffffffffffffffff169050919050565b600073ffffffffffffffffffffffffffffffffffffffff168273ffffffffffffffffffffffffffffffffffffffff160362001df5576040517f08c379a000000000000000000000000000000000000000000000000000000000815260040162001dec9062004134565b60405180910390fd5b62001e00816200237e565b1562001e43576040517f08c379a000000000000000000000000000000000000000000000000000000000815260040162001e3a90620041a6565b60405180910390fd5b62001e53600083836001620023c1565b62001e5e816200237e565b1562001ea1576040517f08c379a000000000000000000000000000000000000000000000000000000000815260040162001e9890620041a6565b60405180910390fd5b6001600360008473ffffffffffffffffffffffffffffffffffffffff1673ffffffffffffffffffffffffffffffffffffffff16815260200190815260200160002060008282540192505081905550816002600083815260200190815260200160002060006101000a81548173ffffffffffffffffffffffffffffffffffffffff021916908373ffffffffffffffffffffffffffffffffffffffff160217905550808273ffffffffffffffffffffffffffffffffffffffff16600073ffffffffffffffffffffffffffffffffffffffff167fddf252ad1be2c89b69c2b068fc378daa952ba7f163c4a11628f55a4df523b3ef60405160405180910390a462001fad600083836001620024ee565b5050565b62001fbc826200237e565b62001ffe576040517f08c379a000000000000000000000000000000000000000000000000000000000815260040162001ff5906200423e565b60405180910390fd5b8060066000848152602001908152602001600020908162002020919062003e28565b505050565b8173ffffffffffffffffffffffffffffffffffffffff168373ffffffffffffffffffffffffffffffffffffffff160362002096576040517f08c379a00000000000000000000000000000000000000000000000000000000081526004016200208d90620042b0565b60405180910390fd5b80600560008573ffffffffffffffffffffffffffffffffffffffff1673ffffffffffffffffffffffffffffffffffffffff16815260200190815260200160002060008473ffffffffffffffffffffffffffffffffffffffff1673ffffffffffffffffffffffffffffffffffffffff16815260200190815260200160002060006101000a81548160ff0219169083151502179055508173ffffffffffffffffffffffffffffffffffffffff168373ffffffffffffffffffffffffffffffffffffffff167f17307eab39ab6107e8899845ad3d59bd9653f200f220920489ca2b5937696c318360405162002189919062002d86565b60405180910390a3505050565b6001816000016000828254019250508190555050565b620021b984848462001857565b620021c78484848462002584565b62002209576040517f08c379a0000000000000000000000000000000000000000000000000000000008152600401620022009062004348565b60405180910390fd5b50505050565b606060405180602001604052806000815250905090565b6060620022338262001699565b60006200223f6200220f565b9050600081511162002261576040518060200160405280600081525062002290565b806200226d846200271c565b6040516020016200228092919062003f8c565b6040516020818303038152906040525b915050919050565b60007f80ac58cd000000000000000000000000000000000000000000000000000000007bffffffffffffffffffffffffffffffffffffffffffffffffffffffff1916827bffffffffffffffffffffffffffffffffffffffffffffffffffffffff191614806200236457507f5b5e139f000000000000000000000000000000000000000000000000000000007bffffffffffffffffffffffffffffffffffffffffffffffffffffffff1916827bffffffffffffffffffffffffffffffffffffffffffffffffffffffff1916145b806200237757506200237682620027f5565b5b9050919050565b60008073ffffffffffffffffffffffffffffffffffffffff16620023a28362001d46565b73ffffffffffffffffffffffffffffffffffffffff1614159050919050565b6001811115620024e857600073ffffffffffffffffffffffffffffffffffffffff168473ffffffffffffffffffffffffffffffffffffffff1614620024595780600360008673ffffffffffffffffffffffffffffffffffffffff1673ffffffffffffffffffffffffffffffffffffffff168152602001908152602001600020600082825462002451919062003f0f565b925050819055505b600073ffffffffffffffffffffffffffffffffffffffff168373ffffffffffffffffffffffffffffffffffffffff1614620024e75780600360008573ffffffffffffffffffffffffffffffffffffffff1673ffffffffffffffffffffffffffffffffffffffff1681526020019081526020016000206000828254620024df91906200436a565b925050819055505b5b50505050565b50505050565b62002500828262000fc3565b620025805762002510816200285f565b620025208360001c60206200288e565b6040516020016200253392919062004445565b6040516020818303038152906040526040517f08c379a000000000000000000000000000000000000000000000000000000000815260040162002577919062002e3d565b60405180910390fd5b5050565b6000620025a78473ffffffffffffffffffffffffffffffffffffffff1662002ae9565b156200270f578373ffffffffffffffffffffffffffffffffffffffff1663150b7a02620025d3620016e9565b8786866040518563ffffffff1660e01b8152600401620025f79493929190620044e4565b6020604051808303816000875af19250505080156200263657506040513d601f19601f820116820180604052508101906200263391906200454f565b60015b620026be573d806000811462002669576040519150601f19603f3d011682016040523d82523d6000602084013e6200266e565b606091505b506000815103620026b6576040517f08c379a0000000000000000000000000000000000000000000000000000000008152600401620026ad9062004348565b60405180910390fd5b805181602001fd5b63150b7a0260e01b7bffffffffffffffffffffffffffffffffffffffffffffffffffffffff1916817bffffffffffffffffffffffffffffffffffffffffffffffffffffffff19161491505062002714565b600190505b949350505050565b6060600060016200272d8462002b0c565b01905060008167ffffffffffffffff8111156200274f576200274e6200344d565b5b6040519080825280601f01601f191660200182016040528015620027825781602001600182028036833780820191505090505b509050600082602001820190505b600115620027ea578080600190039150507f3031323334353637383961626364656600000000000000000000000000000000600a86061a8153600a8581620027dd57620027dc62004581565b5b0494506000850362002790575b819350505050919050565b60007f01ffc9a7000000000000000000000000000000000000000000000000000000007bffffffffffffffffffffffffffffffffffffffffffffffffffffffff1916827bffffffffffffffffffffffffffffffffffffffffffffffffffffffff1916149050919050565b6060620028878273ffffffffffffffffffffffffffffffffffffffff16601460ff166200288e565b9050919050565b606060006002836002620028a39190620045b0565b620028af91906200436a565b67ffffffffffffffff811115620028cb57620028ca6200344d565b5b6040519080825280601f01601f191660200182016040528015620028fe5781602001600182028036833780820191505090505b5090507f30000000000000000000000000000000000000000000000000000000000000008160008151811062002939576200293862003905565b5b60200101907effffffffffffffffffffffffffffffffffffffffffffffffffffffffffffff1916908160001a9053507f780000000000000000000000000000000000000000000000000000000000000081600181518110620029a0576200299f62003905565b5b60200101907effffffffffffffffffffffffffffffffffffffffffffffffffffffffffffff1916908160001a90535060006001846002620029e29190620045b0565b620029ee91906200436a565b90505b600181111562002a98577f3031323334353637383961626364656600000000000000000000000000000000600f86166010811062002a345762002a3362003905565b5b1a60f81b82828151811062002a4e5762002a4d62003905565b5b60200101907effffffffffffffffffffffffffffffffffffffffffffffffffffffffffffff1916908160001a905350600485901c94508062002a9090620045fb565b9050620029f1565b506000841462002adf576040517f08c379a000000000000000000000000000000000000000000000000000000000815260040162002ad69062004679565b60405180910390fd5b8091505092915050565b6000808273ffffffffffffffffffffffffffffffffffffffff163b119050919050565b600080600090507a184f03e93ff9f4daa797ed6e38ed64bf6a1f010000000000000000831062002b6e577a184f03e93ff9f4daa797ed6e38ed64bf6a1f010000000000000000838162002b645762002b6362004581565b5b0492506040810190505b6d04ee2d6d415b85acef8100000000831062002baf576d04ee2d6d415b85acef8100000000838162002ba55762002ba462004581565b5b0492506020810190505b662386f26fc10000831062002be257662386f26fc10000838162002bd85762002bd762004581565b5b0492506010810190505b6305f5e100831062002c0f576305f5e100838162002c055762002c0462004581565b5b0492506008810190505b612710831062002c3857612710838162002c2e5762002c2d62004581565b5b0492506004810190505b6064831062002c5f576064838162002c555762002c5462004581565b5b0492506002810190505b600a831062002c6f576001810190505b80915050919050565b60405180608001604052806000815260200160001515815260200160608152602001600073ffffffffffffffffffffffffffffffffffffffff1681525090565b611895806200469c83390190565b6000604051905090565b600080fd5b600080fd5b60007fffffffff0000000000000000000000000000000000000000000000000000000082169050919050565b62002d118162002cda565b811462002d1d57600080fd5b50565b60008135905062002d318162002d06565b92915050565b60006020828403121562002d505762002d4f62002cd0565b5b600062002d608482850162002d20565b91505092915050565b60008115159050919050565b62002d808162002d69565b82525050565b600060208201905062002d9d600083018462002d75565b92915050565b600081519050919050565b600082825260208201905092915050565b60005b8381101562002ddf57808201518184015260208101905062002dc2565b60008484015250505050565b6000601f19601f8301169050919050565b600062002e098262002da3565b62002e15818562002dae565b935062002e2781856020860162002dbf565b62002e328162002deb565b840191505092915050565b6000602082019050818103600083015262002e59818462002dfc565b905092915050565b6000819050919050565b62002e768162002e61565b811462002e8257600080fd5b50565b60008135905062002e968162002e6b565b92915050565b60006020828403121562002eb55762002eb462002cd0565b5b600062002ec58482850162002e85565b91505092915050565b600073ffffffffffffffffffffffffffffffffffffffff82169050919050565b600062002efb8262002ece565b9050919050565b62002f0d8162002eee565b82525050565b600060208201905062002f2a600083018462002f02565b92915050565b62002f3b8162002eee565b811462002f4757600080fd5b50565b60008135905062002f5b8162002f30565b92915050565b6000806040838503121562002f7b5762002f7a62002cd0565b5b600062002f8b8582860162002f4a565b925050602062002f9e8582860162002e85565b9150509250929050565b600081519050919050565b600082825260208201905092915050565b6000819050602082019050919050565b62002fdf8162002e61565b82525050565b62002ff08162002d69565b82525050565b600082825260208201905092915050565b6000620030148262002da3565b62003020818562002ff6565b93506200303281856020860162002dbf565b6200303d8162002deb565b840191505092915050565b6000819050919050565b6000620030736200306d620030678462002ece565b62003048565b62002ece565b9050919050565b6000620030878262003052565b9050919050565b60006200309b826200307a565b9050919050565b620030ad816200308e565b82525050565b6000608083016000830151620030cd600086018262002fd4565b506020830151620030e2602086018262002fe5565b5060408301518482036040860152620030fc828262003007565b9150506060830151620031136060860182620030a2565b508091505092915050565b60006200312c8383620030b3565b905092915050565b6000602082019050919050565b60006200314e8262002fa8565b6200315a818562002fb3565b9350836020820285016200316e8562002fc4565b8060005b85811015620031b057848403895281516200318e85826200311e565b94506200319b8362003134565b925060208a0199505060018101905062003172565b50829750879550505050505092915050565b60006020820190508181036000830152620031de818462003141565b905092915050565b60008060006060848603121562003202576200320162002cd0565b5b6000620032128682870162002f4a565b9350506020620032258682870162002f4a565b9250506040620032388682870162002e85565b9150509250925092565b6000819050919050565b620032578162003242565b81146200326357600080fd5b50565b60008135905062003277816200324c565b92915050565b60006020828403121562003296576200329562002cd0565b5b6000620032a68482850162003266565b91505092915050565b620032ba8162003242565b82525050565b6000602082019050620032d76000830184620032af565b92915050565b60008060408385031215620032f757620032f662002cd0565b5b6000620033078582860162003266565b92505060206200331a8582860162002f4a565b9150509250929050565b6000602082840312156200333d576200333c62002cd0565b5b60006200334d8482850162002f4a565b91505092915050565b620033618162002e61565b82525050565b60006020820190506200337e600083018462003356565b92915050565b600080604083850312156200339e576200339d62002cd0565b5b6000620033ae8582860162002e85565b9250506020620033c18582860162002e85565b9150509250929050565b620033d68162002d69565b8114620033e257600080fd5b50565b600081359050620033f681620033cb565b92915050565b6000806040838503121562003416576200341562002cd0565b5b6000620034268582860162002f4a565b92505060206200343985828601620033e5565b9150509250929050565b600080fd5b600080fd5b7f4e487b7100000000000000000000000000000000000000000000000000000000600052604160045260246000fd5b620034878262002deb565b810181811067ffffffffffffffff82111715620034a957620034a86200344d565b5b80604052505050565b6000620034be62002cc6565b9050620034cc82826200347c565b919050565b600067ffffffffffffffff821115620034ef57620034ee6200344d565b5b620034fa8262002deb565b9050602081019050919050565b82818337600083830152505050565b60006200352d6200352784620034d1565b620034b2565b9050828152602081018484840111156200354c576200354b62003448565b5b6200355984828562003507565b509392505050565b600082601f83011262003579576200357862003443565b5b81356200358b84826020860162003516565b91505092915050565b600060208284031215620035ad57620035ac62002cd0565b5b600082013567ffffffffffffffff811115620035ce57620035cd62002cd5565b5b620035dc8482850162003561565b91505092915050565b600067ffffffffffffffff8211156200360357620036026200344d565b5b6200360e8262002deb565b9050602081019050919050565b6000620036326200362c84620035e5565b620034b2565b90508281526020810184848401111562003651576200365062003448565b5b6200365e84828562003507565b509392505050565b600082601f8301126200367e576200367d62003443565b5b8135620036908482602086016200361b565b91505092915050565b60008060008060808587031215620036b657620036b562002cd0565b5b6000620036c68782880162002f4a565b9450506020620036d98782880162002f4a565b9350506040620036ec8782880162002e85565b925050606085013567ffffffffffffffff81111562003710576200370f62002cd5565b5b6200371e8782880162003666565b91505092959194509250565b6000806040838503121562003744576200374362002cd0565b5b6000620037548582860162002f4a565b9250506020620037678582860162002f4a565b9150509250929050565b7f4e487b7100000000000000000000000000000000000000000000000000000000600052602260045260246000fd5b60006002820490506001821680620037b957607f821691505b602082108103620037cf57620037ce62003771565b5b50919050565b7f4552433732313a20617070726f76616c20746f2063757272656e74206f776e6560008201527f7200000000000000000000000000000000000000000000000000000000000000602082015250565b60006200383360218362002dae565b91506200384082620037d5565b604082019050919050565b60006020820190508181036000830152620038668162003824565b9050919050565b7f4552433732313a20617070726f76652063616c6c6572206973206e6f7420746f60008201527f6b656e206f776e6572206f7220617070726f76656420666f7220616c6c000000602082015250565b6000620038cb603d8362002dae565b9150620038d8826200386d565b604082019050919050565b60006020820190508181036000830152620038fe81620038bc565b9050919050565b7f4e487b7100000000000000000000000000000000000000000000000000000000600052603260045260246000fd5b7f4e487b7100000000000000000000000000000000000000000000000000000000600052601160045260246000fd5b6000620039708262002e61565b91507fffffffffffffffffffffffffffffffffffffffffffffffffffffffffffffffff8203620039a557620039a462003934565b5b600182019050919050565b7f4552433732313a2063616c6c6572206973206e6f7420746f6b656e206f776e6560008201527f72206f7220617070726f76656400000000000000000000000000000000000000602082015250565b600062003a0e602d8362002dae565b915062003a1b82620039b0565b604082019050919050565b6000602082019050818103600083015262003a4181620039ff565b9050919050565b7f416363657373436f6e74726f6c3a2063616e206f6e6c792072656e6f756e636560008201527f20726f6c657320666f722073656c660000000000000000000000000000000000602082015250565b600062003aa6602f8362002dae565b915062003ab38262003a48565b604082019050919050565b6000602082019050818103600083015262003ad98162003a97565b9050919050565b7f4552433732313a20696e76616c696420746f6b656e2049440000000000000000600082015250565b600062003b1860188362002dae565b915062003b258262003ae0565b602082019050919050565b6000602082019050818103600083015262003b4b8162003b09565b9050919050565b60008151905062003b638162002f30565b92915050565b60006020828403121562003b825762003b8162002cd0565b5b600062003b928482850162003b52565b91505092915050565b7f4552433732313a2061646472657373207a65726f206973206e6f74206120766160008201527f6c6964206f776e65720000000000000000000000000000000000000000000000602082015250565b600062003bf960298362002dae565b915062003c068262003b9b565b604082019050919050565b6000602082019050818103600083015262003c2c8162003bea565b9050919050565b600060408201905062003c4a600083018562002f02565b62003c59602083018462003356565b9392505050565b60008190508160005260206000209050919050565b60006020601f8301049050919050565b600082821b905092915050565b60006008830262003cc47fffffffffffffffffffffffffffffffffffffffffffffffffffffffffffffffff8262003c85565b62003cd0868362003c85565b95508019841693508086168417925050509392505050565b600062003d0962003d0362003cfd8462002e61565b62003048565b62002e61565b9050919050565b6000819050919050565b62003d258362003ce8565b62003d3d62003d348262003d10565b84845462003c92565b825550505050565b600090565b62003d5462003d45565b62003d6181848462003d1a565b505050565b5b8181101562003d895762003d7d60008262003d4a565b60018101905062003d67565b5050565b601f82111562003dd85762003da28162003c60565b62003dad8462003c75565b8101602085101562003dbd578190505b62003dd562003dcc8562003c75565b83018262003d66565b50505b505050565b600082821c905092915050565b600062003dfd6000198460080262003ddd565b1980831691505092915050565b600062003e18838362003dea565b9150826002028217905092915050565b62003e338262002da3565b67ffffffffffffffff81111562003e4f5762003e4e6200344d565b5b62003e5b8254620037a0565b62003e6882828562003d8d565b600060209050601f83116001811462003ea0576000841562003e8b578287015190505b62003e97858262003e0a565b86555062003f07565b601f19841662003eb08662003c60565b60005b8281101562003eda5784890151825560018201915060208501945060208101905062003eb3565b8683101562003efa578489015162003ef6601f89168262003dea565b8355505b6001600288020188555050505b505050505050565b600062003f1c8262002e61565b915062003f298362002e61565b925082820390508181111562003f445762003f4362003934565b5b92915050565b600081905092915050565b600062003f628262002da3565b62003f6e818562003f4a565b935062003f8081856020860162002dbf565b80840191505092915050565b600062003f9a828562003f55565b915062003fa8828462003f55565b91508190509392505050565b7f4552433732313a207472616e736665722066726f6d20696e636f72726563742060008201527f6f776e6572000000000000000000000000000000000000000000000000000000602082015250565b60006200401260258362002dae565b91506200401f8262003fb4565b604082019050919050565b60006020820190508181036000830152620040458162004003565b9050919050565b7f4552433732313a207472616e7366657220746f20746865207a65726f2061646460008201527f7265737300000000000000000000000000000000000000000000000000000000602082015250565b6000620040aa60248362002dae565b9150620040b7826200404c565b604082019050919050565b60006020820190508181036000830152620040dd816200409b565b9050919050565b7f4552433732313a206d696e7420746f20746865207a65726f2061646472657373600082015250565b60006200411c60208362002dae565b91506200412982620040e4565b602082019050919050565b600060208201905081810360008301526200414f816200410d565b9050919050565b7f4552433732313a20746f6b656e20616c7265616479206d696e74656400000000600082015250565b60006200418e601c8362002dae565b91506200419b8262004156565b602082019050919050565b60006020820190508181036000830152620041c1816200417f565b9050919050565b7f45524337323155524953746f726167653a2055524920736574206f66206e6f6e60008201527f6578697374656e7420746f6b656e000000000000000000000000000000000000602082015250565b600062004226602e8362002dae565b91506200423382620041c8565b604082019050919050565b60006020820190508181036000830152620042598162004217565b9050919050565b7f4552433732313a20617070726f766520746f2063616c6c657200000000000000600082015250565b60006200429860198362002dae565b9150620042a58262004260565b602082019050919050565b60006020820190508181036000830152620042cb8162004289565b9050919050565b7f4552433732313a207472616e7366657220746f206e6f6e20455243373231526560008201527f63656976657220696d706c656d656e7465720000000000000000000000000000602082015250565b60006200433060328362002dae565b91506200433d82620042d2565b604082019050919050565b60006020820190508181036000830152620043638162004321565b9050919050565b6000620043778262002e61565b9150620043848362002e61565b92508282019050808211156200439f576200439e62003934565b5b92915050565b7f416363657373436f6e74726f6c3a206163636f756e7420000000000000000000600082015250565b6000620043dd60178362003f4a565b9150620043ea82620043a5565b601782019050919050565b7f206973206d697373696e6720726f6c6520000000000000000000000000000000600082015250565b60006200442d60118362003f4a565b91506200443a82620043f5565b601182019050919050565b60006200445282620043ce565b915062004460828562003f55565b91506200446d826200441e565b91506200447b828462003f55565b91508190509392505050565b600081519050919050565b600082825260208201905092915050565b6000620044b08262004487565b620044bc818562004492565b9350620044ce81856020860162002dbf565b620044d98162002deb565b840191505092915050565b6000608082019050620044fb600083018762002f02565b6200450a602083018662002f02565b62004519604083018562003356565b81810360608301526200452d8184620044a3565b905095945050505050565b600081519050620045498162002d06565b92915050565b60006020828403121562004568576200456762002cd0565b5b6000620045788482850162004538565b91505092915050565b7f4e487b7100000000000000000000000000000000000000000000000000000000600052601260045260246000fd5b6000620045bd8262002e61565b9150620045ca8362002e61565b9250828202620045da8162002e61565b91508282048414831517620045f457620045f362003934565b5b5092915050565b6000620046088262002e61565b9150600082036200461e576200461d62003934565b5b600182039050919050565b7f537472696e67733a20686578206c656e67746820696e73756666696369656e74600082015250565b60006200466160208362002dae565b91506200466e8262004629565b602082019050919050565b60006020820190508181036000830152620046948162004652565b905091905056fe60806040526000600560006101000a81548160ff02191690831515021790555034801561002b57600080fd5b5061005c7fdf8b4c520ffe197c5343c6f5aec59570151ef9a492f2c624fd45ddde6135ec423361006160201b60201c565b6101bf565b610071828261014d60201b60201c565b61014957600160008084815260200190815260200160002060000160008373ffffffffffffffffffffffffffffffffffffffff1673ffffffffffffffffffffffffffffffffffffffff16815260200190815260200160002060006101000a81548160ff0219169083151502179055506100ee6101b760201b60201c565b73ffffffffffffffffffffffffffffffffffffffff168173ffffffffffffffffffffffffffffffffffffffff16837f2f8788117e7eff1d82e926ec794901d17c78024a50270940304540a733656f0d60405160405180910390a45b5050565b600080600084815260200190815260200160002060000160008373ffffffffffffffffffffffffffffffffffffffff1673ffffffffffffffffffffffffffffffffffffffff16815260200190815260200160002060009054906101000a900460ff16905092915050565b600033905090565b6116c7806101ce6000396000f3fe608060405234801561001057600080fd5b50600436106100f55760003560e01c806350627f8d11610097578063a217fddf11610066578063a217fddf1461025e578063a3bf5b9a1461027c578063a71f364114610298578063d547741f146102a2576100f5565b806350627f8d146101ea578063739439c4146101f457806391d148541461021057806392f4eff314610240576100f5565b80632f2ff15d116100d35780632f2ff15d1461017857806336568abe146101945780633d391f70146101b05780634e69d560146101cc576100f5565b806301ffc9a7146100fa578063248a9ca31461012a5780632a0acc6a1461015a575b600080fd5b610114600480360381019061010f9190611004565b6102be565b604051610121919061104c565b60405180910390f35b610144600480360381019061013f919061109d565b610338565b60405161015191906110d9565b60405180910390f35b610162610357565b60405161016f91906110d9565b60405180910390f35b610192600480360381019061018d9190611152565b61037b565b005b6101ae60048036038101906101a99190611152565b61039c565b005b6101ca60048036038101906101c59190611192565b61041f565b005b6101d4610477565b6040516101e1919061104c565b60405180910390f35b6101f26104b9565b005b61020e600480360381019061020991906111f5565b610501565b005b61022a60048036038101906102259190611152565b61055f565b604051610237919061104c565b60405180910390f35b6102486105c9565b6040516102559190611244565b60405180910390f35b61026661070b565b60405161027391906110d9565b60405180910390f35b61029660048036038101906102919190611192565b610712565b005b6102a061076a565b005b6102bc60048036038101906102b79190611152565b6107b2565b005b60007f7965db0b000000000000000000000000000000000000000000000000000000007bffffffffffffffffffffffffffffffffffffffffffffffffffffffff1916827bffffffffffffffffffffffffffffffffffffffffffffffffffffffff191614806103315750610330826107d3565b5b9050919050565b6000806000838152602001908152602001600020600101549050919050565b7fdf8b4c520ffe197c5343c6f5aec59570151ef9a492f2c624fd45ddde6135ec4281565b61038482610338565b61038d8161083d565b6103978383610851565b505050565b6103a4610931565b73ffffffffffffffffffffffffffffffffffffffff168173ffffffffffffffffffffffffffffffffffffffff1614610411576040517f08c379a0000000000000000000000000000000000000000000000000000000008152600401610408906112e2565b60405180910390fd5b61041b8282610939565b5050565b7fdf8b4c520ffe197c5343c6f5aec59570151ef9a492f2c624fd45ddde6135ec426104498161083d565b6104737fdf8b4c520ffe197c5343c6f5aec59570151ef9a492f2c624fd45ddde6135ec428361037b565b5050565b60007fdf8b4c520ffe197c5343c6f5aec59570151ef9a492f2c624fd45ddde6135ec426104a38161083d565b600560009054906101000a900460ff1691505090565b7fdf8b4c520ffe197c5343c6f5aec59570151ef9a492f2c624fd45ddde6135ec426104e38161083d565b6001600560006101000a81548160ff02191690831515021790555050565b7fdf8b4c520ffe197c5343c6f5aec59570151ef9a492f2c624fd45ddde6135ec4261052b8161083d565b600560009054906101000a900460ff1661054457600080fd5b61055a83836001610a1a9092919063ffffffff16565b505050565b600080600084815260200190815260200160002060000160008373ffffffffffffffffffffffffffffffffffffffff1673ffffffffffffffffffffffffffffffffffffffff16815260200190815260200160002060009054906101000a900460ff16905092915050565b60007fdf8b4c520ffe197c5343c6f5aec59570151ef9a492f2c624fd45ddde6135ec426105f58161083d565b600560009054906101000a900460ff161561060f57600080fd5b600061063961062960006001610c1190919063ffffffff16565b6001610c5c90919063ffffffff16565b905060005b6106486001610ca8565b8110156106e0576000610665826001610c1190919063ffffffff16565b9050600061067d826001610c5c90919063ffffffff16565b90508381116106cb5780935081600560016101000a81548173ffffffffffffffffffffffffffffffffffffffff021916908373ffffffffffffffffffffffffffffffffffffffff1602179055505b505080806106d890611331565b91505061063e565b50600560019054906101000a900473ffffffffffffffffffffffffffffffffffffffff169250505090565b6000801b81565b7fdf8b4c520ffe197c5343c6f5aec59570151ef9a492f2c624fd45ddde6135ec4261073c8161083d565b6107667fdf8b4c520ffe197c5343c6f5aec59570151ef9a492f2c624fd45ddde6135ec42836107b2565b5050565b7fdf8b4c520ffe197c5343c6f5aec59570151ef9a492f2c624fd45ddde6135ec426107948161083d565b6000600560006101000a81548160ff02191690831515021790555050565b6107bb82610338565b6107c48161083d565b6107ce8383610939565b505050565b60007f01ffc9a7000000000000000000000000000000000000000000000000000000007bffffffffffffffffffffffffffffffffffffffffffffffffffffffff1916827bffffffffffffffffffffffffffffffffffffffffffffffffffffffff1916149050919050565b61084e81610849610931565b610cb9565b50565b61085b828261055f565b61092d57600160008084815260200190815260200160002060000160008373ffffffffffffffffffffffffffffffffffffffff1673ffffffffffffffffffffffffffffffffffffffff16815260200190815260200160002060006101000a81548160ff0219169083151502179055506108d2610931565b73ffffffffffffffffffffffffffffffffffffffff168173ffffffffffffffffffffffffffffffffffffffff16837f2f8788117e7eff1d82e926ec794901d17c78024a50270940304540a733656f0d60405160405180910390a45b5050565b600033905090565b610943828261055f565b15610a1657600080600084815260200190815260200160002060000160008373ffffffffffffffffffffffffffffffffffffffff1673ffffffffffffffffffffffffffffffffffffffff16815260200190815260200160002060006101000a81548160ff0219169083151502179055506109bb610931565b73ffffffffffffffffffffffffffffffffffffffff168173ffffffffffffffffffffffffffffffffffffffff16837ff6391f5c32d9c69d2a47ea670b442974b53935d1edc7fd64eb21e047a839171b60405160405180910390a45b5050565b8260030160008373ffffffffffffffffffffffffffffffffffffffff1673ffffffffffffffffffffffffffffffffffffffff16815260200190815260200160002060009054906101000a900460ff1615610ab957808360010160008473ffffffffffffffffffffffffffffffffffffffff1673ffffffffffffffffffffffffffffffffffffffff16815260200190815260200160002081905550610c0c565b60018360030160008473ffffffffffffffffffffffffffffffffffffffff1673ffffffffffffffffffffffffffffffffffffffff16815260200190815260200160002060006101000a81548160ff021916908315150217905550808360010160008473ffffffffffffffffffffffffffffffffffffffff1673ffffffffffffffffffffffffffffffffffffffff1681526020019081526020016000208190555082600001805490508360020160008473ffffffffffffffffffffffffffffffffffffffff1673ffffffffffffffffffffffffffffffffffffffff1681526020019081526020016000208190555082600001829080600181540180825580915050600190039060005260206000200160009091909190916101000a81548173ffffffffffffffffffffffffffffffffffffffff021916908373ffffffffffffffffffffffffffffffffffffffff1602179055505b505050565b6000826000018281548110610c2957610c28611379565b5b9060005260206000200160009054906101000a900473ffffffffffffffffffffffffffffffffffffffff16905092915050565b60008260010160008373ffffffffffffffffffffffffffffffffffffffff1673ffffffffffffffffffffffffffffffffffffffff16815260200190815260200160002054905092915050565b600081600001805490509050919050565b610cc3828261055f565b610d3a57610cd081610d3e565b610cde8360001c6020610d6b565b604051602001610cef9291906114b1565b6040516020818303038152906040526040517f08c379a0000000000000000000000000000000000000000000000000000000008152600401610d319190611535565b60405180910390fd5b5050565b6060610d648273ffffffffffffffffffffffffffffffffffffffff16601460ff16610d6b565b9050919050565b606060006002836002610d7e9190611557565b610d889190611599565b67ffffffffffffffff811115610da157610da06115cd565b5b6040519080825280601f01601f191660200182016040528015610dd35781602001600182028036833780820191505090505b5090507f300000000000000000000000000000000000000000000000000000000000000081600081518110610e0b57610e0a611379565b5b60200101907effffffffffffffffffffffffffffffffffffffffffffffffffffffffffffff1916908160001a9053507f780000000000000000000000000000000000000000000000000000000000000081600181518110610e6f57610e6e611379565b5b60200101907effffffffffffffffffffffffffffffffffffffffffffffffffffffffffffff1916908160001a90535060006001846002610eaf9190611557565b610eb99190611599565b90505b6001811115610f59577f3031323334353637383961626364656600000000000000000000000000000000600f861660108110610efb57610efa611379565b5b1a60f81b828281518110610f1257610f11611379565b5b60200101907effffffffffffffffffffffffffffffffffffffffffffffffffffffffffffff1916908160001a905350600485901c945080610f52906115fc565b9050610ebc565b5060008414610f9d576040517f08c379a0000000000000000000000000000000000000000000000000000000008152600401610f9490611671565b60405180910390fd5b8091505092915050565b600080fd5b60007fffffffff0000000000000000000000000000000000000000000000000000000082169050919050565b610fe181610fac565b8114610fec57600080fd5b50565b600081359050610ffe81610fd8565b92915050565b60006020828403121561101a57611019610fa7565b5b600061102884828501610fef565b91505092915050565b60008115159050919050565b61104681611031565b82525050565b6000602082019050611061600083018461103d565b92915050565b6000819050919050565b61107a81611067565b811461108557600080fd5b50565b60008135905061109781611071565b92915050565b6000602082840312156110b3576110b2610fa7565b5b60006110c184828501611088565b91505092915050565b6110d381611067565b82525050565b60006020820190506110ee60008301846110ca565b92915050565b600073ffffffffffffffffffffffffffffffffffffffff82169050919050565b600061111f826110f4565b9050919050565b61112f81611114565b811461113a57600080fd5b50565b60008135905061114c81611126565b92915050565b6000806040838503121561116957611168610fa7565b5b600061117785828601611088565b92505060206111888582860161113d565b9150509250929050565b6000602082840312156111a8576111a7610fa7565b5b60006111b68482850161113d565b91505092915050565b6000819050919050565b6111d2816111bf565b81146111dd57600080fd5b50565b6000813590506111ef816111c9565b92915050565b6000806040838503121561120c5761120b610fa7565b5b600061121a8582860161113d565b925050602061122b858286016111e0565b9150509250929050565b61123e81611114565b82525050565b60006020820190506112596000830184611235565b92915050565b600082825260208201905092915050565b7f416363657373436f6e74726f6c3a2063616e206f6e6c792072656e6f756e636560008201527f20726f6c657320666f722073656c660000000000000000000000000000000000602082015250565b60006112cc602f8361125f565b91506112d782611270565b604082019050919050565b600060208201905081810360008301526112fb816112bf565b9050919050565b7f4e487b7100000000000000000000000000000000000000000000000000000000600052601160045260246000fd5b600061133c826111bf565b91507fffffffffffffffffffffffffffffffffffffffffffffffffffffffffffffffff820361136e5761136d611302565b5b600182019050919050565b7f4e487b7100000000000000000000000000000000000000000000000000000000600052603260045260246000fd5b600081905092915050565b7f416363657373436f6e74726f6c3a206163636f756e7420000000000000000000600082015250565b60006113e96017836113a8565b91506113f4826113b3565b601782019050919050565b600081519050919050565b60005b8381101561142857808201518184015260208101905061140d565b60008484015250505050565b600061143f826113ff565b61144981856113a8565b935061145981856020860161140a565b80840191505092915050565b7f206973206d697373696e6720726f6c6520000000000000000000000000000000600082015250565b600061149b6011836113a8565b91506114a682611465565b601182019050919050565b60006114bc826113dc565b91506114c88285611434565b91506114d38261148e565b91506114df8284611434565b91508190509392505050565b6000601f19601f8301169050919050565b6000611507826113ff565b611511818561125f565b935061152181856020860161140a565b61152a816114eb565b840191505092915050565b6000602082019050818103600083015261154f81846114fc565b905092915050565b6000611562826111bf565b915061156d836111bf565b925082820261157b816111bf565b9150828204841483151761159257611591611302565b5b5092915050565b60006115a4826111bf565b91506115af836111bf565b92508282019050808211156115c7576115c6611302565b5b92915050565b7f4e487b7100000000000000000000000000000000000000000000000000000000600052604160045260246000fd5b6000611607826111bf565b91506000820361161a57611619611302565b5b600182039050919050565b7f537472696e67733a20686578206c656e67746820696e73756666696369656e74600082015250565b600061165b60208361125f565b915061166682611625565b602082019050919050565b6000602082019050818103600083015261168a8161164e565b905091905056fea2646970667358221220cb24c7d57b2d8f0a5d2d86910914756452f6a01d515af5095c166c13b0059f9064736f6c63430008110033a2646970667358221220ae55b76b8e515381390c4e23ad5eac370026f4d2bd37b756106bfcb2d9f981f164736f6c63430008110033",
  "immutableReferences": {},
  "source": "//SPDX-License-Identifier: MIT\npragma solidity >=0.5.16;\n\nimport \"@openzeppelin/contracts/utils/Counters.sol\";\nimport \"@openzeppelin/contracts/token/ERC721/extensions/ERC721URIStorage.sol\";\nimport \"@openzeppelin/contracts/access/AccessControl.sol\";\nimport \"./ProposalManagement.sol\";\n\n\ncontract Factory is ERC721URIStorage, AccessControl{\n\n    bytes32 public constant ADMIN = keccak256(\"ADMIN\");\n    using Counters for Counters.Counter;\n    struct Tender{\n        uint256 id;\n        bool status;\n        string URI;\n        ProposalManagement proposal;\n    }\n\n    Tender[] private tenders;\n    Counters.Counter private _numOfProposal;\n    \n    constructor(string memory name, string memory symbol) ERC721(name, symbol) {\n        _grantRole(ADMIN, msg.sender);\n    }\n\n    function givePermission (address newAdmin) public onlyRole(ADMIN){\n        grantRole(ADMIN, newAdmin);\n    }\n     \n    function openNewTender(string memory tokenURI) public onlyRole(ADMIN) returns(uint){\n\n        ProposalManagement newProposal = new ProposalManagement();\n        newProposal.openTender();\n        tenders.push(Tender(_numOfProposal.current(),true,tokenURI,newProposal));\n        _numOfProposal.increment();\n\n        return _numOfProposal.current()-1;\n    }\n\n    function Proposal(uint256 quote, uint num) public {\n\n        require(tenders[num].status);\n        tenders[num].proposal.sendProposal(msg.sender,quote);\n\n    }\n\n    function assignWinner(uint256 num) public onlyRole(ADMIN) {\n        \n        require(tenders[num].status);\n        tenders[num].proposal.closeTender();\n        tenders[num].status=false;\n        address winner = tenders[num].proposal.proposalEvaluation();\n        _mint(winner, num);\n        _setTokenURI(num, tenders[num].URI);\n    }\n\n    function getTenders() public view returns (Tender[] memory) {\n        Tender[] memory output= new Tender[](_numOfProposal.current());\n        for(uint i = 0; i < _numOfProposal.current(); i++){\n            Tender storage temp = tenders[i];\n            output[i]=temp;\n        }\n\n        return output;\n    }\n\n    function supportsInterface(bytes4 interfaceId) public view virtual override(ERC721, AccessControl) returns (bool) {\n        return super.supportsInterface(interfaceId);\n    }\n}",
  "sourcePath": "/home/daniele/Documenti/truffleReact/truffle/contracts/Factory.sol",
  "compiler": {
    "name": "solc",
    "version": "0.8.17+commit.8df45f5f.Emscripten.clang"
  },
  "schemaVersion": "3.4.11",
  "updatedAt": "2023-01-22T11:09:42.509Z",
  "networkType": "ethereum",
  "devdoc": {
    "kind": "dev",
    "methods": {
      "approve(address,uint256)": {
        "details": "See {IERC721-approve}."
      },
      "balanceOf(address)": {
        "details": "See {IERC721-balanceOf}."
      },
      "getApproved(uint256)": {
        "details": "See {IERC721-getApproved}."
      },
      "getRoleAdmin(bytes32)": {
        "details": "Returns the admin role that controls `role`. See {grantRole} and {revokeRole}. To change a role's admin, use {_setRoleAdmin}."
      },
      "grantRole(bytes32,address)": {
        "details": "Grants `role` to `account`. If `account` had not been already granted `role`, emits a {RoleGranted} event. Requirements: - the caller must have ``role``'s admin role. May emit a {RoleGranted} event."
      },
      "hasRole(bytes32,address)": {
        "details": "Returns `true` if `account` has been granted `role`."
      },
      "isApprovedForAll(address,address)": {
        "details": "See {IERC721-isApprovedForAll}."
      },
      "name()": {
        "details": "See {IERC721Metadata-name}."
      },
      "ownerOf(uint256)": {
        "details": "See {IERC721-ownerOf}."
      },
      "renounceRole(bytes32,address)": {
        "details": "Revokes `role` from the calling account. Roles are often managed via {grantRole} and {revokeRole}: this function's purpose is to provide a mechanism for accounts to lose their privileges if they are compromised (such as when a trusted device is misplaced). If the calling account had been revoked `role`, emits a {RoleRevoked} event. Requirements: - the caller must be `account`. May emit a {RoleRevoked} event."
      },
      "revokeRole(bytes32,address)": {
        "details": "Revokes `role` from `account`. If `account` had been granted `role`, emits a {RoleRevoked} event. Requirements: - the caller must have ``role``'s admin role. May emit a {RoleRevoked} event."
      },
      "safeTransferFrom(address,address,uint256)": {
        "details": "See {IERC721-safeTransferFrom}."
      },
      "safeTransferFrom(address,address,uint256,bytes)": {
        "details": "See {IERC721-safeTransferFrom}."
      },
      "setApprovalForAll(address,bool)": {
        "details": "See {IERC721-setApprovalForAll}."
      },
      "symbol()": {
        "details": "See {IERC721Metadata-symbol}."
      },
      "tokenURI(uint256)": {
        "details": "See {IERC721Metadata-tokenURI}."
      },
      "transferFrom(address,address,uint256)": {
        "details": "See {IERC721-transferFrom}."
      }
    },
    "version": 1
  },
  "userdoc": {
    "kind": "user",
    "methods": {},
    "version": 1
  }
}