{
  "contractName": "NFTColl",
  "abi": [
    {
      "inputs": [
        {
          "internalType": "string",
          "name": "name",
          "type": "string"
        },
        {
          "internalType": "string",
          "name": "symbol",
          "type": "string"
        }
      ],
      "stateMutability": "nonpayable",
      "type": "constructor"
    },
    {
      "inputs": [],
      "name": "FunctionInvalidAtThisStage",
      "type": "error"
    },
    {
      "anonymous": false,
      "inputs": [
        {
          "indexed": true,
          "internalType": "address",
          "name": "owner",
          "type": "address"
        },
        {
          "indexed": true,
          "internalType": "address",
          "name": "approved",
          "type": "address"
        },
        {
          "indexed": true,
          "internalType": "uint256",
          "name": "tokenId",
          "type": "uint256"
        }
      ],
      "name": "Approval",
      "type": "event"
    },
    {
      "anonymous": false,
      "inputs": [
        {
          "indexed": true,
          "internalType": "address",
          "name": "owner",
          "type": "address"
        },
        {
          "indexed": true,
          "internalType": "address",
          "name": "operator",
          "type": "address"
        },
        {
          "indexed": false,
          "internalType": "bool",
          "name": "approved",
          "type": "bool"
        }
      ],
      "name": "ApprovalForAll",
      "type": "event"
    },
    {
      "anonymous": false,
      "inputs": [
        {
          "indexed": true,
          "internalType": "address",
          "name": "previousOwner",
          "type": "address"
        },
        {
          "indexed": true,
          "internalType": "address",
          "name": "newOwner",
          "type": "address"
        }
      ],
      "name": "OwnershipTransferred",
      "type": "event"
    },
    {
      "anonymous": false,
      "inputs": [
        {
          "indexed": true,
          "internalType": "address",
          "name": "from",
          "type": "address"
        },
        {
          "indexed": true,
          "internalType": "address",
          "name": "to",
          "type": "address"
        },
        {
          "indexed": true,
          "internalType": "uint256",
          "name": "tokenId",
          "type": "uint256"
        }
      ],
      "name": "Transfer",
      "type": "event"
    },
    {
      "inputs": [
        {
          "internalType": "address",
          "name": "to",
          "type": "address"
        },
        {
          "internalType": "uint256",
          "name": "tokenId",
          "type": "uint256"
        }
      ],
      "name": "approve",
      "outputs": [],
      "stateMutability": "nonpayable",
      "type": "function"
    },
    {
      "inputs": [
        {
          "internalType": "address",
          "name": "owner",
          "type": "address"
        }
      ],
      "name": "balanceOf",
      "outputs": [
        {
          "internalType": "uint256",
          "name": "",
          "type": "uint256"
        }
      ],
      "stateMutability": "view",
      "type": "function",
      "constant": true
    },
    {
      "inputs": [
        {
          "internalType": "uint256",
          "name": "tokenId",
          "type": "uint256"
        }
      ],
      "name": "getApproved",
      "outputs": [
        {
          "internalType": "address",
          "name": "",
          "type": "address"
        }
      ],
      "stateMutability": "view",
      "type": "function",
      "constant": true
    },
    {
      "inputs": [
        {
          "internalType": "address",
          "name": "owner",
          "type": "address"
        },
        {
          "internalType": "address",
          "name": "operator",
          "type": "address"
        }
      ],
      "name": "isApprovedForAll",
      "outputs": [
        {
          "internalType": "bool",
          "name": "",
          "type": "bool"
        }
      ],
      "stateMutability": "view",
      "type": "function",
      "constant": true
    },
    {
      "inputs": [],
      "name": "name",
      "outputs": [
        {
          "internalType": "string",
          "name": "",
          "type": "string"
        }
      ],
      "stateMutability": "view",
      "type": "function",
      "constant": true
    },
    {
      "inputs": [],
      "name": "owner",
      "outputs": [
        {
          "internalType": "address",
          "name": "",
          "type": "address"
        }
      ],
      "stateMutability": "view",
      "type": "function",
      "constant": true
    },
    {
      "inputs": [
        {
          "internalType": "uint256",
          "name": "tokenId",
          "type": "uint256"
        }
      ],
      "name": "ownerOf",
      "outputs": [
        {
          "internalType": "address",
          "name": "",
          "type": "address"
        }
      ],
      "stateMutability": "view",
      "type": "function",
      "constant": true
    },
    {
      "inputs": [],
      "name": "renounceOwnership",
      "outputs": [],
      "stateMutability": "nonpayable",
      "type": "function"
    },
    {
      "inputs": [
        {
          "internalType": "address",
          "name": "from",
          "type": "address"
        },
        {
          "internalType": "address",
          "name": "to",
          "type": "address"
        },
        {
          "internalType": "uint256",
          "name": "tokenId",
          "type": "uint256"
        }
      ],
      "name": "safeTransferFrom",
      "outputs": [],
      "stateMutability": "nonpayable",
      "type": "function"
    },
    {
      "inputs": [
        {
          "internalType": "address",
          "name": "from",
          "type": "address"
        },
        {
          "internalType": "address",
          "name": "to",
          "type": "address"
        },
        {
          "internalType": "uint256",
          "name": "tokenId",
          "type": "uint256"
        },
        {
          "internalType": "bytes",
          "name": "data",
          "type": "bytes"
        }
      ],
      "name": "safeTransferFrom",
      "outputs": [],
      "stateMutability": "nonpayable",
      "type": "function"
    },
    {
      "inputs": [
        {
          "internalType": "address",
          "name": "operator",
          "type": "address"
        },
        {
          "internalType": "bool",
          "name": "approved",
          "type": "bool"
        }
      ],
      "name": "setApprovalForAll",
      "outputs": [],
      "stateMutability": "nonpayable",
      "type": "function"
    },
    {
      "inputs": [
        {
          "internalType": "bytes4",
          "name": "interfaceId",
          "type": "bytes4"
        }
      ],
      "name": "supportsInterface",
      "outputs": [
        {
          "internalType": "bool",
          "name": "",
          "type": "bool"
        }
      ],
      "stateMutability": "view",
      "type": "function",
      "constant": true
    },
    {
      "inputs": [],
      "name": "symbol",
      "outputs": [
        {
          "internalType": "string",
          "name": "",
          "type": "string"
        }
      ],
      "stateMutability": "view",
      "type": "function",
      "constant": true
    },
    {
      "inputs": [
        {
          "internalType": "uint256",
          "name": "tokenId",
          "type": "uint256"
        }
      ],
      "name": "tokenURI",
      "outputs": [
        {
          "internalType": "string",
          "name": "",
          "type": "string"
        }
      ],
      "stateMutability": "view",
      "type": "function",
      "constant": true
    },
    {
      "inputs": [
        {
          "internalType": "address",
          "name": "from",
          "type": "address"
        },
        {
          "internalType": "address",
          "name": "to",
          "type": "address"
        },
        {
          "internalType": "uint256",
          "name": "tokenId",
          "type": "uint256"
        }
      ],
      "name": "transferFrom",
      "outputs": [],
      "stateMutability": "nonpayable",
      "type": "function"
    },
    {
      "inputs": [
        {
          "internalType": "address",
          "name": "newOwner",
          "type": "address"
        }
      ],
      "name": "transferOwnership",
      "outputs": [],
      "stateMutability": "nonpayable",
      "type": "function"
    },
    {
      "inputs": [
        {
          "internalType": "address",
          "name": "partecipant",
          "type": "address"
        }
      ],
      "name": "sendEth",
      "outputs": [],
      "stateMutability": "payable",
      "type": "function",
      "payable": true
    },
    {
      "inputs": [
        {
          "internalType": "address",
          "name": "win",
          "type": "address"
        },
        {
          "internalType": "uint256",
          "name": "id",
          "type": "uint256"
        },
        {
          "internalType": "string",
          "name": "URI",
          "type": "string"
        },
        {
          "internalType": "uint256",
          "name": "quote",
          "type": "uint256"
        }
      ],
      "name": "Mint",
      "outputs": [],
      "stateMutability": "nonpayable",
      "type": "function"
    },
    {
      "inputs": [],
      "name": "firstTranche",
      "outputs": [],
      "stateMutability": "nonpayable",
      "type": "function"
    },
    {
      "inputs": [],
      "name": "secondTranche",
      "outputs": [],
      "stateMutability": "nonpayable",
      "type": "function"
    },
    {
      "inputs": [
        {
          "internalType": "string",
          "name": "reason",
          "type": "string"
        },
        {
          "internalType": "address",
          "name": "partecipant",
          "type": "address"
        }
      ],
      "name": "lockPayment",
      "outputs": [],
      "stateMutability": "nonpayable",
      "type": "function"
    },
    {
      "inputs": [
        {
          "internalType": "address",
          "name": "partecipant",
          "type": "address"
        }
      ],
      "name": "getQuote",
      "outputs": [
        {
          "internalType": "uint256",
          "name": "",
          "type": "uint256"
        }
      ],
      "stateMutability": "nonpayable",
      "type": "function"
    }
  ],
  "bytecode": "0x60806040523480156200001157600080fd5b50604051620043da380380620043da8339818101604052810190620000379190620002e8565b818181600090816200004a9190620005b8565b5080600190816200005c9190620005b8565b5050506200007f620000736200008760201b60201c565b6200008f60201b60201c565b50506200069f565b600033905090565b6000600760009054906101000a900473ffffffffffffffffffffffffffffffffffffffff16905081600760006101000a81548173ffffffffffffffffffffffffffffffffffffffff021916908373ffffffffffffffffffffffffffffffffffffffff1602179055508173ffffffffffffffffffffffffffffffffffffffff168173ffffffffffffffffffffffffffffffffffffffff167f8be0079c531659141344cd1fd0a4f28419497f9722a3daafe3b4186f6b6457e060405160405180910390a35050565b6000604051905090565b600080fd5b600080fd5b600080fd5b600080fd5b6000601f19601f8301169050919050565b7f4e487b7100000000000000000000000000000000000000000000000000000000600052604160045260246000fd5b620001be8262000173565b810181811067ffffffffffffffff82111715620001e057620001df62000184565b5b80604052505050565b6000620001f562000155565b9050620002038282620001b3565b919050565b600067ffffffffffffffff82111562000226576200022562000184565b5b620002318262000173565b9050602081019050919050565b60005b838110156200025e57808201518184015260208101905062000241565b60008484015250505050565b6000620002816200027b8462000208565b620001e9565b905082815260208101848484011115620002a0576200029f6200016e565b5b620002ad8482856200023e565b509392505050565b600082601f830112620002cd57620002cc62000169565b5b8151620002df8482602086016200026a565b91505092915050565b600080604083850312156200030257620003016200015f565b5b600083015167ffffffffffffffff81111562000323576200032262000164565b5b6200033185828601620002b5565b925050602083015167ffffffffffffffff81111562000355576200035462000164565b5b6200036385828601620002b5565b9150509250929050565b600081519050919050565b7f4e487b7100000000000000000000000000000000000000000000000000000000600052602260045260246000fd5b60006002820490506001821680620003c057607f821691505b602082108103620003d657620003d562000378565b5b50919050565b60008190508160005260206000209050919050565b60006020601f8301049050919050565b600082821b905092915050565b600060088302620004407fffffffffffffffffffffffffffffffffffffffffffffffffffffffffffffffff8262000401565b6200044c868362000401565b95508019841693508086168417925050509392505050565b6000819050919050565b6000819050919050565b600062000499620004936200048d8462000464565b6200046e565b62000464565b9050919050565b6000819050919050565b620004b58362000478565b620004cd620004c482620004a0565b8484546200040e565b825550505050565b600090565b620004e4620004d5565b620004f1818484620004aa565b505050565b5b8181101562000519576200050d600082620004da565b600181019050620004f7565b5050565b601f82111562000568576200053281620003dc565b6200053d84620003f1565b810160208510156200054d578190505b620005656200055c85620003f1565b830182620004f6565b50505b505050565b600082821c905092915050565b60006200058d600019846008026200056d565b1980831691505092915050565b6000620005a883836200057a565b9150826002028217905092915050565b620005c3826200036d565b67ffffffffffffffff811115620005df57620005de62000184565b5b620005eb8254620003a7565b620005f88282856200051d565b600060209050601f8311600181146200063057600084156200061b578287015190505b6200062785826200059a565b86555062000697565b601f1984166200064086620003dc565b60005b828110156200066a5784890151825560018201915060208501945060208101905062000643565b868310156200068a578489015162000686601f8916826200057a565b8355505b6001600288020188555050505b505050505050565b613d2b80620006af6000396000f3fe6080604052600436106101355760003560e01c8063715018a6116100ab578063a22cb4651161006f578063a22cb465146103dd578063b88d4fde14610406578063c23cb92a1461042f578063c87b56dd1461046c578063e985e9c5146104a9578063f2fde38b146104e657610135565b8063715018a61461033d57806376a54c60146103545780638da5cb5b1461037057806392657eb91461039b57806395d89b41146103b257610135565b806342842e0e116100fd57806342842e0e1461023157806347cc6e8d1461025a5780636352211e146102715780636aa1e4cd146102ae578063704496b7146102d757806370a082311461030057610135565b806301ffc9a71461013a57806306fdde0314610177578063081812fc146101a2578063095ea7b3146101df57806323b872dd14610208575b600080fd5b34801561014657600080fd5b50610161600480360381019061015c91906128bf565b61050f565b60405161016e9190612907565b60405180910390f35b34801561018357600080fd5b5061018c6105f1565b60405161019991906129b2565b60405180910390f35b3480156101ae57600080fd5b506101c960048036038101906101c49190612a0a565b610683565b6040516101d69190612a78565b60405180910390f35b3480156101eb57600080fd5b5061020660048036038101906102019190612abf565b6106c9565b005b34801561021457600080fd5b5061022f600480360381019061022a9190612aff565b6107e0565b005b34801561023d57600080fd5b5061025860048036038101906102539190612aff565b610840565b005b34801561026657600080fd5b5061026f610860565b005b34801561027d57600080fd5b5061029860048036038101906102939190612a0a565b610be4565b6040516102a59190612a78565b60405180910390f35b3480156102ba57600080fd5b506102d560048036038101906102d09190612c87565b610c6a565b005b3480156102e357600080fd5b506102fe60048036038101906102f99190612ce3565b610d67565b005b34801561030c57600080fd5b5061032760048036038101906103229190612d66565b610f19565b6040516103349190612da2565b60405180910390f35b34801561034957600080fd5b50610352610fd0565b005b61036e60048036038101906103699190612d66565b610fe4565b005b34801561037c57600080fd5b50610385611093565b6040516103929190612a78565b60405180910390f35b3480156103a757600080fd5b506103b06110bd565b005b3480156103be57600080fd5b506103c7611441565b6040516103d491906129b2565b60405180910390f35b3480156103e957600080fd5b5061040460048036038101906103ff9190612de9565b6114d3565b005b34801561041257600080fd5b5061042d60048036038101906104289190612eca565b6114e9565b005b34801561043b57600080fd5b5061045660048036038101906104519190612d66565b61154b565b6040516104639190612da2565b60405180910390f35b34801561047857600080fd5b50610493600480360381019061048e9190612a0a565b61159c565b6040516104a091906129b2565b60405180910390f35b3480156104b557600080fd5b506104d060048036038101906104cb9190612f4d565b6116ae565b6040516104dd9190612907565b60405180910390f35b3480156104f257600080fd5b5061050d60048036038101906105089190612d66565b611742565b005b60007f80ac58cd000000000000000000000000000000000000000000000000000000007bffffffffffffffffffffffffffffffffffffffffffffffffffffffff1916827bffffffffffffffffffffffffffffffffffffffffffffffffffffffff191614806105da57507f5b5e139f000000000000000000000000000000000000000000000000000000007bffffffffffffffffffffffffffffffffffffffffffffffffffffffff1916827bffffffffffffffffffffffffffffffffffffffffffffffffffffffff1916145b806105ea57506105e9826117c5565b5b9050919050565b60606000805461060090612fbc565b80601f016020809104026020016040519081016040528092919081815260200182805461062c90612fbc565b80156106795780601f1061064e57610100808354040283529160200191610679565b820191906000526020600020905b81548152906001019060200180831161065c57829003601f168201915b5050505050905090565b600061068e8261182f565b6004600083815260200190815260200160002060009054906101000a900473ffffffffffffffffffffffffffffffffffffffff169050919050565b60006106d482610be4565b90508073ffffffffffffffffffffffffffffffffffffffff168373ffffffffffffffffffffffffffffffffffffffff1603610744576040517f08c379a000000000000000000000000000000000000000000000000000000000815260040161073b9061305f565b60405180910390fd5b8073ffffffffffffffffffffffffffffffffffffffff1661076361187a565b73ffffffffffffffffffffffffffffffffffffffff16148061079257506107918161078c61187a565b6116ae565b5b6107d1576040517f08c379a00000000000000000000000000000000000000000000000000000000081526004016107c8906130f1565b60405180910390fd5b6107db8383611882565b505050565b6107f16107eb61187a565b8261193b565b610830576040517f08c379a000000000000000000000000000000000000000000000000000000000815260040161082790613183565b60405180910390fd5b61083b8383836119d0565b505050565b61085b838383604051806020016040528060008152506114e9565b505050565b33624f1a00600e60008373ffffffffffffffffffffffffffffffffffffffff1673ffffffffffffffffffffffffffffffffffffffff168152602001908152602001600020546108af91906131d2565b42116108e7576040517fa264a95400000000000000000000000000000000000000000000000000000000815260040160405180910390fd5b60011515600d60003373ffffffffffffffffffffffffffffffffffffffff1673ffffffffffffffffffffffffffffffffffffffff16815260200190815260200160002060009054906101000a900460ff1615151461094457600080fd5b60001515600b60003373ffffffffffffffffffffffffffffffffffffffff1673ffffffffffffffffffffffffffffffffffffffff16815260200190815260200160002060009054906101000a900460ff161515146109d7576040517f08c379a00000000000000000000000000000000000000000000000000000000081526004016109ce90613252565b60405180910390fd5b60001515600c60003373ffffffffffffffffffffffffffffffffffffffff1673ffffffffffffffffffffffffffffffffffffffff16815260200190815260200160002060009054906101000a900460ff16151514600860003373ffffffffffffffffffffffffffffffffffffffff1673ffffffffffffffffffffffffffffffffffffffff16815260200190815260200160002090610aab576040517f08c379a0000000000000000000000000000000000000000000000000000000008152600401610aa2919061330b565b60405180910390fd5b506001600b60003373ffffffffffffffffffffffffffffffffffffffff1673ffffffffffffffffffffffffffffffffffffffff16815260200190815260200160002060006101000a81548160ff0219169083151502179055503373ffffffffffffffffffffffffffffffffffffffff166108fc6002600960003373ffffffffffffffffffffffffffffffffffffffff1673ffffffffffffffffffffffffffffffffffffffff16815260200190815260200160002054610b6a919061335c565b9081150290604051600060405180830381858888f19350505050610be1576000600b60003373ffffffffffffffffffffffffffffffffffffffff1673ffffffffffffffffffffffffffffffffffffffff16815260200190815260200160002060006101000a81548160ff0219169083151502179055505b50565b600080610bf083611cc9565b9050600073ffffffffffffffffffffffffffffffffffffffff168173ffffffffffffffffffffffffffffffffffffffff1603610c61576040517f08c379a0000000000000000000000000000000000000000000000000000000008152600401610c58906133d9565b60405180910390fd5b80915050919050565b610c72611d06565b600c60008273ffffffffffffffffffffffffffffffffffffffff1673ffffffffffffffffffffffffffffffffffffffff16815260200190815260200160002060009054906101000a900460ff1615600c60008373ffffffffffffffffffffffffffffffffffffffff1673ffffffffffffffffffffffffffffffffffffffff16815260200190815260200160002060006101000a81548160ff02191690831515021790555081600860008373ffffffffffffffffffffffffffffffffffffffff1673ffffffffffffffffffffffffffffffffffffffff1681526020019081526020016000209081610d629190613590565b505050565b610d6f611d06565b610d798484611d84565b610d838383611fa1565b42600e60008673ffffffffffffffffffffffffffffffffffffffff1673ffffffffffffffffffffffffffffffffffffffff1681526020019081526020016000208190555080600960008673ffffffffffffffffffffffffffffffffffffffff1673ffffffffffffffffffffffffffffffffffffffff168152602001908152602001600020819055506000600a60008673ffffffffffffffffffffffffffffffffffffffff1673ffffffffffffffffffffffffffffffffffffffff16815260200190815260200160002060006101000a81548160ff0219169083151502179055506000600b60008673ffffffffffffffffffffffffffffffffffffffff1673ffffffffffffffffffffffffffffffffffffffff16815260200190815260200160002060006101000a81548160ff0219169083151502179055506000600c60008673ffffffffffffffffffffffffffffffffffffffff1673ffffffffffffffffffffffffffffffffffffffff16815260200190815260200160002060006101000a81548160ff02191690831515021790555050505050565b60008073ffffffffffffffffffffffffffffffffffffffff168273ffffffffffffffffffffffffffffffffffffffff1603610f89576040517f08c379a0000000000000000000000000000000000000000000000000000000008152600401610f80906136d4565b60405180910390fd5b600360008373ffffffffffffffffffffffffffffffffffffffff1673ffffffffffffffffffffffffffffffffffffffff168152602001908152602001600020549050919050565b610fd8611d06565b610fe2600061200e565b565b610fec611d06565b600960008273ffffffffffffffffffffffffffffffffffffffff1673ffffffffffffffffffffffffffffffffffffffff1681526020019081526020016000205434101561103857600080fd5b6001600d60008373ffffffffffffffffffffffffffffffffffffffff1673ffffffffffffffffffffffffffffffffffffffff16815260200190815260200160002060006101000a81548160ff02191690831515021790555050565b6000600760009054906101000a900473ffffffffffffffffffffffffffffffffffffffff16905090565b3362278d00600e60008373ffffffffffffffffffffffffffffffffffffffff1673ffffffffffffffffffffffffffffffffffffffff1681526020019081526020016000205461110c91906131d2565b4211611144576040517fa264a95400000000000000000000000000000000000000000000000000000000815260040160405180910390fd5b60011515600d60003373ffffffffffffffffffffffffffffffffffffffff1673ffffffffffffffffffffffffffffffffffffffff16815260200190815260200160002060009054906101000a900460ff161515146111a157600080fd5b60001515600a60003373ffffffffffffffffffffffffffffffffffffffff1673ffffffffffffffffffffffffffffffffffffffff16815260200190815260200160002060009054906101000a900460ff16151514611234576040517f08c379a000000000000000000000000000000000000000000000000000000000815260040161122b90613252565b60405180910390fd5b60001515600c60003373ffffffffffffffffffffffffffffffffffffffff1673ffffffffffffffffffffffffffffffffffffffff16815260200190815260200160002060009054906101000a900460ff16151514600860003373ffffffffffffffffffffffffffffffffffffffff1673ffffffffffffffffffffffffffffffffffffffff16815260200190815260200160002090611308576040517f08c379a00000000000000000000000000000000000000000000000000000000081526004016112ff919061330b565b60405180910390fd5b506001600a60003373ffffffffffffffffffffffffffffffffffffffff1673ffffffffffffffffffffffffffffffffffffffff16815260200190815260200160002060006101000a81548160ff0219169083151502179055503373ffffffffffffffffffffffffffffffffffffffff166108fc6002600960003373ffffffffffffffffffffffffffffffffffffffff1673ffffffffffffffffffffffffffffffffffffffff168152602001908152602001600020546113c7919061335c565b9081150290604051600060405180830381858888f1935050505061143e576000600a60003373ffffffffffffffffffffffffffffffffffffffff1673ffffffffffffffffffffffffffffffffffffffff16815260200190815260200160002060006101000a81548160ff0219169083151502179055505b50565b60606001805461145090612fbc565b80601f016020809104026020016040519081016040528092919081815260200182805461147c90612fbc565b80156114c95780601f1061149e576101008083540402835291602001916114c9565b820191906000526020600020905b8154815290600101906020018083116114ac57829003601f168201915b5050505050905090565b6114e56114de61187a565b83836120d4565b5050565b6114fa6114f461187a565b8361193b565b611539576040517f08c379a000000000000000000000000000000000000000000000000000000000815260040161153090613183565b60405180910390fd5b61154584848484612240565b50505050565b6000611555611d06565b600960008373ffffffffffffffffffffffffffffffffffffffff1673ffffffffffffffffffffffffffffffffffffffff168152602001908152602001600020549050919050565b60606115a78261182f565b60006006600084815260200190815260200160002080546115c790612fbc565b80601f01602080910402602001604051908101604052809291908181526020018280546115f390612fbc565b80156116405780601f1061161557610100808354040283529160200191611640565b820191906000526020600020905b81548152906001019060200180831161162357829003601f168201915b50505050509050600061165161229c565b905060008151036116665781925050506116a9565b60008251111561169b578082604051602001611683929190613730565b604051602081830303815290604052925050506116a9565b6116a4846122b3565b925050505b919050565b6000600560008473ffffffffffffffffffffffffffffffffffffffff1673ffffffffffffffffffffffffffffffffffffffff16815260200190815260200160002060008373ffffffffffffffffffffffffffffffffffffffff1673ffffffffffffffffffffffffffffffffffffffff16815260200190815260200160002060009054906101000a900460ff16905092915050565b61174a611d06565b600073ffffffffffffffffffffffffffffffffffffffff168173ffffffffffffffffffffffffffffffffffffffff16036117b9576040517f08c379a00000000000000000000000000000000000000000000000000000000081526004016117b0906137c6565b60405180910390fd5b6117c28161200e565b50565b60007f01ffc9a7000000000000000000000000000000000000000000000000000000007bffffffffffffffffffffffffffffffffffffffffffffffffffffffff1916827bffffffffffffffffffffffffffffffffffffffffffffffffffffffff1916149050919050565b6118388161231b565b611877576040517f08c379a000000000000000000000000000000000000000000000000000000000815260040161186e906133d9565b60405180910390fd5b50565b600033905090565b816004600083815260200190815260200160002060006101000a81548173ffffffffffffffffffffffffffffffffffffffff021916908373ffffffffffffffffffffffffffffffffffffffff160217905550808273ffffffffffffffffffffffffffffffffffffffff166118f583610be4565b73ffffffffffffffffffffffffffffffffffffffff167f8c5be1e5ebec7d5bd14f71427d1e84f3dd0314c0f7b2291e5b200ac8c7c3b92560405160405180910390a45050565b60008061194783610be4565b90508073ffffffffffffffffffffffffffffffffffffffff168473ffffffffffffffffffffffffffffffffffffffff161480611989575061198881856116ae565b5b806119c757508373ffffffffffffffffffffffffffffffffffffffff166119af84610683565b73ffffffffffffffffffffffffffffffffffffffff16145b91505092915050565b8273ffffffffffffffffffffffffffffffffffffffff166119f082610be4565b73ffffffffffffffffffffffffffffffffffffffff1614611a46576040517f08c379a0000000000000000000000000000000000000000000000000000000008152600401611a3d90613858565b60405180910390fd5b600073ffffffffffffffffffffffffffffffffffffffff168273ffffffffffffffffffffffffffffffffffffffff1603611ab5576040517f08c379a0000000000000000000000000000000000000000000000000000000008152600401611aac906138ea565b60405180910390fd5b611ac2838383600161235c565b8273ffffffffffffffffffffffffffffffffffffffff16611ae282610be4565b73ffffffffffffffffffffffffffffffffffffffff1614611b38576040517f08c379a0000000000000000000000000000000000000000000000000000000008152600401611b2f90613858565b60405180910390fd5b6004600082815260200190815260200160002060006101000a81549073ffffffffffffffffffffffffffffffffffffffff02191690556001600360008573ffffffffffffffffffffffffffffffffffffffff1673ffffffffffffffffffffffffffffffffffffffff168152602001908152602001600020600082825403925050819055506001600360008473ffffffffffffffffffffffffffffffffffffffff1673ffffffffffffffffffffffffffffffffffffffff16815260200190815260200160002060008282540192505081905550816002600083815260200190815260200160002060006101000a81548173ffffffffffffffffffffffffffffffffffffffff021916908373ffffffffffffffffffffffffffffffffffffffff160217905550808273ffffffffffffffffffffffffffffffffffffffff168473ffffffffffffffffffffffffffffffffffffffff167fddf252ad1be2c89b69c2b068fc378daa952ba7f163c4a11628f55a4df523b3ef60405160405180910390a4611cc48383836001612482565b505050565b60006002600083815260200190815260200160002060009054906101000a900473ffffffffffffffffffffffffffffffffffffffff169050919050565b611d0e61187a565b73ffffffffffffffffffffffffffffffffffffffff16611d2c611093565b73ffffffffffffffffffffffffffffffffffffffff1614611d82576040517f08c379a0000000000000000000000000000000000000000000000000000000008152600401611d7990613956565b60405180910390fd5b565b600073ffffffffffffffffffffffffffffffffffffffff168273ffffffffffffffffffffffffffffffffffffffff1603611df3576040517f08c379a0000000000000000000000000000000000000000000000000000000008152600401611dea906139c2565b60405180910390fd5b611dfc8161231b565b15611e3c576040517f08c379a0000000000000000000000000000000000000000000000000000000008152600401611e3390613a2e565b60405180910390fd5b611e4a60008383600161235c565b611e538161231b565b15611e93576040517f08c379a0000000000000000000000000000000000000000000000000000000008152600401611e8a90613a2e565b60405180910390fd5b6001600360008473ffffffffffffffffffffffffffffffffffffffff1673ffffffffffffffffffffffffffffffffffffffff16815260200190815260200160002060008282540192505081905550816002600083815260200190815260200160002060006101000a81548173ffffffffffffffffffffffffffffffffffffffff021916908373ffffffffffffffffffffffffffffffffffffffff160217905550808273ffffffffffffffffffffffffffffffffffffffff16600073ffffffffffffffffffffffffffffffffffffffff167fddf252ad1be2c89b69c2b068fc378daa952ba7f163c4a11628f55a4df523b3ef60405160405180910390a4611f9d600083836001612482565b5050565b611faa8261231b565b611fe9576040517f08c379a0000000000000000000000000000000000000000000000000000000008152600401611fe090613ac0565b60405180910390fd5b806006600084815260200190815260200160002090816120099190613590565b505050565b6000600760009054906101000a900473ffffffffffffffffffffffffffffffffffffffff16905081600760006101000a81548173ffffffffffffffffffffffffffffffffffffffff021916908373ffffffffffffffffffffffffffffffffffffffff1602179055508173ffffffffffffffffffffffffffffffffffffffff168173ffffffffffffffffffffffffffffffffffffffff167f8be0079c531659141344cd1fd0a4f28419497f9722a3daafe3b4186f6b6457e060405160405180910390a35050565b8173ffffffffffffffffffffffffffffffffffffffff168373ffffffffffffffffffffffffffffffffffffffff1603612142576040517f08c379a000000000000000000000000000000000000000000000000000000000815260040161213990613b2c565b60405180910390fd5b80600560008573ffffffffffffffffffffffffffffffffffffffff1673ffffffffffffffffffffffffffffffffffffffff16815260200190815260200160002060008473ffffffffffffffffffffffffffffffffffffffff1673ffffffffffffffffffffffffffffffffffffffff16815260200190815260200160002060006101000a81548160ff0219169083151502179055508173ffffffffffffffffffffffffffffffffffffffff168373ffffffffffffffffffffffffffffffffffffffff167f17307eab39ab6107e8899845ad3d59bd9653f200f220920489ca2b5937696c31836040516122339190612907565b60405180910390a3505050565b61224b8484846119d0565b61225784848484612488565b612296576040517f08c379a000000000000000000000000000000000000000000000000000000000815260040161228d90613bbe565b60405180910390fd5b50505050565b606060405180602001604052806000815250905090565b60606122be8261182f565b60006122c861229c565b905060008151116122e85760405180602001604052806000815250612313565b806122f28461260f565b604051602001612303929190613730565b6040516020818303038152906040525b915050919050565b60008073ffffffffffffffffffffffffffffffffffffffff1661233d83611cc9565b73ffffffffffffffffffffffffffffffffffffffff1614159050919050565b600181111561247c57600073ffffffffffffffffffffffffffffffffffffffff168473ffffffffffffffffffffffffffffffffffffffff16146123f05780600360008673ffffffffffffffffffffffffffffffffffffffff1673ffffffffffffffffffffffffffffffffffffffff16815260200190815260200160002060008282546123e89190613bde565b925050819055505b600073ffffffffffffffffffffffffffffffffffffffff168373ffffffffffffffffffffffffffffffffffffffff161461247b5780600360008573ffffffffffffffffffffffffffffffffffffffff1673ffffffffffffffffffffffffffffffffffffffff168152602001908152602001600020600082825461247391906131d2565b925050819055505b5b50505050565b50505050565b60006124a98473ffffffffffffffffffffffffffffffffffffffff166126dd565b15612602578373ffffffffffffffffffffffffffffffffffffffff1663150b7a026124d261187a565b8786866040518563ffffffff1660e01b81526004016124f49493929190613c67565b6020604051808303816000875af192505050801561253057506040513d601f19601f8201168201806040525081019061252d9190613cc8565b60015b6125b2573d8060008114612560576040519150601f19603f3d011682016040523d82523d6000602084013e612565565b606091505b5060008151036125aa576040517f08c379a00000000000000000000000000000000000000000000000000000000081526004016125a190613bbe565b60405180910390fd5b805181602001fd5b63150b7a0260e01b7bffffffffffffffffffffffffffffffffffffffffffffffffffffffff1916817bffffffffffffffffffffffffffffffffffffffffffffffffffffffff191614915050612607565b600190505b949350505050565b60606000600161261e84612700565b01905060008167ffffffffffffffff81111561263d5761263c612b5c565b5b6040519080825280601f01601f19166020018201604052801561266f5781602001600182028036833780820191505090505b509050600082602001820190505b6001156126d2578080600190039150507f3031323334353637383961626364656600000000000000000000000000000000600a86061a8153600a85816126c6576126c561332d565b5b0494506000850361267d575b819350505050919050565b6000808273ffffffffffffffffffffffffffffffffffffffff163b119050919050565b600080600090507a184f03e93ff9f4daa797ed6e38ed64bf6a1f010000000000000000831061275e577a184f03e93ff9f4daa797ed6e38ed64bf6a1f01000000000000000083816127545761275361332d565b5b0492506040810190505b6d04ee2d6d415b85acef8100000000831061279b576d04ee2d6d415b85acef810000000083816127915761279061332d565b5b0492506020810190505b662386f26fc1000083106127ca57662386f26fc1000083816127c0576127bf61332d565b5b0492506010810190505b6305f5e10083106127f3576305f5e10083816127e9576127e861332d565b5b0492506008810190505b612710831061281857612710838161280e5761280d61332d565b5b0492506004810190505b6064831061283b57606483816128315761283061332d565b5b0492506002810190505b600a831061284a576001810190505b80915050919050565b6000604051905090565b600080fd5b600080fd5b60007fffffffff0000000000000000000000000000000000000000000000000000000082169050919050565b61289c81612867565b81146128a757600080fd5b50565b6000813590506128b981612893565b92915050565b6000602082840312156128d5576128d461285d565b5b60006128e3848285016128aa565b91505092915050565b60008115159050919050565b612901816128ec565b82525050565b600060208201905061291c60008301846128f8565b92915050565b600081519050919050565b600082825260208201905092915050565b60005b8381101561295c578082015181840152602081019050612941565b60008484015250505050565b6000601f19601f8301169050919050565b600061298482612922565b61298e818561292d565b935061299e81856020860161293e565b6129a781612968565b840191505092915050565b600060208201905081810360008301526129cc8184612979565b905092915050565b6000819050919050565b6129e7816129d4565b81146129f257600080fd5b50565b600081359050612a04816129de565b92915050565b600060208284031215612a2057612a1f61285d565b5b6000612a2e848285016129f5565b91505092915050565b600073ffffffffffffffffffffffffffffffffffffffff82169050919050565b6000612a6282612a37565b9050919050565b612a7281612a57565b82525050565b6000602082019050612a8d6000830184612a69565b92915050565b612a9c81612a57565b8114612aa757600080fd5b50565b600081359050612ab981612a93565b92915050565b60008060408385031215612ad657612ad561285d565b5b6000612ae485828601612aaa565b9250506020612af5858286016129f5565b9150509250929050565b600080600060608486031215612b1857612b1761285d565b5b6000612b2686828701612aaa565b9350506020612b3786828701612aaa565b9250506040612b48868287016129f5565b9150509250925092565b600080fd5b600080fd5b7f4e487b7100000000000000000000000000000000000000000000000000000000600052604160045260246000fd5b612b9482612968565b810181811067ffffffffffffffff82111715612bb357612bb2612b5c565b5b80604052505050565b6000612bc6612853565b9050612bd28282612b8b565b919050565b600067ffffffffffffffff821115612bf257612bf1612b5c565b5b612bfb82612968565b9050602081019050919050565b82818337600083830152505050565b6000612c2a612c2584612bd7565b612bbc565b905082815260208101848484011115612c4657612c45612b57565b5b612c51848285612c08565b509392505050565b600082601f830112612c6e57612c6d612b52565b5b8135612c7e848260208601612c17565b91505092915050565b60008060408385031215612c9e57612c9d61285d565b5b600083013567ffffffffffffffff811115612cbc57612cbb612862565b5b612cc885828601612c59565b9250506020612cd985828601612aaa565b9150509250929050565b60008060008060808587031215612cfd57612cfc61285d565b5b6000612d0b87828801612aaa565b9450506020612d1c878288016129f5565b935050604085013567ffffffffffffffff811115612d3d57612d3c612862565b5b612d4987828801612c59565b9250506060612d5a878288016129f5565b91505092959194509250565b600060208284031215612d7c57612d7b61285d565b5b6000612d8a84828501612aaa565b91505092915050565b612d9c816129d4565b82525050565b6000602082019050612db76000830184612d93565b92915050565b612dc6816128ec565b8114612dd157600080fd5b50565b600081359050612de381612dbd565b92915050565b60008060408385031215612e0057612dff61285d565b5b6000612e0e85828601612aaa565b9250506020612e1f85828601612dd4565b9150509250929050565b600067ffffffffffffffff821115612e4457612e43612b5c565b5b612e4d82612968565b9050602081019050919050565b6000612e6d612e6884612e29565b612bbc565b905082815260208101848484011115612e8957612e88612b57565b5b612e94848285612c08565b509392505050565b600082601f830112612eb157612eb0612b52565b5b8135612ec1848260208601612e5a565b91505092915050565b60008060008060808587031215612ee457612ee361285d565b5b6000612ef287828801612aaa565b9450506020612f0387828801612aaa565b9350506040612f14878288016129f5565b925050606085013567ffffffffffffffff811115612f3557612f34612862565b5b612f4187828801612e9c565b91505092959194509250565b60008060408385031215612f6457612f6361285d565b5b6000612f7285828601612aaa565b9250506020612f8385828601612aaa565b9150509250929050565b7f4e487b7100000000000000000000000000000000000000000000000000000000600052602260045260246000fd5b60006002820490506001821680612fd457607f821691505b602082108103612fe757612fe6612f8d565b5b50919050565b7f4552433732313a20617070726f76616c20746f2063757272656e74206f776e6560008201527f7200000000000000000000000000000000000000000000000000000000000000602082015250565b600061304960218361292d565b915061305482612fed565b604082019050919050565b600060208201905081810360008301526130788161303c565b9050919050565b7f4552433732313a20617070726f76652063616c6c6572206973206e6f7420746f60008201527f6b656e206f776e6572206f7220617070726f76656420666f7220616c6c000000602082015250565b60006130db603d8361292d565b91506130e68261307f565b604082019050919050565b6000602082019050818103600083015261310a816130ce565b9050919050565b7f4552433732313a2063616c6c6572206973206e6f7420746f6b656e206f776e6560008201527f72206f7220617070726f76656400000000000000000000000000000000000000602082015250565b600061316d602d8361292d565b915061317882613111565b604082019050919050565b6000602082019050818103600083015261319c81613160565b9050919050565b7f4e487b7100000000000000000000000000000000000000000000000000000000600052601160045260246000fd5b60006131dd826129d4565b91506131e8836129d4565b9250828201905080821115613200576131ff6131a3565b5b92915050565b7f7061796d656e7420616c72656164792072656365697665640000000000000000600082015250565b600061323c60188361292d565b915061324782613206565b602082019050919050565b6000602082019050818103600083015261326b8161322f565b9050919050565b60008190508160005260206000209050919050565b6000815461329481612fbc565b61329e818661292d565b945060018216600081146132b957600181146132cf57613302565b60ff198316865281151560200286019350613302565b6132d885613272565b60005b838110156132fa578154818901526001820191506020810190506132db565b808801955050505b50505092915050565b600060208201905081810360008301526133258184613287565b905092915050565b7f4e487b7100000000000000000000000000000000000000000000000000000000600052601260045260246000fd5b6000613367826129d4565b9150613372836129d4565b9250826133825761338161332d565b5b828204905092915050565b7f4552433732313a20696e76616c696420746f6b656e2049440000000000000000600082015250565b60006133c360188361292d565b91506133ce8261338d565b602082019050919050565b600060208201905081810360008301526133f2816133b6565b9050919050565b60006020601f8301049050919050565b600082821b905092915050565b6000600883026134467fffffffffffffffffffffffffffffffffffffffffffffffffffffffffffffffff82613409565b6134508683613409565b95508019841693508086168417925050509392505050565b6000819050919050565b600061348d613488613483846129d4565b613468565b6129d4565b9050919050565b6000819050919050565b6134a783613472565b6134bb6134b382613494565b848454613416565b825550505050565b600090565b6134d06134c3565b6134db81848461349e565b505050565b5b818110156134ff576134f46000826134c8565b6001810190506134e1565b5050565b601f8211156135445761351581613272565b61351e846133f9565b8101602085101561352d578190505b613541613539856133f9565b8301826134e0565b50505b505050565b600082821c905092915050565b600061356760001984600802613549565b1980831691505092915050565b60006135808383613556565b9150826002028217905092915050565b61359982612922565b67ffffffffffffffff8111156135b2576135b1612b5c565b5b6135bc8254612fbc565b6135c7828285613503565b600060209050601f8311600181146135fa57600084156135e8578287015190505b6135f28582613574565b86555061365a565b601f19841661360886613272565b60005b828110156136305784890151825560018201915060208501945060208101905061360b565b8683101561364d5784890151613649601f891682613556565b8355505b6001600288020188555050505b505050505050565b7f4552433732313a2061646472657373207a65726f206973206e6f74206120766160008201527f6c6964206f776e65720000000000000000000000000000000000000000000000602082015250565b60006136be60298361292d565b91506136c982613662565b604082019050919050565b600060208201905081810360008301526136ed816136b1565b9050919050565b600081905092915050565b600061370a82612922565b61371481856136f4565b935061372481856020860161293e565b80840191505092915050565b600061373c82856136ff565b915061374882846136ff565b91508190509392505050565b7f4f776e61626c653a206e6577206f776e657220697320746865207a65726f206160008201527f6464726573730000000000000000000000000000000000000000000000000000602082015250565b60006137b060268361292d565b91506137bb82613754565b604082019050919050565b600060208201905081810360008301526137df816137a3565b9050919050565b7f4552433732313a207472616e736665722066726f6d20696e636f72726563742060008201527f6f776e6572000000000000000000000000000000000000000000000000000000602082015250565b600061384260258361292d565b915061384d826137e6565b604082019050919050565b6000602082019050818103600083015261387181613835565b9050919050565b7f4552433732313a207472616e7366657220746f20746865207a65726f2061646460008201527f7265737300000000000000000000000000000000000000000000000000000000602082015250565b60006138d460248361292d565b91506138df82613878565b604082019050919050565b60006020820190508181036000830152613903816138c7565b9050919050565b7f4f776e61626c653a2063616c6c6572206973206e6f7420746865206f776e6572600082015250565b600061394060208361292d565b915061394b8261390a565b602082019050919050565b6000602082019050818103600083015261396f81613933565b9050919050565b7f4552433732313a206d696e7420746f20746865207a65726f2061646472657373600082015250565b60006139ac60208361292d565b91506139b782613976565b602082019050919050565b600060208201905081810360008301526139db8161399f565b9050919050565b7f4552433732313a20746f6b656e20616c7265616479206d696e74656400000000600082015250565b6000613a18601c8361292d565b9150613a23826139e2565b602082019050919050565b60006020820190508181036000830152613a4781613a0b565b9050919050565b7f45524337323155524953746f726167653a2055524920736574206f66206e6f6e60008201527f6578697374656e7420746f6b656e000000000000000000000000000000000000602082015250565b6000613aaa602e8361292d565b9150613ab582613a4e565b604082019050919050565b60006020820190508181036000830152613ad981613a9d565b9050919050565b7f4552433732313a20617070726f766520746f2063616c6c657200000000000000600082015250565b6000613b1660198361292d565b9150613b2182613ae0565b602082019050919050565b60006020820190508181036000830152613b4581613b09565b9050919050565b7f4552433732313a207472616e7366657220746f206e6f6e20455243373231526560008201527f63656976657220696d706c656d656e7465720000000000000000000000000000602082015250565b6000613ba860328361292d565b9150613bb382613b4c565b604082019050919050565b60006020820190508181036000830152613bd781613b9b565b9050919050565b6000613be9826129d4565b9150613bf4836129d4565b9250828203905081811115613c0c57613c0b6131a3565b5b92915050565b600081519050919050565b600082825260208201905092915050565b6000613c3982613c12565b613c438185613c1d565b9350613c5381856020860161293e565b613c5c81612968565b840191505092915050565b6000608082019050613c7c6000830187612a69565b613c896020830186612a69565b613c966040830185612d93565b8181036060830152613ca88184613c2e565b905095945050505050565b600081519050613cc281612893565b92915050565b600060208284031215613cde57613cdd61285d565b5b6000613cec84828501613cb3565b9150509291505056fea2646970667358221220a072838324a5beed1edf15e0cffc0215cab05b27cbef4f96551be3d6a7000f8b64736f6c63430008110033",
  "immutableReferences": {},
  "source": "//SPDX-License-Identifier: MIT\npragma solidity >=0.8.8;\n\nimport \"@openzeppelin/contracts/token/ERC721/extensions/ERC721URIStorage.sol\";\nimport \"@openzeppelin/contracts/access/Ownable.sol\";\n\ncontract NFTColl is ERC721URIStorage, Ownable{\n    mapping(address=>string) private motivation;\n\n    //payment management\n    mapping(address => uint) private quotes;\n    mapping(address => bool) private firstTrancheStatus;\n    mapping(address => bool) private secondTrancheStatus;\n    mapping(address => bool) private lockedPayment;\n    mapping(address => bool) private payedByOwner;\n    //Time indicators\n    mapping(address => uint) private winDates;\n    \n    // tranche cannot be collected at this time.\n\terror FunctionInvalidAtThisStage();\n    \n    //Time modifier\n\tmodifier firstMonth(address _partecipant) {\n\tif (block.timestamp <= winDates[_partecipant] + (30 * 1 days))\n\t    revert FunctionInvalidAtThisStage();\n\t_;\n\t}\n    \n    modifier secondMonth(address _partecipant) {\n\tif (block.timestamp <= winDates[_partecipant] + (60 * 1 days))\n\t    revert FunctionInvalidAtThisStage();\n\t_;\n\t}\n\n    constructor(string memory name, string memory symbol) ERC721(name, symbol) {\n    }\n\n    function sendEth(address partecipant) public payable onlyOwner{\n        require(msg.value>=quotes[partecipant]);\n        payedByOwner[partecipant]=true;\n\n    }\n\n    function Mint(address win, uint id, string memory URI, uint256 quote) public onlyOwner{\n        _mint(win, id);\n        _setTokenURI(id, URI);\n        winDates[win]= block.timestamp;\n        quotes[win]=quote;\n        firstTrancheStatus[win]=false;\n        secondTrancheStatus[win]=false;\n        lockedPayment[win]=false;\n    }\n\n    function firstTranche () public firstMonth(msg.sender){\n        //checks\n        require(payedByOwner[msg.sender]==true);\n        require(firstTrancheStatus[msg.sender]==false, \"payment already received\");\n        require (lockedPayment[msg.sender]==false, motivation[msg.sender]);\n\n        //effects\n        //avoid re-entrancy attack\n        firstTrancheStatus[msg.sender]=true;\n        if(!payable(msg.sender).send(quotes[msg.sender]/2)){\n           firstTrancheStatus[msg.sender]=false; \n        }\n        \n    }\n\n    function secondTranche () public secondMonth(msg.sender){\n        //checks\n        require(payedByOwner[msg.sender]==true);\n        require(secondTrancheStatus[msg.sender]==false, \"payment already received\");\n        require (lockedPayment[msg.sender]==false, motivation[msg.sender]);\n\n        //effects\n        //svoid re-entrancy attack\n        secondTrancheStatus[msg.sender]=true;\n        if(!payable(msg.sender).send(quotes[msg.sender]/2)){\n            secondTrancheStatus[msg.sender]=false;\n        }\n        \n    }\n\n    function lockPayment(string memory reason, address partecipant)public onlyOwner{\n        \n        lockedPayment[partecipant]=!lockedPayment[partecipant];\n        motivation[partecipant]=reason;\n\n\n    }\n    \n    function getQuote(address partecipant) public onlyOwner returns(uint256){\n        return quotes[partecipant];\n\n    }\n    \n\n}\n",
  "sourcePath": "/home/daniele/Documenti/truffleReact/truffle/contracts/NFTColl.sol",
  "compiler": {
    "name": "solc",
    "version": "0.8.17+commit.8df45f5f.Emscripten.clang"
  },
  "schemaVersion": "3.4.11",
  "updatedAt": "2023-02-01T16:01:14.797Z",
  "networkType": "ethereum",
  "devdoc": {
    "kind": "dev",
    "methods": {
      "approve(address,uint256)": {
        "details": "See {IERC721-approve}."
      },
      "balanceOf(address)": {
        "details": "See {IERC721-balanceOf}."
      },
      "getApproved(uint256)": {
        "details": "See {IERC721-getApproved}."
      },
      "isApprovedForAll(address,address)": {
        "details": "See {IERC721-isApprovedForAll}."
      },
      "name()": {
        "details": "See {IERC721Metadata-name}."
      },
      "owner()": {
        "details": "Returns the address of the current owner."
      },
      "ownerOf(uint256)": {
        "details": "See {IERC721-ownerOf}."
      },
      "renounceOwnership()": {
        "details": "Leaves the contract without owner. It will not be possible to call `onlyOwner` functions anymore. Can only be called by the current owner. NOTE: Renouncing ownership will leave the contract without an owner, thereby removing any functionality that is only available to the owner."
      },
      "safeTransferFrom(address,address,uint256)": {
        "details": "See {IERC721-safeTransferFrom}."
      },
      "safeTransferFrom(address,address,uint256,bytes)": {
        "details": "See {IERC721-safeTransferFrom}."
      },
      "setApprovalForAll(address,bool)": {
        "details": "See {IERC721-setApprovalForAll}."
      },
      "supportsInterface(bytes4)": {
        "details": "See {IERC165-supportsInterface}."
      },
      "symbol()": {
        "details": "See {IERC721Metadata-symbol}."
      },
      "tokenURI(uint256)": {
        "details": "See {IERC721Metadata-tokenURI}."
      },
      "transferFrom(address,address,uint256)": {
        "details": "See {IERC721-transferFrom}."
      },
      "transferOwnership(address)": {
        "details": "Transfers ownership of the contract to a new account (`newOwner`). Can only be called by the current owner."
      }
    },
    "version": 1
  },
  "userdoc": {
    "kind": "user",
    "methods": {},
    "version": 1
  }
}