{
  "contractName": "NFTColl",
  "abi": [
    {
      "inputs": [
        {
          "internalType": "string",
          "name": "name",
          "type": "string"
        },
        {
          "internalType": "string",
          "name": "symbol",
          "type": "string"
        }
      ],
      "stateMutability": "nonpayable",
      "type": "constructor"
    },
    {
      "anonymous": false,
      "inputs": [
        {
          "indexed": true,
          "internalType": "address",
          "name": "owner",
          "type": "address"
        },
        {
          "indexed": true,
          "internalType": "address",
          "name": "approved",
          "type": "address"
        },
        {
          "indexed": true,
          "internalType": "uint256",
          "name": "tokenId",
          "type": "uint256"
        }
      ],
      "name": "Approval",
      "type": "event"
    },
    {
      "anonymous": false,
      "inputs": [
        {
          "indexed": true,
          "internalType": "address",
          "name": "owner",
          "type": "address"
        },
        {
          "indexed": true,
          "internalType": "address",
          "name": "operator",
          "type": "address"
        },
        {
          "indexed": false,
          "internalType": "bool",
          "name": "approved",
          "type": "bool"
        }
      ],
      "name": "ApprovalForAll",
      "type": "event"
    },
    {
      "anonymous": false,
      "inputs": [
        {
          "indexed": true,
          "internalType": "address",
          "name": "from",
          "type": "address"
        },
        {
          "indexed": true,
          "internalType": "address",
          "name": "to",
          "type": "address"
        },
        {
          "indexed": true,
          "internalType": "uint256",
          "name": "tokenId",
          "type": "uint256"
        }
      ],
      "name": "Transfer",
      "type": "event"
    },
    {
      "inputs": [
        {
          "internalType": "address",
          "name": "to",
          "type": "address"
        },
        {
          "internalType": "uint256",
          "name": "tokenId",
          "type": "uint256"
        }
      ],
      "name": "approve",
      "outputs": [],
      "stateMutability": "nonpayable",
      "type": "function"
    },
    {
      "inputs": [
        {
          "internalType": "address",
          "name": "owner",
          "type": "address"
        }
      ],
      "name": "balanceOf",
      "outputs": [
        {
          "internalType": "uint256",
          "name": "",
          "type": "uint256"
        }
      ],
      "stateMutability": "view",
      "type": "function"
    },
    {
      "inputs": [
        {
          "internalType": "uint256",
          "name": "tokenId",
          "type": "uint256"
        }
      ],
      "name": "getApproved",
      "outputs": [
        {
          "internalType": "address",
          "name": "",
          "type": "address"
        }
      ],
      "stateMutability": "view",
      "type": "function"
    },
    {
      "inputs": [
        {
          "internalType": "address",
          "name": "owner",
          "type": "address"
        },
        {
          "internalType": "address",
          "name": "operator",
          "type": "address"
        }
      ],
      "name": "isApprovedForAll",
      "outputs": [
        {
          "internalType": "bool",
          "name": "",
          "type": "bool"
        }
      ],
      "stateMutability": "view",
      "type": "function"
    },
    {
      "inputs": [],
      "name": "name",
      "outputs": [
        {
          "internalType": "string",
          "name": "",
          "type": "string"
        }
      ],
      "stateMutability": "view",
      "type": "function"
    },
    {
      "inputs": [
        {
          "internalType": "uint256",
          "name": "tokenId",
          "type": "uint256"
        }
      ],
      "name": "ownerOf",
      "outputs": [
        {
          "internalType": "address",
          "name": "",
          "type": "address"
        }
      ],
      "stateMutability": "view",
      "type": "function"
    },
    {
      "inputs": [
        {
          "internalType": "address",
          "name": "from",
          "type": "address"
        },
        {
          "internalType": "address",
          "name": "to",
          "type": "address"
        },
        {
          "internalType": "uint256",
          "name": "tokenId",
          "type": "uint256"
        }
      ],
      "name": "safeTransferFrom",
      "outputs": [],
      "stateMutability": "nonpayable",
      "type": "function"
    },
    {
      "inputs": [
        {
          "internalType": "address",
          "name": "from",
          "type": "address"
        },
        {
          "internalType": "address",
          "name": "to",
          "type": "address"
        },
        {
          "internalType": "uint256",
          "name": "tokenId",
          "type": "uint256"
        },
        {
          "internalType": "bytes",
          "name": "data",
          "type": "bytes"
        }
      ],
      "name": "safeTransferFrom",
      "outputs": [],
      "stateMutability": "nonpayable",
      "type": "function"
    },
    {
      "inputs": [
        {
          "internalType": "address",
          "name": "operator",
          "type": "address"
        },
        {
          "internalType": "bool",
          "name": "approved",
          "type": "bool"
        }
      ],
      "name": "setApprovalForAll",
      "outputs": [],
      "stateMutability": "nonpayable",
      "type": "function"
    },
    {
      "inputs": [
        {
          "internalType": "bytes4",
          "name": "interfaceId",
          "type": "bytes4"
        }
      ],
      "name": "supportsInterface",
      "outputs": [
        {
          "internalType": "bool",
          "name": "",
          "type": "bool"
        }
      ],
      "stateMutability": "view",
      "type": "function"
    },
    {
      "inputs": [],
      "name": "symbol",
      "outputs": [
        {
          "internalType": "string",
          "name": "",
          "type": "string"
        }
      ],
      "stateMutability": "view",
      "type": "function"
    },
    {
      "inputs": [
        {
          "internalType": "uint256",
          "name": "tokenId",
          "type": "uint256"
        }
      ],
      "name": "tokenURI",
      "outputs": [
        {
          "internalType": "string",
          "name": "",
          "type": "string"
        }
      ],
      "stateMutability": "view",
      "type": "function"
    },
    {
      "inputs": [
        {
          "internalType": "address",
          "name": "from",
          "type": "address"
        },
        {
          "internalType": "address",
          "name": "to",
          "type": "address"
        },
        {
          "internalType": "uint256",
          "name": "tokenId",
          "type": "uint256"
        }
      ],
      "name": "transferFrom",
      "outputs": [],
      "stateMutability": "nonpayable",
      "type": "function"
    },
    {
      "inputs": [
        {
          "internalType": "address",
          "name": "win",
          "type": "address"
        },
        {
          "internalType": "uint256",
          "name": "num",
          "type": "uint256"
        },
        {
          "internalType": "string",
          "name": "URI",
          "type": "string"
        }
      ],
      "name": "Mint",
      "outputs": [],
      "stateMutability": "nonpayable",
      "type": "function"
    }
  ],
  "bytecode": "0x60806040523480156200001157600080fd5b506040516200317c3803806200317c8339818101604052810190620000379190620001fa565b818181600090816200004a9190620004ca565b5080600190816200005c9190620004ca565b5050505050620005b1565b6000604051905090565b600080fd5b600080fd5b600080fd5b600080fd5b6000601f19601f8301169050919050565b7f4e487b7100000000000000000000000000000000000000000000000000000000600052604160045260246000fd5b620000d08262000085565b810181811067ffffffffffffffff82111715620000f257620000f162000096565b5b80604052505050565b60006200010762000067565b9050620001158282620000c5565b919050565b600067ffffffffffffffff82111562000138576200013762000096565b5b620001438262000085565b9050602081019050919050565b60005b838110156200017057808201518184015260208101905062000153565b60008484015250505050565b6000620001936200018d846200011a565b620000fb565b905082815260208101848484011115620001b257620001b162000080565b5b620001bf84828562000150565b509392505050565b600082601f830112620001df57620001de6200007b565b5b8151620001f18482602086016200017c565b91505092915050565b6000806040838503121562000214576200021362000071565b5b600083015167ffffffffffffffff81111562000235576200023462000076565b5b6200024385828601620001c7565b925050602083015167ffffffffffffffff81111562000267576200026662000076565b5b6200027585828601620001c7565b9150509250929050565b600081519050919050565b7f4e487b7100000000000000000000000000000000000000000000000000000000600052602260045260246000fd5b60006002820490506001821680620002d257607f821691505b602082108103620002e857620002e76200028a565b5b50919050565b60008190508160005260206000209050919050565b60006020601f8301049050919050565b600082821b905092915050565b600060088302620003527fffffffffffffffffffffffffffffffffffffffffffffffffffffffffffffffff8262000313565b6200035e868362000313565b95508019841693508086168417925050509392505050565b6000819050919050565b6000819050919050565b6000620003ab620003a56200039f8462000376565b62000380565b62000376565b9050919050565b6000819050919050565b620003c7836200038a565b620003df620003d682620003b2565b84845462000320565b825550505050565b600090565b620003f6620003e7565b62000403818484620003bc565b505050565b5b818110156200042b576200041f600082620003ec565b60018101905062000409565b5050565b601f8211156200047a576200044481620002ee565b6200044f8462000303565b810160208510156200045f578190505b620004776200046e8562000303565b83018262000408565b50505b505050565b600082821c905092915050565b60006200049f600019846008026200047f565b1980831691505092915050565b6000620004ba83836200048c565b9150826002028217905092915050565b620004d5826200027f565b67ffffffffffffffff811115620004f157620004f062000096565b5b620004fd8254620002b9565b6200050a8282856200042f565b600060209050601f8311600181146200054257600084156200052d578287015190505b620005398582620004ac565b865550620005a9565b601f1984166200055286620002ee565b60005b828110156200057c5784890151825560018201915060208501945060208101905062000555565b868310156200059c578489015162000598601f8916826200048c565b8355505b6001600288020188555050505b505050505050565b612bbb80620005c16000396000f3fe608060405234801561001057600080fd5b50600436106100ea5760003560e01c806370a082311161008c578063a22cb46511610066578063a22cb4651461025b578063b88d4fde14610277578063c87b56dd14610293578063e985e9c5146102c3576100ea565b806370a08231146101f157806385a66b911461022157806395d89b411461023d576100ea565b8063095ea7b3116100c8578063095ea7b31461016d57806323b872dd1461018957806342842e0e146101a55780636352211e146101c1576100ea565b806301ffc9a7146100ef57806306fdde031461011f578063081812fc1461013d575b600080fd5b61010960048036038101906101049190611a00565b6102f3565b6040516101169190611a48565b60405180910390f35b6101276103d5565b6040516101349190611af3565b60405180910390f35b61015760048036038101906101529190611b4b565b610467565b6040516101649190611bb9565b60405180910390f35b61018760048036038101906101829190611c00565b6104ad565b005b6101a3600480360381019061019e9190611c40565b6105c4565b005b6101bf60048036038101906101ba9190611c40565b610624565b005b6101db60048036038101906101d69190611b4b565b610644565b6040516101e89190611bb9565b60405180910390f35b61020b60048036038101906102069190611c93565b6106ca565b6040516102189190611ccf565b60405180910390f35b61023b60048036038101906102369190611e1f565b610781565b005b61024561079a565b6040516102529190611af3565b60405180910390f35b61027560048036038101906102709190611eba565b61082c565b005b610291600480360381019061028c9190611f9b565b610842565b005b6102ad60048036038101906102a89190611b4b565b6108a4565b6040516102ba9190611af3565b60405180910390f35b6102dd60048036038101906102d8919061201e565b6109b6565b6040516102ea9190611a48565b60405180910390f35b60007f80ac58cd000000000000000000000000000000000000000000000000000000007bffffffffffffffffffffffffffffffffffffffffffffffffffffffff1916827bffffffffffffffffffffffffffffffffffffffffffffffffffffffff191614806103be57507f5b5e139f000000000000000000000000000000000000000000000000000000007bffffffffffffffffffffffffffffffffffffffffffffffffffffffff1916827bffffffffffffffffffffffffffffffffffffffffffffffffffffffff1916145b806103ce57506103cd82610a4a565b5b9050919050565b6060600080546103e49061208d565b80601f01602080910402602001604051908101604052809291908181526020018280546104109061208d565b801561045d5780601f106104325761010080835404028352916020019161045d565b820191906000526020600020905b81548152906001019060200180831161044057829003601f168201915b5050505050905090565b600061047282610ab4565b6004600083815260200190815260200160002060009054906101000a900473ffffffffffffffffffffffffffffffffffffffff169050919050565b60006104b882610644565b90508073ffffffffffffffffffffffffffffffffffffffff168373ffffffffffffffffffffffffffffffffffffffff1603610528576040517f08c379a000000000000000000000000000000000000000000000000000000000815260040161051f90612130565b60405180910390fd5b8073ffffffffffffffffffffffffffffffffffffffff16610547610aff565b73ffffffffffffffffffffffffffffffffffffffff161480610576575061057581610570610aff565b6109b6565b5b6105b5576040517f08c379a00000000000000000000000000000000000000000000000000000000081526004016105ac906121c2565b60405180910390fd5b6105bf8383610b07565b505050565b6105d56105cf610aff565b82610bc0565b610614576040517f08c379a000000000000000000000000000000000000000000000000000000000815260040161060b90612254565b60405180910390fd5b61061f838383610c55565b505050565b61063f83838360405180602001604052806000815250610842565b505050565b60008061065083610f4e565b9050600073ffffffffffffffffffffffffffffffffffffffff168173ffffffffffffffffffffffffffffffffffffffff16036106c1576040517f08c379a00000000000000000000000000000000000000000000000000000000081526004016106b8906122c0565b60405180910390fd5b80915050919050565b60008073ffffffffffffffffffffffffffffffffffffffff168273ffffffffffffffffffffffffffffffffffffffff160361073a576040517f08c379a000000000000000000000000000000000000000000000000000000000815260040161073190612352565b60405180910390fd5b600360008373ffffffffffffffffffffffffffffffffffffffff1673ffffffffffffffffffffffffffffffffffffffff168152602001908152602001600020549050919050565b61078b8383610f8b565b61079582826111a8565b505050565b6060600180546107a99061208d565b80601f01602080910402602001604051908101604052809291908181526020018280546107d59061208d565b80156108225780601f106107f757610100808354040283529160200191610822565b820191906000526020600020905b81548152906001019060200180831161080557829003601f168201915b5050505050905090565b61083e610837610aff565b8383611215565b5050565b61085361084d610aff565b83610bc0565b610892576040517f08c379a000000000000000000000000000000000000000000000000000000000815260040161088990612254565b60405180910390fd5b61089e84848484611381565b50505050565b60606108af82610ab4565b60006006600084815260200190815260200160002080546108cf9061208d565b80601f01602080910402602001604051908101604052809291908181526020018280546108fb9061208d565b80156109485780601f1061091d57610100808354040283529160200191610948565b820191906000526020600020905b81548152906001019060200180831161092b57829003601f168201915b5050505050905060006109596113dd565b9050600081510361096e5781925050506109b1565b6000825111156109a357808260405160200161098b9291906123ae565b604051602081830303815290604052925050506109b1565b6109ac846113f4565b925050505b919050565b6000600560008473ffffffffffffffffffffffffffffffffffffffff1673ffffffffffffffffffffffffffffffffffffffff16815260200190815260200160002060008373ffffffffffffffffffffffffffffffffffffffff1673ffffffffffffffffffffffffffffffffffffffff16815260200190815260200160002060009054906101000a900460ff16905092915050565b60007f01ffc9a7000000000000000000000000000000000000000000000000000000007bffffffffffffffffffffffffffffffffffffffffffffffffffffffff1916827bffffffffffffffffffffffffffffffffffffffffffffffffffffffff1916149050919050565b610abd8161145c565b610afc576040517f08c379a0000000000000000000000000000000000000000000000000000000008152600401610af3906122c0565b60405180910390fd5b50565b600033905090565b816004600083815260200190815260200160002060006101000a81548173ffffffffffffffffffffffffffffffffffffffff021916908373ffffffffffffffffffffffffffffffffffffffff160217905550808273ffffffffffffffffffffffffffffffffffffffff16610b7a83610644565b73ffffffffffffffffffffffffffffffffffffffff167f8c5be1e5ebec7d5bd14f71427d1e84f3dd0314c0f7b2291e5b200ac8c7c3b92560405160405180910390a45050565b600080610bcc83610644565b90508073ffffffffffffffffffffffffffffffffffffffff168473ffffffffffffffffffffffffffffffffffffffff161480610c0e5750610c0d81856109b6565b5b80610c4c57508373ffffffffffffffffffffffffffffffffffffffff16610c3484610467565b73ffffffffffffffffffffffffffffffffffffffff16145b91505092915050565b8273ffffffffffffffffffffffffffffffffffffffff16610c7582610644565b73ffffffffffffffffffffffffffffffffffffffff1614610ccb576040517f08c379a0000000000000000000000000000000000000000000000000000000008152600401610cc290612444565b60405180910390fd5b600073ffffffffffffffffffffffffffffffffffffffff168273ffffffffffffffffffffffffffffffffffffffff1603610d3a576040517f08c379a0000000000000000000000000000000000000000000000000000000008152600401610d31906124d6565b60405180910390fd5b610d47838383600161149d565b8273ffffffffffffffffffffffffffffffffffffffff16610d6782610644565b73ffffffffffffffffffffffffffffffffffffffff1614610dbd576040517f08c379a0000000000000000000000000000000000000000000000000000000008152600401610db490612444565b60405180910390fd5b6004600082815260200190815260200160002060006101000a81549073ffffffffffffffffffffffffffffffffffffffff02191690556001600360008573ffffffffffffffffffffffffffffffffffffffff1673ffffffffffffffffffffffffffffffffffffffff168152602001908152602001600020600082825403925050819055506001600360008473ffffffffffffffffffffffffffffffffffffffff1673ffffffffffffffffffffffffffffffffffffffff16815260200190815260200160002060008282540192505081905550816002600083815260200190815260200160002060006101000a81548173ffffffffffffffffffffffffffffffffffffffff021916908373ffffffffffffffffffffffffffffffffffffffff160217905550808273ffffffffffffffffffffffffffffffffffffffff168473ffffffffffffffffffffffffffffffffffffffff167fddf252ad1be2c89b69c2b068fc378daa952ba7f163c4a11628f55a4df523b3ef60405160405180910390a4610f4983838360016115c3565b505050565b60006002600083815260200190815260200160002060009054906101000a900473ffffffffffffffffffffffffffffffffffffffff169050919050565b600073ffffffffffffffffffffffffffffffffffffffff168273ffffffffffffffffffffffffffffffffffffffff1603610ffa576040517f08c379a0000000000000000000000000000000000000000000000000000000008152600401610ff190612542565b60405180910390fd5b6110038161145c565b15611043576040517f08c379a000000000000000000000000000000000000000000000000000000000815260040161103a906125ae565b60405180910390fd5b61105160008383600161149d565b61105a8161145c565b1561109a576040517f08c379a0000000000000000000000000000000000000000000000000000000008152600401611091906125ae565b60405180910390fd5b6001600360008473ffffffffffffffffffffffffffffffffffffffff1673ffffffffffffffffffffffffffffffffffffffff16815260200190815260200160002060008282540192505081905550816002600083815260200190815260200160002060006101000a81548173ffffffffffffffffffffffffffffffffffffffff021916908373ffffffffffffffffffffffffffffffffffffffff160217905550808273ffffffffffffffffffffffffffffffffffffffff16600073ffffffffffffffffffffffffffffffffffffffff167fddf252ad1be2c89b69c2b068fc378daa952ba7f163c4a11628f55a4df523b3ef60405160405180910390a46111a46000838360016115c3565b5050565b6111b18261145c565b6111f0576040517f08c379a00000000000000000000000000000000000000000000000000000000081526004016111e790612640565b60405180910390fd5b80600660008481526020019081526020016000209081611210919061280c565b505050565b8173ffffffffffffffffffffffffffffffffffffffff168373ffffffffffffffffffffffffffffffffffffffff1603611283576040517f08c379a000000000000000000000000000000000000000000000000000000000815260040161127a9061292a565b60405180910390fd5b80600560008573ffffffffffffffffffffffffffffffffffffffff1673ffffffffffffffffffffffffffffffffffffffff16815260200190815260200160002060008473ffffffffffffffffffffffffffffffffffffffff1673ffffffffffffffffffffffffffffffffffffffff16815260200190815260200160002060006101000a81548160ff0219169083151502179055508173ffffffffffffffffffffffffffffffffffffffff168373ffffffffffffffffffffffffffffffffffffffff167f17307eab39ab6107e8899845ad3d59bd9653f200f220920489ca2b5937696c31836040516113749190611a48565b60405180910390a3505050565b61138c848484610c55565b611398848484846115c9565b6113d7576040517f08c379a00000000000000000000000000000000000000000000000000000000081526004016113ce906129bc565b60405180910390fd5b50505050565b606060405180602001604052806000815250905090565b60606113ff82610ab4565b60006114096113dd565b905060008151116114295760405180602001604052806000815250611454565b8061143384611750565b6040516020016114449291906123ae565b6040516020818303038152906040525b915050919050565b60008073ffffffffffffffffffffffffffffffffffffffff1661147e83610f4e565b73ffffffffffffffffffffffffffffffffffffffff1614159050919050565b60018111156115bd57600073ffffffffffffffffffffffffffffffffffffffff168473ffffffffffffffffffffffffffffffffffffffff16146115315780600360008673ffffffffffffffffffffffffffffffffffffffff1673ffffffffffffffffffffffffffffffffffffffff16815260200190815260200160002060008282546115299190612a0b565b925050819055505b600073ffffffffffffffffffffffffffffffffffffffff168373ffffffffffffffffffffffffffffffffffffffff16146115bc5780600360008573ffffffffffffffffffffffffffffffffffffffff1673ffffffffffffffffffffffffffffffffffffffff16815260200190815260200160002060008282546115b49190612a3f565b925050819055505b5b50505050565b50505050565b60006115ea8473ffffffffffffffffffffffffffffffffffffffff1661181e565b15611743578373ffffffffffffffffffffffffffffffffffffffff1663150b7a02611613610aff565b8786866040518563ffffffff1660e01b81526004016116359493929190612ac8565b6020604051808303816000875af192505050801561167157506040513d601f19601f8201168201806040525081019061166e9190612b29565b60015b6116f3573d80600081146116a1576040519150601f19603f3d011682016040523d82523d6000602084013e6116a6565b606091505b5060008151036116eb576040517f08c379a00000000000000000000000000000000000000000000000000000000081526004016116e2906129bc565b60405180910390fd5b805181602001fd5b63150b7a0260e01b7bffffffffffffffffffffffffffffffffffffffffffffffffffffffff1916817bffffffffffffffffffffffffffffffffffffffffffffffffffffffff191614915050611748565b600190505b949350505050565b60606000600161175f84611841565b01905060008167ffffffffffffffff81111561177e5761177d611cf4565b5b6040519080825280601f01601f1916602001820160405280156117b05781602001600182028036833780820191505090505b509050600082602001820190505b600115611813578080600190039150507f3031323334353637383961626364656600000000000000000000000000000000600a86061a8153600a858161180757611806612b56565b5b049450600085036117be575b819350505050919050565b6000808273ffffffffffffffffffffffffffffffffffffffff163b119050919050565b600080600090507a184f03e93ff9f4daa797ed6e38ed64bf6a1f010000000000000000831061189f577a184f03e93ff9f4daa797ed6e38ed64bf6a1f010000000000000000838161189557611894612b56565b5b0492506040810190505b6d04ee2d6d415b85acef810000000083106118dc576d04ee2d6d415b85acef810000000083816118d2576118d1612b56565b5b0492506020810190505b662386f26fc10000831061190b57662386f26fc10000838161190157611900612b56565b5b0492506010810190505b6305f5e1008310611934576305f5e100838161192a57611929612b56565b5b0492506008810190505b612710831061195957612710838161194f5761194e612b56565b5b0492506004810190505b6064831061197c576064838161197257611971612b56565b5b0492506002810190505b600a831061198b576001810190505b80915050919050565b6000604051905090565b600080fd5b600080fd5b60007fffffffff0000000000000000000000000000000000000000000000000000000082169050919050565b6119dd816119a8565b81146119e857600080fd5b50565b6000813590506119fa816119d4565b92915050565b600060208284031215611a1657611a1561199e565b5b6000611a24848285016119eb565b91505092915050565b60008115159050919050565b611a4281611a2d565b82525050565b6000602082019050611a5d6000830184611a39565b92915050565b600081519050919050565b600082825260208201905092915050565b60005b83811015611a9d578082015181840152602081019050611a82565b60008484015250505050565b6000601f19601f8301169050919050565b6000611ac582611a63565b611acf8185611a6e565b9350611adf818560208601611a7f565b611ae881611aa9565b840191505092915050565b60006020820190508181036000830152611b0d8184611aba565b905092915050565b6000819050919050565b611b2881611b15565b8114611b3357600080fd5b50565b600081359050611b4581611b1f565b92915050565b600060208284031215611b6157611b6061199e565b5b6000611b6f84828501611b36565b91505092915050565b600073ffffffffffffffffffffffffffffffffffffffff82169050919050565b6000611ba382611b78565b9050919050565b611bb381611b98565b82525050565b6000602082019050611bce6000830184611baa565b92915050565b611bdd81611b98565b8114611be857600080fd5b50565b600081359050611bfa81611bd4565b92915050565b60008060408385031215611c1757611c1661199e565b5b6000611c2585828601611beb565b9250506020611c3685828601611b36565b9150509250929050565b600080600060608486031215611c5957611c5861199e565b5b6000611c6786828701611beb565b9350506020611c7886828701611beb565b9250506040611c8986828701611b36565b9150509250925092565b600060208284031215611ca957611ca861199e565b5b6000611cb784828501611beb565b91505092915050565b611cc981611b15565b82525050565b6000602082019050611ce46000830184611cc0565b92915050565b600080fd5b600080fd5b7f4e487b7100000000000000000000000000000000000000000000000000000000600052604160045260246000fd5b611d2c82611aa9565b810181811067ffffffffffffffff82111715611d4b57611d4a611cf4565b5b80604052505050565b6000611d5e611994565b9050611d6a8282611d23565b919050565b600067ffffffffffffffff821115611d8a57611d89611cf4565b5b611d9382611aa9565b9050602081019050919050565b82818337600083830152505050565b6000611dc2611dbd84611d6f565b611d54565b905082815260208101848484011115611dde57611ddd611cef565b5b611de9848285611da0565b509392505050565b600082601f830112611e0657611e05611cea565b5b8135611e16848260208601611daf565b91505092915050565b600080600060608486031215611e3857611e3761199e565b5b6000611e4686828701611beb565b9350506020611e5786828701611b36565b925050604084013567ffffffffffffffff811115611e7857611e776119a3565b5b611e8486828701611df1565b9150509250925092565b611e9781611a2d565b8114611ea257600080fd5b50565b600081359050611eb481611e8e565b92915050565b60008060408385031215611ed157611ed061199e565b5b6000611edf85828601611beb565b9250506020611ef085828601611ea5565b9150509250929050565b600067ffffffffffffffff821115611f1557611f14611cf4565b5b611f1e82611aa9565b9050602081019050919050565b6000611f3e611f3984611efa565b611d54565b905082815260208101848484011115611f5a57611f59611cef565b5b611f65848285611da0565b509392505050565b600082601f830112611f8257611f81611cea565b5b8135611f92848260208601611f2b565b91505092915050565b60008060008060808587031215611fb557611fb461199e565b5b6000611fc387828801611beb565b9450506020611fd487828801611beb565b9350506040611fe587828801611b36565b925050606085013567ffffffffffffffff811115612006576120056119a3565b5b61201287828801611f6d565b91505092959194509250565b600080604083850312156120355761203461199e565b5b600061204385828601611beb565b925050602061205485828601611beb565b9150509250929050565b7f4e487b7100000000000000000000000000000000000000000000000000000000600052602260045260246000fd5b600060028204905060018216806120a557607f821691505b6020821081036120b8576120b761205e565b5b50919050565b7f4552433732313a20617070726f76616c20746f2063757272656e74206f776e6560008201527f7200000000000000000000000000000000000000000000000000000000000000602082015250565b600061211a602183611a6e565b9150612125826120be565b604082019050919050565b600060208201905081810360008301526121498161210d565b9050919050565b7f4552433732313a20617070726f76652063616c6c6572206973206e6f7420746f60008201527f6b656e206f776e6572206f7220617070726f76656420666f7220616c6c000000602082015250565b60006121ac603d83611a6e565b91506121b782612150565b604082019050919050565b600060208201905081810360008301526121db8161219f565b9050919050565b7f4552433732313a2063616c6c6572206973206e6f7420746f6b656e206f776e6560008201527f72206f7220617070726f76656400000000000000000000000000000000000000602082015250565b600061223e602d83611a6e565b9150612249826121e2565b604082019050919050565b6000602082019050818103600083015261226d81612231565b9050919050565b7f4552433732313a20696e76616c696420746f6b656e2049440000000000000000600082015250565b60006122aa601883611a6e565b91506122b582612274565b602082019050919050565b600060208201905081810360008301526122d98161229d565b9050919050565b7f4552433732313a2061646472657373207a65726f206973206e6f74206120766160008201527f6c6964206f776e65720000000000000000000000000000000000000000000000602082015250565b600061233c602983611a6e565b9150612347826122e0565b604082019050919050565b6000602082019050818103600083015261236b8161232f565b9050919050565b600081905092915050565b600061238882611a63565b6123928185612372565b93506123a2818560208601611a7f565b80840191505092915050565b60006123ba828561237d565b91506123c6828461237d565b91508190509392505050565b7f4552433732313a207472616e736665722066726f6d20696e636f72726563742060008201527f6f776e6572000000000000000000000000000000000000000000000000000000602082015250565b600061242e602583611a6e565b9150612439826123d2565b604082019050919050565b6000602082019050818103600083015261245d81612421565b9050919050565b7f4552433732313a207472616e7366657220746f20746865207a65726f2061646460008201527f7265737300000000000000000000000000000000000000000000000000000000602082015250565b60006124c0602483611a6e565b91506124cb82612464565b604082019050919050565b600060208201905081810360008301526124ef816124b3565b9050919050565b7f4552433732313a206d696e7420746f20746865207a65726f2061646472657373600082015250565b600061252c602083611a6e565b9150612537826124f6565b602082019050919050565b6000602082019050818103600083015261255b8161251f565b9050919050565b7f4552433732313a20746f6b656e20616c7265616479206d696e74656400000000600082015250565b6000612598601c83611a6e565b91506125a382612562565b602082019050919050565b600060208201905081810360008301526125c78161258b565b9050919050565b7f45524337323155524953746f726167653a2055524920736574206f66206e6f6e60008201527f6578697374656e7420746f6b656e000000000000000000000000000000000000602082015250565b600061262a602e83611a6e565b9150612635826125ce565b604082019050919050565b600060208201905081810360008301526126598161261d565b9050919050565b60008190508160005260206000209050919050565b60006020601f8301049050919050565b600082821b905092915050565b6000600883026126c27fffffffffffffffffffffffffffffffffffffffffffffffffffffffffffffffff82612685565b6126cc8683612685565b95508019841693508086168417925050509392505050565b6000819050919050565b60006127096127046126ff84611b15565b6126e4565b611b15565b9050919050565b6000819050919050565b612723836126ee565b61273761272f82612710565b848454612692565b825550505050565b600090565b61274c61273f565b61275781848461271a565b505050565b5b8181101561277b57612770600082612744565b60018101905061275d565b5050565b601f8211156127c05761279181612660565b61279a84612675565b810160208510156127a9578190505b6127bd6127b585612675565b83018261275c565b50505b505050565b600082821c905092915050565b60006127e3600019846008026127c5565b1980831691505092915050565b60006127fc83836127d2565b9150826002028217905092915050565b61281582611a63565b67ffffffffffffffff81111561282e5761282d611cf4565b5b612838825461208d565b61284382828561277f565b600060209050601f8311600181146128765760008415612864578287015190505b61286e85826127f0565b8655506128d6565b601f19841661288486612660565b60005b828110156128ac57848901518255600182019150602085019450602081019050612887565b868310156128c957848901516128c5601f8916826127d2565b8355505b6001600288020188555050505b505050505050565b7f4552433732313a20617070726f766520746f2063616c6c657200000000000000600082015250565b6000612914601983611a6e565b915061291f826128de565b602082019050919050565b6000602082019050818103600083015261294381612907565b9050919050565b7f4552433732313a207472616e7366657220746f206e6f6e20455243373231526560008201527f63656976657220696d706c656d656e7465720000000000000000000000000000602082015250565b60006129a6603283611a6e565b91506129b18261294a565b604082019050919050565b600060208201905081810360008301526129d581612999565b9050919050565b7f4e487b7100000000000000000000000000000000000000000000000000000000600052601160045260246000fd5b6000612a1682611b15565b9150612a2183611b15565b9250828203905081811115612a3957612a386129dc565b5b92915050565b6000612a4a82611b15565b9150612a5583611b15565b9250828201905080821115612a6d57612a6c6129dc565b5b92915050565b600081519050919050565b600082825260208201905092915050565b6000612a9a82612a73565b612aa48185612a7e565b9350612ab4818560208601611a7f565b612abd81611aa9565b840191505092915050565b6000608082019050612add6000830187611baa565b612aea6020830186611baa565b612af76040830185611cc0565b8181036060830152612b098184612a8f565b905095945050505050565b600081519050612b23816119d4565b92915050565b600060208284031215612b3f57612b3e61199e565b5b6000612b4d84828501612b14565b91505092915050565b7f4e487b7100000000000000000000000000000000000000000000000000000000600052601260045260246000fdfea2646970667358221220c5a306550a436108cb81be8a94892bcd61831d75d99c66781d4181f91df5e9e464736f6c63430008110033",
  "immutableReferences": {},
  "source": "//SPDX-License-Identifier: MIT\npragma solidity >=0.5.16;\n\nimport \"@openzeppelin/contracts/token/ERC721/extensions/ERC721URIStorage.sol\";\n\ncontract NFTColl is ERC721URIStorage{\n\n    constructor(string memory name, string memory symbol) ERC721(name, symbol) {\n    }\n\n    function Mint(address win, uint num, string memory URI) public{\n        _mint(win, num);\n        _setTokenURI(num, URI);\n\n    }\n\n}",
  "sourcePath": "/home/daniele/Documenti/truffleReact/truffle/contracts/NFTColl.sol",
  "compiler": {
    "name": "solc",
    "version": "0.8.17+commit.8df45f5f.Emscripten.clang"
  },
  "schemaVersion": "3.4.11",
  "updatedAt": "2023-01-23T17:18:53.610Z",
  "devdoc": {
    "kind": "dev",
    "methods": {
      "approve(address,uint256)": {
        "details": "See {IERC721-approve}."
      },
      "balanceOf(address)": {
        "details": "See {IERC721-balanceOf}."
      },
      "getApproved(uint256)": {
        "details": "See {IERC721-getApproved}."
      },
      "isApprovedForAll(address,address)": {
        "details": "See {IERC721-isApprovedForAll}."
      },
      "name()": {
        "details": "See {IERC721Metadata-name}."
      },
      "ownerOf(uint256)": {
        "details": "See {IERC721-ownerOf}."
      },
      "safeTransferFrom(address,address,uint256)": {
        "details": "See {IERC721-safeTransferFrom}."
      },
      "safeTransferFrom(address,address,uint256,bytes)": {
        "details": "See {IERC721-safeTransferFrom}."
      },
      "setApprovalForAll(address,bool)": {
        "details": "See {IERC721-setApprovalForAll}."
      },
      "supportsInterface(bytes4)": {
        "details": "See {IERC165-supportsInterface}."
      },
      "symbol()": {
        "details": "See {IERC721Metadata-symbol}."
      },
      "tokenURI(uint256)": {
        "details": "See {IERC721Metadata-tokenURI}."
      },
      "transferFrom(address,address,uint256)": {
        "details": "See {IERC721-transferFrom}."
      }
    },
    "version": 1
  },
  "userdoc": {
    "kind": "user",
    "methods": {},
    "version": 1
  }
}