{
  "contractName": "ProposalManagement",
  "abi": [
    {
      "inputs": [],
      "stateMutability": "nonpayable",
      "type": "constructor"
    },
    {
      "anonymous": false,
      "inputs": [
        {
          "indexed": true,
          "internalType": "bytes32",
          "name": "role",
          "type": "bytes32"
        },
        {
          "indexed": true,
          "internalType": "bytes32",
          "name": "previousAdminRole",
          "type": "bytes32"
        },
        {
          "indexed": true,
          "internalType": "bytes32",
          "name": "newAdminRole",
          "type": "bytes32"
        }
      ],
      "name": "RoleAdminChanged",
      "type": "event"
    },
    {
      "anonymous": false,
      "inputs": [
        {
          "indexed": true,
          "internalType": "bytes32",
          "name": "role",
          "type": "bytes32"
        },
        {
          "indexed": true,
          "internalType": "address",
          "name": "account",
          "type": "address"
        },
        {
          "indexed": true,
          "internalType": "address",
          "name": "sender",
          "type": "address"
        }
      ],
      "name": "RoleGranted",
      "type": "event"
    },
    {
      "anonymous": false,
      "inputs": [
        {
          "indexed": true,
          "internalType": "bytes32",
          "name": "role",
          "type": "bytes32"
        },
        {
          "indexed": true,
          "internalType": "address",
          "name": "account",
          "type": "address"
        },
        {
          "indexed": true,
          "internalType": "address",
          "name": "sender",
          "type": "address"
        }
      ],
      "name": "RoleRevoked",
      "type": "event"
    },
    {
      "inputs": [],
      "name": "ADMIN",
      "outputs": [
        {
          "internalType": "bytes32",
          "name": "",
          "type": "bytes32"
        }
      ],
      "stateMutability": "view",
      "type": "function",
      "constant": true
    },
    {
      "inputs": [],
      "name": "DEFAULT_ADMIN_ROLE",
      "outputs": [
        {
          "internalType": "bytes32",
          "name": "",
          "type": "bytes32"
        }
      ],
      "stateMutability": "view",
      "type": "function",
      "constant": true
    },
    {
      "inputs": [
        {
          "internalType": "bytes32",
          "name": "role",
          "type": "bytes32"
        }
      ],
      "name": "getRoleAdmin",
      "outputs": [
        {
          "internalType": "bytes32",
          "name": "",
          "type": "bytes32"
        }
      ],
      "stateMutability": "view",
      "type": "function",
      "constant": true
    },
    {
      "inputs": [
        {
          "internalType": "bytes32",
          "name": "role",
          "type": "bytes32"
        },
        {
          "internalType": "address",
          "name": "account",
          "type": "address"
        }
      ],
      "name": "grantRole",
      "outputs": [],
      "stateMutability": "nonpayable",
      "type": "function"
    },
    {
      "inputs": [
        {
          "internalType": "bytes32",
          "name": "role",
          "type": "bytes32"
        },
        {
          "internalType": "address",
          "name": "account",
          "type": "address"
        }
      ],
      "name": "hasRole",
      "outputs": [
        {
          "internalType": "bool",
          "name": "",
          "type": "bool"
        }
      ],
      "stateMutability": "view",
      "type": "function",
      "constant": true
    },
    {
      "inputs": [
        {
          "internalType": "bytes32",
          "name": "role",
          "type": "bytes32"
        },
        {
          "internalType": "address",
          "name": "account",
          "type": "address"
        }
      ],
      "name": "renounceRole",
      "outputs": [],
      "stateMutability": "nonpayable",
      "type": "function"
    },
    {
      "inputs": [
        {
          "internalType": "bytes32",
          "name": "role",
          "type": "bytes32"
        },
        {
          "internalType": "address",
          "name": "account",
          "type": "address"
        }
      ],
      "name": "revokeRole",
      "outputs": [],
      "stateMutability": "nonpayable",
      "type": "function"
    },
    {
      "inputs": [
        {
          "internalType": "bytes4",
          "name": "interfaceId",
          "type": "bytes4"
        }
      ],
      "name": "supportsInterface",
      "outputs": [
        {
          "internalType": "bool",
          "name": "",
          "type": "bool"
        }
      ],
      "stateMutability": "view",
      "type": "function",
      "constant": true
    },
    {
      "inputs": [
        {
          "internalType": "address",
          "name": "newAdmin",
          "type": "address"
        }
      ],
      "name": "givePermission",
      "outputs": [],
      "stateMutability": "nonpayable",
      "type": "function"
    },
    {
      "inputs": [
        {
          "internalType": "address",
          "name": "oldAdmin",
          "type": "address"
        }
      ],
      "name": "revokePermission",
      "outputs": [],
      "stateMutability": "nonpayable",
      "type": "function"
    },
    {
      "inputs": [
        {
          "internalType": "address",
          "name": "participant",
          "type": "address"
        },
        {
          "internalType": "uint256",
          "name": "newQuote",
          "type": "uint256"
        }
      ],
      "name": "sendProposal",
      "outputs": [],
      "stateMutability": "nonpayable",
      "type": "function"
    },
    {
      "inputs": [],
      "name": "openTender",
      "outputs": [],
      "stateMutability": "nonpayable",
      "type": "function"
    },
    {
      "inputs": [],
      "name": "closeTender",
      "outputs": [],
      "stateMutability": "nonpayable",
      "type": "function"
    },
    {
      "inputs": [],
      "name": "getStatus",
      "outputs": [
        {
          "internalType": "bool",
          "name": "",
          "type": "bool"
        }
      ],
      "stateMutability": "view",
      "type": "function",
      "constant": true
    },
    {
      "inputs": [],
      "name": "proposalEvaluation",
      "outputs": [
        {
          "internalType": "address",
          "name": "",
          "type": "address"
        }
      ],
      "stateMutability": "nonpayable",
      "type": "function"
    }
  ],
  "bytecode": "0x60806040526000600560006101000a81548160ff02191690831515021790555034801561002b57600080fd5b5061005c7fdf8b4c520ffe197c5343c6f5aec59570151ef9a492f2c624fd45ddde6135ec423361006160201b60201c565b6101bf565b610071828261014d60201b60201c565b61014957600160008084815260200190815260200160002060000160008373ffffffffffffffffffffffffffffffffffffffff1673ffffffffffffffffffffffffffffffffffffffff16815260200190815260200160002060006101000a81548160ff0219169083151502179055506100ee6101b760201b60201c565b73ffffffffffffffffffffffffffffffffffffffff168173ffffffffffffffffffffffffffffffffffffffff16837f2f8788117e7eff1d82e926ec794901d17c78024a50270940304540a733656f0d60405160405180910390a45b5050565b600080600084815260200190815260200160002060000160008373ffffffffffffffffffffffffffffffffffffffff1673ffffffffffffffffffffffffffffffffffffffff16815260200190815260200160002060009054906101000a900460ff16905092915050565b600033905090565b6116c7806101ce6000396000f3fe608060405234801561001057600080fd5b50600436106100f55760003560e01c806350627f8d11610097578063a217fddf11610066578063a217fddf1461025e578063a3bf5b9a1461027c578063a71f364114610298578063d547741f146102a2576100f5565b806350627f8d146101ea578063739439c4146101f457806391d148541461021057806392f4eff314610240576100f5565b80632f2ff15d116100d35780632f2ff15d1461017857806336568abe146101945780633d391f70146101b05780634e69d560146101cc576100f5565b806301ffc9a7146100fa578063248a9ca31461012a5780632a0acc6a1461015a575b600080fd5b610114600480360381019061010f9190611004565b6102be565b604051610121919061104c565b60405180910390f35b610144600480360381019061013f919061109d565b610338565b60405161015191906110d9565b60405180910390f35b610162610357565b60405161016f91906110d9565b60405180910390f35b610192600480360381019061018d9190611152565b61037b565b005b6101ae60048036038101906101a99190611152565b61039c565b005b6101ca60048036038101906101c59190611192565b61041f565b005b6101d4610477565b6040516101e1919061104c565b60405180910390f35b6101f26104b9565b005b61020e600480360381019061020991906111f5565b610501565b005b61022a60048036038101906102259190611152565b61055f565b604051610237919061104c565b60405180910390f35b6102486105c9565b6040516102559190611244565b60405180910390f35b61026661070b565b60405161027391906110d9565b60405180910390f35b61029660048036038101906102919190611192565b610712565b005b6102a061076a565b005b6102bc60048036038101906102b79190611152565b6107b2565b005b60007f7965db0b000000000000000000000000000000000000000000000000000000007bffffffffffffffffffffffffffffffffffffffffffffffffffffffff1916827bffffffffffffffffffffffffffffffffffffffffffffffffffffffff191614806103315750610330826107d3565b5b9050919050565b6000806000838152602001908152602001600020600101549050919050565b7fdf8b4c520ffe197c5343c6f5aec59570151ef9a492f2c624fd45ddde6135ec4281565b61038482610338565b61038d8161083d565b6103978383610851565b505050565b6103a4610931565b73ffffffffffffffffffffffffffffffffffffffff168173ffffffffffffffffffffffffffffffffffffffff1614610411576040517f08c379a0000000000000000000000000000000000000000000000000000000008152600401610408906112e2565b60405180910390fd5b61041b8282610939565b5050565b7fdf8b4c520ffe197c5343c6f5aec59570151ef9a492f2c624fd45ddde6135ec426104498161083d565b6104737fdf8b4c520ffe197c5343c6f5aec59570151ef9a492f2c624fd45ddde6135ec428361037b565b5050565b60007fdf8b4c520ffe197c5343c6f5aec59570151ef9a492f2c624fd45ddde6135ec426104a38161083d565b600560009054906101000a900460ff1691505090565b7fdf8b4c520ffe197c5343c6f5aec59570151ef9a492f2c624fd45ddde6135ec426104e38161083d565b6001600560006101000a81548160ff02191690831515021790555050565b7fdf8b4c520ffe197c5343c6f5aec59570151ef9a492f2c624fd45ddde6135ec4261052b8161083d565b600560009054906101000a900460ff1661054457600080fd5b61055a83836001610a1a9092919063ffffffff16565b505050565b600080600084815260200190815260200160002060000160008373ffffffffffffffffffffffffffffffffffffffff1673ffffffffffffffffffffffffffffffffffffffff16815260200190815260200160002060009054906101000a900460ff16905092915050565b60007fdf8b4c520ffe197c5343c6f5aec59570151ef9a492f2c624fd45ddde6135ec426105f58161083d565b600560009054906101000a900460ff161561060f57600080fd5b600061063961062960006001610c1190919063ffffffff16565b6001610c5c90919063ffffffff16565b905060005b6106486001610ca8565b8110156106e0576000610665826001610c1190919063ffffffff16565b9050600061067d826001610c5c90919063ffffffff16565b90508381116106cb5780935081600560016101000a81548173ffffffffffffffffffffffffffffffffffffffff021916908373ffffffffffffffffffffffffffffffffffffffff1602179055505b505080806106d890611331565b91505061063e565b50600560019054906101000a900473ffffffffffffffffffffffffffffffffffffffff169250505090565b6000801b81565b7fdf8b4c520ffe197c5343c6f5aec59570151ef9a492f2c624fd45ddde6135ec4261073c8161083d565b6107667fdf8b4c520ffe197c5343c6f5aec59570151ef9a492f2c624fd45ddde6135ec42836107b2565b5050565b7fdf8b4c520ffe197c5343c6f5aec59570151ef9a492f2c624fd45ddde6135ec426107948161083d565b6000600560006101000a81548160ff02191690831515021790555050565b6107bb82610338565b6107c48161083d565b6107ce8383610939565b505050565b60007f01ffc9a7000000000000000000000000000000000000000000000000000000007bffffffffffffffffffffffffffffffffffffffffffffffffffffffff1916827bffffffffffffffffffffffffffffffffffffffffffffffffffffffff1916149050919050565b61084e81610849610931565b610cb9565b50565b61085b828261055f565b61092d57600160008084815260200190815260200160002060000160008373ffffffffffffffffffffffffffffffffffffffff1673ffffffffffffffffffffffffffffffffffffffff16815260200190815260200160002060006101000a81548160ff0219169083151502179055506108d2610931565b73ffffffffffffffffffffffffffffffffffffffff168173ffffffffffffffffffffffffffffffffffffffff16837f2f8788117e7eff1d82e926ec794901d17c78024a50270940304540a733656f0d60405160405180910390a45b5050565b600033905090565b610943828261055f565b15610a1657600080600084815260200190815260200160002060000160008373ffffffffffffffffffffffffffffffffffffffff1673ffffffffffffffffffffffffffffffffffffffff16815260200190815260200160002060006101000a81548160ff0219169083151502179055506109bb610931565b73ffffffffffffffffffffffffffffffffffffffff168173ffffffffffffffffffffffffffffffffffffffff16837ff6391f5c32d9c69d2a47ea670b442974b53935d1edc7fd64eb21e047a839171b60405160405180910390a45b5050565b8260030160008373ffffffffffffffffffffffffffffffffffffffff1673ffffffffffffffffffffffffffffffffffffffff16815260200190815260200160002060009054906101000a900460ff1615610ab957808360010160008473ffffffffffffffffffffffffffffffffffffffff1673ffffffffffffffffffffffffffffffffffffffff16815260200190815260200160002081905550610c0c565b60018360030160008473ffffffffffffffffffffffffffffffffffffffff1673ffffffffffffffffffffffffffffffffffffffff16815260200190815260200160002060006101000a81548160ff021916908315150217905550808360010160008473ffffffffffffffffffffffffffffffffffffffff1673ffffffffffffffffffffffffffffffffffffffff1681526020019081526020016000208190555082600001805490508360020160008473ffffffffffffffffffffffffffffffffffffffff1673ffffffffffffffffffffffffffffffffffffffff1681526020019081526020016000208190555082600001829080600181540180825580915050600190039060005260206000200160009091909190916101000a81548173ffffffffffffffffffffffffffffffffffffffff021916908373ffffffffffffffffffffffffffffffffffffffff1602179055505b505050565b6000826000018281548110610c2957610c28611379565b5b9060005260206000200160009054906101000a900473ffffffffffffffffffffffffffffffffffffffff16905092915050565b60008260010160008373ffffffffffffffffffffffffffffffffffffffff1673ffffffffffffffffffffffffffffffffffffffff16815260200190815260200160002054905092915050565b600081600001805490509050919050565b610cc3828261055f565b610d3a57610cd081610d3e565b610cde8360001c6020610d6b565b604051602001610cef9291906114b1565b6040516020818303038152906040526040517f08c379a0000000000000000000000000000000000000000000000000000000008152600401610d319190611535565b60405180910390fd5b5050565b6060610d648273ffffffffffffffffffffffffffffffffffffffff16601460ff16610d6b565b9050919050565b606060006002836002610d7e9190611557565b610d889190611599565b67ffffffffffffffff811115610da157610da06115cd565b5b6040519080825280601f01601f191660200182016040528015610dd35781602001600182028036833780820191505090505b5090507f300000000000000000000000000000000000000000000000000000000000000081600081518110610e0b57610e0a611379565b5b60200101907effffffffffffffffffffffffffffffffffffffffffffffffffffffffffffff1916908160001a9053507f780000000000000000000000000000000000000000000000000000000000000081600181518110610e6f57610e6e611379565b5b60200101907effffffffffffffffffffffffffffffffffffffffffffffffffffffffffffff1916908160001a90535060006001846002610eaf9190611557565b610eb99190611599565b90505b6001811115610f59577f3031323334353637383961626364656600000000000000000000000000000000600f861660108110610efb57610efa611379565b5b1a60f81b828281518110610f1257610f11611379565b5b60200101907effffffffffffffffffffffffffffffffffffffffffffffffffffffffffffff1916908160001a905350600485901c945080610f52906115fc565b9050610ebc565b5060008414610f9d576040517f08c379a0000000000000000000000000000000000000000000000000000000008152600401610f9490611671565b60405180910390fd5b8091505092915050565b600080fd5b60007fffffffff0000000000000000000000000000000000000000000000000000000082169050919050565b610fe181610fac565b8114610fec57600080fd5b50565b600081359050610ffe81610fd8565b92915050565b60006020828403121561101a57611019610fa7565b5b600061102884828501610fef565b91505092915050565b60008115159050919050565b61104681611031565b82525050565b6000602082019050611061600083018461103d565b92915050565b6000819050919050565b61107a81611067565b811461108557600080fd5b50565b60008135905061109781611071565b92915050565b6000602082840312156110b3576110b2610fa7565b5b60006110c184828501611088565b91505092915050565b6110d381611067565b82525050565b60006020820190506110ee60008301846110ca565b92915050565b600073ffffffffffffffffffffffffffffffffffffffff82169050919050565b600061111f826110f4565b9050919050565b61112f81611114565b811461113a57600080fd5b50565b60008135905061114c81611126565b92915050565b6000806040838503121561116957611168610fa7565b5b600061117785828601611088565b92505060206111888582860161113d565b9150509250929050565b6000602082840312156111a8576111a7610fa7565b5b60006111b68482850161113d565b91505092915050565b6000819050919050565b6111d2816111bf565b81146111dd57600080fd5b50565b6000813590506111ef816111c9565b92915050565b6000806040838503121561120c5761120b610fa7565b5b600061121a8582860161113d565b925050602061122b858286016111e0565b9150509250929050565b61123e81611114565b82525050565b60006020820190506112596000830184611235565b92915050565b600082825260208201905092915050565b7f416363657373436f6e74726f6c3a2063616e206f6e6c792072656e6f756e636560008201527f20726f6c657320666f722073656c660000000000000000000000000000000000602082015250565b60006112cc602f8361125f565b91506112d782611270565b604082019050919050565b600060208201905081810360008301526112fb816112bf565b9050919050565b7f4e487b7100000000000000000000000000000000000000000000000000000000600052601160045260246000fd5b600061133c826111bf565b91507fffffffffffffffffffffffffffffffffffffffffffffffffffffffffffffffff820361136e5761136d611302565b5b600182019050919050565b7f4e487b7100000000000000000000000000000000000000000000000000000000600052603260045260246000fd5b600081905092915050565b7f416363657373436f6e74726f6c3a206163636f756e7420000000000000000000600082015250565b60006113e96017836113a8565b91506113f4826113b3565b601782019050919050565b600081519050919050565b60005b8381101561142857808201518184015260208101905061140d565b60008484015250505050565b600061143f826113ff565b61144981856113a8565b935061145981856020860161140a565b80840191505092915050565b7f206973206d697373696e6720726f6c6520000000000000000000000000000000600082015250565b600061149b6011836113a8565b91506114a682611465565b601182019050919050565b60006114bc826113dc565b91506114c88285611434565b91506114d38261148e565b91506114df8284611434565b91508190509392505050565b6000601f19601f8301169050919050565b6000611507826113ff565b611511818561125f565b935061152181856020860161140a565b61152a816114eb565b840191505092915050565b6000602082019050818103600083015261154f81846114fc565b905092915050565b6000611562826111bf565b915061156d836111bf565b925082820261157b816111bf565b9150828204841483151761159257611591611302565b5b5092915050565b60006115a4826111bf565b91506115af836111bf565b92508282019050808211156115c7576115c6611302565b5b92915050565b7f4e487b7100000000000000000000000000000000000000000000000000000000600052604160045260246000fd5b6000611607826111bf565b91506000820361161a57611619611302565b5b600182039050919050565b7f537472696e67733a20686578206c656e67746820696e73756666696369656e74600082015250565b600061165b60208361125f565b915061166682611625565b602082019050919050565b6000602082019050818103600083015261168a8161164e565b905091905056fea2646970667358221220cb24c7d57b2d8f0a5d2d86910914756452f6a01d515af5095c166c13b0059f9064736f6c63430008110033",
  "immutableReferences": {},
  "source": "//SPDX-License-Identifier: MIT\npragma solidity >=0.5.16;\n\nimport \"@openzeppelin/contracts/utils/Counters.sol\";\nimport \"@openzeppelin/contracts/access/AccessControl.sol\";\nimport \"@openzeppelin/contracts/utils/math/SafeMath.sol\";\nimport \"@openzeppelin/contracts/token/ERC721/extensions/ERC721Enumerable.sol\";\n\nlibrary IterableMapping {\n    // Iterable mapping from address to uint;\n    struct Map {\n        address[] keys;\n        mapping(address => uint) values;\n        mapping(address => uint) indexOf;\n        mapping(address => bool) inserted;\n    }\n\n    function get(Map storage map, address key) internal view returns (uint) {\n        return map.values[key];\n    }\n\n    function getKeyAtIndex(Map storage map, uint index) internal view returns (address) {\n        return map.keys[index];\n    }\n\n    function size(Map storage map) internal view returns (uint) {\n        return map.keys.length;\n    }\n\n    function set(Map storage map, address key, uint val) internal {\n        if (map.inserted[key]) {\n            map.values[key] = val;\n        } else {\n            map.inserted[key] = true;\n            map.values[key] = val;\n            map.indexOf[key] = map.keys.length;\n            map.keys.push(key);\n        }\n    }\n\n    function remove(Map storage map, address key) internal {\n        if (!map.inserted[key]) {\n            return;\n        }\n\n        delete map.inserted[key];\n        delete map.values[key];\n\n        uint index = map.indexOf[key];\n        uint lastIndex = map.keys.length - 1;\n        address lastKey = map.keys[lastIndex];\n\n        map.indexOf[lastKey] = index;\n        delete map.indexOf[key];\n\n        map.keys[index] = lastKey;\n        map.keys.pop();\n    }\n}\n\ncontract ProposalManagement is AccessControl{\n    \n    bytes32 public constant ADMIN = keccak256(\"ADMIN\");\n    using IterableMapping for IterableMapping.Map;\n    IterableMapping.Map private proposal;\n    bool private status = false;\n    address winner;\n\n    constructor (){\n        _grantRole(ADMIN, msg.sender);\n    }\n\n    function givePermission (address newAdmin) public onlyRole(ADMIN){\n        grantRole(ADMIN, newAdmin);\n    }\n\n    function revokePermission (address oldAdmin) public onlyRole(ADMIN) {\n        revokeRole(ADMIN, oldAdmin);\n    }\n\n\tfunction sendProposal(address participant, uint256 newQuote) public onlyRole(ADMIN){\n\t\trequire(status);\n\t\tproposal.set(participant, newQuote);\n\t\t\n\t}\n\n\tfunction openTender() public onlyRole(ADMIN) {\n\t\tstatus = true;\n\t}\n\n\tfunction closeTender() public onlyRole(ADMIN){\n\t\tstatus = false;\n\t}\n\n    function getStatus() public view onlyRole(ADMIN)returns(bool){\n        return status;\n    }\n\n\tfunction proposalEvaluation() external onlyRole(ADMIN) returns (address){\n        \n        require(!status);\n        uint256 min;\n\t\tmin = proposal.get(proposal.getKeyAtIndex(0));\n\n\t\tfor (uint i=0; i<proposal.size(); i++) {\n            address participant = proposal.getKeyAtIndex(i);\n            uint256 value= proposal.get(participant);\n            if (value <= min ){\n            \tmin = value;\n            \twinner = participant;\n            }\n        }\n        return winner; \n\t}\n}\n",
  "sourcePath": "/home/daniele/Documenti/truffleReact/truffle/contracts/ProposalManagement.sol",
  "compiler": {
    "name": "solc",
    "version": "0.8.17+commit.8df45f5f.Emscripten.clang"
  },
  "schemaVersion": "3.4.11",
  "updatedAt": "2023-01-17T15:14:53.320Z",
  "networkType": "ethereum",
  "devdoc": {
    "kind": "dev",
    "methods": {
      "getRoleAdmin(bytes32)": {
        "details": "Returns the admin role that controls `role`. See {grantRole} and {revokeRole}. To change a role's admin, use {_setRoleAdmin}."
      },
      "grantRole(bytes32,address)": {
        "details": "Grants `role` to `account`. If `account` had not been already granted `role`, emits a {RoleGranted} event. Requirements: - the caller must have ``role``'s admin role. May emit a {RoleGranted} event."
      },
      "hasRole(bytes32,address)": {
        "details": "Returns `true` if `account` has been granted `role`."
      },
      "renounceRole(bytes32,address)": {
        "details": "Revokes `role` from the calling account. Roles are often managed via {grantRole} and {revokeRole}: this function's purpose is to provide a mechanism for accounts to lose their privileges if they are compromised (such as when a trusted device is misplaced). If the calling account had been revoked `role`, emits a {RoleRevoked} event. Requirements: - the caller must be `account`. May emit a {RoleRevoked} event."
      },
      "revokeRole(bytes32,address)": {
        "details": "Revokes `role` from `account`. If `account` had been granted `role`, emits a {RoleRevoked} event. Requirements: - the caller must have ``role``'s admin role. May emit a {RoleRevoked} event."
      },
      "supportsInterface(bytes4)": {
        "details": "See {IERC165-supportsInterface}."
      }
    },
    "version": 1
  },
  "userdoc": {
    "kind": "user",
    "methods": {},
    "version": 1
  }
}