{
  "contractName": "TenderFactory",
  "abi": [
    {
      "inputs": [
        {
          "internalType": "string",
          "name": "name",
          "type": "string"
        },
        {
          "internalType": "string",
          "name": "symbol",
          "type": "string"
        }
      ],
      "stateMutability": "nonpayable",
      "type": "constructor"
    },
    {
      "anonymous": false,
      "inputs": [
        {
          "indexed": true,
          "internalType": "bytes32",
          "name": "role",
          "type": "bytes32"
        },
        {
          "indexed": true,
          "internalType": "bytes32",
          "name": "previousAdminRole",
          "type": "bytes32"
        },
        {
          "indexed": true,
          "internalType": "bytes32",
          "name": "newAdminRole",
          "type": "bytes32"
        }
      ],
      "name": "RoleAdminChanged",
      "type": "event"
    },
    {
      "anonymous": false,
      "inputs": [
        {
          "indexed": true,
          "internalType": "bytes32",
          "name": "role",
          "type": "bytes32"
        },
        {
          "indexed": true,
          "internalType": "address",
          "name": "account",
          "type": "address"
        },
        {
          "indexed": true,
          "internalType": "address",
          "name": "sender",
          "type": "address"
        }
      ],
      "name": "RoleGranted",
      "type": "event"
    },
    {
      "anonymous": false,
      "inputs": [
        {
          "indexed": true,
          "internalType": "bytes32",
          "name": "role",
          "type": "bytes32"
        },
        {
          "indexed": true,
          "internalType": "address",
          "name": "account",
          "type": "address"
        },
        {
          "indexed": true,
          "internalType": "address",
          "name": "sender",
          "type": "address"
        }
      ],
      "name": "RoleRevoked",
      "type": "event"
    },
    {
      "inputs": [],
      "name": "DEFAULT_ADMIN_ROLE",
      "outputs": [
        {
          "internalType": "bytes32",
          "name": "",
          "type": "bytes32"
        }
      ],
      "stateMutability": "view",
      "type": "function",
      "constant": true
    },
    {
      "inputs": [
        {
          "internalType": "bytes32",
          "name": "role",
          "type": "bytes32"
        }
      ],
      "name": "getRoleAdmin",
      "outputs": [
        {
          "internalType": "bytes32",
          "name": "",
          "type": "bytes32"
        }
      ],
      "stateMutability": "view",
      "type": "function",
      "constant": true
    },
    {
      "inputs": [
        {
          "internalType": "bytes32",
          "name": "role",
          "type": "bytes32"
        },
        {
          "internalType": "address",
          "name": "account",
          "type": "address"
        }
      ],
      "name": "grantRole",
      "outputs": [],
      "stateMutability": "nonpayable",
      "type": "function"
    },
    {
      "inputs": [
        {
          "internalType": "bytes32",
          "name": "role",
          "type": "bytes32"
        },
        {
          "internalType": "address",
          "name": "account",
          "type": "address"
        }
      ],
      "name": "hasRole",
      "outputs": [
        {
          "internalType": "bool",
          "name": "",
          "type": "bool"
        }
      ],
      "stateMutability": "view",
      "type": "function",
      "constant": true
    },
    {
      "inputs": [
        {
          "internalType": "bytes32",
          "name": "role",
          "type": "bytes32"
        },
        {
          "internalType": "address",
          "name": "account",
          "type": "address"
        }
      ],
      "name": "renounceRole",
      "outputs": [],
      "stateMutability": "nonpayable",
      "type": "function"
    },
    {
      "inputs": [
        {
          "internalType": "bytes32",
          "name": "role",
          "type": "bytes32"
        },
        {
          "internalType": "address",
          "name": "account",
          "type": "address"
        }
      ],
      "name": "revokeRole",
      "outputs": [],
      "stateMutability": "nonpayable",
      "type": "function"
    },
    {
      "inputs": [
        {
          "internalType": "bytes4",
          "name": "interfaceId",
          "type": "bytes4"
        }
      ],
      "name": "supportsInterface",
      "outputs": [
        {
          "internalType": "bool",
          "name": "",
          "type": "bool"
        }
      ],
      "stateMutability": "view",
      "type": "function",
      "constant": true
    },
    {
      "inputs": [
        {
          "internalType": "string",
          "name": "tokenURI",
          "type": "string"
        }
      ],
      "name": "openNewTender",
      "outputs": [],
      "stateMutability": "nonpayable",
      "type": "function"
    },
    {
      "inputs": [
        {
          "internalType": "uint256",
          "name": "quote",
          "type": "uint256"
        },
        {
          "internalType": "uint256",
          "name": "id",
          "type": "uint256"
        }
      ],
      "name": "newProposal",
      "outputs": [],
      "stateMutability": "nonpayable",
      "type": "function"
    },
    {
      "inputs": [
        {
          "internalType": "uint256",
          "name": "id",
          "type": "uint256"
        }
      ],
      "name": "assignWinner",
      "outputs": [],
      "stateMutability": "nonpayable",
      "type": "function"
    },
    {
      "inputs": [],
      "name": "getTenders",
      "outputs": [
        {
          "components": [
            {
              "internalType": "uint256",
              "name": "id",
              "type": "uint256"
            },
            {
              "internalType": "bool",
              "name": "status",
              "type": "bool"
            },
            {
              "internalType": "string",
              "name": "URI",
              "type": "string"
            },
            {
              "internalType": "contract Tender",
              "name": "tender",
              "type": "address"
            },
            {
              "internalType": "address",
              "name": "win",
              "type": "address"
            }
          ],
          "internalType": "struct TenderFactory.TenderInfo[]",
          "name": "",
          "type": "tuple[]"
        }
      ],
      "stateMutability": "view",
      "type": "function",
      "constant": true
    }
  ],
  "bytecode": "0x60806040523480156200001157600080fd5b50604051620069cb380380620069cb8339818101604052810190620000379190620003f0565b818160405162000047906200024f565b62000054929190620004d2565b604051809103906000f08015801562000071573d6000803e3d6000fd5b50600360006101000a81548173ffffffffffffffffffffffffffffffffffffffff021916908373ffffffffffffffffffffffffffffffffffffffff160217905550620000e47fdf8b4c520ffe197c5343c6f5aec59570151ef9a492f2c624fd45ddde6135ec4233620000ec60201b60201c565b50506200050d565b620000fe8282620001dd60201b60201c565b620001d957600160008084815260200190815260200160002060000160008373ffffffffffffffffffffffffffffffffffffffff1673ffffffffffffffffffffffffffffffffffffffff16815260200190815260200160002060006101000a81548160ff0219169083151502179055506200017e6200024760201b60201c565b73ffffffffffffffffffffffffffffffffffffffff168173ffffffffffffffffffffffffffffffffffffffff16837f2f8788117e7eff1d82e926ec794901d17c78024a50270940304540a733656f0d60405160405180910390a45b5050565b600080600084815260200190815260200160002060000160008373ffffffffffffffffffffffffffffffffffffffff1673ffffffffffffffffffffffffffffffffffffffff16815260200190815260200160002060009054906101000a900460ff16905092915050565b600033905090565b6135da80620033f183390190565b6000604051905090565b600080fd5b600080fd5b600080fd5b600080fd5b6000601f19601f8301169050919050565b7f4e487b7100000000000000000000000000000000000000000000000000000000600052604160045260246000fd5b620002c6826200027b565b810181811067ffffffffffffffff82111715620002e857620002e76200028c565b5b80604052505050565b6000620002fd6200025d565b90506200030b8282620002bb565b919050565b600067ffffffffffffffff8211156200032e576200032d6200028c565b5b62000339826200027b565b9050602081019050919050565b60005b838110156200036657808201518184015260208101905062000349565b60008484015250505050565b600062000389620003838462000310565b620002f1565b905082815260208101848484011115620003a857620003a762000276565b5b620003b584828562000346565b509392505050565b600082601f830112620003d557620003d462000271565b5b8151620003e784826020860162000372565b91505092915050565b600080604083850312156200040a576200040962000267565b5b600083015167ffffffffffffffff8111156200042b576200042a6200026c565b5b6200043985828601620003bd565b925050602083015167ffffffffffffffff8111156200045d576200045c6200026c565b5b6200046b85828601620003bd565b9150509250929050565b600081519050919050565b600082825260208201905092915050565b60006200049e8262000475565b620004aa818562000480565b9350620004bc81856020860162000346565b620004c7816200027b565b840191505092915050565b60006040820190508181036000830152620004ee818562000491565b9050818103602083015262000504818462000491565b90509392505050565b612ed4806200051d6000396000f3fe60806040523480156200001157600080fd5b5060043610620000b85760003560e01c806336568abe116200007b57806336568abe146200018b57806365a11f2114620001ab57806391d1485414620001cb578063a217fddf1462000201578063a83ee1d71462000223578063d547741f146200024357620000b8565b806301ffc9a714620000bd57806312d0ec8014620000f35780631801f00f1462000115578063248a9ca314620001355780632f2ff15d146200016b575b600080fd5b620000db6004803603810190620000d5919062001318565b62000263565b604051620000ea919062001367565b60405180910390f35b620000fd620002e0565b6040516200010c91906200164a565b60405180910390f35b6200013360048036038101906200012d91906200169f565b620004ac565b005b6200015360048036038101906200014d919062001721565b620005e2565b60405162000162919062001764565b60405180910390f35b620001896004803603810190620001839190620017b2565b62000601565b005b620001a96004803603810190620001a39190620017b2565b62000628565b005b620001c96004803603810190620001c39190620017f9565b620006b2565b005b620001e96004803603810190620001e39190620017b2565b62000a31565b604051620001f8919062001367565b60405180910390f35b6200020b62000a9b565b6040516200021a919062001764565b60405180910390f35b6200024160048036038101906200023b91906200197c565b62000aa2565b005b6200026160048036038101906200025b9190620017b2565b62000cdf565b005b60007f7965db0b000000000000000000000000000000000000000000000000000000007bffffffffffffffffffffffffffffffffffffffffffffffffffffffff1916827bffffffffffffffffffffffffffffffffffffffffffffffffffffffff19161480620002d95750620002d88262000d06565b5b9050919050565b60606001805480602002602001604051908101604052809291908181526020016000905b82821015620004a357838290600052602060002090600502016040518060a0016040529081600082015481526020016001820160009054906101000a900460ff161515151581526020016002820180546200035f90620019fc565b80601f01602080910402602001604051908101604052809291908181526020018280546200038d90620019fc565b8015620003de5780601f10620003b257610100808354040283529160200191620003de565b820191906000526020600020905b815481529060010190602001808311620003c057829003601f168201915b505050505081526020016003820160009054906101000a900473ffffffffffffffffffffffffffffffffffffffff1673ffffffffffffffffffffffffffffffffffffffff1673ffffffffffffffffffffffffffffffffffffffff1681526020016004820160009054906101000a900473ffffffffffffffffffffffffffffffffffffffff1673ffffffffffffffffffffffffffffffffffffffff1673ffffffffffffffffffffffffffffffffffffffff16815250508152602001906001019062000304565b50505050905090565b33620004d97fdf8b4c520ffe197c5343c6f5aec59570151ef9a492f2c624fd45ddde6135ec428262000a31565b15620004e457600080fd5b60018281548110620004fb57620004fa62001a31565b5b906000526020600020906005020160010160009054906101000a900460ff166200052457600080fd5b600182815481106200053b576200053a62001a31565b5b906000526020600020906005020160030160009054906101000a900473ffffffffffffffffffffffffffffffffffffffff1673ffffffffffffffffffffffffffffffffffffffff1663739439c433856040518363ffffffff1660e01b8152600401620005a992919062001a82565b600060405180830381600087803b158015620005c457600080fd5b505af1158015620005d9573d6000803e3d6000fd5b50505050505050565b6000806000838152602001908152602001600020600101549050919050565b6200060c82620005e2565b620006178162000d70565b62000623838362000d88565b505050565b6200063262000e6d565b73ffffffffffffffffffffffffffffffffffffffff168173ffffffffffffffffffffffffffffffffffffffff1614620006a2576040517f08c379a0000000000000000000000000000000000000000000000000000000008152600401620006999062001b36565b60405180910390fd5b620006ae828262000e75565b5050565b7fdf8b4c520ffe197c5343c6f5aec59570151ef9a492f2c624fd45ddde6135ec42620006de8162000d70565b60018281548110620006f557620006f462001a31565b5b906000526020600020906005020160010160009054906101000a900460ff166200071e57600080fd5b6001828154811062000735576200073462001a31565b5b906000526020600020906005020160030160009054906101000a900473ffffffffffffffffffffffffffffffffffffffff1673ffffffffffffffffffffffffffffffffffffffff1663a71f36416040518163ffffffff1660e01b8152600401600060405180830381600087803b158015620007af57600080fd5b505af1158015620007c4573d6000803e3d6000fd5b50505050600060018381548110620007e157620007e062001a31565b5b906000526020600020906005020160010160006101000a81548160ff0219169083151502179055506001828154811062000820576200081f62001a31565b5b906000526020600020906005020160030160009054906101000a900473ffffffffffffffffffffffffffffffffffffffff1673ffffffffffffffffffffffffffffffffffffffff16638e7ea5b26040518163ffffffff1660e01b8152600401602060405180830381865afa1580156200089d573d6000803e3d6000fd5b505050506040513d601f19601f82011682018060405250810190620008c3919062001b6f565b60018381548110620008da57620008d962001a31565b5b906000526020600020906005020160040160006101000a81548173ffffffffffffffffffffffffffffffffffffffff021916908373ffffffffffffffffffffffffffffffffffffffff160217905550600360009054906101000a900473ffffffffffffffffffffffffffffffffffffffff1673ffffffffffffffffffffffffffffffffffffffff166385a66b91600184815481106200097e576200097d62001a31565b5b906000526020600020906005020160040160009054906101000a900473ffffffffffffffffffffffffffffffffffffffff168460018681548110620009c857620009c762001a31565b5b90600052602060002090600502016002016040518463ffffffff1660e01b8152600401620009f99392919062001c46565b600060405180830381600087803b15801562000a1457600080fd5b505af115801562000a29573d6000803e3d6000fd5b505050505050565b600080600084815260200190815260200160002060000160008373ffffffffffffffffffffffffffffffffffffffff1673ffffffffffffffffffffffffffffffffffffffff16815260200190815260200160002060009054906101000a900460ff16905092915050565b6000801b81565b7fdf8b4c520ffe197c5343c6f5aec59570151ef9a492f2c624fd45ddde6135ec4262000ace8162000d70565b600082511162000add57600080fd5b600060405162000aed9062001299565b604051809103906000f08015801562000b0a573d6000803e3d6000fd5b5090508073ffffffffffffffffffffffffffffffffffffffff166350627f8d6040518163ffffffff1660e01b8152600401600060405180830381600087803b15801562000b5657600080fd5b505af115801562000b6b573d6000803e3d6000fd5b5050505060016040518060a0016040528062000b88600262000f5b565b81526020016001151581526020018581526020018373ffffffffffffffffffffffffffffffffffffffff168152602001600073ffffffffffffffffffffffffffffffffffffffff1681525090806001815401808255809150506001900390600052602060002090600502016000909190919091506000820151816000015560208201518160010160006101000a81548160ff021916908315150217905550604082015181600201908162000c3d919062001e3d565b5060608201518160030160006101000a81548173ffffffffffffffffffffffffffffffffffffffff021916908373ffffffffffffffffffffffffffffffffffffffff16021790555060808201518160040160006101000a81548173ffffffffffffffffffffffffffffffffffffffff021916908373ffffffffffffffffffffffffffffffffffffffff160217905550505062000cda600262000f69565b505050565b62000cea82620005e2565b62000cf58162000d70565b62000d01838362000e75565b505050565b60007f01ffc9a7000000000000000000000000000000000000000000000000000000007bffffffffffffffffffffffffffffffffffffffffffffffffffffffff1916827bffffffffffffffffffffffffffffffffffffffffffffffffffffffff1916149050919050565b62000d858162000d7f62000e6d565b62000f7f565b50565b62000d94828262000a31565b62000e6957600160008084815260200190815260200160002060000160008373ffffffffffffffffffffffffffffffffffffffff1673ffffffffffffffffffffffffffffffffffffffff16815260200190815260200160002060006101000a81548160ff02191690831515021790555062000e0e62000e6d565b73ffffffffffffffffffffffffffffffffffffffff168173ffffffffffffffffffffffffffffffffffffffff16837f2f8788117e7eff1d82e926ec794901d17c78024a50270940304540a733656f0d60405160405180910390a45b5050565b600033905090565b62000e81828262000a31565b1562000f5757600080600084815260200190815260200160002060000160008373ffffffffffffffffffffffffffffffffffffffff1673ffffffffffffffffffffffffffffffffffffffff16815260200190815260200160002060006101000a81548160ff02191690831515021790555062000efc62000e6d565b73ffffffffffffffffffffffffffffffffffffffff168173ffffffffffffffffffffffffffffffffffffffff16837ff6391f5c32d9c69d2a47ea670b442974b53935d1edc7fd64eb21e047a839171b60405160405180910390a45b5050565b600081600001549050919050565b6001816000016000828254019250508190555050565b62000f8b828262000a31565b6200100b5762000f9b816200100f565b62000fab8360001c60206200103e565b60405160200162000fbe92919062002006565b6040516020818303038152906040526040517f08c379a000000000000000000000000000000000000000000000000000000000815260040162001002919062002089565b60405180910390fd5b5050565b6060620010378273ffffffffffffffffffffffffffffffffffffffff16601460ff166200103e565b9050919050565b606060006002836002620010539190620020dc565b6200105f919062002127565b67ffffffffffffffff8111156200107b576200107a62001835565b5b6040519080825280601f01601f191660200182016040528015620010ae5781602001600182028036833780820191505090505b5090507f300000000000000000000000000000000000000000000000000000000000000081600081518110620010e957620010e862001a31565b5b60200101907effffffffffffffffffffffffffffffffffffffffffffffffffffffffffffff1916908160001a9053507f78000000000000000000000000000000000000000000000000000000000000008160018151811062001150576200114f62001a31565b5b60200101907effffffffffffffffffffffffffffffffffffffffffffffffffffffffffffff1916908160001a90535060006001846002620011929190620020dc565b6200119e919062002127565b90505b600181111562001248577f3031323334353637383961626364656600000000000000000000000000000000600f861660108110620011e457620011e362001a31565b5b1a60f81b828281518110620011fe57620011fd62001a31565b5b60200101907effffffffffffffffffffffffffffffffffffffffffffffffffffffffffffff1916908160001a905350600485901c945080620012409062002162565b9050620011a1565b50600084146200128f576040517f08c379a00000000000000000000000000000000000000000000000000000000081526004016200128690620021e0565b60405180910390fd5b8091505092915050565b610c9c806200220383390190565b6000604051905090565b600080fd5b600080fd5b60007fffffffff0000000000000000000000000000000000000000000000000000000082169050919050565b620012f281620012bb565b8114620012fe57600080fd5b50565b6000813590506200131281620012e7565b92915050565b600060208284031215620013315762001330620012b1565b5b6000620013418482850162001301565b91505092915050565b60008115159050919050565b62001361816200134a565b82525050565b60006020820190506200137e600083018462001356565b92915050565b600081519050919050565b600082825260208201905092915050565b6000819050602082019050919050565b6000819050919050565b620013c581620013b0565b82525050565b620013d6816200134a565b82525050565b600081519050919050565b600082825260208201905092915050565b60005b8381101562001418578082015181840152602081019050620013fb565b60008484015250505050565b6000601f19601f8301169050919050565b60006200144282620013dc565b6200144e8185620013e7565b935062001460818560208601620013f8565b6200146b8162001424565b840191505092915050565b600073ffffffffffffffffffffffffffffffffffffffff82169050919050565b6000819050919050565b6000620014c1620014bb620014b58462001476565b62001496565b62001476565b9050919050565b6000620014d582620014a0565b9050919050565b6000620014e982620014c8565b9050919050565b620014fb81620014dc565b82525050565b60006200150e8262001476565b9050919050565b620015208162001501565b82525050565b600060a083016000830151620015406000860182620013ba565b506020830151620015556020860182620013cb565b50604083015184820360408601526200156f828262001435565b9150506060830151620015866060860182620014f0565b5060808301516200159b608086018262001515565b508091505092915050565b6000620015b4838362001526565b905092915050565b6000602082019050919050565b6000620015d68262001384565b620015e281856200138f565b935083602082028501620015f685620013a0565b8060005b85811015620016385784840389528151620016168582620015a6565b94506200162383620015bc565b925060208a01995050600181019050620015fa565b50829750879550505050505092915050565b60006020820190508181036000830152620016668184620015c9565b905092915050565b6200167981620013b0565b81146200168557600080fd5b50565b60008135905062001699816200166e565b92915050565b60008060408385031215620016b957620016b8620012b1565b5b6000620016c98582860162001688565b9250506020620016dc8582860162001688565b9150509250929050565b6000819050919050565b620016fb81620016e6565b81146200170757600080fd5b50565b6000813590506200171b81620016f0565b92915050565b6000602082840312156200173a5762001739620012b1565b5b60006200174a848285016200170a565b91505092915050565b6200175e81620016e6565b82525050565b60006020820190506200177b600083018462001753565b92915050565b6200178c8162001501565b81146200179857600080fd5b50565b600081359050620017ac8162001781565b92915050565b60008060408385031215620017cc57620017cb620012b1565b5b6000620017dc858286016200170a565b9250506020620017ef858286016200179b565b9150509250929050565b600060208284031215620018125762001811620012b1565b5b6000620018228482850162001688565b91505092915050565b600080fd5b600080fd5b7f4e487b7100000000000000000000000000000000000000000000000000000000600052604160045260246000fd5b6200186f8262001424565b810181811067ffffffffffffffff8211171562001891576200189062001835565b5b80604052505050565b6000620018a6620012a7565b9050620018b4828262001864565b919050565b600067ffffffffffffffff821115620018d757620018d662001835565b5b620018e28262001424565b9050602081019050919050565b82818337600083830152505050565b6000620019156200190f84620018b9565b6200189a565b90508281526020810184848401111562001934576200193362001830565b5b62001941848285620018ef565b509392505050565b600082601f8301126200196157620019606200182b565b5b813562001973848260208601620018fe565b91505092915050565b600060208284031215620019955762001994620012b1565b5b600082013567ffffffffffffffff811115620019b657620019b5620012b6565b5b620019c48482850162001949565b91505092915050565b7f4e487b7100000000000000000000000000000000000000000000000000000000600052602260045260246000fd5b6000600282049050600182168062001a1557607f821691505b60208210810362001a2b5762001a2a620019cd565b5b50919050565b7f4e487b7100000000000000000000000000000000000000000000000000000000600052603260045260246000fd5b62001a6b8162001501565b82525050565b62001a7c81620013b0565b82525050565b600060408201905062001a99600083018562001a60565b62001aa8602083018462001a71565b9392505050565b600082825260208201905092915050565b7f416363657373436f6e74726f6c3a2063616e206f6e6c792072656e6f756e636560008201527f20726f6c657320666f722073656c660000000000000000000000000000000000602082015250565b600062001b1e602f8362001aaf565b915062001b2b8262001ac0565b604082019050919050565b6000602082019050818103600083015262001b518162001b0f565b9050919050565b60008151905062001b698162001781565b92915050565b60006020828403121562001b885762001b87620012b1565b5b600062001b988482850162001b58565b91505092915050565b60008190508160005260206000209050919050565b6000815462001bc581620019fc565b62001bd1818662001aaf565b9450600182166000811462001bef576001811462001c065762001c3d565b60ff19831686528115156020028601935062001c3d565b62001c118562001ba1565b60005b8381101562001c355781548189015260018201915060208101905062001c14565b808801955050505b50505092915050565b600060608201905062001c5d600083018662001a60565b62001c6c602083018562001a71565b818103604083015262001c80818462001bb6565b9050949350505050565b60006020601f8301049050919050565b600082821b905092915050565b60006008830262001cd97fffffffffffffffffffffffffffffffffffffffffffffffffffffffffffffffff8262001c9a565b62001ce5868362001c9a565b95508019841693508086168417925050509392505050565b600062001d1e62001d1862001d1284620013b0565b62001496565b620013b0565b9050919050565b6000819050919050565b62001d3a8362001cfd565b62001d5262001d498262001d25565b84845462001ca7565b825550505050565b600090565b62001d6962001d5a565b62001d7681848462001d2f565b505050565b5b8181101562001d9e5762001d9260008262001d5f565b60018101905062001d7c565b5050565b601f82111562001ded5762001db78162001ba1565b62001dc28462001c8a565b8101602085101562001dd2578190505b62001dea62001de18562001c8a565b83018262001d7b565b50505b505050565b600082821c905092915050565b600062001e126000198460080262001df2565b1980831691505092915050565b600062001e2d838362001dff565b9150826002028217905092915050565b62001e4882620013dc565b67ffffffffffffffff81111562001e645762001e6362001835565b5b62001e708254620019fc565b62001e7d82828562001da2565b600060209050601f83116001811462001eb5576000841562001ea0578287015190505b62001eac858262001e1f565b86555062001f1c565b601f19841662001ec58662001ba1565b60005b8281101562001eef5784890151825560018201915060208501945060208101905062001ec8565b8683101562001f0f578489015162001f0b601f89168262001dff565b8355505b6001600288020188555050505b505050505050565b600081905092915050565b7f416363657373436f6e74726f6c3a206163636f756e7420000000000000000000600082015250565b600062001f6760178362001f24565b915062001f748262001f2f565b601782019050919050565b600062001f8c82620013dc565b62001f98818562001f24565b935062001faa818560208601620013f8565b80840191505092915050565b7f206973206d697373696e6720726f6c6520000000000000000000000000000000600082015250565b600062001fee60118362001f24565b915062001ffb8262001fb6565b601182019050919050565b6000620020138262001f58565b915062002021828562001f7f565b91506200202e8262001fdf565b91506200203c828462001f7f565b91508190509392505050565b60006200205582620013dc565b62002061818562001aaf565b935062002073818560208601620013f8565b6200207e8162001424565b840191505092915050565b60006020820190508181036000830152620020a5818462002048565b905092915050565b7f4e487b7100000000000000000000000000000000000000000000000000000000600052601160045260246000fd5b6000620020e982620013b0565b9150620020f683620013b0565b92508282026200210681620013b0565b9150828204841483151762002120576200211f620020ad565b5b5092915050565b60006200213482620013b0565b91506200214183620013b0565b92508282019050808211156200215c576200215b620020ad565b5b92915050565b60006200216f82620013b0565b915060008203620021855762002184620020ad565b5b600182039050919050565b7f537472696e67733a20686578206c656e67746820696e73756666696369656e74600082015250565b6000620021c860208362001aaf565b9150620021d58262002190565b602082019050919050565b60006020820190508181036000830152620021fb81620021b9565b905091905056fe60806040526001600060146101000a81548160ff0219169083600181111561002a5761002961012e565b5b0217905550600060065534801561004057600080fd5b5061005d61005261006260201b60201c565b61006a60201b60201c565b61015d565b600033905090565b60008060009054906101000a900473ffffffffffffffffffffffffffffffffffffffff169050816000806101000a81548173ffffffffffffffffffffffffffffffffffffffff021916908373ffffffffffffffffffffffffffffffffffffffff1602179055508173ffffffffffffffffffffffffffffffffffffffff168173ffffffffffffffffffffffffffffffffffffffff167f8be0079c531659141344cd1fd0a4f28419497f9722a3daafe3b4186f6b6457e060405160405180910390a35050565b7f4e487b7100000000000000000000000000000000000000000000000000000000600052602160045260246000fd5b610b308061016c6000396000f3fe608060405234801561001057600080fd5b50600436106100885760003560e01c80638da5cb5b1161005b5780638da5cb5b146100db5780638e7ea5b2146100f9578063a71f364114610117578063f2fde38b1461012157610088565b80634e69d5601461008d57806350627f8d146100ab578063715018a6146100b5578063739439c4146100bf575b600080fd5b61009561013d565b6040516100a29190610805565b60405180910390f35b6100b3610193565b005b6100bd6101c7565b005b6100d960048036038101906100d491906108b9565b6101db565b005b6100e36102d9565b6040516100f09190610908565b60405180910390f35b610101610302565b60405161010e9190610908565b60405180910390f35b61011f6103a3565b005b61013b60048036038101906101369190610923565b610433565b005b60006101476104b6565b6000600181111561015b5761015a610950565b5b600060149054906101000a900460ff16600181111561017d5761017c610950565b5b0361018b5760019050610190565b600090505b90565b61019b6104b6565b60008060146101000a81548160ff021916908360018111156101c0576101bf610950565b5b0217905550565b6101cf6104b6565b6101d96000610534565b565b6101e36104b6565b60008060018111156101f8576101f7610950565b5b600060149054906101000a900460ff16600181111561021a57610219610950565b5b14610251576040517fa264a95400000000000000000000000000000000000000000000000000000000815260040160405180910390fd5b6000821161025e57600080fd5b610274838360016105f89092919063ffffffff16565b60006006541480610286575060065482105b156102d4578160068190555082600560006101000a81548173ffffffffffffffffffffffffffffffffffffffff021916908373ffffffffffffffffffffffffffffffffffffffff1602179055505b505050565b60008060009054906101000a900473ffffffffffffffffffffffffffffffffffffffff16905090565b600061030c6104b6565b600180600181111561032157610320610950565b5b600060149054906101000a900460ff16600181111561034357610342610950565b5b1461037a576040517fa264a95400000000000000000000000000000000000000000000000000000000815260040160405180910390fd5b600560009054906101000a900473ffffffffffffffffffffffffffffffffffffffff1691505090565b6103ab6104b6565b600073ffffffffffffffffffffffffffffffffffffffff16600560009054906101000a900473ffffffffffffffffffffffffffffffffffffffff1673ffffffffffffffffffffffffffffffffffffffff160361040657600080fd5b6001600060146101000a81548160ff0219169083600181111561042c5761042b610950565b5b0217905550565b61043b6104b6565b600073ffffffffffffffffffffffffffffffffffffffff168173ffffffffffffffffffffffffffffffffffffffff16036104aa576040517f08c379a00000000000000000000000000000000000000000000000000000000081526004016104a190610a02565b60405180910390fd5b6104b381610534565b50565b6104be6107e2565b73ffffffffffffffffffffffffffffffffffffffff166104dc6102d9565b73ffffffffffffffffffffffffffffffffffffffff1614610532576040517f08c379a000000000000000000000000000000000000000000000000000000000815260040161052990610a6e565b60405180910390fd5b565b60008060009054906101000a900473ffffffffffffffffffffffffffffffffffffffff169050816000806101000a81548173ffffffffffffffffffffffffffffffffffffffff021916908373ffffffffffffffffffffffffffffffffffffffff1602179055508173ffffffffffffffffffffffffffffffffffffffff168173ffffffffffffffffffffffffffffffffffffffff167f8be0079c531659141344cd1fd0a4f28419497f9722a3daafe3b4186f6b6457e060405160405180910390a35050565b8260030160008373ffffffffffffffffffffffffffffffffffffffff1673ffffffffffffffffffffffffffffffffffffffff16815260200190815260200160002060009054906101000a900460ff166107a25760018360030160008473ffffffffffffffffffffffffffffffffffffffff1673ffffffffffffffffffffffffffffffffffffffff16815260200190815260200160002060006101000a81548160ff021916908315150217905550808360010160008473ffffffffffffffffffffffffffffffffffffffff1673ffffffffffffffffffffffffffffffffffffffff1681526020019081526020016000208190555082600001805490508360020160008473ffffffffffffffffffffffffffffffffffffffff1673ffffffffffffffffffffffffffffffffffffffff1681526020019081526020016000208190555082600001829080600181540180825580915050600190039060005260206000200160009091909190916101000a81548173ffffffffffffffffffffffffffffffffffffffff021916908373ffffffffffffffffffffffffffffffffffffffff1602179055506107dd565b6040517f08c379a00000000000000000000000000000000000000000000000000000000081526004016107d490610ada565b60405180910390fd5b505050565b600033905090565b60008115159050919050565b6107ff816107ea565b82525050565b600060208201905061081a60008301846107f6565b92915050565b600080fd5b600073ffffffffffffffffffffffffffffffffffffffff82169050919050565b600061085082610825565b9050919050565b61086081610845565b811461086b57600080fd5b50565b60008135905061087d81610857565b92915050565b6000819050919050565b61089681610883565b81146108a157600080fd5b50565b6000813590506108b38161088d565b92915050565b600080604083850312156108d0576108cf610820565b5b60006108de8582860161086e565b92505060206108ef858286016108a4565b9150509250929050565b61090281610845565b82525050565b600060208201905061091d60008301846108f9565b92915050565b60006020828403121561093957610938610820565b5b60006109478482850161086e565b91505092915050565b7f4e487b7100000000000000000000000000000000000000000000000000000000600052602160045260246000fd5b600082825260208201905092915050565b7f4f776e61626c653a206e6577206f776e657220697320746865207a65726f206160008201527f6464726573730000000000000000000000000000000000000000000000000000602082015250565b60006109ec60268361097f565b91506109f782610990565b604082019050919050565b60006020820190508181036000830152610a1b816109df565b9050919050565b7f4f776e61626c653a2063616c6c6572206973206e6f7420746865206f776e6572600082015250565b6000610a5860208361097f565b9150610a6382610a22565b602082019050919050565b60006020820190508181036000830152610a8781610a4b565b9050919050565b7f76616c756520776177207375626d697474656420322074696d65730000000000600082015250565b6000610ac4601b8361097f565b9150610acf82610a8e565b602082019050919050565b60006020820190508181036000830152610af381610ab7565b905091905056fea2646970667358221220562379281fd2dfee2aa7a9efbd0023ef214a345e61d1b22c7951b72f789acd2264736f6c63430008130033a26469706673582212200cba0994090603d910a9f32fefe0348fd8aeae8e8af8f001fd8ca7c91636b9b164736f6c6343000813003360806040523480156200001157600080fd5b50604051620035da380380620035da8339818101604052810190620000379190620002e8565b818181600090816200004a9190620005b8565b5080600190816200005c9190620005b8565b5050506200007f620000736200008760201b60201c565b6200008f60201b60201c565b50506200069f565b600033905090565b6000600760009054906101000a900473ffffffffffffffffffffffffffffffffffffffff16905081600760006101000a81548173ffffffffffffffffffffffffffffffffffffffff021916908373ffffffffffffffffffffffffffffffffffffffff1602179055508173ffffffffffffffffffffffffffffffffffffffff168173ffffffffffffffffffffffffffffffffffffffff167f8be0079c531659141344cd1fd0a4f28419497f9722a3daafe3b4186f6b6457e060405160405180910390a35050565b6000604051905090565b600080fd5b600080fd5b600080fd5b600080fd5b6000601f19601f8301169050919050565b7f4e487b7100000000000000000000000000000000000000000000000000000000600052604160045260246000fd5b620001be8262000173565b810181811067ffffffffffffffff82111715620001e057620001df62000184565b5b80604052505050565b6000620001f562000155565b9050620002038282620001b3565b919050565b600067ffffffffffffffff82111562000226576200022562000184565b5b620002318262000173565b9050602081019050919050565b60005b838110156200025e57808201518184015260208101905062000241565b60008484015250505050565b6000620002816200027b8462000208565b620001e9565b905082815260208101848484011115620002a0576200029f6200016e565b5b620002ad8482856200023e565b509392505050565b600082601f830112620002cd57620002cc62000169565b5b8151620002df8482602086016200026a565b91505092915050565b600080604083850312156200030257620003016200015f565b5b600083015167ffffffffffffffff81111562000323576200032262000164565b5b6200033185828601620002b5565b925050602083015167ffffffffffffffff81111562000355576200035462000164565b5b6200036385828601620002b5565b9150509250929050565b600081519050919050565b7f4e487b7100000000000000000000000000000000000000000000000000000000600052602260045260246000fd5b60006002820490506001821680620003c057607f821691505b602082108103620003d657620003d562000378565b5b50919050565b60008190508160005260206000209050919050565b60006020601f8301049050919050565b600082821b905092915050565b600060088302620004407fffffffffffffffffffffffffffffffffffffffffffffffffffffffffffffffff8262000401565b6200044c868362000401565b95508019841693508086168417925050509392505050565b6000819050919050565b6000819050919050565b600062000499620004936200048d8462000464565b6200046e565b62000464565b9050919050565b6000819050919050565b620004b58362000478565b620004cd620004c482620004a0565b8484546200040e565b825550505050565b600090565b620004e4620004d5565b620004f1818484620004aa565b505050565b5b8181101562000519576200050d600082620004da565b600181019050620004f7565b5050565b601f82111562000568576200053281620003dc565b6200053d84620003f1565b810160208510156200054d578190505b620005656200055c85620003f1565b830182620004f6565b50505b505050565b600082821c905092915050565b60006200058d600019846008026200056d565b1980831691505092915050565b6000620005a883836200057a565b9150826002028217905092915050565b620005c3826200036d565b67ffffffffffffffff811115620005df57620005de62000184565b5b620005eb8254620003a7565b620005f88282856200051d565b600060209050601f8311600181146200063057600084156200061b578287015190505b6200062785826200059a565b86555062000697565b601f1984166200064086620003dc565b60005b828110156200066a5784890151825560018201915060208501945060208101905062000643565b868310156200068a578489015162000686601f8916826200057a565b8355505b6001600288020188555050505b505050505050565b612f2b80620006af6000396000f3fe608060405234801561001057600080fd5b506004361061010b5760003560e01c8063715018a6116100a2578063a22cb46511610071578063a22cb465146102a4578063b88d4fde146102c0578063c87b56dd146102dc578063e985e9c51461030c578063f2fde38b1461033c5761010b565b8063715018a61461024257806385a66b911461024c5780638da5cb5b1461026857806395d89b41146102865761010b565b806323b872dd116100de57806323b872dd146101aa57806342842e0e146101c65780636352211e146101e257806370a08231146102125761010b565b806301ffc9a71461011057806306fdde0314610140578063081812fc1461015e578063095ea7b31461018e575b600080fd5b61012a60048036038101906101259190611c72565b610358565b6040516101379190611cba565b60405180910390f35b61014861043a565b6040516101559190611d65565b60405180910390f35b61017860048036038101906101739190611dbd565b6104cc565b6040516101859190611e2b565b60405180910390f35b6101a860048036038101906101a39190611e72565b610512565b005b6101c460048036038101906101bf9190611eb2565b610629565b005b6101e060048036038101906101db9190611eb2565b610689565b005b6101fc60048036038101906101f79190611dbd565b6106a9565b6040516102099190611e2b565b60405180910390f35b61022c60048036038101906102279190611f05565b61072f565b6040516102399190611f41565b60405180910390f35b61024a6107e6565b005b61026660048036038101906102619190612091565b6107fa565b005b61027061081b565b60405161027d9190611e2b565b60405180910390f35b61028e610845565b60405161029b9190611d65565b60405180910390f35b6102be60048036038101906102b9919061212c565b6108d7565b005b6102da60048036038101906102d5919061220d565b6108ed565b005b6102f660048036038101906102f19190611dbd565b61094f565b6040516103039190611d65565b60405180910390f35b61032660048036038101906103219190612290565b610a61565b6040516103339190611cba565b60405180910390f35b61035660048036038101906103519190611f05565b610af5565b005b60007f80ac58cd000000000000000000000000000000000000000000000000000000007bffffffffffffffffffffffffffffffffffffffffffffffffffffffff1916827bffffffffffffffffffffffffffffffffffffffffffffffffffffffff1916148061042357507f5b5e139f000000000000000000000000000000000000000000000000000000007bffffffffffffffffffffffffffffffffffffffffffffffffffffffff1916827bffffffffffffffffffffffffffffffffffffffffffffffffffffffff1916145b80610433575061043282610b78565b5b9050919050565b606060008054610449906122ff565b80601f0160208091040260200160405190810160405280929190818152602001828054610475906122ff565b80156104c25780601f10610497576101008083540402835291602001916104c2565b820191906000526020600020905b8154815290600101906020018083116104a557829003601f168201915b5050505050905090565b60006104d782610be2565b6004600083815260200190815260200160002060009054906101000a900473ffffffffffffffffffffffffffffffffffffffff169050919050565b600061051d826106a9565b90508073ffffffffffffffffffffffffffffffffffffffff168373ffffffffffffffffffffffffffffffffffffffff160361058d576040517f08c379a0000000000000000000000000000000000000000000000000000000008152600401610584906123a2565b60405180910390fd5b8073ffffffffffffffffffffffffffffffffffffffff166105ac610c2d565b73ffffffffffffffffffffffffffffffffffffffff1614806105db57506105da816105d5610c2d565b610a61565b5b61061a576040517f08c379a000000000000000000000000000000000000000000000000000000000815260040161061190612434565b60405180910390fd5b6106248383610c35565b505050565b61063a610634610c2d565b82610cee565b610679576040517f08c379a0000000000000000000000000000000000000000000000000000000008152600401610670906124c6565b60405180910390fd5b610684838383610d83565b505050565b6106a4838383604051806020016040528060008152506108ed565b505050565b6000806106b58361107c565b9050600073ffffffffffffffffffffffffffffffffffffffff168173ffffffffffffffffffffffffffffffffffffffff1603610726576040517f08c379a000000000000000000000000000000000000000000000000000000000815260040161071d90612532565b60405180910390fd5b80915050919050565b60008073ffffffffffffffffffffffffffffffffffffffff168273ffffffffffffffffffffffffffffffffffffffff160361079f576040517f08c379a0000000000000000000000000000000000000000000000000000000008152600401610796906125c4565b60405180910390fd5b600360008373ffffffffffffffffffffffffffffffffffffffff1673ffffffffffffffffffffffffffffffffffffffff168152602001908152602001600020549050919050565b6107ee6110b9565b6107f86000611137565b565b6108026110b9565b61080c83836111fd565b610816828261141a565b505050565b6000600760009054906101000a900473ffffffffffffffffffffffffffffffffffffffff16905090565b606060018054610854906122ff565b80601f0160208091040260200160405190810160405280929190818152602001828054610880906122ff565b80156108cd5780601f106108a2576101008083540402835291602001916108cd565b820191906000526020600020905b8154815290600101906020018083116108b057829003601f168201915b5050505050905090565b6108e96108e2610c2d565b8383611487565b5050565b6108fe6108f8610c2d565b83610cee565b61093d576040517f08c379a0000000000000000000000000000000000000000000000000000000008152600401610934906124c6565b60405180910390fd5b610949848484846115f3565b50505050565b606061095a82610be2565b600060066000848152602001908152602001600020805461097a906122ff565b80601f01602080910402602001604051908101604052809291908181526020018280546109a6906122ff565b80156109f35780601f106109c8576101008083540402835291602001916109f3565b820191906000526020600020905b8154815290600101906020018083116109d657829003601f168201915b505050505090506000610a0461164f565b90506000815103610a19578192505050610a5c565b600082511115610a4e578082604051602001610a36929190612620565b60405160208183030381529060405292505050610a5c565b610a5784611666565b925050505b919050565b6000600560008473ffffffffffffffffffffffffffffffffffffffff1673ffffffffffffffffffffffffffffffffffffffff16815260200190815260200160002060008373ffffffffffffffffffffffffffffffffffffffff1673ffffffffffffffffffffffffffffffffffffffff16815260200190815260200160002060009054906101000a900460ff16905092915050565b610afd6110b9565b600073ffffffffffffffffffffffffffffffffffffffff168173ffffffffffffffffffffffffffffffffffffffff1603610b6c576040517f08c379a0000000000000000000000000000000000000000000000000000000008152600401610b63906126b6565b60405180910390fd5b610b7581611137565b50565b60007f01ffc9a7000000000000000000000000000000000000000000000000000000007bffffffffffffffffffffffffffffffffffffffffffffffffffffffff1916827bffffffffffffffffffffffffffffffffffffffffffffffffffffffff1916149050919050565b610beb816116ce565b610c2a576040517f08c379a0000000000000000000000000000000000000000000000000000000008152600401610c2190612532565b60405180910390fd5b50565b600033905090565b816004600083815260200190815260200160002060006101000a81548173ffffffffffffffffffffffffffffffffffffffff021916908373ffffffffffffffffffffffffffffffffffffffff160217905550808273ffffffffffffffffffffffffffffffffffffffff16610ca8836106a9565b73ffffffffffffffffffffffffffffffffffffffff167f8c5be1e5ebec7d5bd14f71427d1e84f3dd0314c0f7b2291e5b200ac8c7c3b92560405160405180910390a45050565b600080610cfa836106a9565b90508073ffffffffffffffffffffffffffffffffffffffff168473ffffffffffffffffffffffffffffffffffffffff161480610d3c5750610d3b8185610a61565b5b80610d7a57508373ffffffffffffffffffffffffffffffffffffffff16610d62846104cc565b73ffffffffffffffffffffffffffffffffffffffff16145b91505092915050565b8273ffffffffffffffffffffffffffffffffffffffff16610da3826106a9565b73ffffffffffffffffffffffffffffffffffffffff1614610df9576040517f08c379a0000000000000000000000000000000000000000000000000000000008152600401610df090612748565b60405180910390fd5b600073ffffffffffffffffffffffffffffffffffffffff168273ffffffffffffffffffffffffffffffffffffffff1603610e68576040517f08c379a0000000000000000000000000000000000000000000000000000000008152600401610e5f906127da565b60405180910390fd5b610e75838383600161170f565b8273ffffffffffffffffffffffffffffffffffffffff16610e95826106a9565b73ffffffffffffffffffffffffffffffffffffffff1614610eeb576040517f08c379a0000000000000000000000000000000000000000000000000000000008152600401610ee290612748565b60405180910390fd5b6004600082815260200190815260200160002060006101000a81549073ffffffffffffffffffffffffffffffffffffffff02191690556001600360008573ffffffffffffffffffffffffffffffffffffffff1673ffffffffffffffffffffffffffffffffffffffff168152602001908152602001600020600082825403925050819055506001600360008473ffffffffffffffffffffffffffffffffffffffff1673ffffffffffffffffffffffffffffffffffffffff16815260200190815260200160002060008282540192505081905550816002600083815260200190815260200160002060006101000a81548173ffffffffffffffffffffffffffffffffffffffff021916908373ffffffffffffffffffffffffffffffffffffffff160217905550808273ffffffffffffffffffffffffffffffffffffffff168473ffffffffffffffffffffffffffffffffffffffff167fddf252ad1be2c89b69c2b068fc378daa952ba7f163c4a11628f55a4df523b3ef60405160405180910390a46110778383836001611835565b505050565b60006002600083815260200190815260200160002060009054906101000a900473ffffffffffffffffffffffffffffffffffffffff169050919050565b6110c1610c2d565b73ffffffffffffffffffffffffffffffffffffffff166110df61081b565b73ffffffffffffffffffffffffffffffffffffffff1614611135576040517f08c379a000000000000000000000000000000000000000000000000000000000815260040161112c90612846565b60405180910390fd5b565b6000600760009054906101000a900473ffffffffffffffffffffffffffffffffffffffff16905081600760006101000a81548173ffffffffffffffffffffffffffffffffffffffff021916908373ffffffffffffffffffffffffffffffffffffffff1602179055508173ffffffffffffffffffffffffffffffffffffffff168173ffffffffffffffffffffffffffffffffffffffff167f8be0079c531659141344cd1fd0a4f28419497f9722a3daafe3b4186f6b6457e060405160405180910390a35050565b600073ffffffffffffffffffffffffffffffffffffffff168273ffffffffffffffffffffffffffffffffffffffff160361126c576040517f08c379a0000000000000000000000000000000000000000000000000000000008152600401611263906128b2565b60405180910390fd5b611275816116ce565b156112b5576040517f08c379a00000000000000000000000000000000000000000000000000000000081526004016112ac9061291e565b60405180910390fd5b6112c360008383600161170f565b6112cc816116ce565b1561130c576040517f08c379a00000000000000000000000000000000000000000000000000000000081526004016113039061291e565b60405180910390fd5b6001600360008473ffffffffffffffffffffffffffffffffffffffff1673ffffffffffffffffffffffffffffffffffffffff16815260200190815260200160002060008282540192505081905550816002600083815260200190815260200160002060006101000a81548173ffffffffffffffffffffffffffffffffffffffff021916908373ffffffffffffffffffffffffffffffffffffffff160217905550808273ffffffffffffffffffffffffffffffffffffffff16600073ffffffffffffffffffffffffffffffffffffffff167fddf252ad1be2c89b69c2b068fc378daa952ba7f163c4a11628f55a4df523b3ef60405160405180910390a4611416600083836001611835565b5050565b611423826116ce565b611462576040517f08c379a0000000000000000000000000000000000000000000000000000000008152600401611459906129b0565b60405180910390fd5b806006600084815260200190815260200160002090816114829190612b7c565b505050565b8173ffffffffffffffffffffffffffffffffffffffff168373ffffffffffffffffffffffffffffffffffffffff16036114f5576040517f08c379a00000000000000000000000000000000000000000000000000000000081526004016114ec90612c9a565b60405180910390fd5b80600560008573ffffffffffffffffffffffffffffffffffffffff1673ffffffffffffffffffffffffffffffffffffffff16815260200190815260200160002060008473ffffffffffffffffffffffffffffffffffffffff1673ffffffffffffffffffffffffffffffffffffffff16815260200190815260200160002060006101000a81548160ff0219169083151502179055508173ffffffffffffffffffffffffffffffffffffffff168373ffffffffffffffffffffffffffffffffffffffff167f17307eab39ab6107e8899845ad3d59bd9653f200f220920489ca2b5937696c31836040516115e69190611cba565b60405180910390a3505050565b6115fe848484610d83565b61160a8484848461183b565b611649576040517f08c379a000000000000000000000000000000000000000000000000000000000815260040161164090612d2c565b60405180910390fd5b50505050565b606060405180602001604052806000815250905090565b606061167182610be2565b600061167b61164f565b9050600081511161169b57604051806020016040528060008152506116c6565b806116a5846119c2565b6040516020016116b6929190612620565b6040516020818303038152906040525b915050919050565b60008073ffffffffffffffffffffffffffffffffffffffff166116f08361107c565b73ffffffffffffffffffffffffffffffffffffffff1614159050919050565b600181111561182f57600073ffffffffffffffffffffffffffffffffffffffff168473ffffffffffffffffffffffffffffffffffffffff16146117a35780600360008673ffffffffffffffffffffffffffffffffffffffff1673ffffffffffffffffffffffffffffffffffffffff168152602001908152602001600020600082825461179b9190612d7b565b925050819055505b600073ffffffffffffffffffffffffffffffffffffffff168373ffffffffffffffffffffffffffffffffffffffff161461182e5780600360008573ffffffffffffffffffffffffffffffffffffffff1673ffffffffffffffffffffffffffffffffffffffff16815260200190815260200160002060008282546118269190612daf565b925050819055505b5b50505050565b50505050565b600061185c8473ffffffffffffffffffffffffffffffffffffffff16611a90565b156119b5578373ffffffffffffffffffffffffffffffffffffffff1663150b7a02611885610c2d565b8786866040518563ffffffff1660e01b81526004016118a79493929190612e38565b6020604051808303816000875af19250505080156118e357506040513d601f19601f820116820180604052508101906118e09190612e99565b60015b611965573d8060008114611913576040519150601f19603f3d011682016040523d82523d6000602084013e611918565b606091505b50600081510361195d576040517f08c379a000000000000000000000000000000000000000000000000000000000815260040161195490612d2c565b60405180910390fd5b805181602001fd5b63150b7a0260e01b7bffffffffffffffffffffffffffffffffffffffffffffffffffffffff1916817bffffffffffffffffffffffffffffffffffffffffffffffffffffffff1916149150506119ba565b600190505b949350505050565b6060600060016119d184611ab3565b01905060008167ffffffffffffffff8111156119f0576119ef611f66565b5b6040519080825280601f01601f191660200182016040528015611a225781602001600182028036833780820191505090505b509050600082602001820190505b600115611a85578080600190039150507f3031323334353637383961626364656600000000000000000000000000000000600a86061a8153600a8581611a7957611a78612ec6565b5b04945060008503611a30575b819350505050919050565b6000808273ffffffffffffffffffffffffffffffffffffffff163b119050919050565b600080600090507a184f03e93ff9f4daa797ed6e38ed64bf6a1f0100000000000000008310611b11577a184f03e93ff9f4daa797ed6e38ed64bf6a1f0100000000000000008381611b0757611b06612ec6565b5b0492506040810190505b6d04ee2d6d415b85acef81000000008310611b4e576d04ee2d6d415b85acef81000000008381611b4457611b43612ec6565b5b0492506020810190505b662386f26fc100008310611b7d57662386f26fc100008381611b7357611b72612ec6565b5b0492506010810190505b6305f5e1008310611ba6576305f5e1008381611b9c57611b9b612ec6565b5b0492506008810190505b6127108310611bcb576127108381611bc157611bc0612ec6565b5b0492506004810190505b60648310611bee5760648381611be457611be3612ec6565b5b0492506002810190505b600a8310611bfd576001810190505b80915050919050565b6000604051905090565b600080fd5b600080fd5b60007fffffffff0000000000000000000000000000000000000000000000000000000082169050919050565b611c4f81611c1a565b8114611c5a57600080fd5b50565b600081359050611c6c81611c46565b92915050565b600060208284031215611c8857611c87611c10565b5b6000611c9684828501611c5d565b91505092915050565b60008115159050919050565b611cb481611c9f565b82525050565b6000602082019050611ccf6000830184611cab565b92915050565b600081519050919050565b600082825260208201905092915050565b60005b83811015611d0f578082015181840152602081019050611cf4565b60008484015250505050565b6000601f19601f8301169050919050565b6000611d3782611cd5565b611d418185611ce0565b9350611d51818560208601611cf1565b611d5a81611d1b565b840191505092915050565b60006020820190508181036000830152611d7f8184611d2c565b905092915050565b6000819050919050565b611d9a81611d87565b8114611da557600080fd5b50565b600081359050611db781611d91565b92915050565b600060208284031215611dd357611dd2611c10565b5b6000611de184828501611da8565b91505092915050565b600073ffffffffffffffffffffffffffffffffffffffff82169050919050565b6000611e1582611dea565b9050919050565b611e2581611e0a565b82525050565b6000602082019050611e406000830184611e1c565b92915050565b611e4f81611e0a565b8114611e5a57600080fd5b50565b600081359050611e6c81611e46565b92915050565b60008060408385031215611e8957611e88611c10565b5b6000611e9785828601611e5d565b9250506020611ea885828601611da8565b9150509250929050565b600080600060608486031215611ecb57611eca611c10565b5b6000611ed986828701611e5d565b9350506020611eea86828701611e5d565b9250506040611efb86828701611da8565b9150509250925092565b600060208284031215611f1b57611f1a611c10565b5b6000611f2984828501611e5d565b91505092915050565b611f3b81611d87565b82525050565b6000602082019050611f566000830184611f32565b92915050565b600080fd5b600080fd5b7f4e487b7100000000000000000000000000000000000000000000000000000000600052604160045260246000fd5b611f9e82611d1b565b810181811067ffffffffffffffff82111715611fbd57611fbc611f66565b5b80604052505050565b6000611fd0611c06565b9050611fdc8282611f95565b919050565b600067ffffffffffffffff821115611ffc57611ffb611f66565b5b61200582611d1b565b9050602081019050919050565b82818337600083830152505050565b600061203461202f84611fe1565b611fc6565b9050828152602081018484840111156120505761204f611f61565b5b61205b848285612012565b509392505050565b600082601f83011261207857612077611f5c565b5b8135612088848260208601612021565b91505092915050565b6000806000606084860312156120aa576120a9611c10565b5b60006120b886828701611e5d565b93505060206120c986828701611da8565b925050604084013567ffffffffffffffff8111156120ea576120e9611c15565b5b6120f686828701612063565b9150509250925092565b61210981611c9f565b811461211457600080fd5b50565b60008135905061212681612100565b92915050565b6000806040838503121561214357612142611c10565b5b600061215185828601611e5d565b925050602061216285828601612117565b9150509250929050565b600067ffffffffffffffff82111561218757612186611f66565b5b61219082611d1b565b9050602081019050919050565b60006121b06121ab8461216c565b611fc6565b9050828152602081018484840111156121cc576121cb611f61565b5b6121d7848285612012565b509392505050565b600082601f8301126121f4576121f3611f5c565b5b813561220484826020860161219d565b91505092915050565b6000806000806080858703121561222757612226611c10565b5b600061223587828801611e5d565b945050602061224687828801611e5d565b935050604061225787828801611da8565b925050606085013567ffffffffffffffff81111561227857612277611c15565b5b612284878288016121df565b91505092959194509250565b600080604083850312156122a7576122a6611c10565b5b60006122b585828601611e5d565b92505060206122c685828601611e5d565b9150509250929050565b7f4e487b7100000000000000000000000000000000000000000000000000000000600052602260045260246000fd5b6000600282049050600182168061231757607f821691505b60208210810361232a576123296122d0565b5b50919050565b7f4552433732313a20617070726f76616c20746f2063757272656e74206f776e6560008201527f7200000000000000000000000000000000000000000000000000000000000000602082015250565b600061238c602183611ce0565b915061239782612330565b604082019050919050565b600060208201905081810360008301526123bb8161237f565b9050919050565b7f4552433732313a20617070726f76652063616c6c6572206973206e6f7420746f60008201527f6b656e206f776e6572206f7220617070726f76656420666f7220616c6c000000602082015250565b600061241e603d83611ce0565b9150612429826123c2565b604082019050919050565b6000602082019050818103600083015261244d81612411565b9050919050565b7f4552433732313a2063616c6c6572206973206e6f7420746f6b656e206f776e6560008201527f72206f7220617070726f76656400000000000000000000000000000000000000602082015250565b60006124b0602d83611ce0565b91506124bb82612454565b604082019050919050565b600060208201905081810360008301526124df816124a3565b9050919050565b7f4552433732313a20696e76616c696420746f6b656e2049440000000000000000600082015250565b600061251c601883611ce0565b9150612527826124e6565b602082019050919050565b6000602082019050818103600083015261254b8161250f565b9050919050565b7f4552433732313a2061646472657373207a65726f206973206e6f74206120766160008201527f6c6964206f776e65720000000000000000000000000000000000000000000000602082015250565b60006125ae602983611ce0565b91506125b982612552565b604082019050919050565b600060208201905081810360008301526125dd816125a1565b9050919050565b600081905092915050565b60006125fa82611cd5565b61260481856125e4565b9350612614818560208601611cf1565b80840191505092915050565b600061262c82856125ef565b915061263882846125ef565b91508190509392505050565b7f4f776e61626c653a206e6577206f776e657220697320746865207a65726f206160008201527f6464726573730000000000000000000000000000000000000000000000000000602082015250565b60006126a0602683611ce0565b91506126ab82612644565b604082019050919050565b600060208201905081810360008301526126cf81612693565b9050919050565b7f4552433732313a207472616e736665722066726f6d20696e636f72726563742060008201527f6f776e6572000000000000000000000000000000000000000000000000000000602082015250565b6000612732602583611ce0565b915061273d826126d6565b604082019050919050565b6000602082019050818103600083015261276181612725565b9050919050565b7f4552433732313a207472616e7366657220746f20746865207a65726f2061646460008201527f7265737300000000000000000000000000000000000000000000000000000000602082015250565b60006127c4602483611ce0565b91506127cf82612768565b604082019050919050565b600060208201905081810360008301526127f3816127b7565b9050919050565b7f4f776e61626c653a2063616c6c6572206973206e6f7420746865206f776e6572600082015250565b6000612830602083611ce0565b915061283b826127fa565b602082019050919050565b6000602082019050818103600083015261285f81612823565b9050919050565b7f4552433732313a206d696e7420746f20746865207a65726f2061646472657373600082015250565b600061289c602083611ce0565b91506128a782612866565b602082019050919050565b600060208201905081810360008301526128cb8161288f565b9050919050565b7f4552433732313a20746f6b656e20616c7265616479206d696e74656400000000600082015250565b6000612908601c83611ce0565b9150612913826128d2565b602082019050919050565b60006020820190508181036000830152612937816128fb565b9050919050565b7f45524337323155524953746f726167653a2055524920736574206f66206e6f6e60008201527f6578697374656e7420746f6b656e000000000000000000000000000000000000602082015250565b600061299a602e83611ce0565b91506129a58261293e565b604082019050919050565b600060208201905081810360008301526129c98161298d565b9050919050565b60008190508160005260206000209050919050565b60006020601f8301049050919050565b600082821b905092915050565b600060088302612a327fffffffffffffffffffffffffffffffffffffffffffffffffffffffffffffffff826129f5565b612a3c86836129f5565b95508019841693508086168417925050509392505050565b6000819050919050565b6000612a79612a74612a6f84611d87565b612a54565b611d87565b9050919050565b6000819050919050565b612a9383612a5e565b612aa7612a9f82612a80565b848454612a02565b825550505050565b600090565b612abc612aaf565b612ac7818484612a8a565b505050565b5b81811015612aeb57612ae0600082612ab4565b600181019050612acd565b5050565b601f821115612b3057612b01816129d0565b612b0a846129e5565b81016020851015612b19578190505b612b2d612b25856129e5565b830182612acc565b50505b505050565b600082821c905092915050565b6000612b5360001984600802612b35565b1980831691505092915050565b6000612b6c8383612b42565b9150826002028217905092915050565b612b8582611cd5565b67ffffffffffffffff811115612b9e57612b9d611f66565b5b612ba882546122ff565b612bb3828285612aef565b600060209050601f831160018114612be65760008415612bd4578287015190505b612bde8582612b60565b865550612c46565b601f198416612bf4866129d0565b60005b82811015612c1c57848901518255600182019150602085019450602081019050612bf7565b86831015612c395784890151612c35601f891682612b42565b8355505b6001600288020188555050505b505050505050565b7f4552433732313a20617070726f766520746f2063616c6c657200000000000000600082015250565b6000612c84601983611ce0565b9150612c8f82612c4e565b602082019050919050565b60006020820190508181036000830152612cb381612c77565b9050919050565b7f4552433732313a207472616e7366657220746f206e6f6e20455243373231526560008201527f63656976657220696d706c656d656e7465720000000000000000000000000000602082015250565b6000612d16603283611ce0565b9150612d2182612cba565b604082019050919050565b60006020820190508181036000830152612d4581612d09565b9050919050565b7f4e487b7100000000000000000000000000000000000000000000000000000000600052601160045260246000fd5b6000612d8682611d87565b9150612d9183611d87565b9250828203905081811115612da957612da8612d4c565b5b92915050565b6000612dba82611d87565b9150612dc583611d87565b9250828201905080821115612ddd57612ddc612d4c565b5b92915050565b600081519050919050565b600082825260208201905092915050565b6000612e0a82612de3565b612e148185612dee565b9350612e24818560208601611cf1565b612e2d81611d1b565b840191505092915050565b6000608082019050612e4d6000830187611e1c565b612e5a6020830186611e1c565b612e676040830185611f32565b8181036060830152612e798184612dff565b905095945050505050565b600081519050612e9381611c46565b92915050565b600060208284031215612eaf57612eae611c10565b5b6000612ebd84828501612e84565b91505092915050565b7f4e487b7100000000000000000000000000000000000000000000000000000000600052601260045260246000fdfea2646970667358221220e6485976abc44ae905f6cbd7b8caa5e7625a1df7f98fc2221192877f5493844e64736f6c63430008130033",
  "immutableReferences": {},
  "source": "//SPDX-License-Identifier: MIT\npragma solidity >=0.8.8;\nimport \"@openzeppelin/contracts/utils/Counters.sol\";\nimport \"@openzeppelin/contracts/access/AccessControl.sol\";\nimport \"./Tender.sol\";\nimport \"./NFTColl.sol\";\n\ncontract TenderFactory is AccessControl {\n    using Counters for Counters.Counter;\n    struct TenderInfo {\n        uint256 id;\n        bool status;\n        string URI;\n        Tender tender;\n        address win;\n    }\n\n    bytes32 private constant ADMIN = keccak256(\"ADMIN\");\n    TenderInfo[] private tendersInfo;\n    Counters.Counter private _numTender;\n    NFTColl private NFT;\n\n    modifier notAdmin(address partecipant) {\n        if (hasRole(ADMIN, partecipant)) revert();\n        _;\n    }\n\n    constructor(string memory name, string memory symbol) {\n        NFT = new NFTColl(name, symbol);\n        _grantRole(ADMIN, msg.sender);\n    }\n\n    function openNewTender(string memory tokenURI) public onlyRole(ADMIN) {\n        require(bytes(tokenURI).length > 0);\n        Tender newtender = new Tender();\n        newtender.openTender();\n        tendersInfo.push(\n            TenderInfo(\n                _numTender.current(),\n                true,\n                tokenURI,\n                newtender,\n                address(0)\n            )\n        );\n        _numTender.increment();\n    }\n\n    function newProposal(uint256 quote, uint256 id)\n        public\n        notAdmin(msg.sender)\n    {\n        require(tendersInfo[id].status);\n        tendersInfo[id].tender.sendProposal(msg.sender, quote);\n    }\n\n    function assignWinner(uint256 id) \n        public \n        onlyRole(ADMIN) \n    {\n        require(tendersInfo[id].status);\n        tendersInfo[id].tender.closeTender();\n        tendersInfo[id].status = false;\n        tendersInfo[id].win = tendersInfo[id].tender.getWinner();\n        NFT.Mint(tendersInfo[id].win, id, tendersInfo[id].URI);\n    }\n\n    function getTenders() public view returns (TenderInfo[] memory) {\n        return tendersInfo;\n    }\n}\n",
  "sourcePath": "/home/daniele/Scrivania/ProgettoSicurezza/ProgSicDeiDati/truffle/contracts/TenderFactory.sol",
  "compiler": {
    "name": "solc",
    "version": "0.8.19+commit.7dd6d404.Emscripten.clang"
  },
  "schemaVersion": "3.4.11",
  "updatedAt": "2023-03-07T19:47:39.030Z",
  "networkType": "ethereum",
  "devdoc": {
    "events": {
      "RoleAdminChanged(bytes32,bytes32,bytes32)": {
        "details": "Emitted when `newAdminRole` is set as ``role``'s admin role, replacing `previousAdminRole` `DEFAULT_ADMIN_ROLE` is the starting admin for all roles, despite {RoleAdminChanged} not being emitted signaling this. _Available since v3.1._"
      },
      "RoleGranted(bytes32,address,address)": {
        "details": "Emitted when `account` is granted `role`. `sender` is the account that originated the contract call, an admin role bearer except when using {AccessControl-_setupRole}."
      },
      "RoleRevoked(bytes32,address,address)": {
        "details": "Emitted when `account` is revoked `role`. `sender` is the account that originated the contract call:   - if using `revokeRole`, it is the admin role bearer   - if using `renounceRole`, it is the role bearer (i.e. `account`)"
      }
    },
    "kind": "dev",
    "methods": {
      "getRoleAdmin(bytes32)": {
        "details": "Returns the admin role that controls `role`. See {grantRole} and {revokeRole}. To change a role's admin, use {_setRoleAdmin}."
      },
      "grantRole(bytes32,address)": {
        "details": "Grants `role` to `account`. If `account` had not been already granted `role`, emits a {RoleGranted} event. Requirements: - the caller must have ``role``'s admin role. May emit a {RoleGranted} event."
      },
      "hasRole(bytes32,address)": {
        "details": "Returns `true` if `account` has been granted `role`."
      },
      "renounceRole(bytes32,address)": {
        "details": "Revokes `role` from the calling account. Roles are often managed via {grantRole} and {revokeRole}: this function's purpose is to provide a mechanism for accounts to lose their privileges if they are compromised (such as when a trusted device is misplaced). If the calling account had been revoked `role`, emits a {RoleRevoked} event. Requirements: - the caller must be `account`. May emit a {RoleRevoked} event."
      },
      "revokeRole(bytes32,address)": {
        "details": "Revokes `role` from `account`. If `account` had been granted `role`, emits a {RoleRevoked} event. Requirements: - the caller must have ``role``'s admin role. May emit a {RoleRevoked} event."
      },
      "supportsInterface(bytes4)": {
        "details": "See {IERC165-supportsInterface}."
      }
    },
    "version": 1
  },
  "userdoc": {
    "kind": "user",
    "methods": {},
    "version": 1
  }
}